:040000000CEF00F011
:10000800FACF9EF1FBCF9FF1E9CFA0F1ABED0FF056
:040018007BEF11F079
:100D000001000A006400E8031027476F7420612087
:100D1000736C617665207265717565737421002549
:100D200073222573223A20222573222C0A7D002566
:100D300073222573223A2025642C0A7D00546861B1
:100D40006E6B7321203A44007375626A65637400A8
:100D5000286E756C6C2900406D6F746F72002225CF
:100D600073223A20002225732225730066726F6D6C
:100D70000025640A00736574007B0A7D0073756248
:100D8000006D7367006B6579002C0A0063630025B2
:100D90006400746F0000E8CF19F0B9D11850250A2B
:100DA000D8B401D001D037D01950D96EDA6A020E0A
:100DB000D926DA6ADE50DD10D8B401D001D017D0C0
:100DC0001950D96EDA6A020ED926DA6ADECF0FF030
:100DD000DDCF10F001D80AD00500FA6E0F50FD6E7D
:100DE0001050FE6EFF6AFA501850120090D1195040
:100DF000D96EDA6ADECF0FF0DDCF10F00FC0D9FF69
:100E000010C0DAFF18C0DFFF1950D96EDA6ADE2A87
:100E1000000EDD227CD1126A88D00E50D96EDA6ABB
:100E2000020EDF26DF5CD96EDA6ADECF14F0DECF89
:100E300015F015501410D8A401D001D05FD0500E79
:100E4000146E0D0E156E5AD01950D96EDA6A020E54
:100E5000D926DA6ADE50DD10D8B401D001D029D00D
:100E60001950D96EDA6A020ED926DA6ADECF0FF08F
:100E7000DDCF10F001D81AD00500FA6E0F50FD6ECC
:100E80001050FE6EFF6AFA5014C0F6FF15C0F7FF4F
:100E9000000EF86E0C0EF76403D00800F55005D074
:100EA000F6CFE9FFF7CFEAFFEF501200144A152AF8
:100EB00025D014C0F6FF15C0F7FF000EF86E1950CC
:100EC000D96EDA6ADECF0FF0DDCF10F00FC0D9FF98
:100ED00010C0DAFF0C0EF76403D00800F55005D0FF
:100EE000F6CFE9FFF7CFEAFFEF50DF6E144A152A7D
:100EF0001950D96EDA6ADE2A000EDD2214C0F6FF20
:100F000015C0F7FF000EF86E0C0EF76403D0080052
:100F1000F55005D0F6CFE9FFF7CFEAFFEF50000913
:100F2000D8A401D001D090D7F2D00D2A0D040F6EB5
:100F30000FC0F6FF0D0EF76E000EF86E0800F5CF2D
:100F400018F01850000AD8B4F2D0640AD8B407D008
:100F50000D0AD8B404D01A0AD8B45FD7D8D00E502E
:100F6000D96EDA6A020EDF26DF5CD96EDA6ADECF6E
:100F700014F0DECF15F015AE01D001D006D0030E6F
:100F80001212146C151ED8B0152A010E186E1850C6
:100F9000020DF350000F0F6E0FC0F6FF0D0EF76E2F
:100FA000000EF86E0900F5CF10F00900F5CF11F032
:100FB0001050145C11501558D8B001D001D001D098
:100FC00007D0182A1850050AD8A401D001D0DFD7BD
:100FD0001250030BD8B401D001D036D01950D96EBD
:100FE000DA6A020ED926DA6ADE50DD10D8B401D0F2
:100FF00001D017D01950D96EDA6A020ED926DA6AF2
:10100000DECF0FF0DDCF10F001D80AD00500FA6E68
:101010000F50FD6E1050FE6EFF6AFA502D0E12003A
:1010200013D01950D96EDA6ADECF0FF0DDCF10F091
:101030000FC0D9FF10C0DAFF2D0EDF6E1950D96E28
:10104000DA6ADE2A000EDD2218C013F05AD01350DF
:10105000020DF350000F0F6E0FC0F6FF0D0EF76E6E
:10106000000EF86E0900F5CF03F00A00F5CF04F08A
:1010700014C001F015C002F0FDEC14F001C008F03E
:1010800002C009F0000E0B6E0A0E0A6E7FEC15F01E
:101090000850300F186E1950D96EDA6A020ED92630
:1010A000DA6ADE50DD10D8B401D001D017D0195063
:1010B000D96EDA6A020ED926DA6ADECF0FF0DDCFFA
:1010C00010F001D80AD00500FA6E0F50FD6E1050D6
:1010D000FE6EFF6AFA501850120013D01950D96EE4
:1010E000DA6ADECF0FF0DDCF10F00FC0D9FF10C0ED
:1010F000DAFF18C0DFFF1950D96EDA6ADE2A000E57
:10110000DD2213061328D8A401D001D0A0D70D2AC0
:101110000D040F6E0FC0F6FF0D0EF76E000EF86E89
:101120000800F5CF18F0186601D001D037D60D6A47
:101130000E6A12004CC048F04DC049F048C028F07B
:1011400049C029F0920E2A6E0201020E2C6E000E8A
:101150002B6E34EC0CF002010051230AD8A401D00C
:1011600001D075D0010115511411D8B401D001D0AE
:101170001ED0010E026E000E016E0201020E046E00
:10118000000E036E9CEC13F002500110D8A401D0A5
:1011900001D00DD001D80AD00500FA6E010114511A
:1011A000FD6E1551FE6EFF6AFA50120049D0010122
:1011B0002B512A11D8B401D001D01ED0010E026EDD
:1011C000160E016E0201020E046E000E036E9CEC00
:1011D00013F002500110D8A401D001D00DD001D8D5
:1011E0000AD00500FA6E01012A51FD6E2B51FE6EE8
:1011F000FF6AFA50120024D0010141514011D8B4C5
:1012000001D001D01DD0010E026E2C0E016E020124
:10121000020E046E000E036E9CEC13F002500110DF
:10122000D8A401D001D00CD001D80AD00500FA6EA4
:1012300001014051FD6E4151FE6EFF6AFA501200ED
:1012400048C013F049C014F0C6EC0EF0B0D0020E46
:10125000026E000E016E0101010E046E800E036E1F
:101260009CEC13F002500110D8A401D001D09FD003
:1012700048C028F049C029F07D0E2A6E0201020EF6
:101280002C6E000E2B6E34EC0CF002010051630A40
:10129000D8A401D001D041D00151630AD8A401D013
:1012A00001D03BD048C028F049C029F0850E2A6EF5
:1012B00072EC0BF028C046F029C047F047500001FF
:1012C000611902E146506019D8A401D001D00ED0B6
:1012D00062C005F063C006F048C007F049C008F0DE
:1012E000C6EC11F000016069616961D04750651971
:1012F00002E146506419D8A401D001D058D066C08C
:1013000005F067C006F048C007F049C008F0C6EC19
:1013100011F00001646965694AD00001B051AF1154
:10132000D8B401D001D01ED0000E026E9B0E016E0B
:101330000201020E046E000E036E9CEC13F00250CC
:101340000110D8A401D001D00DD001D80AD00500D9
:10135000FA6E0001AF51FD6EB051FE6EFF6AFA5099
:10136000120025D00001C651C511D8B401D001D05A
:101370001ED0000E026EB10E016E0201020E046E4E
:10138000000E036E9CEC13F002500110D8A401D0A3
:1013900001D00DD001D80AD00500FA6E0001C55168
:1013A000FD6EC651FE6EFF6AFA50120000D01200A8
:1013B000C7A601D001D010D0C7B401D001D00CD045
:1013C000C7BA01D001D008D0C7A001D001D004D045
:1013D000C950C688826B836BC7B601D001D004D0D8
:1013E000C7A801D001D040D0C7B401D001D03CD0B3
:1013F000C7AA01D001D038D0C7A001D001D034D0C5
:10140000C9CF22F0236A0201960E00018225D96E0F
:101410000201020E00018321DA6E22C0DFFF020109
:10142000960E00018225D96E0201020E0001832171
:10143000DA6EDF50D8A401D001D011D08F518E11B7
:10144000D8B401D001D00BD08EC005F08FC006F00B
:101450000201020E086E960E076EC6EC11F0000136
:10146000824B832BC6887BD0C7A601D001D034D055
:10147000C7A401D001D030D0C7BA01D001D02CD040
:101480008D518C11D8A401D001D018D09151901158
:10149000D8B401D001D00BD001D809D00500FA6E24
:1014A0009051FD6E9151FE6EFF6AFA501200000ECF
:1014B00000018D6F010E8C6F846B856BC95002012A
:1014C000960E00018425D96E0201020E00018521CD
:1014D000DA6EDF50C96EC6D7C7A601D001D032D0B0
:1014E000C7A401D001D02ED0C7AA01D001D02AD0E4
:1014F000C7B001D001D026D08D518C11D8B401D005
:1015000001D02DD0844B852B0201960E000184253D
:10151000D96E0201020E00018521DA6EDF50C96E1C
:101520000201960E00018425D96E0201020E00010F
:101530008521DA6EDF50D8A401D001D093D78C6B0F
:101540008D6B90D7C7A601D001D009D0C7AA01D012
:1015500001D005D0C7B001D001D001D000D0120019
:1015600000017D517C11D8B401D001D09BD0C8516D
:10157000C711D8B401D001D02CD0C90E176E17C036
:1015800001F0026A13C003F014C004F09CEC13F0E5
:1015900002500110D8A401D001D01BD0C7C00BF05D
:1015A000C8C00CF015C00DF016C00EF015C001F04B
:1015B00016C002F0F1EC15F0010E01240F6E000EC2
:1015C0000220106E000E126E000E116E80EC10F0F4
:1015D00088D00001DE51DD11D8B401D001D02CD06B
:1015E000DF0E176E17C001F0026A13C003F014C0BB
:1015F00004F09CEC13F002500110D8A401D001D0EB
:101600001BD0DDC00BF0DEC00CF015C00DF016C015
:101610000EF015C001F016C002F0F1EC15F0010E4D
:1016200001240F6E000E0220106E000E126E000ECE
:10163000116E80EC10F055D0010143514211D8B425
:1016400001D001D02FD0440E176E010E186E17C0B6
:1016500001F018C002F013C003F014C004F09CECB9
:1016600013F002500110D8A401D001D01BD042C108
:101670000BF043C10CF015C00DF016C00EF015C0F4
:1016800001F016C002F0F1EC15F0010E01240F6E0E
:10169000000E0220106E000E126E000E116E80EC15
:1016A00010F01FD000017F517E11D8B401D001D0BD
:1016B0000BD00A010A0E026E000E016E15C003F077
:1016C00016C004F0CCEC15F000017B517A11D8B4AF
:1016D00001D001D006D015C007F016C008F05CECB0
:1016E00013F012000301030E1B6E000E1A6E5E0E45
:1016F0001C6E2AC01DF00D0E1E6E9FEC16F028C049
:101700000CF029C00DF00301030E0F6E000E0E6EDB
:101710002AEC11F00CC03BF00DC03CF03BC00CF0CB
:101720003CC00DF0630E0E6E0D0E0F6E2AEC11F024
:101730000CC03BF00DC03CF03B4A3C2A3C503B10F7
:10174000D8B401D001D08BD03BC00CF03CC00DF020
:10175000890E0E6E0D0E0F6E2AEC11F00CC02DF0DE
:101760000DC02EF03BC001F03CC002F0F1EC15F0D2
:1017700001C02FF002C030F02DC001F02EC002F0E9
:10178000F1EC15F001C031F002C032F031502F5CA5
:10179000356E32503058366E376A386A11D037504D
:1017A0003B24D96E38503C20DA6E0301000E3724FA
:1017B000E16E030E3820E26EDFCFE7FF374A382AAA
:1017C0003850800A2B6E3550375C3650800A2B58C3
:1017D000D8A001D001D0E3D70301000E3524D96E83
:1017E000030E3620DA6E000EDF6E0051220AD8A4F6
:1017F00001D001D025D0030E3A6E000E396E394A61
:101800003A2A39C001F03AC002F0F1EC15F001506B
:1018100039242B6E02503A202C6EFF0E2B24D96EE9
:10182000FF0E2C20DA6E000EDF6E39C007F03AC0D2
:1018300008F03DEC0FF007C033F008C034F00AD0D8
:10184000030E086E000E076E3DEC0FF007C033F07C
:1018500008C034F033C028F034C029F004D0020EA0
:10186000296E9A0E286E12000301030E1B6E000EE5
:101870001A6E650E1C6E2AC01DF00D0E1E6E620ED5
:101880001F6E0D0E206E9FEC16F028C00CF029C0C4
:101890000DF00301030E0F6E000E0E6E2AEC11F018
:1018A0000CC043F00DC044F043C00CF044C00DF038
:1018B000630E0E6E0D0E0F6E2AEC11F00CC043F08D
:1018C0000DC044F0434A442A44504310D8B401D0D8
:1018D00001D088D043C00CF044C00DF0890E0E6ECC
:1018E0000D0E0F6E2AEC11F00CC039F00DC03AF05D
:1018F00043C001F044C002F0F1EC15F001C031F03A
:1019000002C032F0336A346A39C001F03AC002F0E2
:10191000F1EC15F001C035F002C036F0376A386AD4
:101920003550315C3B6E365032583C6E3750335830
:101930003D6E385034583E6E3F6A406A11D03F5079
:101940004324D96E40504420DA6E0301000E3F2438
:10195000E16E030E4020E26EDFCFE7FF3F4A402AF0
:101960003FC02DF040C02EF0000E2EBEFF0E2F6E99
:10197000306E3B502D5C3C502E583D502F583E5001
:101980003058D8A001D001D0DAD70301000E3B2493
:10199000D96E030E3C20DA6E000EDF6E030E426E2F
:1019A000000E416E414A422A41C001F042C002F09D
:1019B000F1EC15F0015041242D6E025042202E6EA4
:1019C000FF0E2D24D96EFF0E2E20DA6E000EDF6E74
:1019D0002BC001F02CC002F041C003F042C004F063
:1019E000DCEC13F0120056045710D8A401D001D03B
:1019F00010D020EE02F05450D9265550DA22DF5094
:101A0000096ED8800934C96E000E576E060E566EE8
:101A100097D05650060A5710D8A401D001D006D04E
:101A2000C586000E576E050E566E8AD05650020AB5
:101A30005710D8B401D001D007D05650050A57101E
:101A4000D8A401D001D048D020EE9CF05450D92623
:101A50005550DA22DECF09F0DDCF0AF009505424C8
:101A60000B6E0A5055200C6E040E0B24D96E000E1E
:101A70000C20DA6EC9CFDFFF20EE9CF05450D9263F
:101A80005550DA22DECF09F0DDCF0AF00950542498
:101A90000B6E0A5055200C6E040E0B24D96E000EEE
:101AA0000C20DA6EDF50D8A401D001D006D0C58456
:101AB000000E576E040E566E05D0000E576E060EC1
:101AC000566EC58820EE9CF05450D9265550DA2227
:101AD000DE2A000EDD2234D05650040A5710D8A456
:101AE00001D001D02DD020EE9EF05450D926555073
:101AF000DA22DE50DD10D8B401D001D012D020EEB1
:101B00009EF05450D9265550DA22DECF05F0DDCFB5
:101B100006F0040E5424076E000E5520086EC6EC25
:101B200011F020EE02F05450D9265550DA22FF0E63
:101B3000DE6EFF0EDD6E546A556A2AEC15F000D099
:101B4000120056045710D8A401D001D010D020EEB6
:101B500002F05450D9265550DA22DF50096ED89041
:101B60000934C96E000E576E020E566E86D056505E
:101B7000020A5710D8B401D001D007D05650030A3A
:101B80005710D8A401D001D047D020EE9CF054507B
:101B9000D9265550DA2210EE9AF05450E1265550CD
:101BA000E222E652DE52E550800A096EDD50800ADC
:101BB000095C02E1DF50E75CD8B001D001D026D04B
:101BC00020EE9AF05450D9265550DA22DECF09F093
:101BD000DDCF0AF0095054240B6E0A5055200C6ECC
:101BE000040E0B24D96E000E0C20DA6EDF50C96E85
:101BF00020EE9AF05450D9265550DA22DE2A000EF3
:101C0000DD22000E576E030E566E37D0C584000ECF
:101C1000576E040E566E31D05650040A5710D8A491
:101C200001D001D02AD020EE9EF05450D926555034
:101C3000DA22DE50DD10D8B401D001D010D020EE71
:101C40009EF05450D9265550DA22DECF05F0DDCF74
:101C500006F0000E086E000E076EC6EC11F020EEC6
:101C600002F05450D9265550DA22FF0EDE6EFF0ED8
:101C7000DD6E546A556A2AEC15F01200E8CF45F083
:101C80004CC028F04DC029F0850E2A6E72EC0BF086
:101C900028C076F029C077F000017629D8B47729DA
:101CA000D8A401D001D001D070D04CC028F04DC0D4
:101CB00029F0920E2A6E0101010E2C6E6C0E2B6E15
:101CC00034EC0CF04CC028F04DC029F06C0E2A6E9C
:101CD0000101010E2C6E580E2B6E34EC0CF002013B
:101CE000020E296E000E286E67EC17F00201020E3C
:101CF000296E000E286E850E2A6E76C02BF077C0F6
:101D00002CF057EC14F00201020E296E000E286E22
:101D1000920E2A6E0101010E2C6E580E2B6E1AECDB
:101D200014F00201020E296E000E286E6C0E2A6E4F
:101D30000101010E2C6E6C0E2B6E1AEC14F00201D8
:101D4000020E296E000E286E480E2A6E8C0E2B6E27
:101D50000D0E2C6E1AEC14F00201020E296E000E0C
:101D6000286E810E2A6E45C02BF00D0E2C6E1AECDB
:101D700014F00101010E146E580E136E0201020ED2
:101D8000166E000E156EB0EC0AF0120000017D51C7
:101D90007C11D8B401D001D062D0C851C711D8B4D9
:101DA00001D001D01AD0C7C00BF0C8C00CF013C0CE
:101DB0000DF014C00EF013C001F014C002F0F1ECED
:101DC00015F0010E01240F6E000E0220106E000EA1
:101DD000126E000E116E80EC10F00001DE51DD116C
:101DE000D8B401D001D01AD0DDC00BF0DEC00CF0A9
:101DF00013C00DF014C00EF013C001F014C002F0B7
:101E0000F1EC15F0010E01240F6E000E0220106E91
:101E1000000E126E000E116E80EC10F001014351A5
:101E20004211D8B401D001D01AD042C10BF043C145
:101E30000CF013C00DF014C00EF013C001F014C06C
:101E400002F0F1EC15F0010E01240F6E000E0220DD
:101E5000106E000E126E000E116E80EC10F000017C
:101E60007B517A11D8B401D001D006D013C007F04D
:101E700014C008F05CEC13F0120002D0074A082AE4
:101E800007C0D9FF08C0DAFFDF50200AD8B401D05C
:101E900001D0F4D707C0D9FF08C0DAFFDF50090A24
:101EA000D8B401D001D0EAD70C6A0D6A0B6A2D0EA6
:101EB00007C0D9FF08C0DAFFDF6201D001D004D02B
:101EC0000B2A074A082A25D02B0E07C0D9FF08C0C5
:101ED000DAFFDF6201D001D01CD0074A082A19D0EE
:101EE0000CC001F00DC002F0000E046E0A0E036E6D
:101EF00053EC16F007C0D9FF08C0DAFFDF50012607
:101F0000000E0222D00E01240C6EFF0E02200D6E78
:101F1000E4D707C0D9FF08C0DAFFDF50C8EC16F0DD
:101F2000D8B001D001D0DCD70B50D8B401D001D04B
:101F30000DD00CC009F00DC00AF0091E0A1E094A96
:101F40000A2A09C007F00AC008F004D00CC007F044
:101F50000DC008F012000600EACFA1F1E1CFA2F116
:101F6000E2CFA3F1D9CFA4F1DACFA5F1F3CFA6F157
:101F7000F4CFA7F1F6CFA8F1F7CFA9F1F8CFAAF1E6
:101F8000F5CFABF19EA601D001D012D09E960001F4
:101F90008B518A11D8B401D001D002D0D8EC09F00D
:101FA00093519211D8B401D001D002D00FEC17F0A8
:101FB000F2A401D001D003D0F29451EC17F09EAA04
:101FC00001D001D002D094EC14F09EA801D001D031
:101FD00002D054EC12F00FEC12F00001795178119C
:101FE000D8B401D001D006D0000E026E070E016EEB
:101FF0003AEC17F0ABC1F5FFAAC1F8FFA9C1F7FF92
:10200000A8C1F6FFA7C1F4FFA6C1F3FFA5C1DAFF7F
:10201000A4C1D9FFA3C1E2FFA2C1E1FFA1C1EAFFB0
:10202000A0C1E9FF9FC1FBFF9EC1FAFF11000001A3
:1020300069516811D8B401D001D01BD04AC001F059
:102040004BC002F06AC003F06BC004F097EC12F0D2
:1020500002500110D8A401D001D00BD001D809D072
:102060000500FA6E6851FD6E6951FE6EFF6AFA5006
:10207000120000016D516C11D8B401D001D01BD0F9
:102080004AC001F04BC002F06EC003F06FC004F014
:1020900097EC12F002500110D8A401D001D00BD05F
:1020A00001D809D00500FA6E6C51FD6E6D51FE6EBF
:1020B000FF6AFA501200000171517011D8B401D0BA
:1020C00001D01BD04AC001F04BC002F072C003F037
:1020D00073C004F097EC12F002500110D8A401D0A4
:1020E00001D00BD001D809D00500FA6E7051FD6EF9
:1020F0007151FE6EFF6AFA5012004A4A4B2A1200D2
:1021000004010229D8B40329D8A401D001D022D0D7
:102110000BC002F40CC003F4040E026E040E016E38
:102120000DC003F00EC004F00FC005F010C006F0A3
:1021300015EC16F004019A6B9B6B0FC09CF410C059
:102140009DF411C09EF412C09FF4000E016F010EA9
:10215000006F29D005010229D8B40329D8A401D0E1
:1021600001D021D00BC002F50CC003F59A6B9B6B1C
:10217000050E026E040E016E0DC003F00EC004F0D9
:102180000FC005F010C006F015EC16F00FC09CF55E
:1021900010C09DF511C09EF512C09FF5000E0501FF
:1021A000016F010E006F2AEC15F0120046D005C039
:1021B000D9FF06C0DAFFDF50D8B401D001D01CD05F
:1021C00007C0F6FF08C0F7FF000EF86E0C0EF764AC
:1021D00003D00800F55005D0F6CFE9FFF7CFEAFFAE
:1021E000EF500B6E05C0D9FF06C0DAFFDF500B18A9
:1021F000D8B401D001D01DD005C0D9FF06C0DAFF88
:10220000DF500B6E07C0F6FF08C0F7FF000EF86E38
:102210000C0EF76403D00800F55005D0F6CFE9FFA7
:10222000F7CFEAFFEF500B5C056E066AD8A00606F2
:1022300010D0054A062A074A082A0906D8A00A0625
:102240000928D8B40A28D8A401D001D0B0D7056A8B
:10225000066A12003ED00CC005F00DC006F00EC09C
:1022600007F00FC008F00EC001F00FC002F0F1EC53
:1022700015F001C009F002C00AF0D6EC10F00650CB
:102280000510D8A401D001D005D00CC00CF00DC0B1
:102290000DF030D0010E0C24016E000E0D20026EE8
:1022A0000EC0F6FF0FC0F7FF000EF86E0C0EF764BD
:1022B00003D00800F55005D0F6CFE9FFF7CFEAFFCD
:1022C000EF50036E046A37EC16F001C00CF002C048
:1022D0000DF00D500C10D8B401D001D009D00CC0B5
:1022E000D9FF0DC0DAFFDF50D8A401D001D0B3D799
:1022F0000C6A0D6A12000AEE00F0960EEE6AE8060D
:10230000FDE109EE00F0960EEE6AE806FDE108EE4A
:1023100000F0960EEE6AE806FDE107EE00F0960E7C
:10232000EE6AE806FDE106EE00F0960EEE6AE806BB
:10233000FDE105EE00F0A00EEE6AE806FDE104EE18
:1023400000F0A00EEE6AE806FDE103EE00F0FA0EE2
:10235000EE6AE806FDE102EE00F0FA0EEE6AE8062B
:10236000FDE101EE00F09E0EEE6AE806FDE100EEF2
:1023700060F0930EEE6AE806FDE100EE4AF00E0E04
:10238000EE6AE806FDE10001B5EF16F04F504E1081
:10239000D8A401D001D010D00701070E026E000EA4
:1023A000016E07C003F008C004F0DCEC13F005C0B8
:1023B0004EF006C04FF032D051505010D8A401D08A
:1023C00001D010D00801080E026E000E016E07C089
:1023D00003F008C004F0DCEC13F005C050F006C0B8
:1023E00051F01CD053505210D8A401D001D010D0BD
:1023F0000901090E026E000E016E07C003F008C04D
:1024000004F0DCEC13F005C052F006C053F006D027
:10241000000E026E010E016E3AEC17F012004F50E2
:102420004E10D8B401D001D010D00701070E4D6E68
:10243000000E4C6E01D809D00500FA6E4E50FD6EAC
:102440004F50FE6EFF6AFA50120051505010D8B42F
:1024500001D001D010D00801080E4D6E000E4C6E58
:1024600001D809D00500FA6E5050FD6E5150FE6E35
:10247000FF6AFA50120053505210D8B401D001D064
:1024800010D00901090E4D6E000E4C6E01D809D016
:102490000500FA6E5250FD6E5350FE6EFF6AFA5000
:1024A000120080EC17F01200000189518811D8B495
:1024B00001D001D002D09D9839D00301960E0001C1
:1024C0009425D96E0301030E00019521DA6EDF50C9
:1024D000D8A401D001D00AD0AD6A946B956B966BED
:1024E000976B000E896F010E886F20D00301960E46
:1024F00000019425D96E0301030E00019521DA6EC7
:10250000010EDF6201D001D004D0AD6A944B952B4F
:102510000DD00301960E00019425D96E0301030E20
:1025200000019521DA6EDF50AD6EF0D71200066A19
:1025300002AE01D001D006D0016C021ED8B0022A32
:10254000010E066E04AE01D001D004D0036C041E4F
:10255000D8B0042A04500310D8B401D001D01CD044
:10256000010E056E04D0D89003360436052A04AE59
:1025700001D001D0F8D70350015C04500258D8A014
:1025800001D001D004D00350015E0450025AD8900B
:1025900004320332052EEFD70650D8B401D001D053
:1025A00004D0016C021ED8B0022A01C001F002C0A2
:1025B00002F012009A6701D001D011D0D58ED58CCF
:1025C000D59AD596D550F80B0209D56EF28A686B6C
:1025D000696B6C6B6D6B706B716B010E9A6F6951EF
:1025E0006811D8A401D001D009D0F5C068F0F6C0B8
:1025F00069F0F3C06AF0F4C06BF01DD06D516C113E
:10260000D8A401D001D009D0F5C06CF0F6C06DF0AF
:10261000F3C06EF0F4C06FF00ED071517011D8A4F9
:1026200001D001D008D0F5C070F0F6C071F0F3C051
:1026300072F0F4C073F01200F651F511D8A401D075
:1026400001D01DD038D00001F5C0F6FFF6C0F7FF6D
:10265000000EF86EF3C0D9FFF4C0DAFF0C0EF76479
:1026600003D00800F55005D0F6CFE9FFF7CFEAFF19
:10267000EF50DF6E0001F34BF42BF54BF62BF5C05A
:10268000F6FFF6C0F7FF000EF86E0C0EF76403D0ED
:102690000800F55005D0F6CFE9FFF7CFEAFFEF507D
:1026A0000009D8A401D001D0CED7F3C0D9FFF4C01F
:1026B000DAFF000EDF6E120097519611D8A401D0F8
:1026C00001D00CD00301030E026E960E016E07C0FE
:1026D00003F008C004F0CCEC15F01FD00301960EF7
:1026E00000019625D96E0301030E00019721DA6ED1
:1026F000010EDF6E0301970E00019625016E0301A6
:10270000030E00019721026E07C003F008C004F019
:10271000CCEC15F00001964B972B07C001F008C0D8
:1027200002F0F1EC15F001500001962702509723BA
:102730009D88886B896B120004D0014A022A034AE3
:10274000042A03C0D9FF04C0DAFFDF50056E01C0C0
:10275000F6FF02C0F7FF000EF86E0C0EF76403D010
:102760000800F55005D0F6CFE9FFF7CFEAFFEF50AC
:10277000066E0550065C076E076601D001D016D0C4
:1027800001C0F6FF02C0F7FF000EF86E0C0EF764F2
:1027900003D00800F55005D0F6CFE9FFF7CFEAFFE8
:1027A000EF500009D8A401D001D0C7D70750016E5F
:1027B000026A01BE0206120004500310D8A401D020
:1027C00001D01BD036D003C0F6FF04C0F7FF000EC7
:1027D000F86E01C0D9FF02C0DAFF0C0EF76403D017
:1027E0000800F55005D0F6CFE9FFF7CFEAFFEF502C
:1027F000DF6E014A022A034A042A03C0F6FF04C01E
:10280000F7FF000EF86E0C0EF76403D00800F550C9
:1028100005D0F6CFE9FFF7CFEAFFEF500009D8A4C3
:1028200001D001D0D0D701C0D9FF02C0DAFF000E1D
:10283000DF6E120028C001F029C002F0F1EC15F0A3
:1028400001C02FF002C030F0316A326A28C02DF08A
:1028500029C02EF02F502D2630502E22FF0E2D2471
:10286000D96EFF0E2E20DA6E000EDF6E0301030E0E
:10287000026E000E016E28C003F029C004F0DCECEB
:1028800013F028C01AF029C01BF01F0E1C6E0301A4
:10289000030E1E6E000E1D6E2AC01FF00D0E206E60
:1028A0002BC021F02CC022F09FEC16F0120028C0A3
:1028B00001F029C002F0F1EC15F001C02FF002C0C8
:1028C00030F0316A326A28C02DF029C02EF02F5026
:1028D0002D2630502E22FF0E2D24D96EFF0E2E20D5
:1028E000DA6E000EDF6E0301030E026E000E016E43
:1028F00028C003F029C004F0DCEC13F028C01AF063
:1029000029C01BF02F0E1C6E0301030E1E6E000E5D
:102910001D6E2AC01FF00D0E206E2BC021F02CC0A2
:1029200022F09FEC16F01200AB50AECF09F0096612
:1029300001D001D020D00601000E00018025D96E03
:102940000601060E00018121DA6E000EDF6E806B3B
:10295000816B87518611D8B401D001D01AD086C0BE
:1029600005F087C006F00601060E086E000E076E21
:10297000C6EC11F00ED00601000E00018025D96EC4
:102980000601060E00018121DA6E09C0DFFF804BCF
:10299000812B1200E8CFF9F0B051AF11D8A401D0CB
:1029A00001D00FD0F7C0AFF0F8C0B0F0000EF46F58
:1029B0009B0EF36FF9C0F5F00D0EF66F1CEC13F0E3
:1029C0001BD0C651C511D8A401D001D00FD0F7C07B
:1029D000C5F0F8C0C6F0000EF46FB10EF36FF9C089
:1029E000F5F00D0EF66F1CEC13F006D0000EF46F30
:1029F000030EF36F46EC17F01200056A066A0450E6
:102A00000310D8B401D001D020D0010E076E04D03D
:102A1000D89003360436072A04AE01D001D0F8D787
:102A2000D890053606360350015C04500258D8A0F1
:102A300001D001D005D00350015E0450025A058038
:102A4000D89004320332072EEBD705C001F006C040
:102A500002F0120055505410D8A401D001D024D057
:102A600004010229D8B40329D8B401D001D005D07B
:102A7000040E556E000E546E0CD005010229D8B418
:102A80000329D8B401D001D004D0050E556E000E34
:102A9000546E55505410D8B401D001D005D0000E5A
:102AA000576E010E566EC5801200E8CFF9F0010195
:102AB000010E0001F46F0101800E0001F36FF9C0F7
:102AC000F5F00D0EF66FA6EC15F000016069616976
:102AD000646965690101146B156B2A6B2B6B406B84
:102AE000416B0001C76BC86BDD6BDE6B0101426B94
:102AF000436B0001AF6BB06BC56BC66B12000B5024
:102B00000A10D8B401D001D01CD0010E0C6E04D034
:102B1000D8900A360B360C2A0BAE01D001D0F8D76C
:102B20000A50085C0B500958D8A001D001D004D03D
:102B30000A50085E0B50095AD8900B320A320C2EFC
:102B4000EFD708C008F009C009F01200F3C0F7F091
:102B5000F4C0F8F005D00001F74BF82BF54BF62B3D
:102B6000F5C0F6FFF6C0F7FF000EF86EF7C0D9FF0C
:102B7000F8C0DAFF0C0EF76403D00800F55005D05A
:102B8000F6CFE9FFF7CFEAFFEF50DF6EDF50D8A4B2
:102B900001D001D0E0D7120001C005F002C006F05C
:102BA00004D0054A062A034A042A03C0F6FF04C0DB
:102BB000F7FF000EF86E05C0D9FF06C0DAFF0C0E55
:102BC000F76403D00800F55005D0F6CFE9FFF7CF42
:102BD000EAFFEF50DF6EDF50D8A401D001D0E1D77B
:102BE000120001C003F002C004F002D0034A042A1C
:102BF00003C0F6FF04C0F7FF000EF86E0C0EF7647A
:102C000003D00800F55005D0F6CFE9FFF7CFEAFF73
:102C1000EF500009D8A401D001D0E8D70150035CDF
:102C2000016E02500458026E120003C009F004C085
:102C30000AF001C007F002C008F00ED009C0D9FFA9
:102C40000AC0DAFF07C0E1FF08C0E2FFDFCFE7FFFD
:102C5000094A0A2A074A082A0506D8A006060528AE
:102C6000D8B40628D8A401D001D0E8D71200035068
:102C700001C0D9FF02C0DAFFDF6201D001D005D068
:102C800001C001F002C002F00DD001C0D9FF02C0A6
:102C9000DAFF014A022ADF50D8A401D001D0E7D7D9
:102CA000016A026A1200056A066A01A001D001D019
:102CB00004D00350052604500622D890033604366B
:102CC000D8900232013202500110D8A401D001D0B4
:102CD000ECD705C001F006C002F01200F5C0F3F019
:102CE000F6C0F4F0FEEC16F0110EF46F340EF36F34
:102CF0008DEC17F02F0EF46F2E0EF36F92EC17F091
:102D00000A01006B000E00017F6F010E7E6F120042
:102D10004CC028F04DC029F0810E2A6E72EC0BF0E9
:102D200028C098F029C099F098C01AF099C01BF0FB
:102D3000710EDBEC16F03D0E3EEC0EF012001AC0E8
:102D400024F01BC025F0266A276A1D0E236E1CC0C6
:102D50000DF0230E0E6E240ECBEC06F024C0D9FF2E
:102D600025C0DAFF000EDF6E1200700ED3129BEC4E
:102D700017F01FEC17F079EC17F0EDEC16F0F28E6F
:102D8000F28C2DEC17F09DEC17F0FDD70CEF00F056
:102D9000E8CF03F0026A3A0E036001D001D007D0F9
:102DA0002F0E036401D001D002D0010E026E02C0CA
:102DB00001F001301200E8CF1CF01E6A1F6A2F0ECE
:102DC000216E0E0E206E1A0E1D6E1CC00DF01D0E13
:102DD0000E6E1E0ECBEC06F01200570E55EC15F0E1
:102DE000000EF66F4F0EF56F6EEC16F02D0EF86FAD
:102DF000100EF76F750ECAEC14F01200000E8B6FF8
:102E0000010E8A6F94869488F351F325C86EC6909C
:102E1000C682C684C686C580C68A9D86120054C0F6
:102E2000D9FF55C0DAFFDE50DD10D8B401D001D093
:102E300003D0A1EC0DF002D0F3EC0CF01200AC9C2E
:102E4000AC8AAC98AC84B886220EAF6E948E948C0B
:102E5000AB9CAB8EAB98AB881200926A000E00015F
:102E6000F46FFA0EF36F2E0EF66FB80EF56FDAEC04
:102E700012F01200000E0001796F010E786F926A55
:102E80008050F80B0110896EFFD71200000E796F89
:102E9000010E786F926A8050F80BF311896EFFD79C
:102EA0001200200E066E2E0E056E000E086E000E2D
:102EB000076EC6EC11F012008050F80B7411896E89
:102EC000744B752B070E7417000E7517120028C06F
:102ED0001AF029C01BF0790E1C6E9FEC16F0120040
:102EE000E8CF01F09EA801D001D0FCD701C0ADFF12
:102EF00012004E6A4F6A506A516A526A536A12004F
:102F00004E6A4F6A506A516A526A536A1200E8CF99
:102F100002F0025070EC17F01200F3C08EF0F4C013
:102F20008FF01200F3C090F0F4C091F012000A0E7E
:0C2F3000DBEC16F01200936A1200120095
:020000040020DA
:08000000FFFFFFFFFFFFFFFF00
:020000040030CA
:0E000000FF09191EFF8080FF0FC00FE00F40A8
:00000001FF
