:040000000CEF00F011
:10000800FACFDBF0FBCFDCF0E9CFDDF0CCED0CF084
:04001800F0EF0FF006
:100D000001000A006400E8031027257322257322DE
:100D10003A20222573222C0A7D0025732225732276
:100D20003A2025642C0A7D007375626A656374003D
:100D3000286E756C6C290025732025640A00736584
:100D40006E736F7200222573223A200022257322CF
:100D50002573006E616D6500206D73670066726FAC
:100D60006D007B0A7D006B6579002C0A00746F00B2
:100D70000000100E1B6EE9D02050250AD8B401D017
:100D800001D009D00DC0D9FF0EC0DAFF20C0DFFFAF
:100D90000D4A0E2ADAD0196A45D01B50D96EDA6A8C
:100DA000DECF1CF0DDCF1DF0020E1B261D501C10E7
:100DB000D8A401D001D01FD0300E1C6E0D0E1D6EB8
:100DC0001AD01CC0F6FF1DC0F7FF000EF86E0DC054
:100DD000D9FF0EC0DAFF0C0EF76403D00800F550FF
:100DE00005D0F6CFE9FFF7CFEAFFEF50DF6E1C4AE0
:100DF0001D2A0D4A0E2A1CC0F6FF1DC0F7FF000E6B
:100E0000F86E0C0EF76403D00800F55005D0F6CF4D
:100E1000E9FFF7CFEAFFEF500009D8A401D001D0D5
:100E2000D0D793D00F2A0F04166E16C0F6FF0D0E02
:100E3000F76E000EF86E0800F5CF20F02050000A83
:100E4000D8B493D0640AD8B407D00D0AD8B404D06B
:100E50001A0AD8B4A2D779D01B50D96EDA6ADECF7D
:100E60001CF0DDCF1DF0020E1B261DAE01D001D0FF
:100E700006D0030E19121C6C1D1ED8B01D2A010EBF
:100E8000206E2050020DF350000F166E16C0F6FFB4
:100E90000D0EF76E000EF86E0900F5CF17F0090081
:100EA000F5CF18F017501C5C18501D58D8B001D061
:100EB00001D001D007D0202A2050050AD8A401D0A3
:100EC00001D0DFD71950030BD8B401D001D008D01E
:100ED0000DC0D9FF0EC0DAFF2D0EDF6E0D4A0E2AAF
:100EE00020C01AF02CD01A50020DF350000F166ECD
:100EF00016C0F6FF0D0EF76E000EF86E0900F5CF66
:100F000003F00A00F5CF04F01CC001F01DC002F090
:100F100007EC11F001C008F002C009F0000E0B6EE2
:100F20000A0E0A6E8BEC11F00850300F206E0DC0C7
:100F3000D9FF0EC0DAFF20C0DFFF0D4A0E2A1A06C5
:100F40001A28D8A401D001D0CED70F2A0F04166ECC
:100F500016C0F6FF0D0EF76E000EF86E0800F5CF06
:100F600020F0206601D001D007D70DC0D9FF0EC0F8
:100F7000DAFF000EDF6E1200C7A601D001D010D03C
:100F8000C7B401D001D00CD0C7BA01D001D008D06D
:100F9000C7A001D001D004D0C950C688766B776B4A
:100FA000C7B601D001D004D0C7A801D001D040D02D
:100FB000C7B401D001D03CD0C7AA01D001D038D0ED
:100FC000C7A001D001D034D0C9CF09F00A6A03010B
:100FD000960E00017625D96E0301030E00017721DC
:100FE000DA6E09C0DFFF0301960E00017625D96E87
:100FF0000301030E00017721DA6EDF50D8A401D07F
:1010000001D011D081518011D8B401D001D00BD0C2
:1010100080C005F081C006F00301030E086E960E35
:10102000076E9DEC0EF00001764B772BC68880D0C2
:10103000C7A601D001D035D0C7A401D001D031D08E
:10104000C7BA01D001D02DD07F517E11D8A401D0D4
:1010500001D018D083518211D8B401D001D00BD067
:1010600001D809D00500FA6E8251FD6E8351FE6EE3
:10107000FF6AFA501200000E00017F6F010E7E6FB2
:10108000446A456AC9500301960E4424D96E030E82
:101090004520DA6EDF50C96EC688897889788978EC
:1010A00047D0C7A601D001D02FD0C7A401D001D00E
:1010B0002BD0C7AA01D001D027D0C7B001D001D012
:1010C00023D07F517E11D8B401D001D031D0444A11
:1010D000452A0301960E4424D96E030E4520DA6E8C
:1010E000DF50C96E897A897A897A960E4424D96E3E
:1010F000030E4520DA6EDF50D8A401D001D096D778
:1011000000017E6B7F6B92D7C7A601D001D010D0B3
:10111000C7AA01D001D00CD0C7B001D001D008D0EF
:10112000C6A801D001D004D0897E897E897E00D0F6
:1011300012000301030E0E6E000E0D6E450E0F6EB3
:1011400023C010F00D0E116EB9EC06F021C00CF0AA
:1011500022C00DF00301030E0F6E000E0E6E4CEC5C
:101160000EF00CC034F00DC035F034C00CF035C0BA
:101170000DF04A0E0E6E0D0E0F6E4CEC0EF00CC004
:1011800034F00DC035F0344A352A35503410D8B417
:1011900001D001D08BD034C00CF035C00DF06A0EF8
:1011A0000E6E0D0E0F6E4CEC0EF00CC026F00DC046
:1011B00027F034C001F035C002F0D7EC11F001C0C7
:1011C00028F002C029F026C001F027C002F0D7ECB9
:1011D00011F001C02AF002C02BF02A50285C2E6EBC
:1011E0002B5029582F6E306A316A11D03050342478
:1011F000D96E31503520DA6E0301000E3024E16ED5
:10120000030E3120E26EDFCFE7FF304A312A315042
:10121000800A246E2E50305C2F50800A2458D8A0AB
:1012200001D001D0E3D70301000E2E24D96E030EA6
:101230002F20DA6E000EDF6E0051220AD8A401D0F2
:1012400001D025D0030E336E000E326E324A332A9F
:1012500032C001F033C002F0D7EC11F0015032245B
:10126000246E02503320256EFF0E2424D96EFF0E0B
:101270002520DA6E000EDF6E32C007F033C008F0B2
:101280005EEC0CF007C02CF008C02DF00AD0030E65
:10129000086E000E076E5EEC0CF007C02CF008C064
:1012A0002DF02CC021F02DC022F004D0020E226EB1
:1012B0009A0E216E12000301030E0E6E000E0D6ECB
:1012C0004C0E0F6E23C010F00D0E116E490E126EF3
:1012D0000D0E136EB9EC06F021C00CF022C00DF01B
:1012E0000301030E0F6E000E0E6E4CEC0EF00CC0E0
:1012F0003CF00DC03DF03CC00CF03DC00DF04A0E7E
:101300000E6E0D0E0F6E4CEC0EF00CC03CF00DC0CE
:101310003DF03C4A3D2A3D503C10D8B401D001D0AC
:1013200088D03CC00CF03DC00DF06A0E0E6E0D0E64
:101330000F6E4CEC0EF00CC032F00DC033F03CC020
:1013400001F03DC002F0D7EC11F001C02AF002C05C
:101350002BF02C6A2D6A32C001F033C002F0D7ECBA
:1013600011F001C02EF002C02FF0306A316A2E5009
:101370002A5C346E2F502B58356E30502C58366EF8
:1013800031502D58376E386A396A11D038503C24A4
:10139000D96E39503D20DA6E0301000E3824E16E1B
:1013A000030E3920E26EDFCFE7FF384A392A38C012
:1013B00026F039C027F0000E27BEFF0E286E296EDA
:1013C0003450265C35502758365028583750295805
:1013D000D8A001D001D0DAD70301000E3424D96E91
:1013E000030E3520DA6E000EDF6E030E3B6E000E2C
:1013F0003A6E3A4A3B2A3AC001F03BC002F0D7ECC1
:1014000011F001503A24266E02503B20276EFF0E49
:101410002624D96EFF0E2720DA6E000EDF6E24C060
:1014200001F025C002F03AC003F03BC004F0B2EC7A
:1014300011F012004E044F10D8A401D001D010D0EA
:1014400020EE02F04C50D9264D50DA22DF50096EC2
:10145000D8800934C96E000E4F6E060E4E6E97D0BE
:101460004E50060A4F10D8A401D001D006D0C58630
:10147000000E4F6E050E4E6E8AD04E50020A4F106F
:10148000D8B401D001D007D04E50050A4F10D8A4CF
:1014900001D001D048D020EE9CF04C50D9264D50C0
:1014A000DA22DECF09F0DDCF0AF009504C240B6EB2
:1014B0000A504D200C6E040E0B24D96E000E0C2029
:1014C000DA6EC9CFDFFF20EE9CF04C50D9264D508C
:1014D000DA22DECF09F0DDCF0AF009504C240B6E82
:1014E0000A504D200C6E040E0B24D96E000E0C20F9
:1014F000DA6EDF50D8A401D001D006D0C584000E2A
:101500004F6E040E4E6E05D0000E4F6E060E4E6EE0
:10151000C58820EE9CF04C50D9264D50DA22DE2AA8
:10152000000EDD2234D04E50040A4F10D8A401D052
:1015300001D02DD020EE9EF04C50D9264D50DA220D
:10154000DE50DD10D8B401D001D012D020EE9EF0D4
:101550004C50D9264D50DA22DECF05F0DDCF06F013
:10156000040E4C24076E000E4D20086E9DEC0EF00C
:1015700020EE02F04C50D9264D50DA22FF0EDE6EDE
:10158000FF0EDD6E4C6A4D6A60EC11F000D0120067
:101590004E044F10D8A401D001D010D020EE02F09C
:1015A0004C50D9264D50DA22DF50096ED8900934BC
:1015B000C96E000E4F6E020E4E6E86D04E50020A5D
:1015C0004F10D8B401D001D007D04E50030A4F10AD
:1015D000D8A401D001D047D020EE9CF04C50D926A1
:1015E0004D50DA2210EE9AF04C50E1264D50E22296
:1015F000E652DE52E550800A096EDD50800A095C31
:1016000002E1DF50E75CD8B001D001D026D020EE57
:101610009AF04C50D9264D50DA22DECF09F0DDCFBA
:101620000AF009504C240B6E0A504D200C6E040E2B
:101630000B24D96E000E0C20DA6EDF50C96E20EE3E
:101640009AF04C50D9264D50DA22DE2A000EDD22C7
:10165000000E4F6E030E4E6E37D0C584000E4F6ED7
:10166000040E4E6E31D04E50040A4F10D8A401D053
:1016700001D02AD020EE9EF04C50D9264D50DA22CF
:10168000DE50DD10D8B401D001D010D020EE9EF095
:101690004C50D9264D50DA22DECF05F0DDCF06F0D2
:1016A000000E086E000E076E9DEC0EF020EE02F0AC
:1016B0004C50D9264D50DA22FF0EDE6EFF0EDD6E45
:1016C0004C6A4D6A60EC11F0120042C03EF043C01B
:1016D0003FF03EC021F03FC022F06D0E236E0501A9
:1016E000050E256E000E246E5BEC09F0050100511D
:1016F000230AD8A401D001D071D000019A519911C8
:10170000D8B401D001D01DD0000E026E850E016E3E
:101710003EC003F03FC004F0B0EC0FF002500110E7
:10172000D8A401D001D00DD001D80AD00500FA6E9E
:1017300000019951FD6E9A51FE6EFF6AFA50120037
:1017400047D00001B051AF11D8B401D001D01DD0A5
:10175000000E026E9B0E016E3EC003F03FC004F00F
:10176000B0EC0FF002500110D8A401D001D00DD080
:1017700001D80AD00500FA6E0001AF51FD6EB051DC
:10178000FE6EFF6AFA50120023D00001C651C51147
:10179000D8B401D001D01CD0000E026EB10E016E83
:1017A0003EC003F03FC004F0B0EC0FF00250011057
:1017B000D8A401D001D00CD001D80AD00500FA6E0F
:1017C0000001C551FD6EC651FE6EFF6AFA5012004F
:1017D0003EC013F03FC014F0EFEC0BF0120000011C
:1017E00073517211D8B401D001D001D066D07151BB
:1017F0007011D8B401D001D060D051505010D8B47D
:1018000001D001D01AD050C00BF051C00CF013C061
:101810000DF014C00EF013C001F014C002F0D7ECAC
:1018200011F0010E01240F6E000E0220106E000E4A
:10183000126E000E116EA2EC0DF053505210D8B47F
:1018400001D001D01AD052C00BF053C00CF013C01D
:101850000DF014C00EF013C001F014C002F0D7EC6C
:1018600011F0010E01240F6E000E0220106E000E0A
:10187000126E000E116EA2EC0DF055505410D8B43B
:1018800001D001D01AD054C00BF055C00CF013C0D9
:101890000DF014C00EF013C001F014C002F0D7EC2C
:1018A00011F0010E01240F6E000E0220106E000ECA
:1018B000126E000E116EA2EC0DF0120002D0074A5B
:1018C000082A07C0D9FF08C0DAFFDF50200AD8B4C1
:1018D00001D001D0F4D707C0D9FF08C0DAFFDF502C
:1018E000090AD8B401D001D0EAD70C6A0D6A0B6A94
:1018F0002D0E07C0D9FF08C0DAFFDF6201D001D08A
:1019000004D00B2A074A082A25D02B0E07C0D9FF7E
:1019100008C0DAFFDF6201D001D01CD0074A082AD4
:1019200019D00CC001F00DC002F0000E046E0A0EBA
:10193000036E39EC12F007C0D9FF08C0DAFFDF50A0
:101940000126000E0222D00E01240C6EFF0E022092
:101950000D6EE4D707C0D9FF08C0DAFFDF5097EC5F
:1019600012F0D8B001D001D0DCD70B50D8B401D0E0
:1019700001D00DD00CC009F00DC00AF0091E0A1EDE
:10198000094A0A2A09C007F00AC008F004D00CC0AE
:1019900007F00DC008F012000600EACFDEF0E1CF3C
:1019A000DFF0E2CFE0F0D9CFE1F0DACFE2F0F3CF31
:1019B000E3F0F4CFE4F0F6CFE5F0F7CFE6F0F8CFC0
:1019C000E7F0F5CFE8F09EA601D001D013D09E96A7
:1019D00000017D517C11D8B401D001D002D0BCEC03
:1019E00007F00001EE51ED11D8B401D001D002D0C2
:1019F000BAEC12F0F2A401D001D003D0F294FFECC3
:101A000012F09EAA01D001D002D0A0EC10F09EA846
:101A100001D001D002D02FEC10F0E6EC0EF0000166
:101A20006F516E11D8B401D001D006D0000E026EF5
:101A3000070E016EF3EC12F0E8C0F5FFE7C0F8FF07
:101A4000E6C0F7FFE5C0F6FFE4C0F4FFE3C0F3FF34
:101A5000E2C0DAFFE1C0D9FFE0C0E2FFDFC0E1FF92
:101A6000DEC0EAFFDDC0E9FFDCC0FBFFDBC0FAFF40
:101A70001100000161516011D8B401D001D01BD018
:101A800040C001F041C002F062C003F063C004F046
:101A90002BEC0FF002500110D8A401D001D00BD0D4
:101AA00001D809D00500FA6E6051FD6E6151FE6EDD
:101AB000FF6AFA501200000165516411D8B401D0D8
:101AC00001D01BD040C001F041C002F066C003F05D
:101AD00067C004F02BEC0FF002500110D8A401D025
:101AE00001D00BD001D809D00500FA6E6451FD6E0B
:101AF0006551FE6EFF6AFA501200000169516811CB
:101B0000D8B401D001D01BD040C001F041C002F0D8
:101B10006AC003F06BC004F02BEC0FF00250011010
:101B2000D8A401D001D00BD001D809D00500FA6E9D
:101B30006851FD6E6951FE6EFF6AFA501200404A0C
:101B4000412A120001010229D8B40329D8A401D0E6
:101B500001D022D00BC002F10CC003F1010E026EC5
:101B6000040E016E0DC003F00EC004F00FC005F0AE
:101B700010C006F0FBEC11F001019A6B9B6B0FC0DB
:101B80009CF110C09DF111C09EF112C09FF1000E9A
:101B9000016F010E006F29D002010229D8B4032978
:101BA000D8A401D001D021D00BC002F20CC003F2A6
:101BB0009A6B9B6B020E026E040E016E0DC003F059
:101BC0000EC004F00FC005F010C006F0FBEC11F0E1
:101BD0000FC09CF210C09DF211C09EF212C09FF285
:101BE000000E0201016F010E006F60EC11F0120097
:101BF00046D005C0D9FF06C0DAFFDF50D8B401D007
:101C000001D01CD007C0F6FF08C0F7FF000EF86E29
:101C10000C0EF76403D00800F55005D0F6CFE9FFAD
:101C2000F7CFEAFFEF500B6E05C0D9FF06C0DAFF11
:101C3000DF500B18D8B401D001D01DD005C0D9FF9A
:101C400006C0DAFFDF500B6E07C0F6FF08C0F7FFD3
:101C5000000EF86E0C0EF76403D00800F55005D0A6
:101C6000F6CFE9FFF7CFEAFFEF500B5C056E066A8F
:101C7000D8A0060610D0054A062A074A082A0906EF
:101C8000D8A00A060928D8B40A28D8A401D001D0BF
:101C9000B0D7056A066A12003ED00CC005F00DC030
:101CA00006F00EC007F00FC008F00EC001F00FC024
:101CB00002F0D7EC11F001C009F002C00AF0F8EC14
:101CC0000DF006500510D8A401D001D005D00CC0ED
:101CD0000CF00DC00DF030D0010E0C24016E000E82
:101CE0000D20026E0EC0F6FF0FC0F7FF000EF86E5B
:101CF0000C0EF76403D00800F55005D0F6CFE9FFCD
:101D0000F7CFEAFFEF50036E046A1DEC12F001C03A
:101D10000CF002C00DF00D500C10D8B401D001D061
:101D200009D00CC0D9FF0DC0DAFFDF50D8A401D014
:101D300001D0B3D70C6A0D6A120047504610D8A4E0
:101D400001D001D010D00601060E026E000E016E09
:101D500007C003F008C004F0B2EC11F005C046F073
:101D600006C047F032D049504810D8A401D001D065
:101D700010D00701070E026E000E016E07C003F0BF
:101D800008C004F0B2EC11F005C048F006C049F0FC
:101D90001CD04B504A10D8A401D001D010D008015B
:101DA000080E026E000E016E07C003F008C004F0BA
:101DB000B2EC11F005C04AF006C04BF006D0000EA0
:101DC000026E010E016EF3EC12F012004750461045
:101DD000D8B401D001D010D00601060E436E000E1B
:101DE000426E01D809D00500FA6E4650FD6E47508C
:101DF000FE6EFF6AFA50120049504810D8B401D064
:101E000001D010D00701070E436E000E426E01D8BC
:101E100009D00500FA6E4850FD6E4950FE6EFF6A0B
:101E2000FA5012004B504A10D8B401D001D010D053
:101E30000801080E436E000E426E01D809D005005D
:101E4000FA6E4A50FD6E4B50FE6EFF6AFA50120059
:101E500027EC13F01200066A02AE01D001D006D0C2
:101E6000016C021ED8B0022A010E066E04AE01D02B
:101E700001D004D0036C041ED8B0042A045003100F
:101E8000D8B401D001D01CD0010E056E04D0D8907A
:101E900003360436052A04AE01D001D0F8D703502A
:101EA000015C04500258D8A001D001D004D00350E6
:101EB000015E0450025AD89004320332052EEFD747
:101EC0000650D8B401D001D004D0016C021ED8B0A5
:101ED000022A01C001F002C002F01200846701D0A2
:101EE00001D011D0D58ED58CD59AD596D550F80B7A
:101EF0000209D56EF28A606B616B646B656B686B0F
:101F0000696B010E846F61516011D8A401D001D0BA
:101F100009D0EBC060F0ECC061F0E9C062F0EAC04B
:101F200063F01DD065516411D8A401D001D009D04F
:101F3000EBC064F0ECC065F0E9C066F0EAC067F0A1
:101F40000ED069516811D8A401D001D008D0EBC0DF
:101F500068F0ECC069F0E9C06AF0EAC06BF012000A
:101F600004D0014A022A034A042A03C0D9FF04C04C
:101F7000DAFFDF50056E01C0F6FF02C0F7FF000E6A
:101F8000F86E0C0EF76403D00800F55005D0F6CFBC
:101F9000E9FFF7CFEAFFEF50066E0550065C076ECB
:101FA000076601D001D016D001C0F6FF02C0F7FFCE
:101FB000000EF86E0C0EF76403D00800F55005D043
:101FC000F6CFE9FFF7CFEAFFEF500009D8A401D020
:101FD00001D0C7D70750016E026A01BE0206120087
:101FE00008EE00F0960EEE6AE806FDE107EE00F05E
:101FF000960EEE6AE806FDE106EE00F0960EEE6A39
:10200000E806FDE105EE00F0960EEE6AE806FDE159
:1020100004EE00F0FA0EEE6AE806FDE103EE00F0D1
:10202000FA0EEE6AE806FDE102EE00F0A00EEE6A9E
:10203000E806FDE101EE00F0D20EEE6AE806FDE1F1
:1020400000EE60F07B0EEE6AE806FDE100EE40F087
:102050001A0EEE6AE806FDE1000184EF12F00001BD
:102060007B517A11D8B401D001D002D09D982FD0E5
:102070000401960E5624D96E040E5720DA6EDF50F6
:10208000D8A401D001D00BD0AD6A566A576A586AFD
:10209000596A000E00017B6F010E7A6F18D0960E00
:1020A0005624D96E040E5720DA6E010EDF6201D07D
:1020B00001D004D0AD6A564A572A09D0960E56244C
:1020C000D96E040E5720DA6EDF50AD6EF4D71200D1
:1020D00059505810D8A401D001D00CD00401040EDE
:1020E000026E960E016E07C003F008C004F054ECB7
:1020F00012F017D00401960E5824D96E040E592000
:10210000DA6E010EDF6E970E5824016E040E592010
:10211000026E07C003F008C004F054EC12F0584AF5
:10212000592A07C001F008C002F0D7EC11F00150A5
:102130005826025059229D8800017A6B7B6B120051
:10214000AB50AECF09F0096601D001D020D0040118
:10215000000E00017425D96E0401040E00017521E2
:10216000DA6E000EDF6E746B756B79517811D8B42E
:1021700001D001D01AD078C005F079C006F0040172
:10218000040E086E000E076E9DEC0EF00ED00401DA
:10219000000E00017425D96E0401040E00017521A2
:1021A000DA6E09C0DFFF744B752B120042C021F0BC
:1021B00043C022F03E0E236E99EC08F021C03EF0A1
:1021C00022C03FF042C021F043C022F0530E236EE4
:1021D0000101010E256EA00E246E5BEC09F042C0D9
:1021E0000DF043C00EF0370E0F6E0101010E116E9F
:1021F000A00E106E3EC012F03FC013F0B9EC06F016
:1022000042C007F043C008F068EC10F01200056A05
:10221000066A04500310D8B401D001D020D0010EBA
:10222000076E04D0D89003360436072A04AE01D0D6
:1022300001D0F8D7D890053606360350015C04501B
:102240000258D8A001D001D005D00350015E04503F
:10225000025A0580D89004320332072EEBD705C00E
:1022600001F006C002F0120001010229D8B40329CE
:10227000D8A401D001D00DD001C002F102C003F1F9
:102280009C6B9D6B03C09EF104C09FF1006B016BC2
:1022900014D002010229D8B40329D8A401D001D056
:1022A0000CD001C002F202C003F29C6B9D6B03C014
:1022B0009EF204C09FF2006B016B60EC11F0120003
:1022C0004D504C10D8A401D001D024D001010229D6
:1022D000D8B40329D8B401D001D005D0010E4D6E79
:1022E000000E4C6E0CD002010229D8B40329D8B4D8
:1022F00001D001D004D0020E4D6E000E4C6E4D5038
:102300004C10D8B401D001D005D0000E4F6E010E94
:102310004E6EC58012000B500A10D8B401D001D007
:102320001CD0010E0C6E04D0D8900A360B360C2A45
:102330000BAE01D001D0F8D70A50085C0B500958F9
:10234000D8A001D001D004D00A50085E0B50095A21
:10235000D8900B320A320C2EEFD708C008F009C013
:1023600009F0120004500310D8A401D001D00FD0FE
:102370001DD003C0D9FF04C0DAFF01C0E1FF02C0D5
:10238000E2FFDFCFE7FF014A022A034A042A03C023
:10239000D9FF04C0DAFFDF50D8A401D001D0E9D7BB
:1023A00001C0D9FF02C0DAFF000EDF6E120001C0CB
:1023B00003F002C004F002D0034A042A03C0F6FF6F
:1023C00004C0F7FF000EF86E0C0EF76403D008008F
:1023D000F55005D0F6CFE9FFF7CFEAFFEF5000093F
:1023E000D8A401D001D0E8D70150035C016E02509F
:1023F0000458026E120003C009F004C00AF001C0C4
:1024000007F002C008F00ED009C0D9FF0AC0DAFFF9
:1024100007C0E1FF08C0E2FFDFCFE7FF094A0A2A51
:10242000074A082A0506D8A006060528D8B40628B3
:10243000D8A401D001D0E8D71200035001C0D9FFC1
:1024400002C0DAFFDF6201D001D005D001C001F087
:1024500002C002F00DD001C0D9FF02C0DAFF014A6C
:10246000022ADF50D8A401D001D0E7D7016A026A5E
:102470001200056A066A01A001D001D004D0035001
:10248000052604500622D89003360436D89002322E
:10249000013202500110D8A401D001D0ECD705C000
:1024A00001F006C002F0120001C005F002C006F003
:1024B00004D0054A062A034A042A03C0D9FF04C0EF
:1024C000DAFF05C0E1FF06C0E2FFDFCFE7FFE7501C
:1024D000D8A401D001D0EDD71200000E0001EE6F9C
:1024E000010EED6FC58694869488C78E280EC66E41
:1024F0000A0EC86E9D860101026903690201026924
:1025000003694C6A4D6A1200700ED3122EEC13F060
:10251000D9EC12F020EC13F0AAEC12F0F28EF28C4F
:10252000E7EC12F030EC13F0FDD70CEF00F0E8CF41
:1025300003F0026A3A0E036001D001D007D02F0EDB
:10254000036401D001D002D0010E026E02C001F07E
:10255000013012006DEC12F0CAEC12F0000E000116
:10256000EA6F140EE96F260EEC6F140EEB6F6EEC33
:102570000FF012004CC0D9FF4DC0DAFFDE50DD1065
:10258000D8B401D001D003D0C8EC0AF002D01AECC4
:102590000AF01200AB8E948E948CAC9CAC8AAC98F2
:1025A000AC86AB88AC84B886220EAF6E9D989D8AAF
:1025B0001200AC9CAC8AAC98AC84B886220EAF6E8C
:1025C000948E948CAB9CAB8EAB98AB881200926AC5
:1025D000000EEA6FFA0EE96F260EEC6F2A0EEB6F13
:1025E0006EEC0FF01200000E00016F6F010E6E6FA7
:1025F000926A8050F80B0110896EFFD712001A0EF4
:10260000066E720E056E000E086E000E076E9DECD3
:102610000EF01200000E026E4F0E016E210E046EBF
:10262000AC0E036E34EC11F012008050F80B6C11FC
:10263000896E6C4B6D2B070E6C17000E6D17120018
:10264000466A476A486A496A4A6A4B6A1200466A99
:10265000476A486A496A4A6A4B6A1200936A1200DA
:02266000120066
:020000040020DA
:08000000FFFFFFFFFFFFFFFF00
:020000040030CA
:0E000000FF09191EFF8080FF0FC00FE00F40A8
:00000001FF
