:040000000CEF00F011
:10000800FACF44F0FBCF45F0E9CF46F0BBED0CF05A
:04001800A6EF10F04F
:100D000001000A006400E8031027257322257322DE
:100D10003A20222573222C0A7D0025732225732276
:100D20003A2025642C0A7D007368697466616365E6
:100D3000007375626A65637400286E756C6C2900B7
:100D400073656E736F7200222573223A200022258C
:100D500073222573006E616D6500206D73670066F8
:100D6000726F6D007B0A7D006B6579002C0A007440
:100D70006F000000000E1E6E130E1D6E0ED123506C
:100D8000250AD8B401D001D009D00FC0D9FF10C0B6
:100D9000DAFF23C0DFFF0F4A102AFFD0196E000EC2
:100DA0001B6E195050D00ED16BD06AD01DC0D9FF28
:100DB0001EC0DAFFDECF1FF0DDCF20F0020E1D26B1
:100DC000000E1E2220501F10D8A401D001D021D027
:100DD0000D0E206E390E1F6E1CD01BD01FC0F6FFEB
:100DE00020C0F7FF000EF86E0FC0D9FF10C0DAFF69
:100DF0000C0EF76403D00800F55005D0F6CFE9FFDC
:100E0000F7CFEAFFEF50DF6E1F4A202A0F4A102A61
:100E100000D01FC0F6FF20C0F7FF000EF86E0C0ECA
:100E2000F76403D00800F55005D0F6CFE9FFF7CFFF
:100E3000EAFFEF500009D8A401D001D0CFD7ADD040
:100E4000ACD0ABD01DD01150196E12501A6E114A91
:100E5000122A19C0F6FF1AC0F7FF000EF86E08003C
:100E6000F5CF23F02350000AD8B4ACD0640AD8B42C
:100E700007D00D0AD8B404D01A0AD8B497D78DD0A9
:100E80001DC0D9FF1EC0DAFFDECF1FF0DDCF20F07E
:100E9000020E1D26000E1E2220AE01D001D007D06A
:100EA000030E1B121F6C201ED8B0202A00D0196E12
:100EB000010E236E19502350050AD8A401D001D089
:100EC00002D024D023D02350020D000EF324F66E5E
:100ED0000D0EF420F76EF86A000EF8220900F5CF27
:100EE00019F00900F5CF1AF019501F5C1A5020585C
:100EF000D8B001D001D002D009D008D0232A235085
:100F0000050AD8A401D001D0DED700D01B50030BB6
:100F1000D8B401D001D009D00FC0D9FF10C0DAFF7A
:100F20002D0EDF6E0F4A102A00D023C01CF02DD0EA
:100F30001C50020D000EF324F66E0D0EF420F76E19
:100F4000F86A000EF8220900F5CF03F00A00F5CF89
:100F500004F01FC001F020C002F09EEC11F001C0AF
:100F600009F002C00AF0000E0C6E0A0E0B6E38EC8F
:100F700012F00950300F236E0FC0D9FF10C0DAFFF6
:100F800023C0DFFF0F4A102A00D01C061C28D8A45B
:100F900001D001D0CDD701D000D01150196E125020
:100FA0001A6E114A122A19C0F6FF1AC0F7FF000E76
:100FB000F86E0800F5CF23F0236601D001D0DFD60C
:100FC00001D000D00FC0D9FF10C0DAFF000EDF6ED5
:100FD00000D01200C7A601D001D018D0C7B401D0EC
:100FE00001D014D0C7BA01D001D010D0C7A001D011
:100FF00001D00CD0C9CF30F0316AC688000E000194
:101000000001896F000E0001886F00D0C7B601D0C3
:1010100001D004D0C7A801D001D04AD0C7B401D0B4
:1010200001D046D0C7AA01D001D042D0C7A001D07C
:1010300001D03ED0C9CF34F0356A0301960E0001CD
:1010400000018825D96E0301030E000100018921EA
:10105000DA6E34C0DFFF0301960E0001000188251F
:10106000D96E0301030E000100018921DA6EDF5001
:10107000D8A401D001D016D00001000197519611DB
:10108000D8B401D001D00ED096C005F097C006F0BC
:101090000301030E086E0301960E076E73EC0FF04A
:1010A00001D000D000010001884B892BC68896D062
:1010B000C7A601D001D042D0C7A401D001D03ED0F4
:1010C000C7BA01D001D03AD0000100019551941166
:1010D000D8A401D001D023D000010001EF51EE11BE
:1010E000D8B401D001D00FD001D80CD00500FA6ED1
:1010F00000010001EE51FD6E0001EF51FE6EFF6A2E
:10110000FA50120000D0000E00010001956F010E90
:101110000001946F000E596E000E586E00D0C9CFBA
:1011200032F0336A0301960E5824D96E0301030E80
:101130005920DA6EDF50C96EC68850D0C7A601D0DC
:1011400001D03CD0C7A401D001D038D0C7AA01D06B
:1011500001D034D0C7B001D001D030D0000100019F
:1011600095519411D8B401D001D038D0010E582433
:10117000586E000E5920596E0301960E5824D96EF0
:101180000301030E5920DA6EDF50C96E0301960E7B
:101190005824D96E0301030E5920DA6EDF50D8A40B
:1011A00001D001D008D0000E00010001956F000EA3
:1011B0000001946F00D0C68811D010D0C7A601D00E
:1011C00001D00CD0C7AA01D001D008D0C7B001D03F
:1011D00001D004D003D002D001D000D0120003010E
:1011E000030E106E0301000E0F6E0D0E126E4E0EEA
:1011F000116E26C013F027C014F00D0E166E4B0EA4
:10120000156EBAEC06F024C010F025C011F00301F1
:10121000030E136E0301000E126E1AEC0FF010C0D5
:1012200040F011C041F040C010F041C011F00D0E6F
:10123000136E4C0E126E1AEC0FF010C040F011C07D
:1012400041F0404A412A41504010D8B401D001D069
:10125000A3D040C010F041C011F00D0E136E6C0E03
:10126000126E1AEC0FF010C036F011C037F040C00B
:1012700001F041C002F009EC12F001C02EF002C0F2
:101280002FF0306A316A36C001F037C002F009EC45
:1012900012F001C032F002C033F0346A356A32C055
:1012A0002AF033C02BF034C02CF035C02DF02A1EAC
:1012B0002B1E2C1E2D1E2A2A000E2B222C222D2204
:1012C0002E502A24386E2F502B20396E30502C206F
:1012D0003A6E31502D203B6E000E3D6E000E3C6E7E
:1012E00013D03C504024D96E3D504120DA6E0301AA
:1012F000000E3C24E16E0301030E3D20E26EDFCFC1
:10130000E7FF3C4A3D2A00D03CC02AF03DC02BF00C
:10131000000E2BBEFF0E2C6E2D6E38502A5C3950FD
:101320002B583A502C583B502D58D8A001D001D002
:10133000D8D700D00301000E3824D96E0301030E64
:101340003920DA6E000EDF6E0301030E3F6E0301DB
:10135000000E3E6E3E4A3F2A3EC001F03FC002F002
:1013600009EC12F0FF0E01242A6EFF0E02202B6EF4
:101370002A503E24D96E2B503F20DA6E000EDF6ECD
:1013800028C001F029C002F03EC003F03FC004F0C5
:1013900066EC12F001D000D012005C045D10D8A4FD
:1013A00001D001D010D020EE02F05A50D9265B5067
:1013B000DA22DF50096ED8800934C96E000E5D6EE6
:1013C000060E5C6E9BD05C50060A5D10D8A401D05E
:1013D00001D006D0C586000E5D6E050E5C6E8ED007
:1013E0005C50020A5D10D8B401D001D008D05C5026
:1013F000050A5D10D8A401D001D046D000D020EE5F
:101400009CF05A50D9265B50DA22DECF09F0DDCFAE
:101410000AF0040E0926000E0A2209505A24D96E39
:101420000A505B20DA6EC9CFDFFF20EE9CF05A50E5
:10143000D9265B50DA22DECF09F0DDCF0AF0040EA8
:101440000926000E0A2209505A24D96E0A505B2040
:10145000DA6EDF50D8A401D001D006D0C584000ECA
:101460005D6E040E5C6E06D0000E5D6E060E5C6E48
:10147000C58800D020EE9CF05A50D9265B50DA2265
:10148000DE2A000EDD223AD05C50040A5D10D8A49A
:1014900001D001D033D020EE9EF05A50D9265B50B7
:1014A000DA22DE50DD10D8B401D001D013D020EE06
:1014B0009EF05A50D9265B50DA22DECF05F0DDCF00
:1014C00006F0040E5A24076E000E5B20086E73ECC3
:1014D0000FF000D020EE02F05A50D9265B50DA22ED
:1014E000FF0EDE6EFF0EDD6E000E5B6E000E5A6E9E
:1014F000D4EC11F003D002D001D000D012005C0473
:101500005D10D8A401D001D010D020EE02F05A50C6
:10151000D9265B50DA22DF50096ED8900934C96EA3
:10152000000E5D6E020E5C6E8CD05C50020A5D1087
:10153000D8B401D001D008D05C50030A5D10D8A403
:1015400001D001D047D000D020EE9CF05A50D926CF
:101550005B50DA2210EE9AF05A50E1265B50E222FC
:10156000E652DE52E550800A096EDD50800A095CC1
:1015700002E1DF50E75CD8B001D001D024D020EEEA
:101580009AF05A50D9265B50DA22DECF09F0DDCF2F
:101590000AF0040E0926000E0A2209505A24D96EB8
:1015A0000A505B20DA6EDF50C96E20EE9AF05A5076
:1015B000D9265B50DA22DE2A000EDD22000E5D6E97
:1015C000030E5C6E3ED0C584000E5D6E040E5C6E34
:1015D00038D037D05C50040A5D10D8A401D001D0B7
:1015E00030D020EE9EF05A50D9265B50DA22DE50E1
:1015F000DD10D8B401D001D011D020EE9EF05A50A9
:10160000D9265B50DA22DECF05F0DDCF06F0000EE2
:10161000086E000E076E73EC0FF000D020EE02F0A3
:101620005A50D9265B50DA22FF0EDE6EFF0EDD6EB9
:10163000000E5B6E000E5A6ED4EC11F002D001D099
:1016400000D0120056C042F057C043F042C024F010
:1016500043C025F00D0E276E6F0E266E0401040E9A
:10166000296E0401000E286EEFEC08F0040104015D
:101670000051230AD8A401D001D084D00001000178
:10168000BA51B911D8B401D001D021D00001000E57
:10169000026E0001A50E016E42C003F043C004F0CB
:1016A00063EC10F002500110D8A401D001D00FD08B
:1016B00001D80CD00500FA6E00010001B951FD6E91
:1016C0000001BA51FE6EFF6AFA50120054D00001B8
:1016D0000001D051CF11D8B401D001D021D00001E8
:1016E000000E026E0001BB0E016E42C003F043C04B
:1016F00004F063EC10F002500110D8A401D001D026
:101700000FD001D80CD00500FA6E00010001CF51B6
:10171000FD6E0001D051FE6EFF6AFA5012002BD010
:1017200000010001E651E511D8B401D001D023D069
:101730000001000E026E0001D10E016E42C003F0E6
:1017400043C004F063EC10F002500110D8A401D0A3
:1017500001D011D001D80CD00500FA6E00010001B3
:10176000E551FD6E0001E651FE6EFF6AFA5012006F
:1017700002D001D000D042C013F043C014F0C3EC3B
:101780000BF000D012000001000185518411D8B483
:1017900001D001D002D074D073D000010001835178
:1017A0008211D8B401D001D06BD0000100019B514F
:1017B0009A11D8B401D001D01BD09AC00BF09BC0B5
:1017C0000CF013C00DF014C00EF013C001F014C0E3
:1017D00002F009EC12F0010E01240F6E000E02203F
:1017E000106E000E126E000E116E32EC0DF000D075
:1017F000000100019D519C11D8B401D001D01BD033
:101800009CC00BF09DC00CF013C00DF014C00EF086
:1018100013C001F014C002F009EC12F0010E012413
:101820000F6E000E0220106E000E126E000E116E72
:1018300032EC0DF000D0000100019F519E11D8B490
:1018400001D001D01DD09EC00BF09FC00CF013C082
:101850000DF014C00EF013C001F014C002F009EC3A
:1018600012F0010E01240F6E000E0220106E000E09
:10187000126E000E116E32EC0DF002D001D000D0CD
:1018800012000001000171517011D8B401D001D0D3
:101890001FD07EC001F07FC002F072C003F073C0A1
:1018A00004F0C8EC0FF002500110D8A401D001D010
:1018B0000FD001D80CD00500FA6E00010001705164
:1018C000FD6E00017151FE6EFF6AFA50120000D0E9
:1018D0000001000175517411D8B401D001D01FD09E
:1018E0007EC001F07FC002F076C003F077C004F044
:1018F000C8EC0FF002500110D8A401D001D00FD0D5
:1019000001D80CD00500FA6E000100017451FD6E83
:1019100000017551FE6EFF6AFA50120000D00001FE
:10192000000179517811D8B401D001D01FD07EC008
:1019300001F07FC002F07AC003F07BC004F0C8EC75
:101940000FF002500110D8A401D001D00FD001D85F
:101950000CD00500FA6E000100017851FD6E000107
:101960007951FE6EFF6AFA50120000D000010001AA
:101970007E4B7F2B12000600EACF47F0E1CF48F004
:10198000E2CF49F0D9CF4AF0DACF4BF0F3CF4CF0A9
:10199000F4CF4DF0F6CF4EF0F7CF4FF0F8CF50F038
:1019A000F5CF51F09EA601D001D018D09E9600012F
:1019B0000001ED51EC11D8B401D001D003D0EAEC14
:1019C00007F000D00001000199519811D8B401D05E
:1019D00001D004D08DEC13F001D000D0F2A401D0DE
:1019E00001D004D0F294D7EC13F000D09EAA01D01D
:1019F00001D003D01CEC10F000D09EA801D001D083
:101A000003D063EC0EF000D0C0EC0EF0000100013A
:101A100081518011D8B401D001D007D0000E026EE0
:101A2000070E016EADEC13F000D051C0F5FF50C0B1
:101A3000F8FF4FC0F7FF4EC0F6FF4DC0F4FF4CC09B
:101A4000F3FF4BC0DAFF4AC0D9FF49C0E2FF48C0EC
:101A5000E1FF47C0EAFF46C0E9FF45C0FBFF44C0C5
:101A6000FAFF1100010101010229D8B40329D8A409
:101A700001D001D02BD00BC002F10CC003F1010149
:101A8000010E026E0101040E016E0DC003F00EC0C6
:101A900004F00FC005F010C006F08FEC12F0000E3D
:101AA000010101019B6F000E01019A6F0FC09CF1B3
:101AB00010C09DF111C09EF112C09FF1000E0101F6
:101AC0000101016F010E0101006F35D00201020119
:101AD0000229D8B40329D8A401D001D02CD00BC03E
:101AE00002F20CC003F2000E020102019B6F000E15
:101AF00002019A6F0201020E026E0201040E016ED3
:101B00000DC003F00EC004F00FC005F010C006F0C9
:101B10008FEC12F00FC09CF210C09DF211C09EF22B
:101B200012C09FF2000E02010201016F010E0201BC
:101B3000006F01D000D0D4EC11F0120000010001C0
:101B4000A46701D001D027D0D58ED58CD59AD59653
:101B5000D550F80B0209D56EF28A000E0001000183
:101B6000716F000E0001706F000E00010001756FB3
:101B7000000E0001746F000E00010001796F000E6D
:101B80000001786F0001EB6F010E00010001A46FEE
:101B90000001EB5100D00001000171517011D8A477
:101BA00001D001D009D0E9C070F0EAC071F0E7C0FF
:101BB00072F0E8C073F024D0000100017551741177
:101BC000D8A401D001D009D0E9C074F0EAC075F002
:101BD000E7C076F0E8C077F013D00001000179513A
:101BE0007811D8A401D001D00BD0E9C078F0EAC0B8
:101BF00079F0E7C07AF0E8C07BF002D001D000D0E5
:101C0000120050D007C0D9FF08C0DAFFDF50D8B4A7
:101C100001D001D01DD009C0F6FF0AC0F7FF000EA9
:101C2000F86E0C0EF76403D00800F55005D0F6CF1F
:101C3000E9FFF7CFEAFFEF500D6E07C0D9FF08C0EC
:101C4000DAFFDF500D18D8B401D001D026D000D073
:101C500009C0F6FF0AC0F7FF000EF86E0C0EF7641D
:101C600003D00800F55005D0F6CFE9FFF7CFEAFF23
:101C7000EF500D6E0E6A0D1E0E1E0D4A0E2A07C085
:101C8000D9FF08C0DAFFDF500F6E0F500D24076E2A
:101C9000000E0E20086E16D015D0074A082A094AF1
:101CA0000A2A00D00B06D8A00C060B28D8B40C28A2
:101CB000D8A401D001D0A6D700D0000E086E000E27
:101CC000076E00D012000001000193519211D8B4A8
:101CD00001D001D002D09D9852D00401960E00018F
:101CE0000001A025D96E0401040E00010001A1210C
:101CF000DA6EDF50D8A401D001D015D0000EAD6E41
:101D0000000E00010001A16F000E0001A06F000E87
:101D10005F6E000E5E6E000E00010001936F010EFB
:101D20000001926F2CD00401960E00010001A02545
:101D3000D96E0401040E00010001A121DA6E010E2A
:101D4000DF6201D001D007D0000EAD6E00010001AE
:101D5000A04BA12B14D00401960E00010001A02578
:101D6000D96E0401040E00010001A121DA6EDF50DA
:101D7000AD6E00010001A04BA12B01D000D01200DC
:101D8000000100018D518C11D8B401D001D015D0C3
:101D90000601060E576E0601000E566E01D80CD0D5
:101DA0000500FA6E000100018C51FD6E00018D519D
:101DB000FE6EFF6AFA50120000D0000100018F5140
:101DC0008E11D8B401D001D015D00701070E576E7F
:101DD0000701000E566E01D80CD00500FA6E000106
:101DE00000018E51FD6E00018F51FE6EFF6AFA50A8
:101DF000120000D00001000191519011D8B401D01F
:101E000001D015D00801080E576E0801000E566E5D
:101E100001D80CD00500FA6E000100019051FD6E52
:101E200000019151FE6EFF6AFA50120000D063EC7F
:101E300013F0120041D010C007F011C008F012C01A
:101E400009F013C00AF012C001F013C002F009EC4F
:101E500012F001C00BF002C00CF001EC0EF00850C3
:101E60000710D8A401D001D005D010C010F011C0C7
:101E700011F038D0010E1024016E000E1120026EF8
:101E800012C0F6FF13C0F7FF000EF86E0C0EF764D9
:101E900003D00800F55005D0F6CFE9FFF7CFEAFFF1
:101EA000EF50146E1450036E046AB3EC12F001C0CC
:101EB00010F002C011F000D011501010D8B401D0B1
:101EC00001D00BD010C0D9FF11C0DAFFDF50D8A469
:101ED00001D001D0B0D701D000D0000E116E000E9D
:101EE000106E00D01200000100018D518C11D8A499
:101EF00001D001D011D00601060E026E0601000EBF
:101F0000016E07C003F008C004F066EC12F005C0D3
:101F10008CF006C08DF03BD0000100018F518E1176
:101F2000D8A401D001D011D00701070E026E07011D
:101F3000000E016E07C003F008C004F066EC12F05A
:101F400005C08EF006C08FF022D000010001915133
:101F50009011D8A401D001D011D00801080E026E52
:101F60000801000E016E07C003F008C004F066EC23
:101F700012F005C090F006C091F009D0000E026E7C
:101F8000010E016EADEC13F002D001D000D01200B2
:101F9000056E000E076E055002AE01D001D009D0CB
:101FA000016C021ED8B0022A056E010E076E0550A4
:101FB00000D004AE01D001D005D0036C041ED8B00F
:101FC000042A00D004500310D8B401D001D024D08A
:101FD000056E010E066E055005D0D8900336043606
:101FE000062A00D004AE01D001D0F7D701D000D02E
:101FF0000350015C04500258D8A001D001D005D094
:102000000350015E0450025A00D0D89004320332CB
:10201000062EEED701D000D00750D8B401D001D0A1
:1020200005D0016C021ED8B0022A00D001C001F018
:1020300002C002F000D01200ABCF09F0AECF0AF020
:102040000A6601D001D02CD00501000E000100016C
:102050008625D96E0501050E000100018721DA6E83
:10206000000EDF6E000E00010001876F000E000100
:10207000866F000100018B518A11D8B401D001D0C4
:1020800021D08AC005F08BC006F00501050E086E50
:102090000501000E076E73EC0FF014D013D012D0B0
:1020A0000501000E000100018625D96E0501050E0F
:1020B000000100018721DA6E0AC0DFFF0001000184
:1020C000864B872B120005D0014A022A034A042AB4
:1020D00000D001C0F6FF02C0F7FF000EF86E0C0E34
:1020E000F76403D00800F55005D0F6CFE9FFF7CF2D
:1020F000EAFFEF50056E03C0D9FF04C0DAFFDF50DE
:1021000000080524066E066601D001D018D001C073
:10211000F6FF02C0F7FF000EF86E0C0EF76403D056
:102120000800F55005D0F6CFE9FFF7CFEAFFEF50F2
:102130000009D8A401D001D0C7D701D000D00650E3
:10214000016E026A01BE020600D0120008EE00F025
:10215000960EEE6AE806FDE107EE00F0960EEE6AD6
:10216000E806FDE106EE00F0960EEE6AE806FDE1F7
:1021700005EE00F0FA0EEE6AE806FDE104EE00F06E
:10218000FA0EEE6AE806FDE103EE00F0FA0EEE6AE2
:10219000E806FDE102EE00F0A00EEE6AE806FDE1C1
:1021A00001EE00F0B40EEE6AE806FDE100EE60F02C
:1021B000870EEE6AE806FDE100EE52F00E0EEE6AC2
:1021C000E806FDE1000137EF13F024C001F025C05F
:1021D00002F009EC12F001C02CF002C02DF02E6AC2
:1021E0002F6AFF0E2C242A6EFF0E2D202B6E2A50F4
:1021F0002424D96E2B502520DA6E000EDF6E0301E9
:10220000030E026E0301000E016E24C003F025C010
:1022100004F066EC12F024C00FF025C010F00D0E93
:10222000126E1A0E116E0301030E146E0301000EDE
:10223000136E26C015F027C016F028C017F029C06D
:1022400018F0BAEC06F0120024C001F025C002F02C
:1022500009EC12F001C02CF002C02DF02E6A2F6A9A
:10226000FF0E2C242A6EFF0E2D202B6E2A502424C4
:10227000D96E2B502520DA6E000EDF6E0301030E9F
:10228000026E0301000E016E24C003F025C004F0AD
:1022900066EC12F024C00FF025C010F00D0E126E87
:1022A0000A0E116E0301030E146E0301000E136E6D
:1022B00026C015F027C016F028C017F029C018F066
:1022C000BAEC06F012000501050E026E0501960E2D
:1022D000016E0D0E046E280E036ED3EC12F056C084
:1022E00024F057C025F0E2EC13F056C024F057C09C
:1022F00025F00D0E276E550E266E0501050E296E72
:102300000501960E286E24EC11F056C024F057C03B
:1023100025F00D0E276E400E266EA2C028F0A3C039
:1023200029F0E5EC10F000010001A24BA32B56C0F0
:1023300005F057C006F0CAEC13F01200000E076E4D
:10234000000E066E04500310D8B401D001D027D07F
:10235000056E010E086E055005D0D8900336043680
:10236000082A00D004AE01D001D0F7D701D000D0A8
:10237000D890063607360350015C04500258D8A0A6
:1023800001D001D006D00350015E0450025A0680ED
:1023900000D0D89004320332082EEAD700D006C00D
:1023A00001F007C002F012005B505A10D8A401D00F
:1023B00001D02ED0010101010229D8B40329D8B4DB
:1023C00001D001D007D00101010E5B6E0101000EAA
:1023D0005A6E11D0020102010229D8B40329D8B4DF
:1023E00001D001D008D00201020E5B6E0201000E86
:1023F0005A6E01D000D05B505A10D8B401D001D031
:1024000007D0000E5D6E010E5C6EC58001D000D05D
:10241000120001C005F002C006F003D0054A062AEA
:1024200000D005C0F6FF06C0F7FF000EF86E0C0ED8
:10243000F76403D00800F55005D0F6CFE9FFF7CFD9
:10244000EAFFEF500009D8A401D001D0E7D700D0AF
:1024500001C003F002C004F0031E041E034A042A54
:1024600005500324016E06500420026E00D01200B5
:102470000C500B10D8B401D001D023D00D6E010E3A
:102480000E6E0D5005D0D8900B360C360E2A00D0AB
:102490000CAE01D001D0F7D701D000D00B50095CB1
:1024A0000C500A58D8A001D001D005D00B50095EBD
:1024B0000C500A5A00D0D8900C320B320E2EEED7A8
:1024C00000D009C009F00AC00AF01200045003103D
:1024D000D8A401D001D012D021D020D00FD003C079
:1024E000D9FF04C0DAFF01C0E1FF02C0E2FFDFCF85
:1024F000E7FF014A022A034A042A00D003C0D9FF99
:1025000004C0DAFFDF50D8A401D001D0E8D700D052
:1025100001C0D9FF02C0DAFF000EDF6E120003C057
:1025200009F004C00AF001C007F002C008F00FD0A3
:1025300009C0D9FF0AC0DAFF07C0E1FF08C0E2FF07
:10254000DFCFE7FF094A0A2A074A082A00D0050612
:10255000D8A006060528D8B40628D8A401D001D0F2
:10256000E7D700D01200035001C0D9FF02C0DAFF44
:10257000DF6201D001D005D001C001F002C002F03D
:1025800011D001C0D9FF02C0DAFF014A022ADF5090
:10259000D8A401D001D0E7D700D0000E026E000E03
:1025A000016E00D0120001C005F002C006F005D097
:1025B000054A062A034A042A00D003C0F6FF04C0D5
:1025C000F7FF000EF86E05C0D9FF06C0DAFF08005D
:1025D000F5CFDFFFDF50D8A401D001D0E9D700D07C
:1025E00012008050F80B000100017C11896E00017F
:1025F00000017C4B7D2B070E000100017C150001C2
:1026000000017C6F000E000100017D1500017D6F4F
:1026100012009EEC13F0000E00010001E86F4F0E57
:102620000001E76F000120EC13F0220E0001000111
:10263000E86FC60E0001E76F0001EDEC13F0120029
:10264000000E00010001ED6F010E0001EC6F948699
:10265000948800010001E7510001E725C86EC6908B
:10266000C682C684C686C580C68A9D861200D38867
:10267000D38AD38CF2EC13F0BCEC13F04DEC13F0D6
:1026800009EC13F0F28EF28C79EC13F000D0F5EC3B
:1026900013F0FDD7FCD70CEF00F0000E0001000195
:1026A0008D6F000E00018C6F000E000100018F6F16
:1026B000000E00018E6F000E00010001916F000EF0
:1026C0000001906F1200000E000100018D6F000EDE
:1026D00000018C6F000E000100018F6F000E0001E1
:1026E0008E6F000E00010001916F000E0001906FCF
:1026F0001200000E926E000E00010001E86FFA0E4B
:102700000001E76F250E00010001EA6FE20E0001F3
:10271000E96F00019EEC0DF012005AC0D9FF5BC0BA
:10272000DAFFDE50DD10D8B401D001D003D07FEC49
:102730000AF003D0CDEC09F000D01200AB8E948EDD
:10274000948CAC9CAC8AAC98AC86AB88AC84B886D4
:10275000220EAF6E9D989D8A1200000E00010001AE
:10276000816F010E0001806F000E926E8050F80B99
:102770000110896EFFD71200AC9CAC8AAC98AC8477
:10278000B886220EAF6E948E948CAB9CAB8EAB98B9
:10279000AB8812000301030E026E0301960E016E58
:1027A00005C003F006C004F066EC12F01200180E2B
:1027B000066E820E056E000E086E000E076E73EC3C
:1027C0000FF0120024C00FF025C010F00D0E126E95
:1027D000640E116EBAEC06F01200E7C0EEF0E8C02D
:0C27E000EFF01200000E936E12001200C9
:020000040020DA
:08000000FFFFFFFFFFFFFFFF00
:020000040030CA
:0E000000FF09191EFF8080FF0FC00FE00F40A8
:00000001FF
