:040000000CEF00F011
:10000800FACF44F0FBCF45F0E9CF46F030ED0BF0E6
:0400180005EF0DF0F3
:100D000001000A006400E803102768656C6C6F201E
:100D1000776F726C64212074686973206973207422
:100D200068652073686974210A002573222573227F
:100D30003A20222573222C0A7D0025732225732256
:100D40003A2025642C0A7D00286E756C6C290022DF
:100D500025732225730066726F6D007B0A7D006D1E
:100D60007367006B6579002C0A003A2000746F00ED
:100D70000000FB0E0101A26FFBD0A751250AD8B4D9
:100D800001D001D00AD0F8C0D9FFF9C0DAFFA7C15D
:100D9000DFFF0001F84BF92BEBD0A06B49D0A2513B
:100DA000D96EDA6ADECFA3F1DDCFA4F1020EA2275D
:100DB000A451A311D8A401D001D022D0480EA36F12
:100DC0000D0EA46F1DD00101A3C1F6FFA4C1F7FF52
:100DD000000EF86EF8C0D9FFF9C0DAFF0C0EF76408
:100DE00003D00800F55005D0F6CFE9FFF7CFEAFFB2
:100DF000EF50DF6E0101A34BA42B0001F84BF92B40
:100E00000101A3C1F6FFA4C1F7FF000EF86E0C0E9E
:100E1000F76403D00800F55005D0F6CFE9FFF7CF0F
:100E2000EAFFEF500009D8A401D001D0CCD7A0D060
:100E30000001FA2BFA05FB6FFBC0F6FF0D0EF76EF3
:100E4000000EF86E08000101F5CFA7F10101A751CE
:100E5000000AD8B4A0D0640AD8B407D00D0AD8B418
:100E600004D01A0AD8B49BD783D0A251D96EDA6ABB
:100E7000DECFA3F1DDCFA4F1020EA227A4AF01D0F3
:100E800001D006D0030EA013A36DA41FD8B0A42BCD
:100E9000010EA76FA751020DF350000F0001FB6F69
:100EA000FBC0F6FF0D0EF76E000EF86E0900F5CFD1
:100EB000FCF00900F5CFFDF0FC510101A35D00013C
:100EC000FD510101A459D8B001D001D001D007D003
:100ED000A72BA751050AD8A401D001D0DBD7A05178
:100EE000030BD8B401D001D009D0F8C0D9FFF9C0A4
:100EF000DAFF2D0EDF6E0001F84BF92BA7C1A1F12F
:100F00002FD0A151020DF350000F0001FB6FFBC069
:100F1000F6FF0D0EF76E000EF86E0900F5CFEEF03D
:100F20000A00F5CFEFF0A3C1ECF0A4C1EDF045EC61
:100F30000FF0ECC0F3F0EDC0F4F0000EF66F0A0E07
:100F4000F56FF5EC0FF0F351300F0101A76FF8C00A
:100F5000D9FFF9C0DAFFA7C1DFFF0001F84BF92B79
:100F60000101A1070101A129D8A401D001D0C9D74D
:100F70000001FA2BFA05FB6FFBC0F6FF0D0EF76EB2
:100F8000000EF86E08000101F5CFA7F10101A76777
:100F900001D001D0F2D6F8C0D9FFF9C0DAFF000EB7
:100FA000DF6E1200390E3E6EE9D04350250AD8B4E8
:100FB00001D001D009D036C0D9FF37C0DAFF43C015
:100FC000DFFF364A372ADAD03C6A45D03E50D96E28
:100FD000DA6ADECF3FF0DDCF40F0020E3E26405011
:100FE0003F10D8A401D001D01FD0480E3F6E0D0E87
:100FF000406E1AD03FC0F6FF40C0F7FF000EF86EFB
:1010000036C0D9FF37C0DAFF0C0EF76403D00800F2
:10101000F55005D0F6CFE9FFF7CFEAFFEF50DF6ECE
:101020003F4A402A364A372A3FC0F6FF40C0F7FF02
:10103000000EF86E0C0EF76403D00800F55005D0D2
:10104000F6CFE9FFF7CFEAFFEF500009D8A401D0AF
:1010500001D0D0D793D0382A3804396E39C0F6FF82
:101060000D0EF76E000EF86E0800F5CF43F04350FA
:10107000000AD8B493D0640AD8B407D00D0AD8B403
:1010800004D01A0AD8B4A2D779D03E50D96EDA6A01
:10109000DECF3FF0DDCF40F0020E3E2640AE01D065
:1010A00001D006D0030E3C123F6C401ED8B0402A3F
:1010B000010E436E4350020DF350000F396E39C0DC
:1010C000F6FF0D0EF76E000EF86E0900F5CF3AF040
:1010D0000900F5CF3BF03A503F5C3B504058D8B048
:1010E00001D001D001D007D0432A4350050AD8A42B
:1010F00001D001D0DFD73C50030BD8B401D001D0D0
:1011000008D036C0D9FF37C0DAFF2D0EDF6E364A61
:10111000372A43C03DF02CD03D50020DF350000F54
:10112000396E39C0F6FF0D0EF76E000EF86E09002D
:10113000F5CF2CF00A00F5CF2DF03FC02AF040C0CB
:101140002BF072EC0FF02AC031F02BC032F0000E01
:10115000346E0A0E336E1CEC10F03150300F436EBB
:1011600036C0D9FF37C0DAFF43C0DFFF364A372A1F
:101170003D063D28D8A401D001D0CED7382A380466
:10118000396E39C0F6FF0D0EF76E000EF86E0800CE
:10119000F5CF43F0436601D001D007D736C0D9FF61
:1011A00037C0DAFF000EDF6E1200C7A601D001D0F3
:1011B00010D0C7B401D001D00CD0C7BA01D001D033
:1011C00008D0C7A001D001D004D0C950C688136A86
:1011D000146AC7B601D001D004D0C7A801D001D08D
:1011E00037D0C7B401D001D033D0C7AA01D001D0C5
:1011F0002FD0C7A001D001D02BD0C9CF32F0336A95
:101200000301000E1324D96E030E1420DA6E32C0CF
:10121000DFFF000E1324D96E030E1420DA6EDF50A8
:10122000D8A401D001D010D022502110D8B401D0C0
:1012300001D00AD021C02EF022C02FF0030E316E53
:10124000000E306EFFEC0BF0134A142AC6886BD0E8
:10125000C7A601D001D030D0C7A401D001D02CD076
:10126000C7BA01D001D028D069516811D8A401D0E3
:1012700001D018D024502310D8B401D001D00BD005
:1012800001D809D00500FA6E2350FD6E2450FE6E81
:10129000FF6AFA501200000E0001696F010E686FBC
:1012A000156A166A0301000E1524D96E030E162066
:1012B000DA6EDF50C96ECAD7C7A601D001D026D0DA
:1012C000C7A401D001D022D0C7AA01D001D01ED01E
:1012D000C7B001D001D01AD0154A162A0301000E5A
:1012E0001524D96E030E1620DA6EDF50C96E000E7B
:1012F0001524D96E030E1620DA6EDF50D8A401D063
:1013000001D0A4D70001686B696BA0D7C7A601D034
:1013100001D009D0C7AA01D001D005D0C7B001D0F3
:1013200001D001D000D0120025042610D8A401D08D
:1013300001D010D020EE02F01F50D9262050DA2222
:10134000DF50326ED8803234C96E000E266E060E23
:10135000256E8BD02550060A2610D8A401D001D0C6
:1013600006D0C586000E266E050E256E7ED0255051
:10137000020A2610D8B401D001D007D02550050AA2
:101380002610D8A401D001D048D0C58820EE6AF03C
:101390001F50D9262050DA22DECF32F0DDCF33F0D5
:1013A00032501F24346E33502020356E040E342406
:1013B000D96E000E3520DA6EC9CFDFFF20EE6AF05D
:1013C0001F50D9262050DA22DECF32F0DDCF33F0A5
:1013D00032501F24346E33502020356E040E3424D6
:1013E000D96E000E3520DA6EDF50D8A401D001D0BE
:1013F00006D0C584000E266E040E256E04D0000EA5
:10140000266E060E256E20EE6AF01F50D92620505B
:10141000DA22DE2A000EDD2228D02550040A26100A
:10142000D8A401D001D021D020EE6CF01F50D926D5
:101430002050DA22DECF2EF0DDCF2FF0040E1F2455
:10144000306E000E2020316EFFEC0BF020EE02F02B
:101450001F50D9262050DA22FF0EDE6EFF0EDD6E01
:101460001F6A206ACAEC0FF000D012002504261073
:10147000D8A401D001D010D020EE02F01F50D92600
:101480002050DA22DF50326ED8903234C96E000E0E
:10149000266E020E256E7AD02550020A2610D8B488
:1014A00001D001D007D02550030A2610D8A401D0BE
:1014B00001D047D020EE6AF01F50D9262050DA2202
:1014C00010EE68F01F50E1262050E222E652DE5274
:1014D000E550800A326EDD50800A325C02E1DF5056
:1014E000E75CD8B001D001D026D020EE68F01F50C4
:1014F000D9262050DA22DECF32F0DDCF33F0325061
:101500001F24346E33502020356E040E3424D96EDF
:10151000000E3520DA6EDF50C96E20EE68F01F50E5
:10152000D9262050DA22DE2A000EDD22000E266E99
:10153000030E256E2BD0C584000E266E040E256E7C
:1015400025D02550040A2610D8A401D001D01ED0E1
:1015500020EE6CF01F50D9262050DA22DECF2EF07C
:10156000DDCF2FF0000E316E000E306EFFEC0BF071
:1015700020EE02F01F50D9262050DA22FF0EDE6E38
:10158000FF0EDD6E1F6A206ACAEC0FF012000250D7
:101590000110D8B401D001D01CD00FC0ECF010C0A5
:1015A000EDF003C0EEF004C0EFF00001E4EC0DF04C
:1015B000ED51EC11D8A401D001D00BD001D809D045
:1015C0000500FA6E0150FD6E0250FE6EFF6AFA5081
:1015D000120006500510D8B401D001D01CD00FC0A5
:1015E000ECF010C0EDF007C0EEF008C0EFF0000125
:1015F000E4EC0DF0ED51EC11D8A401D001D00BD0EA
:1016000001D809D00500FA6E0550FD6E0650FE6E39
:10161000FF6AFA5012000A500910D8B401D001D064
:101620001CD00FC0ECF010C0EDF00BC0EEF00CC001
:10163000EFF00001E4EC0DF0ED51EC11D8A401D075
:1016400001D00BD001D809D00500FA6E0950FD6E0B
:101650000A50FE6EFF6AFA5012000F4A102A12005A
:101660000600EACF47F0E1CF48F0E2CF49F0D9CF0A
:101670004AF0DACF4BF0F3CF4CF0F4CF4DF0F6CF89
:101680004EF0F7CF4FF0F8CF50F0F5CF51F09EA6C7
:1016900001D001D013D09E96000167516611D8B4D5
:1016A00001D001D002D0D5EC08F00001FF51FE11AD
:1016B000D8B401D001D002D047EC11F0F2A401D08F
:1016C00001D003D0F2948AEC11F09EAA01D001D08F
:1016D00002D0E4EC0EF09EA801D001D002D0ADEC17
:1016E0000EF09DEC0DF0000161516011D8B401D0F5
:1016F00001D002D0B2EC11F051C0F5FF50C0F8FF9C
:101700004FC0F7FF4EC0F6FF4DC0F4FF4CC0F3FFD3
:101710004BC0DAFF4AC0D9FF49C0E2FF48C0E1FF31
:1017200047C0EAFF46C0E9FF45C0FBFF44C0FAFFDF
:10173000110002500110D8B401D001D01BD00FC04D
:101740002AF010C02BF003C02CF004C02DF028ECC0
:101750000EF02B502A10D8A401D001D00BD001D804
:1017600009D00500FA6E0150FD6E0250FE6EFF6A50
:10177000FA50120006500510D8B401D001D01BD089
:101780000FC02AF010C02BF007C02CF008C02DF0BD
:1017900028EC0EF02B502A10D8A401D001D00BD089
:1017A00001D809D00500FA6E0550FD6E0650FE6E98
:1017B000FF6AFA5012000A500910D8B401D001D0C3
:1017C0001BD00FC02AF010C02BF00BC02CF00CC0A7
:1017D0002DF028EC0EF02B502A10D8A401D001D007
:1017E0000BD001D809D00500FA6E0950FD6E0A50E1
:1017F000FE6EFF6AFA5012000F4A102A12001850AB
:101800001710D8A401D001D010D00401040E2B6E03
:10181000000E2A6E30C02CF031C02DF069EC10F0B3
:101820002EC017F02FC018F042D01A501910D8A4AB
:1018300001D001D010D00501050E2B6E000E2A6ECE
:1018400030C02CF031C02DF069EC10F02EC019F032
:101850002FC01AF02CD01C501B10D8A401D001D0DE
:1018600010D00601060E2B6E000E2A6E30C02CF032
:1018700031C02DF069EC10F02EC01BF02FC01CF011
:1018800016D01E501D10D8A401D001D010D00701D1
:10189000070E2B6E000E2A6E30C02CF031C02DF0DA
:1018A00069EC10F02EC01DF02FC01EF000D0120009
:1018B0006C29D8B46D29D8A401D001D021D0F6C0AC
:1018C0006CF0F7C06DF0000EED6F6E0EEC6FF8C0AF
:1018D000EEF0F9C0EFF0FAC0F0F0FBC0F1F0D7EC99
:1018E00010F0D26BD36BFAC0D4F0FBC0D5F0FCC0C3
:1018F000D6F0FDC0D7F0000E6B6F010E6A6F2CD0D2
:1019000001010229D8B40329D8A401D001D024D0E0
:10191000F6C002F1F7C003F1686B696B010E0001BC
:10192000ED6F0101040E0001EC6FF8C0EEF0F9C09C
:10193000EFF0FAC0F0F0FBC0F1F0D7EC10F0FAC015
:101940006AF1FBC06BF1FCC06CF1FDC06DF1000EE3
:101950000101016F010E006F9FEC0FF012000001FA
:101960006C29D8B46D29D8A401D001D022D034C0BC
:101970006CF035C06DF0000E2B6E6E0E2A6E36C008
:101980002CF037C02DF038C02EF039C02FF0FAEC13
:1019900010F00001D26BD36B38C0D4F039C0D5F051
:1019A0003AC0D6F03BC0D7F0000E6B6F010E6A6FE5
:1019B00029D001010229D8B40329D8A401D001D02B
:1019C00021D034C002F135C003F1686B696B010EA0
:1019D0002B6E040E2A6E36C02CF037C02DF038C0A6
:1019E0002EF039C02FF0FAEC10F038C06AF139C08F
:1019F0006BF13AC06CF13BC06DF1000E0101016F5B
:101A0000010E006FCAEC0FF012000BEE00F0C80ED2
:101A1000EE6AE806FDE10AEE00F0C80EEE6AE8069E
:101A2000FDE109EE00F0C80EEE6AE806FDE108EE01
:101A300000F0C80EEE6AE806FDE107EE00F0C80E01
:101A4000EE6AE806FDE106EE00F0C80EEE6AE80672
:101A5000FDE105EE00F0C80EEE6AE806FDE104EED9
:101A600000F0C80EEE6AE806FDE103EE00F0C80ED5
:101A7000EE6AE806FDE102EE00F0C80EEE6AE80646
:101A8000FDE101EE00F0A00EEE6AE806FDE100EED9
:101A900060F08C0EEE6AE806FDE100EE01F0290E22
:101AA000EE6AE806FDE1000132EF11F01850171060
:101AB000D8B401D001D00BD001D809D00500FA6EFE
:101AC0001750FD6E1850FE6EFF6AFA5012001A5041
:101AD0001910D8B401D001D00BD001D809D005001D
:101AE000FA6E1950FD6E1A50FE6EFF6AFA5012001F
:101AF0001C501B10D8B401D001D00BD001D809D094
:101B00000500FA6E1B50FD6E1C50FE6EFF6AFA5007
:101B100012001E501D10D8B401D001D00BD001D836
:101B200009D00500FA6E1D50FD6E1E50FE6EFF6A54
:101B3000FA501200A0EC11F0120018501710D8B48F
:101B400001D001D00BD001D809D00500FA6E175092
:101B5000FD6E1850FE6EFF6AFA5012001A501910EE
:101B6000D8B401D001D00BD001D809D00500FA6E4D
:101B70001950FD6E1A50FE6EFF6AFA5012001C508A
:101B80001B10D8B401D001D00BD001D809D005006A
:101B9000FA6E1B50FD6E1C50FE6EFF6AFA5012006A
:101BA0001E501D10D8B401D001D00BD001D809D0DF
:101BB0000500FA6E1D50FD6E1E50FE6EFF6AFA5053
:101BC0001200A9EC11F012000001F16BEDAF01D091
:101BD00001D006D0EC6DED1FD8B0ED2B010EF16FEA
:101BE000EFAF01D001D004D0EE6DEF1FD8B0EF2BD6
:101BF000EF51EE11D8B401D001D01CD0010EF06F1E
:101C000004D0D890EE37EF37F02BEFAF01D001D0F2
:101C1000F8D7EE51EC5DEF51ED59D8A001D001D0CD
:101C200004D0EE51EC5FEF51ED5BD890EF33EE3323
:101C3000F02FEFD7F151D8B401D001D004D0EC6D22
:101C4000ED1FD8B0ED2BECC0ECF0EDC0EDF01200C4
:101C50002F6A2BAE01D001D006D02A6C2B1ED8B033
:101C60002B2A010E2F6E2DAE01D001D004D02C6C8A
:101C70002D1ED8B02D2A2D502C10D8B401D001D053
:101C80001CD0010E2E6E04D0D8902C362D362E2A64
:101C90002DAE01D001D0F8D72C502A5C2D502B58F6
:101CA000D8A001D001D004D02C502A5E2D502B5A40
:101CB000D8902D322C322E2EEFD72F50D8B401D001
:101CC00001D004D02A6C2B1ED8B02B2A2AC02AF0AF
:101CD0002BC02BF01200296601D001D011D0D58E77
:101CE000D58CD59AD596D550F80B0209D56EF28AC7
:101CF000016A026A056A066A096A0A6A010E296EA1
:101D000002500110D8A401D001D009D0EEC001F0DA
:101D1000EFC002F0ECC003F0EDC004F01DD006509F
:101D20000510D8A401D001D009D0EEC005F0EFC055
:101D300006F0ECC007F0EDC008F00ED00A50091014
:101D4000D8A401D001D008D0EEC009F0EFC00AF04D
:101D5000ECC00BF0EDC00CF01200000165516411F5
:101D6000D8B401D001D002D09D982DD00201640ECC
:101D70002724D96E020E2820DA6EDF50D8A401D0B5
:101D800001D009D0AD6A276A286A000E0001656F8C
:101D9000010E646F18D0640E2724D96E020E28201D
:101DA000DA6E010EDF6201D001D004D0AD6A274A9D
:101DB000282A09D0640E2724D96E020E2820DA6E54
:101DC000DF50AD6EF4D71200AB50AECF32F03266BA
:101DD00001D001D01ED00201000E1124D96E020ED6
:101DE0001220DA6E000EDF6E116A126A0001635172
:101DF0006211D8B401D001D017D062C02EF063C0F8
:101E00002FF00201020E316E000E306EFFEC0BF06F
:101E10000BD00201000E1124D96E020E1220DA6ED0
:101E200032C0DFFF114A122A12000101010E000127
:101E3000F96F01016E0E0001F86F0A0EFA6FB9EC2E
:101E400006F0000E0001F76F4F0EF66F0101010E54
:101E50000001F96F01016E0E0001F86F0101010E22
:101E60000001ED6F01016E0E0001EC6F43EC10F00C
:101E7000010EEC25FA6F000EED21FB6F230EFD6FB6
:101E8000780EFC6F58EC0CF01200F16BF26BEF5116
:101E9000EE11D8B401D001D020D0010EF06F04D0E3
:101EA000D890EE37EF37F02BEFAF01D001D0F8D755
:101EB000D890F137F237EE51EC5DEF51ED59D8A0E3
:101EC00001D001D005D0EE51EC5FEF51ED5BF18117
:101ED000D890EF33EE33F02FEBD7F1C0ECF0F2C037
:101EE000EDF012002F6A306A2D502C10D8B401D0BA
:101EF00001D020D0010E2E6E04D0D8902C362D3675
:101F00002E2A2DAE01D001D0F8D7D8902F363036FA
:101F10002C502A5C2D502B58D8A001D001D005D0D0
:101F20002C502A5E2D502B5A2F80D8902D322C32D7
:101F30002E2EEBD72FC02AF030C02BF012002050ED
:101F40001F10D8A401D001D024D000016C29D8B42E
:101F50006D29D8B401D001D005D0000E206E6A0ED4
:101F60001F6E0CD001010229D8B40329D8B401D0C6
:101F700001D004D0010E206E000E1F6E20501F10E5
:101F8000D8B401D001D005D0000E266E010E256E0A
:101F9000C580120020501F10D8A401D001D024D039
:101FA00000016C29D8B46D29D8B401D001D005D076
:101FB000000E206E6A0E1F6E0CD001010229D8B4EB
:101FC0000329D8B401D001D004D0010E206E000E38
:101FD0001F6E20501F10D8B401D001D005D0000EC4
:101FE000266E010E256EC5801200F651F511D8B48B
:101FF00001D001D01CD0010EF76F04D0D890F53776
:10200000F637F72BF6AF01D001D0F8D7F551F35DD5
:10201000F651F459D8A001D001D004D0F551F35FA6
:10202000F651F45BD890F633F533F72FEFD7F3C0C2
:10203000F3F0F4C0F4F0120034503310D8B401D0EF
:1020400001D01CD0010E356E04D0D8903336343612
:10205000352A34AE01D001D0F8D73350315C34503A
:102060003258D8A001D001D004D03350315E345062
:10207000325AD89034323332352EEFD731C031F066
:1020800032C032F01200ECC0EEF0EDC0EFF003D041
:102090000001EE4BEF2BEEC0F6FFEFC0F7FF000E96
:1020A000F86E0C0EF76403D00800F55005D0F6CF9B
:1020B000E9FFF7CFEAFFEF500009D8A401D001D023
:1020C000E7D70001EC51EE5DEC6FED51EF59ED6F8C
:1020D00012002D502C10D8A401D001D00FD01DD04B
:1020E0002CC0D9FF2DC0DAFF2AC0E1FF2BC0E2FFD0
:1020F000DFCFE7FF2A4A2B2A2C4A2D2A2CC0D9FFF2
:102100002DC0DAFFDF50D8A401D001D0E9D72AC012
:10211000D9FF2BC0DAFF000EDF6E12000101010EA5
:10212000376E6E0E366E0A0E386ED2EC07F0000E69
:10213000356E4F0E346E0101010E376E6E0E366E27
:10214000010E2B6E6E0E2A6EB3EC10F0010E2A24D7
:10215000386E000E2B20396E230E3B6E7C0E3A6ECD
:10216000AFEC0CF012002AC02CF02BC02DF002D0E6
:102170002C4A2D2A2CC0F6FF2DC0F7FF000EF86E5A
:102180000C0EF76403D00800F55005D0F6CFE9FF38
:10219000F7CFEAFFEF500009D8A401D001D0E8D76B
:1021A0002A502C5C2A6E2B502D582B6E1200EEC03C
:1021B000F4F0EFC0F5F0ECC0F2F0EDC0F3F00ED0AB
:1021C000F4C0D9FFF5C0DAFFF2C0E1FFF3C0E2FFCF
:1021D000DFCFE7FFF44BF52BF24BF32BF007D8A042
:1021E000F1070001F029D8B4F129D8A401D001D019
:1021F000E7D712002CC032F02DC033F02AC030F0E7
:102200002BC031F00ED032C0D9FF33C0DAFF30C05E
:10221000E1FF31C0E2FFDFCFE7FF324A332A304A25
:10222000312A2E06D8A02F062E28D8B42F28D8A4BD
:1022300001D001D0E8D71200000E0001FF6F010E9F
:10224000FE6FC58694869488C78E280EC66E280EAB
:10225000C86E9D866C696D690101026903691F6A18
:10226000206A1200700ED312BAEC11F057EC11F084
:10227000A0EC11F065EC11F0F28EF28C73EC11F021
:10228000BDEC11F056EC0DF0FBD70CEF00F01FC0C9
:10229000D9FF20C0DAFFDE50DD10D8B401D001D064
:1022A00003D036EC0AF002D094EC09F01200AC9C9A
:1022B000AC8AAC98AC84B886220EAF6E948E948CA7
:1022C000AB9CAB8EAB98AB8812001CEC11F0000EEF
:1022D0000001ED6F640EEC6F1E0EEF6F2A0EEE6FB5
:1022E0006BEC0EF01200926A000EED6FFA0EEC6FBE
:1022F000220EEF6FFE0EEE6F6BEC0EF012008050B0
:10230000F80B0D10896E0D4A0E2A070E0D16000EE1
:102310000E161200170E2F6E320E2E6E000E316E3C
:10232000000E306EFFEC0BF012008050F80B0D1019
:10233000896E0D4A0E2A070E0D16000E0E1612009B
:10234000176A186A196A1A6A1B6A1C6A1D6A1E6A69
:102350001200176A186A196A1A6A1B6A1C6A1D6ACF
:102360001E6A1200000E616F010E606F926A89860C
:0E237000FFD71200936A120012001200120032
:020000040020DA
:08000000FFFFFFFFFFFFFFFF00
:020000040030CA
:0E000000FF09191EFF8080FF0FC00FE00F40A8
:00000001FF
