:040000000CEF00F011
:10000800FACF31F0FBCF32F0E9CF33F0CAED0DF083
:04001800B5EF0FF041
:100D000001000A006400E8031027406D61737465F8
:100D10007200286E756C6C2900406D6F746F7200E4
:100D200025733A25640A0025733A25730A00667212
:100D30006F6D0073657400737562006D7367006B8F
:100D4000657900636300256400746F00000043C090
:100D50001DF044C01EF01DC00EF01EC00FF0490E65
:100D6000106E0401040E126E000E116E02EC0FF0F4
:100D700004010051230AD8A401D001D07BD0000186
:100D8000A651A511D8B401D001D01ED0000E026E1C
:100D9000910E016E0401040E046E000E036EA3ECAE
:100DA00010F002500110D8A401D001D00DD001D80C
:100DB0000AD00500FA6E0001A551FD6EA651FE6E27
:100DC000FF6AFA50120049D0010115511411D8B42C
:100DD00001D001D01ED0010E026E000E016E040182
:100DE000040E046E000E036EA3EC10F0025001100E
:100DF000D8A401D001D00DD001D80AD00500FA6ED8
:100E000001011451FD6E1551FE6EFF6AFA50120079
:100E100024D001012B512A11D8B401D001D01DD00A
:100E2000010E026E160E016E0401040E046E000E19
:100E3000036EA3EC10F002500110D8A401D001D031
:100E40000CD001D80AD00500FA6E01012A51FD6EBE
:100E50002B51FE6EFF6AFA501200000E546E010E06
:100E6000536E1DC013F01EC014F09EEC0AF0536ABE
:100E7000546ABED0040E026E000E016E0101010E16
:100E8000046E800E036EA3EC10F002500110D8A483
:100E900001D001D0ADD01DC00EF01EC00FF0370E36
:100EA000106E0401040E126E000E116E02EC0FF0B3
:100EB00004010051630AD8A401D001D04FD00151E0
:100EC000630AD8A401D001D049D01DC00EF01EC0C5
:100ED0000FF03F0E106EA0EC0EF00EC01BF00FC016
:100EE0001CF01C500001611902E11B506019D8A4CC
:100EF00001D001D015D06029D8B46129D8B401D06F
:100F000001D00ED062C005F063C006F01DC007F02E
:100F10001EC008F0EFEC10F000016069616968D054
:100F20001C50651902E11B506419D8A401D001D0EE
:100F30005FD06429D8B46529D8B401D001D058D085
:100F400066C005F067C006F01DC007F01EC008F0BF
:100F5000EFEC10F00001646965694AD0010141516C
:100F60004011D8B401D001D01ED0010E026E2C0E5B
:100F7000016E0401040E046E000E036EA3EC10F06B
:100F800002500110D8A401D001D00DD001D80AD050
:100F90000500FA6E01014051FD6E4151FE6EFF6A7F
:100FA000FA50120025D0010157515611D8B401D082
:100FB00001D01ED0010E026E420E016E0401040E1D
:100FC000046E000E036EA3EC10F002500110D8A4C2
:100FD00001D001D00DD001D80AD00500FA6E010170
:100FE0005651FD6E5751FE6EFF6AFA50120000D046
:100FF0001200100E196EE9D01E50250AD8B401D087
:1010000001D009D00DC0D9FF0EC0DAFF1EC0DFFF2E
:101010000D4A0E2ADAD0176A45D01950D96EDA6A0D
:10102000DECF1AF0DDCF1BF0020E19261B501A106E
:10103000D8A401D001D01FD0120E1A6E0D0E1B6E57
:101040001AD01AC0F6FF1BC0F7FF000EF86E0DC0D5
:10105000D9FF0EC0DAFF0C0EF76403D00800F5507C
:1010600005D0F6CFE9FFF7CFEAFFEF50DF6E1A4A5F
:101070001B2A0D4A0E2A1AC0F6FF1BC0F7FF000EEE
:10108000F86E0C0EF76403D00800F55005D0F6CFCB
:10109000E9FFF7CFEAFFEF500009D8A401D001D053
:1010A000D0D793D00F2A0F04146E14C0F6FF0D0E84
:1010B000F76E000EF86E0800F5CF1EF01E50000A05
:1010C000D8B493D0640AD8B407D00D0AD8B404D0E9
:1010D0001A0AD8B4A2D779D01950D96EDA6ADECFFD
:1010E0001AF0DDCF1BF0020E19261BAE01D001D085
:1010F00006D0030E17121A6C1B1ED8B01B2A010E45
:101100001E6E1E50020DF350000F146E14C0F6FF39
:101110000D0EF76E000EF86E0900F5CF15F0090000
:10112000F5CF16F015501A5C16501B58D8B001D0E8
:1011300001D001D007D01E2A1E50050AD8A401D024
:1011400001D0DFD71750030BD8B401D001D008D09D
:101150000DC0D9FF0EC0DAFF2D0EDF6E0D4A0E2A2C
:101160001EC018F02CD01850020DF350000F146E52
:1011700014C0F6FF0D0EF76E000EF86E0900F5CFE5
:1011800003F00A00F5CF04F01AC001F01BC002F012
:10119000ECEC13F001C008F002C009F0000E0B6E79
:1011A0000A0E0A6E6DEC14F00850300F1E6E0DC062
:1011B000D9FF0EC0DAFF1EC0DFFF0D4A0E2A180647
:1011C0001828D8A401D001D0CED70F2A0F04146E4E
:1011D00014C0F6FF0D0EF76E000EF86E0800F5CF86
:1011E0001EF01E6601D001D007D70DC0D9FF0EC07A
:1011F000DAFF000EDF6E1200C7A601D001D010D0BA
:10120000C7B401D001D00CD0C7BA01D001D008D0EA
:10121000C7A001D001D004D0C950C6887C6B7D6BBB
:10122000C7B601D001D004D0C7A801D001D040D0AA
:10123000C7B401D001D03CD0C7AA01D001D038D06A
:10124000C7A001D001D034D0C9CF09F00A6A050186
:10125000000E00017C25D96E0501050E00017D21DF
:10126000DA6E09C0DFFF0501000E00017C25D96E92
:101270000501050E00017D21DA6EDF50D8A401D0F2
:1012800001D011D087518611D8B401D001D00BD034
:1012900086C005F087C006F00501050E086E000E39
:1012A000076EEFEC10F000017C4B7D2BC68883D0DD
:1012B000C7A601D001D042D0C7A401D001D03ED0F2
:1012C000C7BA01D001D03AD085518411D8A401D039
:1012D00001D018D089518811D8B401D001D00BD0D9
:1012E00001D809D00500FA6E8851FD6E8951FE6E55
:1012F000FF6AFA501200000E0001856F010E846F24
:101300004B6A4C6AC9500501000E4B24D96E050E7C
:101310004C20DA6EDF50D8A401D001D006D00001F5
:10132000846B856BC96AC68846D0000E4B24D96E83
:10133000050E4C20DA6EDF50C96EB8D7C7A601D0B3
:1013400001D02CD0C7A401D001D028D0C7AA01D089
:1013500001D024D0C7B001D001D020D08551841154
:10136000D8B401D001D027D04B4A4C2A0501000E39
:101370004B24D96E050E4C20DA6EDF50C96E000E7C
:101380004B24D96E050E4C20DA6EDF50D8A401D064
:1013900001D08CD70001846B856B88D7C7A601D09C
:1013A00001D009D0C7AA01D001D005D0C7B001D063
:1013B00001D001D000D0120048504710D8B401D05D
:1013C00001D099D00001A851A711D8B401D001D003
:1013D0002CD0A90E176E17C001F0026A13C003F0DB
:1013E00014C004F0A3EC10F002500110D8A401D0F6
:1013F00001D01BD0A7C00BF0A8C00CF015C00DF099
:1014000016C00EF015C001F016C002F0DFEC14F0AB
:10141000010E01240F6E000E0220106E000E126EDF
:10142000000E116E5FEC0FF088D00001BE51BD11AF
:10143000D8B401D001D02CD0BF0E176E17C001F068
:10144000026A13C003F014C004F0A3EC10F00250C1
:101450000110D8A401D001D01BD0BDC00BF0BEC07C
:101460000CF015C00DF016C00EF015C001F016C03E
:1014700002F0DFEC14F0010E01240F6E000E0220CA
:10148000106E000E126E000E116E5FEC0FF055D054
:101490000001D451D311D8B401D001D02CD0D50E35
:1014A000176E17C001F0026A13C003F014C004F0F5
:1014B000A3EC10F002500110D8A401D001D01BD031
:1014C000D3C00BF0D4C00CF015C00DF016C00EF058
:1014D00015C001F016C002F0DFEC14F0010E01247B
:1014E0000F6E000E0220106E000E126E000E116EB6
:1014F0005FEC0FF022D04A504910D8B401D001D08F
:1015000010D00701070E026E000E016E15C003F029
:1015100016C004F0BAEC14F0000E00018B6F010E3F
:101520008A6F46504510D8B401D001D006D015C0FE
:1015300007F016C008F086EC13F012004A5049106C
:10154000D8B401D001D020D054505310D8B401D019
:1015500001D004D05F6601D001D006D054505310A2
:10156000D8A401D001D010D00701070E026E000EE2
:10157000016E13C003F014C004F0BAEC14F0000EB6
:1015800000018B6F010E8A6F48504710D8B401D00C
:1015900001D074D054505310D8B401D001D005D02C
:1015A0005F04D8A401D001D006D054505310D8A461
:1015B00001D001D063D00001A851A711D8B401D047
:1015C00001D01AD0A7C00BF0A8C00CF013C00DF0CA
:1015D00014C00EF013C001F014C002F0DFEC14F0E0
:1015E000010E01240F6E000E0220106E000E126E0E
:1015F000000E116E5FEC0FF00001BE51BD11D8B4AA
:1016000001D001D01AD0BDC00BF0BEC00CF013C089
:101610000DF014C00EF013C001F014C002F0DFECA6
:1016200014F0010E01240F6E000E0220106E000E49
:10163000126E000E116E5FEC0FF00001D451D31149
:10164000D8B401D001D01AD0D3C00BF0D4C00CF064
:1016500013C00DF014C00EF013C001F014C002F05E
:10166000DFEC14F0010E01240F6E000E0220106E4C
:10167000000E126E000E116E5FEC0FF0465045101A
:10168000D8B401D001D018D054505310D8B401D0E0
:1016900001D006D05F50020AD8A401D001D006D0F4
:1016A00054505310D8A401D001D006D013C007F075
:1016B00014C008F086EC13F01200E8CF2AF0040101
:1016C000040E206E000E1F6EFBEC16F00401040EDB
:1016D000206E000E1F6E490E216E2AC022F00D0EE4
:1016E000236E45EC15F00401040E206E000E1F6EF3
:1016F0002E0E216E0101010E236E800E226E45EC2E
:1017000015F00401040E206E000E1F6E370E216EC0
:1017100026C022F00D0E236E45EC15F00401040ED8
:10172000206E000E1F6E3B0E216E27C022F0236A32
:1017300045EC15F029502810D8B401D001D02FD095
:10174000000177517611D8A401D001D008D028C06B
:1017500062F029C063F05EC060F0616B0DD0760569
:101760007711D8A401D001D007D028C066F029C0D5
:1017700067F05EC064F0656B764B772B010E7617D1
:10178000000E77170401040E206E000E1F6E3F0E30
:10179000216E5EC022F0236A62EC15F00DD00401C8
:1017A000040E206E000E1F6E3F0E216EFF0E236E84
:1017B000FF0E226E62EC15F02AC0F6FF0D0EF76EDA
:1017C000000EF86E0800F550230AD8A401D001D00D
:1017D00008D00401040E146E000E136E9EEC0AF085
:1017E00018D02AC0F6FF0D0EF76E000EF86E080036
:1017F000F550400AD8A401D001D00BD02AC013F074
:101800000D0E146E0401040E166E000E156EDCEC47
:1018100009F05E2A140E016E5E5002EC16F05E6E48
:10182000120057045810D8A401D001D010D020EED7
:1018300002F05550D9265650DA22DF50096ED88072
:101840000934C96E000E586E060E576E97D0575069
:10185000060A5810D8A401D001D006D0C586000EC3
:10186000586E050E576E8AD05750020A5810D8B4D9
:1018700001D001D007D05750050A5810D8A401D084
:1018800001D048D020EE9CF05550D9265650DA228F
:10189000DECF09F0DDCF0AF0095055240B6E0A5057
:1018A00056200C6E040E0B24D96E000E0C20DA6E3E
:1018B000C9CFDFFF20EE9CF05550D9265650DA22D2
:1018C000DECF09F0DDCF0AF0095055240B6E0A5027
:1018D00056200C6E040E0B24D96E000E0C20DA6E0E
:1018E000DF50D8A401D001D006D0C584000E586EB8
:1018F000040E576E05D0000E586E060E576EC58842
:1019000020EE9CF05550D9265650DA22DE2A000EE1
:10191000DD2234D05750040A5810D8A401D001D089
:101920002DD020EE9EF05550D9265650DA22DE50AA
:10193000DD10D8B401D001D012D020EE9EF0555069
:10194000D9265650DA22DECF05F0DDCF06F0040EA0
:101950005524076E000E5620086EEFEC10F020EEB6
:1019600002F05550D9265650DA22FF0EDE6EFF0ED9
:10197000DD6E556A566A19EC14F000D01200570457
:101980005810D8A401D001D010D020EE02F055504C
:10199000D9265650DA22DF50096ED8900934C96E24
:1019A000000E586E020E576E86D05750020A58101D
:1019B000D8B401D001D007D05750030A5810D8A48A
:1019C00001D001D047D020EE9CF05550D92656507A
:1019D000DA2210EE9AF05550E1265650E222E652F5
:1019E000DE52E550800A096EDD50800A095C02E192
:1019F000DF50E75CD8B001D001D026D020EE9AF0BD
:101A00005550D9265650DA22DECF09F0DDCF0AF044
:101A1000095055240B6E0A5056200C6E040E0B24F0
:101A2000D96E000E0C20DA6EDF50C96E20EE9AF0EF
:101A30005550D9265650DA22DE2A000EDD22000E3D
:101A4000586E030E576E37D0C584000E586E040EC4
:101A5000576E31D05750040A5810D8A401D001D085
:101A60002AD020EE9EF05550D9265650DA22DE506C
:101A7000DD10D8B401D001D010D020EE9EF055502A
:101A8000D9265650DA22DECF05F0DDCF06F0000E63
:101A9000086E000E076EEFEC10F020EE02F05550CD
:101AA000D9265650DA22FF0EDE6EFF0EDD6E556A25
:101AB000566A19EC14F0120002D0074A082A07C02F
:101AC000D9FF08C0DAFFDF50200AD8B401D001D016
:101AD000F4D707C0D9FF08C0DAFFDF50090AD8B42D
:101AE00001D001D0EAD70C6A0D6A0B6A2D0E07C02F
:101AF000D9FF08C0DAFFDF6201D001D004D00B2A81
:101B0000074A082A25D02B0E07C0D9FF08C0DAFFE4
:101B1000DF6201D001D01CD0074A082A19D00CC0BE
:101B200001F00DC002F0000E046E0A0E036EB6EC5A
:101B300015F007C0D9FF08C0DAFFDF500126000EFC
:101B40000222D00E01240C6EFF0E02200D6EE4D78F
:101B500007C0D9FF08C0DAFFDF5040EC16F0D8B05C
:101B600001D001D0DCD70B50D8B401D001D00DD0BA
:101B70000CC009F00DC00AF0091E0A1E094A0A2A03
:101B800009C007F00AC008F004D00CC007F00DC06F
:101B900008F012000600EACF34F0E1CF35F0E2CFD2
:101BA00036F0D9CF37F0DACF38F0F3CF39F0F4CFC1
:101BB0003AF0F6CF3BF0F7CF3CF0F8CF3DF0F5CF61
:101BC0003EF09EA601D001D013D09E960001835115
:101BD0008211D8B401D001D002D0FCEC08F0000191
:101BE0008D518C11D8B401D001D002D076EC16F012
:101BF000F2A401D001D003D0F294DDEC16F09EAA3D
:101C000001D001D002D006EC10F09EA801D001D086
:101C100002D04DEC13F0C4EC11F0000179517811B1
:101C2000D8B401D001D006D0000E026E070E016EAE
:101C3000C6EC16F03EC0F5FF3DC0F8FF3CC0F7FF14
:101C40003BC0F6FF3AC0F4FF39C0F3FF38C0DAFFFB
:101C500037C0D9FF36C0E2FF35C0E1FF34C0EAFF2C
:101C600033C0E9FF32C0FBFF31C0FAFF11000001B1
:101C700069516811D8B401D001D01BD03FC001F028
:101C800040C002F06AC003F06BC004F009EC12F02F
:101C900002500110D8A401D001D00BD001D809D036
:101CA0000500FA6E6851FD6E6951FE6EFF6AFA50CA
:101CB000120000016D516C11D8B401D001D01BD0BD
:101CC0003FC001F040C002F06EC003F06FC004F0EE
:101CD00009EC12F002500110D8A401D001D00BD0B1
:101CE00001D809D00500FA6E6C51FD6E6D51FE6E83
:101CF000FF6AFA501200000171517011D8B401D07E
:101D000001D01BD03FC001F040C002F072C003F010
:101D100073C004F009EC12F002500110D8A401D0F5
:101D200001D00BD001D809D00500FA6E7051FD6EBC
:101D30007151FE6EFF6AFA5012003F4A402A1200AB
:101D40000EC00BF00FC00CF010C00DF07EEC11F0C7
:101D50000BC015F00CC016F010C001F00D0E026E95
:101D6000DFEC14F001C013F002C014F015C011F044
:101D700016C012F01350112614501222010E112415
:101D8000156E000E1220166E16501510D8B401D024
:101D900001D033D0176A186A19D017501524D96E9C
:101DA00018501620DA6E0601000E1724E16E060E9A
:101DB0001820E26EDFCFE7FF010E1724D96E060E62
:101DC0001820DA6E000EDF6E174A182A17501524F5
:101DD000D96E18501620DA6E0A0EDF6201D001D0DB
:101DE000DCD70601060E086E000E076E5CEC0DF0E7
:101DF00007C00EF008C00FF004D0020E0F6E9A0E4E
:101E00000E6E12000EC00BF00FC00CF010C00DF0E3
:101E10007EEC11F00BC017F00CC018F010C001F0F0
:101E20000D0E026EDFEC14F001C015F002C016F0CA
:101E300017C013F018C014F01550132616501422B2
:101E4000010E1324176E000E1420186E1850171070
:101E5000D8B401D001D032D0196A1A6A19D01950F9
:101E60001724D96E1A501820DA6E0601000E1924B4
:101E7000E16E060E1A20E26EDFCFE7FF010E192495
:101E8000D96E060E1A20DA6E000EDF6E194A1A2A73
:101E900019501724D96E1A501820DA6E0A0EDF6214
:101EA00001D001D0DCD711C001F012C002F0060150
:101EB000060E046E000E036EBAEC14F0120002015E
:101EC0000229D8B40329D8A401D001D022D00BC054
:101ED00002F20CC003F2020E026E040E016E0DC07F
:101EE00003F00EC004F00FC005F010C006F003ECC4
:101EF00015F002019A6B9B6B0FC09CF210C09DF213
:101F000011C09EF212C09FF2000E016F010E006F11
:101F100029D003010229D8B40329D8A401D001D0C3
:101F200021D00BC002F30CC003F39A6B9B6B030E22
:101F3000026E040E016E0DC003F00EC004F00FC05F
:101F400005F010C006F003EC15F00FC09CF310C0B4
:101F50009DF311C09EF312C09FF3000E0301016FA9
:101F6000010E006F19EC14F012000BEE00F0960E4B
:101F7000EE6AE806FDE10AEE00F0960EEE6AE8066B
:101F8000FDE109EE00F0960EEE6AE806FDE108EECE
:101F900000F0960EEE6AE806FDE107EE00F0960E00
:101FA000EE6AE806FDE106EE00F0960EEE6AE8063F
:101FB000FDE105EE00F0960EEE6AE806FDE104EEA6
:101FC00000F0FA0EEE6AE806FDE103EE00F0A00E66
:101FD000EE6AE806FDE102EE00F0A00EEE6AE80609
:101FE000FDE101EE00F0A30EEE6AE806FDE100EE71
:101FF00060F0930EEE6AE806FDE100EE3FF0210E80
:10200000EE6AE806FDE100012DEF16F0AECF5DF0BF
:10201000000EABB4010EABB2010EE8A001D001D0AE
:1020200003D0AB98AB8841D05D6601D001D02FD0F2
:10203000096A0A6A8976094A0A2A0A50800A800FC0
:102040000A0ED8B4095CD8A001D001D0F3D708019A
:10205000000E00017A25D96E0801080E00017B21CF
:10206000DA6E000EDF6E7A6B7B6B7F517E11D8B417
:1020700001D001D01AD07EC005F07FC006F0080163
:10208000080E086E000E076EEFEC10F00ED008017F
:10209000000E00017A25D96E0801080E00017B218F
:1020A000DA6E5DC0DFFF7A4B7B2B1200425041108D
:1020B000D8A401D001D011D0A851A711D8B401D013
:1020C00001D00BD0A7C001F0A8C002F02E0E046E04
:1020D0002E0E036EBEEC13F025D041044210D8A49E
:1020E00001D001D011D0BE51BD11D8B401D001D062
:1020F0000BD0BDC001F0BEC002F02E0E046E2E0E3D
:10210000036EBEEC13F00ED04150020A4210D8A468
:1021100001D001D007D0D451D311D8B401D001D00F
:1021200001D0E7D7414A422A41C001F042C002F043
:10213000000E046E030E036E09EC12F001C041F0B4
:1021400002C042F0120004D0014A022A034A042AC3
:1021500003C0F6FF04C0F7FF000EF86E0C0EF76424
:1021600003D00800F55005D0F6CFE9FFF7CFEAFF1E
:10217000EF50056E01C0F6FF02C0F7FF000EF86ECB
:102180000C0EF76403D00800F55005D0F6CFE9FF38
:10219000F7CFEAFFEF50066E0550065C076E076644
:1021A00001D001D016D001C0F6FF02C0F7FF000E2B
:1021B000F86E0C0EF76403D00800F55005D0F6CF8A
:1021C000E9FFF7CFEAFFEF500009D8A401D001D012
:1021D000BBD70750016E026A01BE020612004E50C4
:1021E0004D10D8A401D001D010D00901090E026E03
:1021F000000E016E07C003F008C004F00FEC13F0EE
:1022000005C04DF006C04EF032D050504F10D8A44B
:1022100001D001D010D00A010A0E026E000E016E2C
:1022200007C003F008C004F00FEC13F005C04FF036
:1022300006C050F01CD052505110D8A401D001D08B
:1022400010D00B010B0E026E000E016E07C003F0E2
:1022500008C004F00FEC13F005C051F006C052F0B6
:1022600006D0000E026E010E016EC6EC16F01200D2
:10227000A851A711D8A401D001D00FD0F7C0A7F062
:10228000F8C0A8F0000EF46FA90EF36FF9C0F5F0D6
:102290000D0EF66FCFEC12F030D0BE51BD11D8A4A8
:1022A00001D001D00FD0F7C0BDF0F8C0BEF0000ED5
:1022B000F46FBF0EF36FF9C0F5F00D0EF66FCFECB3
:1022C00012F01BD0D451D311D8A401D001D00FD01B
:1022D000F7C0D3F0F8C0D4F0000EF46FD50EF36F52
:1022E000F9C0F5F00D0EF66FCFEC12F006D0000E2F
:1022F000F46F030EF36FD2EC16F0120033D00BC064
:1023000005F00CC006F00DC007F00DC001F00D0E79
:10231000026EDFEC14F001C008F002C009F08EEC90
:1023200012F006500510D8A401D001D005D00BC082
:102330000BF00CC00CF027D0010E0B24016E000E28
:102340000C20026E0DC0F6FF0D0EF76E000EF86E3B
:102350000800F550036E046A7FEC15F001C00BF025
:1023600002C00CF00C500B10D8B401D001D009D031
:102370000BC0D9FF0CC0DAFFDF50D8A401D001D0C8
:10238000BED70B6A0C6A12004E504D10D8B401D063
:1023900001D010D00901090E446E000E436E01D821
:1023A00009D00500FA6E4D50FD6E4E50FE6EFF6A6C
:1023B000FA50120050504F10D8B401D001D010D0B4
:1023C0000A010A0E446E000E436E01D809D00500C2
:1023D000FA6E4F50FD6E5050FE6EFF6AFA501200BA
:1023E00052505110D8B401D001D010D00B010B0EB7
:1023F000446E000E436E01D809D00500FA6E5150AC
:10240000FD6E5250FE6EFF6AFA5012000BEC17F090
:102410001200066A02AE01D001D006D0016C021E85
:10242000D8B0022A010E066E04AE01D001D004D04D
:10243000036C041ED8B0042A04500310D8B401D091
:1024400001D01CD0010E056E04D0D890033604369E
:10245000052A04AE01D001D0F8D70350015C045026
:102460000258D8A001D001D004D00350015E04501E
:10247000025AD89004320332052EEFD70650D8B452
:1024800001D001D004D0016C021ED8B0022A01C0D4
:1024900001F002C002F01200906701D001D011D00B
:1024A000D58ED58CD59AD596D550F80B0209D56E18
:1024B000F28A686B696B6C6B6D6B706B716B010E84
:1024C000906F69516811D8A401D001D009D0F5C02E
:1024D00068F0F6C069F0F3C06AF0F4C06BF01DD08C
:1024E0006D516C11D8A401D001D009D0F5C06CF0A9
:1024F000F6C06DF0F3C06EF0F4C06FF00ED0715105
:102500007011D8A401D001D008D0F5C070F0F6C089
:1025100071F0F3C072F0F4C073F0120033D005C054
:10252000D9FF06C0DAFFDF50D8B401D001D013D0F4
:1025300007C0F6FF0D0EF76E000EF86E0800F5CF1F
:102540000AF005C0D9FF06C0DAFFDF500A18D8B478
:1025500001D001D014D005C0D9FF06C0DAFFDF508A
:102560000A6E07C0F6FF0D0EF76E000EF86E08003B
:10257000F5500A5C056E066AD8A006060FD0054A1B
:10258000062A072A0806D8A009060828D8B4092868
:10259000D8A401D001D0C3D7056A066A1200F6514B
:1025A000F511D8A401D001D01DD038D00001F5C05C
:1025B000F6FFF6C0F7FF000EF86EF3C0D9FFF4C0C7
:1025C000DAFF0C0EF76403D00800F55005D0F6CF03
:1025D000E9FFF7CFEAFFEF50DF6E0001F34BF42B7A
:1025E000F54BF62BF5C0F6FFF6C0F7FF000EF86EC0
:1025F0000C0EF76403D00800F55005D0F6CFE9FFC4
:10260000F7CFEAFFEF500009D8A401D001D0CED710
:10261000F3C0D9FFF4C0DAFF000EDF6E12000450E1
:102620000310D8A401D001D01BD036D003C0F6FFD0
:1026300004C0F7FF000EF86E01C0D9FF02C0DAFF38
:102640000C0EF76403D00800F55005D0F6CFE9FF73
:10265000F7CFEAFFEF50DF6E014A022A034A042A4D
:1026600003C0F6FF04C0F7FF000EF86E0C0EF7640F
:1026700003D00800F55005D0F6CFE9FFF7CFEAFF09
:10268000EF500009D8A401D001D0D0D701C0D9FFA4
:1026900002C0DAFF000EDF6E1200000181518011CE
:1026A000D8B401D001D002D09D982FD00401960E4D
:1026B0005924D96E040E5A20DA6EDF50D8A401D006
:1026C00001D00BD0AD6A596A5A6A5B6A5C6A000E27
:1026D0000001816F010E806F18D0960E5924D96EBB
:1026E000040E5A20DA6E010EDF6201D001D004D050
:1026F000AD6A594A5A2A09D0960E5924D96E040E49
:102700005A20DA6EDF50AD6EF4D712005C505B10C9
:10271000D8A401D001D00CD00401040E026E960E94
:10272000016E07C003F008C004F0BAEC14F017D033
:102730000401960E5B24D96E040E5C20DA6E010E45
:10274000DF6E970E5B24016E040E5C20026E07C0E4
:1027500003F008C004F0BAEC14F05B4A5C2A07C02E
:1027600001F008C002F0DFEC14F001505B260250CB
:102770005C229D880001806B816B1200020102299E
:10278000D8B40329D8A401D001D00ED001C002F2E0
:1027900002C003F29C6B9D6B03C09EF204C09FF2CB
:1027A000006B016B046B15D003010229D8B4032917
:1027B000D8A401D001D00DD001C002F302C003F3B0
:1027C0009C6B9D6B03C09EF304C09FF3006B016B79
:1027D000046B19EC14F01200066A076A0450031027
:1027E000D8B401D001D020D0010E056E04D0D8900D
:1027F00003360436052A04AE01D001D0F8D7D890AC
:10280000063607360350015C04500258D8A001D0A8
:1028100001D005D00350015E0450025A0680D890C2
:1028200004320332052EEBD706C001F007C002F0D8
:10283000120056505510D8A401D001D024D0020166
:102840000229D8B40329D8B401D001D005D0020E92
:10285000566E000E556E0CD003010229D8B4032920
:10286000D8B401D001D004D0030E566E000E556EC0
:1028700056505510D8B401D001D005D0000E586E76
:10288000010E576EC5801200E8CFF9F00101010E6C
:102890000001F46F0101800E0001F36FF9C0F5F043
:1028A0000D0EF66F94EC14F00001606961696469C3
:1028B0006569A56BA66B0101146B156B2A6B2B6BFD
:1028C0000001A76BA86BBD6BBE6BD36BD46B010112
:1028D000406B416B566B576B12000B500A10D8B40B
:1028E00001D001D01CD0010E0C6E04D0D8900A3655
:1028F0000B360C2A0BAE01D001D0F8D70A50085C79
:102900000B500958D8A001D001D004D00A50085E5D
:102910000B50095AD8900B320A320C2EEFD708C050
:1029200008F009C009F01200F3C0F7F0F4C0F8F0A5
:1029300005D00001F74BF82BF54BF62BF5C0F6FF51
:10294000F6C0F7FF000EF86EF7C0D9FFF8C0DAFF47
:102950000C0EF76403D00800F55005D0F6CFE9FF60
:10296000F7CFEAFFEF50DF6EDF50D8A401D001D0DF
:10297000E0D7120001C005F002C006F004D0054AFD
:10298000062A034A042A03C0F6FF04C0F7FF000E1C
:10299000F86E05C0D9FF06C0DAFF0C0EF76403D04D
:1029A0000800F55005D0F6CFE9FFF7CFEAFFEF506A
:1029B000DF6EDF50D8A401D001D0E1D7120001C0F2
:1029C00003F002C004F002D0034A042A03C0F6FF59
:1029D00004C0F7FF000EF86E0C0EF76403D0080079
:1029E000F55005D0F6CFE9FFF7CFEAFFEF50000929
:1029F000D8A401D001D0E8D70150035C016E025089
:102A00000458026E120003C009F004C00AF001C0AD
:102A100007F002C008F00ED009C0D9FF0AC0DAFFE3
:102A200007C0E1FF08C0E2FFDFCFE7FF094A0A2A3B
:102A3000074A082A0506D8A006060528D8B406289D
:102A4000D8A401D001D0E8D71200000E0001F46F25
:102A5000000EF36FF2EC16F00A0E44EC14F0000EC8
:102A60000001F86F4F0EF76F190EF96F38EC11F087
:102A700053EC16F0010EF46F900EF36F2C0EF66F00
:102A8000320EF56F4CEC12F012001FC001F020C0A6
:102A900002F0DFEC14F001C024F002C025F0245055
:102AA0001F240D6E255020200E6E270E0F6E21C0A4
:102AB00010F00D0E116E22C012F023C013F0F9ECCD
:102AC00007F012001FC001F020C002F0DFEC14F08C
:102AD00001C024F002C025F024501F240D6E2550A3
:102AE00020200E6E200E0F6E21C010F00D0E116E04
:102AF00022C012F023C013F0F9EC07F012000350CB
:102B000001C0D9FF02C0DAFFDF6201D001D005D0D9
:102B100001C001F002C002F00DD001C0D9FF02C017
:102B2000DAFF014A022ADF50D8A401D001D0E7D74A
:102B3000016A026A1200E8CF30F0000E0E6EE90E54
:102B40000D6E460E0F6E2CC010F02DC011F0F9EC7A
:102B500007F02BC026F00001E90E276E2EC028F0EA
:102B60002FC029F030505DEC0BF01200056A066AA8
:102B700001A001D001D004D0035005260450062244
:102B8000D89003360436D890023201320250011038
:102B9000D8A401D001D0ECD705C001F006C002F0E6
:102BA00012008B518A11D8B401D001D008D007018E
:102BB000070E066E000E056EBAEC16F006D0260E55
:102BC000056E0D0E066EBAEC16F00701006B0001E3
:102BD0008A6B8B6B1200000E00018D6F010E8C6FE3
:102BE000C58694869488C78E280EC66E0A0EC86E57
:102BF0009D86020102690369030102690369556A3E
:102C0000566A1200E8CF02F0080E036E046AD890EC
:102C100002340434046ED89002360150045CD8A00B
:102C200001D001D002D00150045E032EF0D7045031
:102C300012008E4B8F2B070E8E17000E8F17330E40
:102C40002B6E8EC02CF08FC02DF02D0E2F6E280E07
:102C50002E6E190E9BEC15F01200700ED31220ECA4
:102C600017F086EC16F004EC17F025EC15F0F28E58
:102C7000F28CAEEC16F022EC17F0FDD70CEF00F062
:102C8000E8CF03F0026A3A0E036001D001D007D00A
:102C90002F0E036401D001D002D0010E026E02C0DB
:102CA00001F001301200EBEC15F0000E486E010E41
:102CB000476E000E0001F46F210EF36F200EF66FC9
:102CC000AC0EF56F4CEC12F01200FB51FA11D8A4C7
:102CD00001D001D00AD08050F80B7411896E744B6A
:102CE000752B070E7417000E7517120055C0D9FF0B
:102CF00056C0DAFFDE50DD10D8B401D001D003D0C9
:102D0000BFEC0CF002D011EC0CF01200AC9CAC8AC1
:102D1000AC98AC84B886220EAF6E948E948CAB9C2B
:102D2000AB8EAB98AB881200A1EC16F019C01BF06B
:102D30001AC01CF01BC001F01CC002F0E8EC16F039
:102D4000120043C00EF044C00FF03B0E106EA0EC1A
:102D50000EF00EC019F00FC01AF01200926A000EA9
:102D6000F46FFA0EF36F2C0EF66FCA0EF56F4CEC83
:102D700012F012000501050E026E000E016E05C074
:102D800003F006C004F00FEC13F01200000E000177
:102D9000796F010E786F926A8050F80B0110896E7E
:102DA000FFD71200000E796F010E786F926A805083
:102DB000F80BF311896EFFD712001C0E066E6E0E13
:102DC000056E000E086E000E076EEFEC10F012009C
:102DD000000E0001FB6F010EFA6F8050F80B01101E
:102DE000896E1200000EFB6F010EFA6F8050F80B17
:102DF000F311896E12001FC00DF020C00EF0260ED8
:102E00000F6EF9EC07F012004D6A4E6A4F6A506A75
:102E1000516A526A12004D6A4E6A4F6A506A516A8C
:102E2000526A1200020E5F6EA7EC06F01200010E4D
:102E30005F6EA7EC06F012005F6AA7EC06F01200C6
:062E4000936A120012006B
:020000040020DA
:08000000FFFFFFFFFFFFFFFF00
:020000040030CA
:0E000000FF09191EFF8080FF0FC00FE00F40A8
:00000001FF
