:040000000CEF00F011
:10000800FACF40F0FBCF41F0E1CF42F09BED0AF090
:04001800BCEF09F040
:100D0000493243206D657361676520776173207395
:100D1000656E74002573222573223A2022257322E2
:100D20002C0A7D002573222573223A2025642C0A83
:100D30007D00286E756C6C290025732025640A00DF
:100D40002225732225730066726F6D007B0A7D0079
:100D50006D7367006B6579002C0A003A2000746F90
:100D60000000C7A601D001D010D0C7B401D001D077
:100D70000CD0C7BA01D001D008D0C7A001D001D093
:100D800004D0C950C688156A166AC7B601D001D00A
:100D900004D0C7A801D001D033D0C7B401D001D04E
:100DA0002FD0C7AA01D001D02BD0C7A001D001D02D
:100DB00027D0C9CF3CF03D6A15500001600FD96EB5
:100DC000DA6A3CC0DFFF1550600FD96EDA6ADF5077
:100DD000D8A401D001D010D02C502B10D8B401D001
:100DE00001D00AD02BC038F02CC039F0000E3B6E79
:100DF000600E3A6E63EC09F0154A162AC68863D075
:100E0000C7A601D001D02DD0C7A401D001D029D0D0
:100E1000C7BA01D001D025D028502710D8A401D0BE
:100E200001D017D02E502D10D8B401D001D00BD046
:100E300001D809D00500FA6E2D50FD6E2E50FE6EC1
:100E4000FF6AFA501200000E286E010E276E176A14
:100E5000186A17500001600FD96EDA6ADF50C96E48
:100E6000CDD7C7A601D001D021D0C7A401D001D0D1
:100E70001DD0C7AA01D001D019D0C7B001D001D070
:100E800015D0174A182A17500001600FD96EDA6A78
:100E9000DF50C96E1750600FD96EDA6ADF50D8A4E0
:100EA00001D001D0ABD7276A286AA8D7C7A601D03E
:100EB00001D009D0C7AA01D001D005D0C7B001D058
:100EC00001D001D000D012002F043010D8A401D0DE
:100ED00001D010D020EE02F02950D9262A50DA2273
:100EE000DF503C6ED8803C34C96E000E306E060E6A
:100EF0002F6E8BD02F50060A3010D8A401D001D00D
:100F000006D0C586000E306E050E2F6E7ED02F5097
:100F1000020A3010D8B401D001D007D02F50050AF2
:100F20003010D8A401D001D048D0C58820EE6AF096
:100F30002950D9262A50DA22DECF3CF0DDCF3DF011
:100F40003C5029243E6E3D502A203F6E040E3E2424
:100F5000D96E000E3F20DA6EC9CFDFFF20EE6AF0B7
:100F60002950D9262A50DA22DECF3CF0DDCF3DF0E1
:100F70003C5029243E6E3D502A203F6E040E3E24F4
:100F8000D96E000E3F20DA6EDF50D8A401D001D018
:100F900006D0C584000E306E040E2F6E04D0000EF5
:100FA000306E060E2F6E20EE6AF02950D9262A5098
:100FB000DA22DE2A000EDD2228D02F50040A30105B
:100FC000D8A401D001D021D020EE6CF02950D92630
:100FD0002A50DA22DECF38F0DDCF39F0040E292492
:100FE0003A6E000E2A203B6E63EC09F020EE02F010
:100FF0002950D9262A50DA22FF0EDE6EFF0EDD6E52
:10100000296A2A6A0DEC0CF000D012002F0430106F
:10101000D8A401D001D010D020EE02F02950D9265A
:101020002A50DA22DF503C6ED8903C34C96E000E54
:10103000306E020E2F6E7AD02F50020A3010D8B4C4
:1010400001D001D007D02F50030A3010D8A401D00E
:1010500001D047D020EE6AF02950D9262A50DA2252
:1010600010EE68F02950E1262A50E222E652DE52C4
:10107000E550800A3C6EDD50800A3C5C02E1DF50A6
:10108000E75CD8B001D001D026D020EE68F029501E
:10109000D9262A50DA22DECF3CF0DDCF3DF03C509D
:1010A00029243E6E3D502A203F6E040E3E24D96E08
:1010B000000E3F20DA6EDF50C96E20EE68F0295036
:1010C000D9262A50DA22DE2A000EDD22000E306EEA
:1010D000030E2F6E2BD0C584000E306E040E2F6EC3
:1010E00025D02F50040A3010D8A401D001D01ED032
:1010F00020EE6CF02950D9262A50DA22DECF38F0C3
:10110000DDCF39F0000E3B6E000E3A6E63EC09F055
:1011100020EE02F02950D9262A50DA22FF0EDE6E88
:10112000FF0EDD6E296A2A6A0DEC0CF012000250E7
:101130000110D8B401D001D01BD00FC046F010C0B0
:1011400047F003C048F004C049F0E1EC0AF0475012
:101150004610D8A401D001D00BD001D809D0050089
:10116000FA6E0150FD6E0250FE6EFF6AFA501200D8
:1011700006500510D8B401D001D01BD00FC046F0E6
:1011800010C047F007C048F008C049F0E1EC0AF091
:1011900047504610D8A401D001D00BD001D809D0B7
:1011A0000500FA6E0550FD6E0650FE6EFF6AFA509D
:1011B00012000A500910D8B401D001D01BD00FC0C2
:1011C00046F010C047F00BC048F00CC049F0E1EC0D
:1011D0000AF047504610D8A401D001D00BD001D856
:1011E00009D00500FA6E0950FD6E0A50FE6EFF6AC6
:1011F000FA5012000F4A102A120002500110D8B4FF
:1012000001D001D01BD00FC034F010C035F003C0A6
:1012100036F004C037F024EC0BF035503410D8A46D
:1012200001D001D00BD001D809D00500FA6E0150D1
:10123000FD6E0250FE6EFF6AFA5012000650051055
:10124000D8B401D001D01BD00FC034F010C035F09D
:1012500007C036F008C037F024EC0BF035503410DE
:10126000D8A401D001D00BD001D809D00500FA6E66
:101270000550FD6E0650FE6EFF6AFA5012000A50CD
:101280000910D8B401D001D01BD00FC034F010C069
:1012900035F00BC036F00CC037F024EC0BF03550B5
:1012A0003410D8A401D001D00BD001D809D005004A
:1012B000FA6E0950FD6E0A50FE6EFF6AFA50120077
:1012C0000F4A102A12001C501B10D8A401D001D0C4
:1012D00010D00301030E356E000E346E3AC036F0A6
:1012E0003BC037F037EC0CF038C01BF039C01CF0B5
:1012F00042D01E501D10D8A401D001D010D004013E
:10130000040E356E000E346E3AC036F03BC037F036
:1013100037EC0CF038C01DF039C01EF02CD0205036
:101320001F10D8A401D001D010D00501050E356ED4
:10133000000E346E3AC036F03BC037F037EC0CF09C
:1013400038C01FF039C020F016D022502110D8A488
:1013500001D001D010D00601060E356E000E346E9D
:101360003AC036F03BC037F037EC0CF038C021F013
:1013700039C022F000D012000BEE00F0C80EEE6A69
:10138000E806FDE10AEE00F0C80EEE6AE806FDE1AF
:1013900009EE00F0C80EEE6AE806FDE108EE00F086
:1013A000C80EEE6AE806FDE107EE00F0C80EEE6A30
:1013B000E806FDE106EE00F0C80EEE6AE806FDE183
:1013C00005EE00F0C80EEE6AE806FDE104EE00F05E
:1013D000C80EEE6AE806FDE103EE00F0C80EEE6A04
:1013E000E806FDE102EE00F0C80EEE6AE806FDE157
:1013F00001EE00F0DC0EEE6AE806FDE100EE60F0C2
:10140000780EEE6AE806FDE100EE01F0330EEE6ABA
:10141000E806FDE100015CEF0CF01C501B10D8B495
:1014200001D001D00BD001D809D00500FA6E1B50B5
:10143000FD6E1C50FE6EFF6AFA5012001E501D1009
:10144000D8B401D001D00BD001D809D00500FA6E74
:101450001D50FD6E1E50FE6EFF6AFA5012002050A5
:101460001F10D8B401D001D00BD001D809D005008D
:10147000FA6E1F50FD6E2050FE6EFF6AFA50120089
:1014800022502110D8B401D001D00BD001D809D0FE
:101490000500FA6E2150FD6E2250FE6EFF6AFA5072
:1014A0001200E0EC0CF012001C501B10D8B401D05C
:1014B00001D00BD001D809D00500FA6E1B50FD6E8B
:1014C0001C50FE6EFF6AFA5012001E501D10D8B458
:1014D00001D001D00BD001D809D00500FA6E1D5003
:1014E000FD6E1E50FE6EFF6AFA50120020501F1053
:1014F000D8B401D001D00BD001D809D00500FA6EC4
:101500001F50FD6E2050FE6EFF6AFA5012002250EE
:101510002110D8B401D001D00BD001D809D00500DA
:10152000FA6E2150FD6E2250FE6EFF6AFA501200D4
:10153000E9EC0CF012000600E2CF43F0D9CF44F002
:10154000DACF45F09EA601D001D011D09E9626504C
:101550002510D8B401D001D002D0B1EC06F04D5026
:101560004C10D8B401D001D002D086EC0CF0F2A41B
:1015700001D001D003D0F294CAEC0CF09EAA01D0A5
:1015800001D002D0DEEC0BF09EA801D001D002D039
:10159000A9EC0BF054EC0AF012501110D8B401D0A1
:1015A00001D002D0F2EC0CF045C0DAFF44C0D9FF04
:1015B00043C0E2FF42C0E1FF41C0FBFF40C0FAFF71
:1015C00011004B6A47AE01D001D006D0466C471ED1
:1015D000D8B0472A010E4B6E49AE01D001D004D0DD
:1015E000486C491ED8B0492A49504810D8B401D097
:1015F00001D01CD0010E4A6E04D0D890483649362E
:101600004A2A49AE01D001D0F8D74850465C49502B
:101610004758D8A001D001D004D04850465E495068
:10162000475AD890493248324A2EEFD74B50D8B457
:1016300001D001D004D0466C471ED8B0472A46C01E
:1016400046F047C047F01200396A35AE01D001D0EC
:1016500006D0346C351ED8B0352A010E396E37AE3F
:1016600001D001D004D0366C371ED8B0372A37509D
:101670003610D8B401D001D01CD0010E386E04D081
:10168000D89036363736382A37AE01D001D0F8D761
:101690003650345C37503558D8A001D001D004D032
:1016A0003650345E3750355AD89037323632382E6D
:1016B000EFD73950D8B401D001D004D0346C351EE6
:1016C000D8B0352A34C034F035C035F01200336656
:1016D00001D001D011D0D58ED58CD59AD596D550C4
:1016E000F80B0209D56EF28A016A026A056A066A77
:1016F000096A0A6A010E336E02500110D8A401D0A3
:1017000001D009D048C001F049C002F046C003F042
:1017100047C004F01DD006500510D8A401D001D058
:1017200009D048C005F049C006F046C007F047C0E0
:1017300008F00ED00A500910D8A401D001D008D06A
:1017400048C009F049C00AF046C00BF047C00CF091
:10175000120024502310D8B401D001D002D09D989B
:101760002CD00201640E3124D96E020E3220DA6EC2
:10177000DF50D8A401D001D008D0AD6A316A326AF6
:10178000000E246E010E236E18D0640E3124D96E23
:10179000020E3220DA6E010EDF6201D001D004D0D9
:1017A000AD6A314A322A09D0640E3124D96E020E54
:1017B0003220DA6EDF50AD6EF4D71200AB50AECFF0
:1017C0003CF03C6601D001D01CD00201000E132475
:1017D000D96E020E1420DA6E000EDF6E136A146AE0
:1017E0001A501910D8B401D001D016D019C038F051
:1017F0001AC039F0020E3B6E000E3A6E63EC09F02F
:101800000BD00201000E1324D96E020E1420DA6EE2
:101810003CC0DFFF134A142A12002A502910D8A412
:1018200001D001D023D001010229D8B40329D8B4B2
:1018300001D001D005D0010E2A6E000E296E0BD00A
:101840007029D8B47129D8B401D001D004D0010EC8
:101850002A6E6E0E296E2A502910D8B401D001D0FC
:1018600005D0000E306E010E2F6EC580120037506D
:101870003610D8A401D001D00FD01DD036C0D9FF6A
:1018800037C0DAFF34C0E1FF35C0E2FFDFCFE7FF4A
:10189000344A352A364A372A36C0D9FF37C0DAFFEC
:1018A000DF50D8A401D001D0E9D734C0D9FF35C06A
:1018B000DAFF000EDF6E1200700ED31200EC0DF096
:1018C000A5EC0CF0E0EC0CF0FAEC0CF0F28EF28CE3
:1018D000B3EC0CF002EC0DF00DEC0AF0FBD70CEFC2
:1018E00000F0000E4D6E010E4C6EC58694869488F5
:1018F000C78E280EC66E280EC86E9D86010102692D
:10190000036970697169296A2A6A120029C0D9FFBE
:101910002AC0DAFFDE50DD10D8B401D001D003D0E8
:1019200006EC08F002D064EC07F01200AB8E948E47
:10193000948CAC9CAC8AAC98AC86AB88AC84B886F2
:10194000220EAF6E9D989D8A1200AC9CAC8AAC981A
:10195000AC84B886220EAF6E948E948CAB9CAB8E0A
:10196000AB98AB881200926A000E476EFA0E466E74
:10197000190E496E7E0E486E67EC0BF01200805017
:10198000F80B0D10896E0D4A0E2A070E0D16000E6B
:101990000E161200110E396EFA0E386E000E3B6EE6
:1019A000000E3A6E63EC09F012008050F80B0D1037
:1019B000896E0D4A0E2A070E0D16000E0E16120025
:1019C0001B6A1C6A1D6A1E6A1F6A206A216A226AD3
:1019D00012001B6A1C6A1D6A1E6A1F6A206A216A3D
:1019E000226A1200000E126E010E116E926A898632
:1019F000FFD7120096EC0CF0926A71EC0CF012001A
:061A0000936A12001200BF
:020000040020DA
:08000000FFFFFFFFFFFFFFFF00
:020000040030CA
:0E000000FF09191EFF8080FF0FC00FE00F40A8
:00000001FF
