:040000000CEF00F011
:10000800FACFE9F0FBCFEAF0E9CFEBF05FED0FF0C4
:04001800DFEF10F016
:100D000001000A006400E8031027257322257322DE
:100D10003A20222573222C0A7D0025732225732276
:100D20003A2025642C0A7D00406D61737465720061
:100D3000286E756C6C2900406D6F746F72002225EF
:100D400073223A20002225732225730066726F6D8C
:100D500000736574007B0A7D00737562006D7367B4
:100D6000006B6579002C0A00636300256400746FD2
:100D7000000046C040F047C041F040C021F041C0F3
:100D800022F06E0E236E0401040E256E000E246EFA
:100D900033EC0CF004010051230AD8A401D001D097
:100DA0007BD0010115511411D8B401D001D01ED04F
:100DB000010E026E000E016E0401040E046E000EA0
:100DC000036E1EEC12F002500110D8A401D001D025
:100DD0000DD001D80AD00500FA6E01011451FD6E44
:100DE0001551FE6EFF6AFA50120049D001012B51D5
:100DF0002A11D8B401D001D01ED0010E026E160EF9
:100E0000016E0401040E046E000E036E1EEC12F05F
:100E100002500110D8A401D001D00DD001D80AD0C1
:100E20000500FA6E01012A51FD6E2B51FE6EFF6A1C
:100E3000FA50120024D0010141514011D8B401D020
:100E400001D01DD0010E026E2C0E016E0401040EA5
:100E5000046E000E036E1EEC12F002500110D8A4B6
:100E600001D001D00CD001D80AD00500FA6E0101E2
:100E70004051FD6E4151FE6EFF6AFA501200000EA5
:100E8000516E010E506E40C013F041C014F073EC6F
:100E90000BF0506A516ABED0040E026E000E016E55
:100EA0000101010E046E960E036E1EEC12F002504C
:100EB0000110D8A401D001D0ADD040C021F041C074
:100EC00022F0590E236E0401040E256E000E246ECE
:100ED00033EC0CF004010051630AD8A401D001D016
:100EE0004FD00151630AD8A401D001D049D040C0ED
:100EF00021F041C022F0610E236EB1EC0AF021C056
:100F00003EF022C03FF03F500001611902E13E5027
:100F10006019D8A401D001D015D06029D8B46129B6
:100F2000D8B401D001D00ED062C005F063C006F085
:100F300040C007F041C008F06AEC12F0000160699F
:100F4000616968D03F50651902E13E506419D8A428
:100F500001D001D05FD06429D8B46529D8B401D0BC
:100F600001D058D066C005F067C006F040C007F059
:100F700041C008F06AEC12F00001646965694AD06A
:100F8000010157515611D8B401D001D01ED0010E25
:100F9000026E420E016E0401040E046E000E036E1A
:100FA0001EEC12F002500110D8A401D001D00DD0D7
:100FB00001D80AD00500FA6E01015651FD6E575155
:100FC000FE6EFF6AFA50120025D001016D516C11BE
:100FD000D8B401D001D01ED0010E026E580E016EA1
:100FE0000401040E046E000E036E1EEC12F002509B
:100FF0000110D8A401D001D00DD001D80AD005002D
:10100000FA6E01016C51FD6E6D51FE6EFF6AFA5071
:10101000120000D01200100E1B6EE9D02050250ADD
:10102000D8B401D001D009D00DC0D9FF0EC0DAFF6D
:1010300020C0DFFF0D4A0E2ADAD0196A45D01B50B6
:10104000D96EDA6ADECF1CF0DDCF1DF0020E1B2652
:101050001D501C10D8A401D001D01FD0300E1C6E22
:101060000D0E1D6E1AD01CC0F6FF1DC0F7FF000E3E
:10107000F86E0DC0D9FF0EC0DAFF0C0EF76403D076
:101080000800F55005D0F6CFE9FFF7CFEAFFEF50A3
:10109000DF6E1C4A1D2A0D4A0E2A1CC0F6FF1DC019
:1010A000F7FF000EF86E0C0EF76403D00800F55041
:1010B00005D0F6CFE9FFF7CFEAFFEF500009D8A43B
:1010C00001D001D0D0D793D00F2A0F04166E16C0CE
:1010D000F6FF0D0EF76E000EF86E0800F5CF20F04B
:1010E0002050000AD8B493D0640AD8B407D00D0AAF
:1010F000D8B404D01A0AD8B4A2D779D01B50D96E6C
:10110000DA6ADECF1CF0DDCF1DF0020E1B261DAE0D
:1011100001D001D006D0030E19121C6C1D1ED8B0D0
:101120001D2A010E206E2050020DF350000F166E86
:1011300016C0F6FF0D0EF76E000EF86E0900F5CF23
:1011400017F00900F5CF18F017501C5C18501D5807
:10115000D8B001D001D001D007D0202A2050050AF4
:10116000D8A401D001D0DFD71950030BD8B401D0D7
:1011700001D008D00DC0D9FF0EC0DAFF2D0EDF6EF2
:101180000D4A0E2A20C01AF02CD01A50020DF3502E
:10119000000F166E16C0F6FF0D0EF76E000EF86EFD
:1011A0000900F5CF03F00A00F5CF04F01CC001F0F0
:1011B0001DC002F0E7EC14F001C008F002C009F015
:1011C000000E0B6E0A0E0A6E3FEC15F00850300F41
:1011D000206E0DC0D9FF0EC0DAFF20C0DFFF0D4A20
:1011E0000E2A1A061A28D8A401D001D0CED70F2A69
:1011F0000F04166E16C0F6FF0D0EF76E000EF86E99
:101200000800F5CF20F0206601D001D007D70DC02F
:10121000D9FF0EC0DAFF000EDF6E1200C7A601D0A4
:1012200001D010D0C7B401D001D00CD0C7BA01D0C2
:1012300001D008D0C7A001D001D004D0C950C688C1
:10124000826B836BC7B601D001D004D0C7A801D090
:1012500001D040D0C7B401D001D03CD0C7AA01D042
:1012600001D038D0C7A001D001D034D0C9CF09F007
:101270000A6A0601000E00018225D96E0601060EDB
:1012800000018321DA6E09C0DFFF0601000E0001B4
:101290008225D96E0601060E00018321DA6EDF5029
:1012A000D8A401D001D011D08F518E11D8B401D063
:1012B00001D00BD08EC005F08FC006F00601060EDF
:1012C000086E000E076E6AEC12F00001824B832B51
:1012D000C68883D0C7A601D001D042D0C7A401D010
:1012E00001D03ED0C7BA01D001D03AD08D518C1177
:1012F000D8A401D001D018D091519011D8B401D008
:1013000001D00BD001D809D00500FA6E9051FD6EC6
:101310009151FE6EFF6AFA501200000E00018D6FAF
:10132000010E8C6F486A496AC9500601000E4824B4
:10133000D96E060E4920DA6EDF50D8A401D001D054
:1013400006D000018C6B8D6BC96AC68846D0000E32
:101350004824D96E060E4920DA6EDF50C96EB8D720
:10136000C7A601D001D02CD0C7A401D001D028D06D
:10137000C7AA01D001D024D0C7B001D001D020D05D
:101380008D518C11D8B401D001D027D0484A492AB8
:101390000601000E4824D96E060E4920DA6EDF5091
:1013A000C96E000E4824D96E060E4920DA6EDF5051
:1013B000D8A401D001D08CD700018C6B8D6B88D75D
:1013C000C7A601D001D009D0C7AA01D001D005D04D
:1013D000C7B001D001D001D000D0120000017D5172
:1013E0007C11D8B401D001D098D09E519D11D8B4B1
:1013F00001D001D02CD09F0E176E17C001F0026AE9
:1014000013C003F014C004F01EEC12F002500110DF
:10141000D8A401D001D01BD09DC00BF09EC00CF011
:1014200015C00DF016C00EF015C001F016C002F088
:10143000D6EC15F0010E01240F6E000E0220106E86
:10144000000E126E000E116E35EC10F089D0000106
:10145000B451B311D8B401D001D02CD0B50E176E51
:1014600017C001F0026A13C003F014C004F01EECB0
:1014700012F002500110D8A401D001D01BD0B3C08B
:101480000BF0B4C00CF015C00DF016C00EF015C076
:1014900001F016C002F0D6EC15F0010E01240F6E1B
:1014A000000E0220106E000E126E000E116E35EC52
:1014B00010F056D00001CA51C911D8B401D001D0E2
:1014C0002CD0CB0E176E17C001F0026A13C003F0C8
:1014D00014C004F01EEC12F002500110D8A401D088
:1014E00001D01BD0C9C00BF0CAC00CF015C00DF064
:1014F00016C00EF015C001F016C002F0D6EC15F0C3
:10150000010E01240F6E000E0220106E000E126EEE
:10151000000E116E35EC10F023D000017F517E11CA
:10152000D8B401D001D010D00701070E026E000E12
:10153000016E15C003F016C004F0B1EC15F0000EFA
:101540000001936F010E926F7B517A11D8B401D0D4
:1015500001D006D015C007F016C008F0C1EC13F09A
:1015600012000501050E0E6E000E0D6E3E0E0F6E82
:1015700023C010F00D0E116E0BEC08F021C00CF022
:1015800022C00DF00501050E0F6E000E0E6E30EC40
:1015900011F00CC034F00DC035F034C00CF035C083
:1015A0000DF0430E0E6E0D0E0F6E30EC11F00CC0F0
:1015B00034F00DC035F0344A352A35503410D8B4E3
:1015C00001D001D08BD034C00CF035C00DF0650EC9
:1015D0000E6E0D0E0F6E30EC11F00CC026F00DC02B
:1015E00027F034C001F035C002F0D6EC15F001C090
:1015F00028F002C029F026C001F027C002F0D6EC86
:1016000015F001C02AF002C02BF02A50285C2E6E83
:101610002B5029582F6E306A316A11D03050342443
:10162000D96E31503520DA6E0501000E3024E16E9E
:10163000050E3120E26EDFCFE7FF304A312A31500C
:10164000800A246E2E50305C2F50800A2458D8A077
:1016500001D001D0E3D70501000E2E24D96E050E6E
:101660002F20DA6E000EDF6E0051220AD8A401D0BE
:1016700001D025D0050E336E000E326E324A332A69
:1016800032C001F033C002F0D6EC15F00150322424
:10169000246E02503320256EFF0E2424D96EFF0ED7
:1016A0002520DA6E000EDF6E32C007F033C008F07E
:1016B000F1EC0EF007C02CF008C02DF00AD0050E9A
:1016C000086E000E076EF1EC0EF007C02CF008C09B
:1016D0002DF02CC021F02DC022F004D0020E226E7D
:1016E0009A0E216E120000017F517E11D8B401D0F4
:1016F00001D020D051505010D8B401D001D004D026
:10170000586601D001D006D051505010D8A401D055
:1017100001D010D00701070E026E000E016E13C03B
:1017200003F014C004F0B1EC15F0000E0001936F4B
:10173000010E926F7D517C11D8B401D001D073D0CD
:1017400051505010D8B401D001D005D05804D8A4BD
:1017500001D001D006D051505010D8A401D001D0F2
:1017600062D09E519D11D8B401D001D01AD09DC035
:101770000BF09EC00CF013C00DF014C00EF013C09F
:1017800001F014C002F0D6EC15F0010E01240F6E2A
:10179000000E0220106E000E126E000E116E35EC5F
:1017A00010F00001B451B311D8B401D001D01AD057
:1017B000B3C00BF0B4C00CF013C00DF014C00EF0A9
:1017C00013C001F014C002F0D6EC15F0010E012494
:1017D0000F6E000E0220106E000E126E000E116EC3
:1017E00035EC10F00001CA51C911D8B401D001D0B4
:1017F0001AD0C9C00BF0CAC00CF013C00DF014C051
:101800000EF013C001F014C002F0D6EC15F0010E7A
:1018100001240F6E000E0220106E000E126E000EDC
:10182000116E35EC10F000017B517A11D8B401D063
:1018300001D018D051505010D8B401D001D006D0EA
:101840005850020AD8A401D001D006D051505010EF
:10185000D8A401D001D006D013C007F014C008F0FE
:10186000C1EC13F012000501050E0E6E000E0D6E98
:10187000450E0F6E23C010F00D0E116E420E126E4B
:101880000D0E136E0BEC08F021C00CF022C00DF011
:101890000501050E0F6E000E0E6E30EC11F00CC03F
:1018A0003CF00DC03DF03CC00CF03DC00DF0430ECF
:1018B0000E6E0D0E0F6E30EC11F00CC03CF00DC032
:1018C0003DF03C4A3D2A3D503C10D8B401D001D0F7
:1018D00088D03CC00CF03DC00DF0650E0E6E0D0EB4
:1018E0000F6E30EC11F00CC032F00DC033F03CC084
:1018F00001F03DC002F0D6EC15F001C02AF002C0A4
:101900002BF02C6A2D6A32C001F033C002F0D6EC05
:1019100015F001C02EF002C02FF0306A316A2E504F
:101920002A5C346E2F502B58356E30502C58366E42
:1019300031502D58376E386A396A11D038503C24EE
:10194000D96E39503D20DA6E0501000E3824E16E63
:10195000050E3920E26EDFCFE7FF384A392A38C05A
:1019600026F039C027F0000E27BEFF0E286E296E24
:101970003450265C3550275836502858375029584F
:10198000D8A001D001D0DAD70501000E3424D96ED9
:10199000050E3520DA6E000EDF6E050E3B6E000E72
:1019A0003A6E3A4A3B2A3AC001F03BC002F0D6EC0C
:1019B00015F001503A24266E02503B20276EFF0E90
:1019C0002624D96EFF0E2720DA6E000EDF6E24C0AB
:1019D00001F025C002F03AC003F03BC004F001EC76
:1019E00014F01200E8CF30F00401040E226E000E55
:1019F000216EBDEC17F00401040E226E000E216E64
:101A00006E0E236E30C024F00D0E256E3FEC14F0E8
:101A10000401040E226E000E216E4C0E236E010195
:101A2000010E256E960E246E3FEC14F00401040E98
:101A3000226E000E216E590E236E2CC024F00D0E66
:101A4000256E3FEC14F00401040E226E000E216E90
:101A50005D0E236E2DC024F0256A3FEC14F02F504C
:101A60002E10D8B401D001D02FD0000177517611BB
:101A7000D8A401D001D008D02EC062F02FC063F0EE
:101A800057C060F0616B0DD076057711D8A401D0F6
:101A900001D007D02EC066F02FC067F057C064F0A9
:101AA000656B764B772B010E7617000E77170401C6
:101AB000040E226E000E216E610E236E57C024F0BC
:101AC000256A7CEC14F00DD00401040E226E000E89
:101AD000216E610E236EFF0E256EFF0E246E7CECD0
:101AE00014F030C0F6FF0D0EF76E000EF86E080011
:101AF000F550230AD8A401D001D008D00401040E67
:101B0000146E000E136E73EC0BF018D030C0F6FF9D
:101B10000D0EF76E000EF86E0800F550400AD8A4BE
:101B200001D001D00BD030C013F00D0E146E0401A3
:101B3000040E166E000E156EEEEC09F0572A140E08
:101B4000016E57509FEC16F0576E1200540455105A
:101B5000D8A401D001D010D020EE02F05250D926E6
:101B60005350DA22DF50096ED8800934C96E000E56
:101B7000556E060E546E97D05450060A5510D8A4D0
:101B800001D001D006D0C586000E556E050E546EEC
:101B90008AD05450020A5510D8B401D001D007D0D1
:101BA0005450050A5510D8A401D001D048D020EED9
:101BB0009CF05250D9265350DA22DECF09F0DDCF07
:101BC0000AF0095052240B6E0A5053200C6E040E7A
:101BD0000B24D96E000E0C20DA6EC9CFDFFF20EE89
:101BE0009CF05250D9265350DA22DECF09F0DDCFD7
:101BF0000AF0095052240B6E0A5053200C6E040E4A
:101C00000B24D96E000E0C20DA6EDF50D8A401D060
:101C100001D006D0C584000E556E040E546E05D05A
:101C2000000E556E060E546EC58820EE9CF0525084
:101C3000D9265350DA22DE2A000EDD2234D0545049
:101C4000040A5510D8A401D001D02DD020EE9EF06A
:101C50005250D9265350DA22DE50DD10D8B401D0CC
:101C600001D012D020EE9EF05250D9265350DA22E5
:101C7000DECF05F0DDCF06F0040E5224076E000E15
:101C80005320086E6AEC12F020EE02F05250D92672
:101C90005350DA22FF0EDE6EFF0EDD6E526A536A7B
:101CA00014EC15F000D0120054045510D8A401D043
:101CB00001D010D020EE02F05250D9265350DA2233
:101CC000DF50096ED8900934C96E000E556E020EB1
:101CD000546E86D05450020A5510D8B401D001D0A9
:101CE00007D05450030A5510D8A401D001D047D0D2
:101CF00020EE9CF05250D9265350DA2210EE9AF082
:101D00005250E1265350E222E652DE52E550800A5C
:101D1000096EDD50800A095C02E1DF50E75CD8B053
:101D200001D001D026D020EE9AF05250D92653503F
:101D3000DA22DECF09F0DDCF0AF0095052240B6E13
:101D40000A5053200C6E040E0B24D96E000E0C208A
:101D5000DA6EDF50C96E20EE9AF05250D9265350F9
:101D6000DA22DE2A000EDD22000E556E030E546EBE
:101D700037D0C584000E556E040E546E31D05450C9
:101D8000040A5510D8A401D001D02AD020EE9EF02C
:101D90005250D9265350DA22DE50DD10D8B401D08B
:101DA00001D010D020EE9EF05250D9265350DA22A6
:101DB000DECF05F0DDCF06F0000E086E000E076ED8
:101DC0006AEC12F020EE02F05250D9265350DA227B
:101DD000FF0EDE6EFF0EDD6E526A536A14EC15F0D4
:101DE000120002D0074A082A07C0D9FF08C0DAFF4C
:101DF000DF50200AD8B401D001D0F4D707C0D9FFF2
:101E000008C0DAFFDF50090AD8B401D001D0EAD700
:101E10000C6A0D6A0B6A2D0E07C0D9FF08C0DAFFE5
:101E2000DF6201D001D004D00B2A074A082A25D04E
:101E30002B0E07C0D9FF08C0DAFFDF6201D001D046
:101E40001CD0074A082A19D00CC001F00DC002F0BE
:101E5000000E046E0A0E036E53EC16F007C0D9FF95
:101E600008C0DAFFDF500126000E0222D00E012446
:101E70000C6EFF0E02200D6EE4D707C0D9FF08C01C
:101E8000DAFFDF50F0EC16F0D8B001D001D0DCD78B
:101E90000B50D8B401D001D00DD00CC009F00DC04A
:101EA0000AF0091E0A1E094A0A2A09C007F00AC0D8
:101EB00008F004D00CC007F00DC008F012000600B6
:101EC000EACFECF0E1CFEDF0E2CFEEF0D9CFEFF0DA
:101ED000DACFF0F0F3CFF1F0F4CFF2F0F6CFF3F089
:101EE000F7CFF4F0F8CFF5F0F5CFF6F09EA601D0DD
:101EF00001D013D09E9600018B518A11D8B401D025
:101F000001D002D00EEC09F0000195519411D8B423
:101F100001D001D002D014EC17F0F2A401D001D00E
:101F200003D0F294A8EC17F09EAA01D001D002D001
:101F300081EC11F09EA801D001D002D03BEC13F04F
:101F4000B3EC12F0000179517811D8B401D001D06E
:101F500006D0000E026E070E016E91EC17F0F6C06F
:101F6000F5FFF5C0F8FFF4C0F7FFF3C0F6FFF2C0CD
:101F7000F4FFF1C0F3FFF0C0DAFFEFC0D9FFEEC00D
:101F8000E2FFEDC0E1FFECC0EAFFEBC0E9FFEAC011
:101F9000FBFFE9C0FAFF1100000169516811D8B4D4
:101FA00001D001D01BD042C001F043C002F06AC092
:101FB00003F06BC004F07EEC13F002500110D8A4C3
:101FC00001D001D00BD001D809D00500FA6E6851BC
:101FD000FD6E6951FE6EFF6AFA50120000016D51EC
:101FE0006C11D8B401D001D01BD042C001F043C065
:101FF00002F06EC003F06FC004F07EEC13F00250EC
:102000000110D8A401D001D00BD001D809D005000F
:10201000FA6E6C51FD6E6D51FE6EFF6AFA50120041
:10202000000171517011D8B401D001D01BD042C051
:1020300001F043C002F072C003F073C004F07EEC04
:1020400013F002500110D8A401D001D00BD001D858
:1020500009D00500FA6E7051FD6E7151FE6EFF6A77
:10206000FA501200424A432A120002010229D8B44F
:102070000329D8A401D001D022D00BC002F20CC099
:1020800003F2020E026E040E016E0DC003F00EC0CC
:1020900004F00FC005F010C006F0FAEC15F00201D4
:1020A0009A6B9B6B0FC09CF210C09DF211C09EF208
:1020B00012C09FF2000E016F010E006F29D00301C4
:1020C0000229D8B40329D8A401D001D021D00BC053
:1020D00002F30CC003F39A6B9B6B030E026E040EAB
:1020E000016E0DC003F00EC004F00FC005F010C06B
:1020F00006F0FAEC15F00FC09CF310C09DF311C070
:102100009EF312C09FF3000E0301016F010E006FDA
:1021100014EC15F0120046D005C0D9FF06C0DAFF56
:10212000DF50D8B401D001D01CD007C0F6FF08C0E2
:10213000F7FF000EF86E0C0EF76403D00800F550A0
:1021400005D0F6CFE9FFF7CFEAFFEF500B6E05C0E1
:10215000D9FF06C0DAFFDF500B18D8B401D001D088
:102160001DD005C0D9FF06C0DAFFDF500B6E07C0D7
:10217000F6FF08C0F7FF000EF86E0C0EF76403D0F0
:102180000800F55005D0F6CFE9FFF7CFEAFFEF5092
:102190000B5C056E066AD8A0060610D0054A062A12
:1021A000074A082A0906D8A00A060928D8B40A2826
:1021B000D8A401D001D0B0D7056A066A12000BEE90
:1021C00000F0960EEE6AE806FDE10AEE00F0960ECB
:1021D000EE6AE806FDE109EE00F0960EEE6AE8060A
:1021E000FDE108EE00F0960EEE6AE806FDE107EE6E
:1021F00000F0960EEE6AE806FDE106EE00F0960E9F
:10220000EE6AE806FDE105EE00F0960EEE6AE806DD
:10221000FDE104EE00F0FA0EEE6AE806FDE103EEE1
:1022200000F0A00EEE6AE806FDE102EE00F0A00E5E
:10223000EE6AE806FDE101EE00F0B90EEE6AE8068E
:10224000FDE100EE60F0890EEE6AE806FDE100EEC9
:1022500042F0170EEE6AE806FDE10001CAEF16F043
:102260003ED00CC005F00DC006F00EC007F00FC048
:1022700008F00EC001F00FC002F0D6EC15F001C05E
:1022800009F002C00AF08BEC10F006500510D8A43B
:1022900001D001D005D00CC00CF00DC00DF030D035
:1022A000010E0C24016E000E0D20026E0EC0F6FF12
:1022B0000FC0F7FF000EF86E0C0EF76403D0080095
:1022C000F55005D0F6CFE9FFF7CFEAFFEF50036EE8
:1022D000046A1CEC16F001C00CF002C00DF00D50A9
:1022E0000C10D8B401D001D009D00CC0D9FF0DC05A
:1022F000DAFFDF50D8A401D001D0B3D70C6A0D6A41
:102300001200AECF56F0000EABB4010EABB2010E10
:10231000E8A001D001D003D0AB98AB8841D056667D
:1023200001D001D02FD0096A0A6A8976094A0A2A9F
:102330000A50800A800F0A0ED8B4095CD8A001D0D8
:1023400001D0F3D70801000E00018025D96E0801E5
:10235000080E00018121DA6E000EDF6E806B816B4A
:1023600085518411D8B401D001D01AD084C005F0B1
:1023700085C006F00801080E086E000E076E6AECB4
:1023800012F00ED00801000E00018025D96E080160
:10239000080E00018121DA6E56C0DFFF804B812BD1
:1023A000120045504410D8A401D001D011D09E5144
:1023B0009D11D8B401D001D00BD09DC001F09EC0BA
:1023C00002F02F0E046EBC0E036EB9EC14F025D093
:1023D00044044510D8A401D001D011D0B451B31198
:1023E000D8B401D001D00BD0B3C001F0B4C002F01A
:1023F0002F0E046EBC0E036EB9EC14F00ED04450D8
:10240000020A4510D8A401D001D007D0CA51C91181
:10241000D8B401D001D001D0E7D7444A452A44C0FE
:1024200001F045C002F0000E046E030E036E7EEC58
:1024300013F001C044F002C045F0120004D0014A7C
:10244000022A034A042A03C0F6FF04C0F7FF000E65
:10245000F86E0C0EF76403D00800F55005D0F6CFE7
:10246000E9FFF7CFEAFFEF50056E01C0F6FF02C0AB
:10247000F7FF000EF86E0C0EF76403D00800F5505D
:1024800005D0F6CFE9FFF7CFEAFFEF50066E055013
:10249000065C076E076601D001D016D001C0F6FFBA
:1024A00002C0F7FF000EF86E0C0EF76403D00800B0
:1024B000F55005D0F6CFE9FFF7CFEAFFEF5000095E
:1024C000D8A401D001D0BBD70750016E026A01BE6B
:1024D000020612004B504A10D8A401D001D010D0EF
:1024E0000901090E026E000E016E07C003F008C05C
:1024F00004F001EC14F005C04AF006C04BF032D0F5
:102500004D504C10D8A401D001D010D00A010A0EB1
:10251000026E000E016E07C003F008C004F001EC6B
:1025200014F005C04CF006C04DF01CD04F504E10BA
:10253000D8A401D001D010D00B010B0E026E000EFA
:10254000016E07C003F008C004F001EC14F005C0F0
:102550004EF006C04FF006D0000E026E010E016E66
:1025600091EC17F012004B504A10D8B401D001D0B2
:1025700010D00901090E476E000E466E01D809D031
:102580000500FA6E4A50FD6E4B50FE6EFF6AFA501F
:1025900012004D504C10D8B401D001D010D00A0117
:1025A0000A0E476E000E466E01D809D00500FA6E7D
:1025B0004C50FD6E4D50FE6EFF6AFA5012004F50A7
:1025C0004E10D8B401D001D010D00B010B0E476EC5
:1025D000000E466E01D809D00500FA6E4E50FD6E11
:1025E0004F50FE6EFF6AFA501200CDEC17F0120049
:1025F00000019C6701D001D011D0D58ED58CD59A21
:10260000D596D550F80B0209D56EF28A686B696BC6
:102610006C6B6D6B706B716B010E9C6F6951681107
:10262000D8A401D001D009D0BBC168F0BCC169F009
:10263000B9C16AF0BAC16BF01DD06D516C11D8A44C
:1026400001D001D009D0BBC16CF0BCC16DF0B9C1E3
:102650006EF0BAC16FF00ED071517011D8A401D0D4
:1026600001D008D0BBC170F0BCC171F0B9C172F02B
:10267000BAC173F01200000189518811D8B401D099
:1026800001D002D09D9839D00401960E0001962504
:10269000D96E0401040E00019721DA6EDF50D8A430
:1026A00001D001D00AD0AD6A966B976B986B996B8D
:1026B000000E896F010E886F20D00401960E000174
:1026C0009625D96E0401040E00019721DA6E010EE1
:1026D000DF6201D001D004D0AD6A964B972B0DD0AC
:1026E0000401960E00019625D96E0401040E000126
:1026F0009721DA6EDF50AD6EF0D71200066A02AE97
:1027000001D001D006D0016C021ED8B0022A010E01
:10271000066E04AE01D001D004D0036C041ED8B004
:10272000042A04500310D8B401D001D01CD0010EEB
:10273000056E04D0D89003360436052A04AE01D0C5
:1027400001D0F8D70350015C04500258D8A001D042
:1027500001D004D00350015E0450025AD8900432D4
:102760000332052EEFD70650D8B401D001D004D0E3
:10277000016C021ED8B0022A01C001F002C002F0B2
:10278000120099519811D8A401D001D00CD00401A5
:10279000040E026E960E016E07C003F008C004F02E
:1027A000B1EC15F01FD00401960E00019825D96EEA
:1027B0000401040E00019921DA6E010EDF6E04019E
:1027C000970E00019825016E0401040E0001992165
:1027D000026E07C003F008C004F0B1EC15F0000170
:1027E000984B992B07C001F008C002F0D6EC15F009
:1027F000015000019827025099239D88886B896BAE
:10280000120004500310D8A401D001D01BD036D040
:1028100003C0F6FF04C0F7FF000EF86E01C0D9FF39
:1028200002C0DAFF0C0EF76403D00800F55005D0A3
:10283000F6CFE9FFF7CFEAFFEF50DF6E014A022A39
:10284000034A042A03C0F6FF04C0F7FF000EF86E27
:102850000C0EF76403D00800F55005D0F6CFE9FF61
:10286000F7CFEAFFEF500009D8A401D001D0D0D7AC
:1028700001C0D9FF02C0DAFF000EDF6E120021C0D6
:1028800001F022C002F0D6EC15F001C028F002C021
:1028900029F02A6A2B6A21C026F022C027F028508E
:1028A000262629502722FF0E2624D96EFF0E272028
:1028B000DA6E000EDF6E0501050E026E000E016E6F
:1028C00021C003F022C004F001EC14F021C00DF08F
:1028D00022C00EF00A0E0F6E0501050E116E000EDD
:1028E000106E23C012F00D0E136E24C014F025C01C
:1028F00015F00BEC08F0120021C001F022C002F02C
:10290000D6EC15F001C028F002C029F02A6A2B6A23
:1029100021C026F022C027F0285026262950272241
:10292000FF0E2624D96EFF0E2720DA6E000EDF6E12
:102930000501050E026E000E016E21C003F022C0DB
:1029400004F001EC14F021C00DF022C00EF01A0EBC
:102950000F6E0501050E116E000E106E23C012F0F1
:102960000D0E136E24C014F025C015F00BEC08F00A
:10297000120002010229D8B40329D8A401D001D041
:102980000ED001C002F202C003F29C6B9D6B03C02B
:102990009EF204C09FF2006B016B046B15D0030123
:1029A0000229D8B40329D8A401D001D00DD001C088
:1029B00002F302C003F39C6B9D6B03C09EF304C043
:1029C0009FF3006B016B046B14EC15F01200056AA9
:1029D000066A04500310D8B401D001D020D0010EF3
:1029E000076E04D0D89003360436072A04AE01D00F
:1029F00001D0F8D7D890053606360350015C045054
:102A00000258D8A001D001D005D00350015E045077
:102A1000025A0580D89004320332072EEBD705C046
:102A200001F006C002F0120053505210D8A401D099
:102A300001D024D002010229D8B40329D8B401D08E
:102A400001D005D0020E536E000E526E0CD0030161
:102A50000229D8B40329D8B401D001D004D0030E80
:102A6000536E000E526E53505210D8B401D001D0A4
:102A700005D0000E556E010E546EC58012000B502D
:102A80000A10D8B401D001D01CD0010E0C6E04D0B5
:102A9000D8900A360B360C2A0BAE01D001D0F8D7ED
:102AA0000A50085C0B500958D8A001D001D004D0BE
:102AB0000A50085E0B50095AD8900B320A320C2E7D
:102AC000EFD708C008F009C009F01200B9C1BDF184
:102AD000BAC1BEF105D00101BD4BBE2BBB4BBC2B17
:102AE000BBC1F6FFBCC1F7FF000EF86EBDC1D9FF38
:102AF000BEC1DAFF0C0EF76403D00800F55005D014
:102B0000F6CFE9FFF7CFEAFFEF50DF6EDF50D8A432
:102B100001D001D0E0D71200E8CFBFF1010EBA6FAB
:102B2000960EB96FBFC1BBF10D0EBC6F66EC15F010
:102B3000000160696169646965690101146B156B65
:102B40002A6B2B6B406B416B00019D6B9E6BB36BD3
:102B5000B46BC96BCA6B0101566B576B6C6B6D6BB9
:102B6000120001C005F002C006F004D0054A062A92
:102B7000034A042A03C0F6FF04C0F7FF000EF86EF4
:102B800005C0D9FF06C0DAFF0C0EF76403D00800B9
:102B9000F55005D0F6CFE9FFF7CFEAFFEF50DF6E33
:102BA000DF50D8A401D001D0E1D7120001C003F05A
:102BB00002C004F002D0034A042A03C0F6FF04C096
:102BC000F7FF000EF86E0C0EF76403D00800F55006
:102BD00005D0F6CFE9FFF7CFEAFFEF500009D8A400
:102BE00001D001D0E8D70150035C016E02500458B7
:102BF000026E120003C009F004C00AF001C007F021
:102C000002C008F00ED009C0D9FF0AC0DAFF07C021
:102C1000E1FF08C0E2FFDFCFE7FF094A0A2A074ABF
:102C2000082A0506D8A006060528D8B40628D8A480
:102C300001D001D0E8D71200035001C0D9FF02C073
:102C4000DAFFDF6201D001D005D001C001F002C07F
:102C500002F00DD001C0D9FF02C0DAFF014A022AFA
:102C6000DF50D8A401D001D0E7D7016A026A120070
:102C7000E8CF36F0000E0E6EDF0E0D6E6B0E0F6E8F
:102C800032C010F033C011F00BEC08F031C02CF062
:102C90000001DF0E2D6E34C02EF035C02FF03650FF
:102CA000F2EC0CF01200056A066A01A001D001D016
:102CB00004D00350052604500622D890033604366B
:102CC000D8900232013202500110D8A401D001D0B4
:102CD000ECD705C001F006C002F01200935192112A
:102CE000D8B401D001D008D00701070E066E000E3F
:102CF000056E85EC17F006D0670E056E0D0E066E9C
:102D000085EC17F00701006B0001926B936B1200CA
:102D1000000E0101BA6F000EB96F9DEC17F0280E7E
:102D20008CEC15F024EC17F0010EBA6F900EB96F11
:102D30002D0EBC6F6C0EBB6FF8EC12F01200E8CFDA
:102D400002F0080E036E046AD89002340434046E54
:102D5000D89002360150045CD8A001D001D002D036
:102D60000150045E032EF0D7045012009A4B9B2BA7
:102D7000070E9A17000E9B17510E316E9AC032F053
:102D80009BC033F02E0E356ED60E346E370E38ECF7
:102D900016F01200700ED312EAEC17F042EC17F0A6
:102DA000C6EC17F088EC16F0F28EF28C5EEC17F0A1
:102DB000E7EC17F0FDD70CEF00F050EC17F0010135
:102DC000B96BBA6B817EB94BBA2BBA51800A800FAE
:102DD000050ED8B4B95DD8A001D001D0F3D7120048
:102DE000E8CF03F0026A3A0E036001D001D007D0A9
:102DF0002F0E036401D001D002D0010E026E02C07A
:102E000001F001301200F851F711D8A401D001D01F
:102E10000AD08050F80B7411896E744B752B070E15
:102E20007417000E7517120052C0D9FF53C0DAFF95
:102E3000DE50DD10D8B401D001D003D054EC0EF038
:102E400002D0A6EC0DF01200000E00017B6F010E07
:102E50007A6F33EC17F02F0E0101BA6FB20EB96F13
:102E6000D4EC17F01200AB8E948E948CAC9CAC8A90
:102E7000AC98AC86AB88AC84B886670EAF6E9D9874
:102E80009D8A1200AC9CAC8AAC98AC84B886220EA9
:102E9000AF6E948E948CAB9CAB8EAB98AB881200CB
:102EA000000187518611D8A401D001D002D0939C93
:102EB000939E000E876F010E866F1200926A000EBD
:102EC0000101BA6FFA0EB96F2E0EBC6F060EBB6F02
:102ED000F8EC12F0120078EC17F036C038F037C07A
:102EE00039F038C001F039C002F0B3EC17F012002D
:102EF00046C021F047C022F05D0E236EB1EC0AF00F
:102F000021C036F022C037F012000601060E026E14
:102F1000000E016E05C003F006C004F001EC14F0D1
:102F20001200000E0001796F010E786F926A8050D6
:102F3000F80B0110896EFFD71200000E0001F86F28
:102F4000010EF76F8050F80B0101B911896E120064
:102F50001F0E066E980E056E000E086E000E076EB0
:102F60006AEC12F01200000E0001F86F010EF76F0C
:102F70008050F80B0110896E120021C00DF022C0A4
:102F80000EF0550E0F6E0BEC08F012004A6A4B6AF9
:102F90004C6A4D6A4E6A4F6A12004A6A4B6A4C6A22
:102FA0004D6A4E6A4F6A1200B9C184F0BAC185F009
:102FB0001200020E586EB9EC06F01200010E586EA7
:102FC000B9EC06F01200586AB9EC06F01200DDEC1C
:082FD00016F01200936A1200D2
:020000040020DA
:08000000FFFFFFFFFFFFFFFF00
:020000040030CA
:0E000000FF09191EFF8080FF0FC00FE00F40A8
:00000001FF
