:040000000CEF00F011
:10000800FACF32F0FBCF33F0E9CF34F077ED11F0CF
:0400180020EF11F0D4
:100D000001000A006400E80310276765742F697208
:100D100031206D79206E616D652100257322257368
:100D2000223A20222573222C0A7D00257322257366
:100D3000223A2025642C0A7D00286E756C6C2900EF
:100D4000222573222573006B657930006B6579313C
:100D5000006B657932006B657933006B657934001F
:100D600063616C6C007B0A7D002C0A003A20000055
:100D70000001000E000100017F6F0001740E0001F0
:100D80007E6F69D1000100018451250AD8B401D0D9
:100D900001D00CD070C0D9FF71C0DAFF000184C04F
:100DA000DFFF00010001704B712B55D100017A6FFC
:100DB000000E000100017C6F00017A5162D069D100
:100DC00086D085D07EC0D9FF7FC0DAFF0001DECF9C
:100DD00080F00001DDCF81F0020E000100017E27CE
:100DE000000E00017F230001000181518011D8A471
:100DF00001D001D02AD00D0E00010001816F390E03
:100E00000001806F22D021D0000180C0F6FF0001D8
:100E100081C0F7FF000EF86E70C0D9FF71C0DAFF15
:100E20000C0EF76403D00800F55005D0F6CFE9FFAB
:100E3000F7CFEAFFEF50DF6E00010001804B812BFE
:100E400000010001704B712B00D0000180C0F6FF43
:100E5000000181C0F7FF000EF86E0C0EF76403D09E
:100E60000800F55005D0F6CFE9FFF7CFEAFFEF50C5
:100E70000009D8A401D001D0C7D7EDD0ECD0EBD079
:100E800026D000010001725100017A6F00010001BB
:100E9000735100017B6F0001724B732B7AC0F6FF18
:100EA0007BC0F7FF000EF86E08000001F5CF84F05C
:100EB00000018451000AD8B4ECD0640AD8B407D039
:100EC0000D0AD8B404D01A0AD8B47CD7C4D07EC0D6
:100ED000D9FF7FC0DAFF0001DECF80F00001DDCF57
:100EE00081F0020E000100017E27000E00017F2329
:100EF0000001000181AF01D001D00CD0030E000130
:100F000000017C1300010001806D0001811FD8B039
:100F1000812B00D000017A6F010E00010001846F67
:100F200000017A51000100018451050AD8A401D0C2
:100F300001D002D030D02FD0000100018451020D29
:100F4000000EF324F66E0D0EF420F76EF86A000E14
:100F5000F8220900F5CF7AF00900F5CF7BF0000107
:100F60007A5100010001805D00017B510001000108
:100F70008159D8B001D001D002D00DD00CD00001E1
:100F80000001842B000100018451050AD8A401D07E
:100F900001D0D2D700D0000100017C51030BD8B49E
:100FA00001D001D00BD070C0D9FF71C0DAFF2D0E77
:100FB000DF6E00010001704B712B00D084C07DF00A
:100FC0003FD0000100017D51020D000EF324F66EAA
:100FD0000D0EF420F76EF86A000EF82209000001E9
:100FE000F5CF64F00A000001F5CF65F080C062F033
:100FF00081C063F00001A8EC0FF0000162C06AF04C
:10100000000163C06BF0000E000100016D6F0A0E5D
:1010100000016C6F00011FEC12F0000100016A5129
:10102000300F00010001846F70C0D9FF71C0DAFF7A
:10103000000184C0DFFF00010001704B712B00D064
:10104000000100017D0700017D29D8A401D001D055
:10105000B8D701D000D000010001725100017A6FB1
:1010600000010001735100017B6F0001724B732B73
:101070007AC0F6FF7BC0F7FF000EF86E0800000193
:10108000F5CF84F00001846701D001D07BD601D078
:1010900000D070C0D9FF71C0DAFF000EDF6E00D043
:1010A0001200000E1E6E130E1D6E0ED12350250A67
:1010B000D8B401D001D009D00FC0D9FF10C0DAFFD9
:1010C00023C0DFFF0F4A102AFFD0196E000E1B6EDF
:1010D000195050D00ED16BD06AD01DC0D9FF1EC0A0
:1010E000DAFFDECF1FF0DDCF20F0020E1D26000E4E
:1010F0001E2220501F10D8A401D001D021D00D0EE7
:10110000206E390E1F6E1CD01BD01FC0F6FF20C0F2
:10111000F7FF000EF86E0FC0D9FF10C0DAFF0C0EFB
:10112000F76403D00800F55005D0F6CFE9FFF7CFFC
:10113000EAFFEF50DF6E1F4A202A0F4A102A00D024
:101140001FC0F6FF20C0F7FF000EF86E0C0EF7640C
:1011500003D00800F55005D0F6CFE9FFF7CFEAFF3E
:10116000EF500009D8A401D001D0CFD7ADD0ACD07A
:10117000ABD01DD01150196E12501A6E114A122A9E
:1011800019C0F6FF1AC0F7FF000EF86E0800F5CF81
:1011900023F02350000AD8B4ACD0640AD8B407D0E6
:1011A0000D0AD8B404D01A0AD8B497D78DD01DC070
:1011B000D9FF1EC0DAFFDECF1FF0DDCF20F0020E18
:1011C0001D26000E1E2220AE01D001D007D0030E36
:1011D0001B121F6C201ED8B0202A00D0196E010EE1
:1011E000236E19502350050AD8A401D001D002D093
:1011F00024D023D02350020D000EF324F66E0D0EE2
:10120000F420F76EF86A000EF8220900F5CF19F005
:101210000900F5CF1AF019501F5C1A502058D8B0A9
:1012200001D001D002D009D008D0232A2350050ACA
:10123000D8A401D001D0DED700D01B50030BD8B406
:1012400001D001D009D00FC0D9FF10C0DAFF2D0E98
:10125000DF6E0F4A102A00D023C01CF02DD01C5086
:10126000020D000EF324F66E0D0EF420F76EF86AF0
:10127000000EF8220900F5CF03F00A00F5CF04F0C4
:101280001FC001F020C002F0B1EC13F001C009F062
:1012900002C00AF0000E0C6E0A0E0B6E45EC14F044
:1012A0000950300F236E0FC0D9FF10C0DAFF23C0E2
:1012B000DFFF0F4A102A00D01C061C28D8A401D03A
:1012C00001D0CDD701D000D01150196E12501A6E36
:1012D000114A122A19C0F6FF1AC0F7FF000EF86E65
:1012E0000800F5CF23F0236601D001D0DFD601D06E
:1012F00000D00FC0D9FF10C0DAFF000EDF6E00D0A3
:1013000012000301030101510011D8B401D001D032
:1013100018D00301030E00010001926F0301020EB9
:101320000001916F01D80CD00500FA6E0301030192
:101330000051FD6E03010151FE6EFF6AFA5012006A
:1013400000D00401040101510011D8B401D001D032
:1013500018D00401040E00010001926F0401020E76
:101360000001916F01D80CD00500FA6E0401040150
:101370000051FD6E04010151FE6EFF6AFA50120029
:1013800000D00501050101510011D8B401D001D0F0
:1013900018D00501050E00010001926F0501020E33
:1013A0000001916F01D80CD00500FA6E050105010E
:1013B0000051FD6E05010151FE6EFF6AFA501200E8
:1013C00000D00601060101510011D8B401D001D0AE
:1013D00018D00601060E00010001926F0601020EF0
:1013E0000001916F01D80CD00500FA6E06010601CC
:1013F0000051FD6E06010151FE6EFF6AFA501200A7
:1014000000D00701070101510011D8B401D001D06B
:1014100018D00701070E00010001926F0701020EAC
:101420000001916F01D80CD00500FA6E0701070189
:101430000051FD6E07010151FE6EFF6AFA50120065
:1014400000D00801080101510011D8B401D001D029
:1014500018D00801080E00010001926F0801020E69
:101460000001916F01D80CD00500FA6E0801080147
:101470000051FD6E08010151FE6EFF6AFA50120024
:1014800000D073EC14F012000201020E0001000102
:10149000866F0201000E0001856F000165EC15F0FA
:1014A0000201020E00010001866F0201000E000120
:1014B000856F0D0E00010001886F600E0001876FBF
:1014C0000D0E000100018A6F0A0E0001896F0001F4
:1014D00008EC10F00201020E00010001866F02010B
:1014E000000E0001856F0D0E00010001886F470E90
:1014F0000001876F000E000100018A6F030E0001DA
:10150000896F000166EC10F00201020E000100017B
:10151000866F0201000E0001856F0D0E00010001B3
:10152000886F4C0E0001876F000E000100018A6F6A
:10153000040E0001896F000166EC10F00201020E3A
:1015400000010001866F0201000E0001856F0D0E83
:1015500000010001886F510E0001876F000E00012D
:1015600000018A6F050E0001896F000166EC10F022
:101570000201020E00010001866F0201000E00014F
:10158000856F0D0E00010001886F560E0001876FF8
:10159000000E000100018A6F060E0001896F000134
:1015A00066EC10F00201020E00010001866F0201DC
:1015B000000E0001856F0D0E00010001886F5B0EAB
:1015C0000001876F000E000100018A6F070E000105
:1015D000896F000166EC10F00201020E00010001AB
:1015E000696F0201000E0001686F0001D8EC0EF077
:1015F00012000301030101510011D8B401D001D040
:1016000015D00301030E316E0301020E306E01D8B6
:101610000CD00500FA6E030103010051FD6E0301B9
:101620000151FE6EFF6AFA50120000D0040104015D
:1016300001510011D8B401D001D015D00401040E1D
:10164000316E0401020E306E01D80CD00500FA6E26
:10165000040104010051FD6E04010151FE6EFF6A98
:10166000FA50120000D00501050101510011D8B453
:1016700001D001D015D00501050E316E0501020E15
:10168000306E01D80CD00500FA6E0501050100513D
:10169000FD6E05010151FE6EFF6AFA50120000D086
:1016A0000601060101510011D8B401D001D015D0B6
:1016B0000601060E316E0601020E306E01D80CD006
:1016C0000500FA6E060106010051FD6E060101518A
:1016D000FE6EFF6AFA50120000D0070107010151A7
:1016E0000011D8B401D001D015D00701070E316E1A
:1016F0000701020E306E01D80CD00500FA6E07010A
:1017000007010051FD6E07010151FE6EFF6AFA509C
:10171000120000D00801080101510011D8B401D015
:1017200001D015D00801080E316E0801020E306E8E
:1017300001D80CD00500FA6E080108010051FD6EB9
:1017400008010151FE6EFF6AFA50120000D09EECB3
:1017500014F012000301030101510011D8A401D0BB
:1017600001D011D00301030E026E0301020E016EBF
:1017700007C003F008C004F0C9EC14F005C000F382
:1017800006C001F382D00401040101510011D8A464
:1017900001D001D011D00401040E026E0401020E2A
:1017A000016E07C003F008C004F0C9EC14F005C0D6
:1017B00000F406C001F469D00501050101510011D2
:1017C000D8A401D001D011D00501050E026E05018B
:1017D000020E016E07C003F008C004F0C9EC14F05B
:1017E00005C000F506C001F550D006010601015103
:1017F0000011D8A401D001D011D00601060E026E4E
:101800000601020E016E07C003F008C004F0C9EC27
:1018100014F005C000F606C001F637D00701070135
:1018200001510011D8A401D001D011D00701070E39
:10183000026E0701020E016E07C003F008C004F03B
:10184000C9EC14F005C000F706C001F71ED008016E
:10185000080101510011D8A401D001D016D008010F
:10186000080E026E0801020E016E07C003F008C0E8
:1018700004F0C9EC14F005C000F806C001F805D06A
:1018800004D003D002D001D000D01200C7A601D0EE
:1018900001D015D0C7B401D001D011D0C7BA01D042
:1018A00001D00DD0C7A001D001D009D0C9CF09F017
:1018B0000A6AC688000E436E000E426E00D0C7B69C
:1018C00001D001D004D0C7A801D001D03ED0C7B408
:1018D00001D001D03AD0C7AA01D001D036D0C7A0DC
:1018E00001D001D032D0C9CF0BF00C6A0A01000E32
:1018F0004224D96E0A010A0E4320DA6E0BC0DFFFC4
:101900000A01000E4224D96E0A010A0E4320DA6E43
:10191000DF50D8A401D001D014D049504810D8B419
:1019200001D001D00ED048C005F049C006F00A0130
:101930000A0E086E0A01000E076EAAEC0BF001D029
:1019400000D0424A432AC68834D0C7A601D001D06D
:101950000CD0C7A401D001D008D0C7BA01D001D0A3
:1019600004D0460EC96EC68824D0C7A601D001D0C7
:1019700010D0C7A401D001D00CD0C7AA01D001D08B
:1019800008D0C7B001D001D004D0550EC96EC688AA
:1019900010D0C7A601D001D00CD0C7AA01D001D069
:1019A00008D0C7B001D001D004D003D002D001D0FC
:1019B00000D012000001666F000E00010001686F88
:1019C000000166510001000163AF01D001D010D0C9
:1019D00000010001626D0001631FD8B0632B00019C
:1019E000666F010E00010001686F0001665100D0B2
:1019F0000001000165AF01D001D008D00001000155
:101A0000646D0001651FD8B0652B00D00001000196
:101A100065516411D8B401D001D044D00001666F83
:101A2000010E00010001676F000166510AD000013C
:101A300000010001D8906437653700010001672B71
:101A400000D00001000165AF01D001D0F0D701D076
:101A500000D000010001645100010001625D00013D
:101A600000016551000100016359D8A001D001D0E7
:101A70000DD000010001645100010001625F00010E
:101A80000001655100010001635B00D0000100010D
:101A90000001D8906533643300010001672FD9D766
:101AA00001D000D0000100016851D8B401D001D0AC
:101AB00008D000010001626D0001631FD8B0632BE4
:101AC00000D062C062F063C063F000D01200000179
:101AD000000194519311D8B401D001D023D09FC0FC
:101AE00062F0A0C063F095C064F096C065F000019C
:101AF000DAEC0CF000010001635100016211D8A47E
:101B000001D001D00FD001D80CD00500FA6E000131
:101B100000019351FD6E00019451FE6EFF6AFA5070
:101B2000120000D00001000198519711D8B401D0E3
:101B300001D023D09FC062F0A0C063F099C064F0D0
:101B40009AC065F00001DAEC0CF00001000163516D
:101B500000016211D8A401D001D00FD001D80CD05F
:101B60000500FA6E000100019751FD6E00019851C9
:101B7000FE6EFF6AFA50120000D0000100019C5175
:101B80009B11D8B401D001D023D09FC062F0A0C077
:101B900063F09DC064F09EC065F00001DAEC0CF0CB
:101BA00000010001635100016211D8A401D001D0ED
:101BB0000FD001D80CD00500FA6E000100019B5136
:101BC000FD6E00019C51FE6EFF6AFA50120000D0BB
:101BD000000100019F4BA02B120000010001945155
:101BE0009311D8B401D001D01FD09FC001F0A0C084
:101BF00002F095C003F096C004F0CBEC11F0025057
:101C00000110D8A401D001D00FD001D80CD005000C
:101C1000FA6E000100019351FD6E00019451FE6EB9
:101C2000FF6AFA50120000D000010001985197118C
:101C3000D8B401D001D01FD09FC001F0A0C002F0E5
:101C400099C003F09AC004F0CBEC11F002500110DF
:101C5000D8A401D001D00FD001D80CD00500FA6E65
:101C6000000100019751FD6E00019851FE6EFF6A60
:101C7000FA50120000D0000100019C519B11D8B411
:101C800001D001D01FD09FC001F0A0C002F09DC0C4
:101C900003F09EC004F0CBEC11F002500110D8A468
:101CA00001D001D00FD001D80CD00500FA6E000190
:101CB00000019B51FD6E00019C51FE6EFF6AFA50BF
:101CC000120000D0000100019F4BA02B1200020166
:101CD000020E256E0201000E246E7FEC15F002014B
:101CE000020E256E0201000E246E0D0E276E600E90
:101CF000266E0D0E296E0A0E286EFBEC12F0020104
:101D0000020E256E0201000E246E0D0E276E470E88
:101D1000266E000E296E030E286E3AEC13F00201B7
:101D2000020E256E0201000E246E0D0E276E4C0E63
:101D3000266E000E296E040E286E3AEC13F0020196
:101D4000020E256E0201000E246E0D0E276E510E3E
:101D5000266E000E296E050E286E3AEC13F0020175
:101D6000020E256E0201000E246E0D0E276E560E19
:101D7000266E000E296E060E286E3AEC13F0020154
:101D8000020E256E0201000E246E0D0E276E5B0EF4
:101D9000266E000E296E070E286E3AEC13F0020133
:101DA000020E086E0201000E076EC4EC10F0120065
:101DB00000010001A451A311D8A401D001D011D079
:101DC0000101010E00010001636F0101640E0001B9
:101DD000626F68C064F069C065F00001F2EC14F055
:101DE00033D00101640E00010001A325D96E010169
:101DF000010E00010001A421DA6E010EDF6E010E5A
:101E000000010001A32500016A6F000E000100011E
:101E1000A42100016B6F0101640E00016A2500011D
:101E20000001626F0101010E00016B210001636F6F
:101E300068C064F069C065F00001F2EC14F00001C4
:101E40000001A34BA42B00D068C062F069C063F00E
:101E50000001BCEC12F000010001A35100010001DF
:101E6000622500010001A36F00010001A4510001DF
:101E7000000163210001A46F9D88000E0001000194
:101E8000A26F000E0001A16F120000010001A56702
:101E900001D001D027D0D58ED58CD59AD596D550E6
:101EA000F80B0209D56EF28A000E00010001946F52
:101EB000000E0001936F000E00010001986F000EEC
:101EC0000001976F000E000100019C6F000E0001E1
:101ED0009B6F0001666F010E00010001A56F0001FC
:101EE000665100D00001000194519311D8A401D093
:101EF00001D009D064C093F065C094F062C095F041
:101F000063C096F024D00001000198519711D8A425
:101F100001D001D009D064C097F065C098F062C0CC
:101F200099F063C09AF013D0000100019C519B11FD
:101F3000D8A401D001D00BD064C09BF065C09CF048
:101F400062C09DF063C09EF002D001D000D01200AC
:101F5000000E00010001686F000E0001676F0001B4
:101F6000000165516411D8B401D001D04CD00001FA
:101F7000666F010E00010001696F000166510AD011
:101F8000000100010001D8906437653700010001AD
:101F9000692B00D00001000165AF01D001D0F0D75E
:101FA00001D000D0000100010001D89067376837E8
:101FB00000010001645100010001625D00010001A7
:101FC0006551000100016359D8A001D001D010D0A3
:101FD00000010001645100010001625F0001000185
:101FE000655100010001635B00010001678100D0C1
:101FF000000100010001D890653364330001000145
:10200000692FD0D700D067C062F068C063F01200BB
:1020100085C062F086C063F00001BCEC12F00001E4
:10202000000162C08DF00001000163C08EF000016C
:1020300000018F6B0001906BFF0E000100018D25E8
:1020400000018B6FFF0E000100018E2100018C6FDB
:1020500000018B51000100018525D96E00018C51D2
:10206000000100018621DA6E000EDF6E0901090E03
:1020700000010001636F0901000E0001626F85C05D
:1020800064F086C065F00001E7EC13F085C070F0E5
:1020900086C071F00D0E00010001736F1B0E000170
:1020A000726F0901090E00010001756F0901000E30
:1020B0000001746F87C076F088C077F089C078F02F
:1020C0008AC079F00001B8EC06F0120085C062F019
:1020D00086C063F00001BCEC12F00001000162C098
:1020E0008DF00001000163C08EF0000100018F6BD4
:1020F0000001906BFF0E000100018D2500018B6F28
:10210000FF0E000100018E2100018C6F00018B5138
:10211000000100018525D96E00018C5100010001EC
:102120008621DA6E000EDF6E0901090E0001000142
:10213000636F0901000E0001626F85C064F086C004
:1021400065F00001E7EC13F085C070F086C071F017
:102150000D0E00010001736F2B0E0001726F09015B
:10216000090E00010001756F0901000E0001746F76
:1021700087C076F088C077F089C078F08AC079F09F
:102180000001B8EC06F0120000010001A451A311F7
:10219000D8A401D001D00DD00101010E026E0101C1
:1021A000640E016E07C003F008C004F011EC15F0D6
:1021B0002BD00101640E00010001A325D96E01019D
:1021C000010E00010001A421DA6E010EDF6E010E86
:1021D00000010001A325096E000E00010001A421E9
:1021E0000A6E0101640E0924016E0101010E0A202C
:1021F000026E07C003F008C004F011EC15F00001F6
:102200000001A34BA42B00D007C001F008C002F0CE
:1022100016EC14F000010001A3510124000100019B
:10222000A36F00010001A45102200001A46F9D884A
:10223000000E00010001A26F000E0001A16F12004C
:102240000CEE00F0C80EEE6AE806FDE10BEE00F0C1
:10225000C80EEE6AE806FDE10AEE00F0640EEE6AD2
:10226000E806FDE109EE00F0C80EEE6AE806FDE1C1
:1022700008EE00F0CA0EEE6AE806FDE107EE00F097
:10228000CA0EEE6AE806FDE106EE00F0CA0EEE6A3E
:10229000E806FDE105EE00F0CA0EEE6AE806FDE193
:1022A00004EE00F0CA0EEE6AE806FDE103EE00F06F
:1022B000CA0EEE6AE806FDE102EE00F0C80EEE6A14
:1022C000E806FDE101EE00F0C80EEE6AE806FDE169
:1022D00000EE93F0130EEE6AE806FDE100EE40F02A
:1022E0000E0EEE6AE806FDE1000144EF15F006006F
:1022F000EACF35F0E1CF36F0E2CF37F0D9CF38F082
:10230000DACF39F0F3CF3AF0F4CF3BF0F6CF3CF030
:10231000F7CF3DF0F8CF3EF0F5CF3FF09EA601D0CD
:1023200001D004D09E9646EC0CF000D0F2A401D06F
:1023300001D004D0F29474EC15F000D09EAA01D024
:1023400001D003D079EC13F000D09EA801D001D0C9
:1023500003D06FEC12F000D0F9EC0AF03FC0F5FFAB
:102360003EC0F8FF3DC0F7FF3CC0F6FF3BC0F4FFA6
:102370003AC0F3FF39C0DAFF38C0D9FF37C0E2FFF7
:1023800036C0E1FF35C0EAFF34C0E9FF33C0FBFFD0
:1023900032C0FAFF1100056E000E076E055002AE46
:1023A00001D001D009D0016C021ED8B0022A056EFE
:1023B000010E076E055000D004AE01D001D005D04B
:1023C000036C041ED8B0042A00D004500310D8B403
:1023D00001D001D024D0056E010E066E055005D047
:1023E000D89003360436062A00D004AE01D001D0BE
:1023F000F7D701D000D00350015C04500258D8A098
:1024000001D001D005D00350015E0450025A00D023
:10241000D89004320332062EEED701D000D00750F8
:10242000D8B401D001D005D0016C021ED8B0022A68
:1024300000D001C001F002C002F000D01200000183
:1024400000016D516C11D8B401D001D043D000010E
:102450006E6F010E000100016F6F00016E510AD016
:10246000000100010001D8906C376D3700010001B8
:102470006F2B00D0000100016DAF01D001D0F0D76B
:1024800001D000D0000100016C51000100016A5D23
:10249000000100016D51000100016B59D8A001D06D
:1024A00001D00DD0000100016C51000100016A5FF4
:1024B000000100016D51000100016B5B00D00001C3
:1024C00000010001D8906D336C33000100016F2FC3
:1024D000D9D700D06AC06AF06BC06BF0120000015F
:1024E0000001A251A111D8B401D001D002D09D9811
:1024F00042D00101640E4C24D96E0101010E4D2021
:10250000DA6EDF50D8A401D001D015D0000EAD6E28
:10251000000E4D6E000E4C6E000E00010001A46F07
:10252000000E0001A36F000E00010001A26F010E5A
:102530000001A16F20D00101640E4C24D96E01016D
:10254000010E4D20DA6E010EDF6201D001D005D000
:10255000000EAD6E4C4A4D2A0ED00101640E4C2483
:10256000D96E0101010E4D20DA6EDF50AD6E4C4A7E
:102570004D2A01D000D0120062C066F063C067F03F
:1025800005D000010001664B672B00D0000166C03A
:10259000F6FF000167C0F7FF000EF86E0C0EF7643F
:1025A00003D00800F55005D0F6CFE9FFF7CFEAFFDA
:1025B000EF500009D8A401D001D0E3D700D000012A
:1025C00062C064F0000163C065F00001641F651F14
:1025D000644B652B00010001665100016425000178
:1025E0000001626F000100016751000165210001D7
:1025F000636F00D0120024C001F025C002F016EC79
:1026000014F001C02CF002C02DF02E6A2F6AFF0ECC
:102610002C242A6EFF0E2D202B6E2A502424D96ED6
:102620002B502520DA6E000EDF6E0901090E026EB6
:102630000901000E016E24C003F025C004F0C9ECAE
:1026400014F024C00FF025C010F00D0E126E1B0EFA
:10265000116E0901090E146E0901000E136E26C0D9
:1026600015F027C016F028C017F029C018F051EC5B
:1026700008F0120024C001F025C002F016EC14F09E
:1026800001C02CF002C02DF02E6A2F6AFF0E2C2400
:102690002A6EFF0E2D202B6E2A502424D96E2B502B
:1026A0002520DA6E000EDF6E0901090E026E0901A7
:1026B000000E016E24C003F025C004F0C9EC14F034
:1026C00024C00FF025C010F00D0E126E2B0E116EEF
:1026D0000901090E146E0901000E136E26C015F0D3
:1026E00027C016F028C017F029C018F051EC08F0E8
:1026F0001200ABCF09F0AECF0AF00A6601D001D0CC
:1027000023D00101000E4024D96E0101010E4120A9
:10271000DA6E000EDF6E000E416E000E406E475006
:102720004610D8B401D001D01BD046C005F047C038
:1027300006F00101010E086E0101000E076EAAEC01
:102740000BF00ED00DD00CD00101000E4024D96E3C
:102750000101010E4120DA6E0AC0DFFF404A412A22
:102760001200000E086E000E076E04500310D8B45D
:1027700001D001D027D0056E010E066E055005D0A0
:10278000D89003360436062A00D004AE01D001D01A
:10279000F7D701D000D0D890073608360350015C37
:1027A00004500258D8A001D001D006D00350015ED9
:1027B0000450025A078000D0D89004320332062E0B
:1027C000EAD700D007C001F008C002F012000001F3
:1027D000000165516411D8A401D001D016D025D0D4
:1027E00024D013D064C0D9FF65C0DAFF62C0E1FF16
:1027F00063C0E2FFDFCFE7FF00010001624B632B04
:1028000000010001644B652B00D064C0D9FF65C096
:10281000DAFFDF50D8A401D001D0E4D700D062C0E5
:10282000D9FF63C0DAFF000EDF6E120001C005F0B1
:1028300002C006F003D0054A062A00D005C0F6FF04
:1028400006C0F7FF000EF86E0C0EF76403D0080008
:10285000F55005D0F6CFE9FFF7CFEAFFEF500009BA
:10286000D8A401D001D0E7D700D001C003F002C046
:1028700004F0031E041E034A042A05500324016EBB
:1028800006500420026E00D012000C500B10D8B479
:1028900001D001D023D00D6E010E0E6E0D5005D06B
:1028A000D8900B360C360E2A00D00CAE01D001D0D9
:1028B000F7D701D000D00B50095C0C500A58D8A0B3
:1028C00001D001D005D00B50095E0C500A5A00D03F
:1028D000D8900C320B320E2EEED700D009C009F082
:1028E0000AC00AF01200000E03010301016F000E7E
:1028F0000301006F000E04010401016F000E0401CA
:10290000006F000E05010501016F000E0501006F4B
:10291000000E06010601016F000E0601006F000E99
:1029200007010701016F000E0701006F000E08018B
:102930000801016F000E0801006F1200000E030174
:102940000301016F000E0301006F000E040104017A
:10295000016F000E0401006F000E05010501016FFB
:10296000000E0501006F000E06010601016F000E4A
:102970000601006F000E07010701016F000E07013D
:10298000006F000E08010801016F000E0801006FC2
:10299000120004500310D8A401D001D012D021D0CD
:1029A00020D00FD003C0D9FF04C0DAFF01C0E1FF7F
:1029B00002C0E2FFDFCFE7FF014A022A034A042AEE
:1029C00000D003C0D9FF04C0DAFFDF50D8A401D083
:1029D00001D0E8D700D001C0D9FF02C0DAFF000E55
:1029E000DF6E120062C066F063C067F009D00001BC
:1029F0000001664B672B00010001644B652B00D082
:102A000064C0D9FF65C0DAFF66C0E1FF67C0E2FFBE
:102A1000DFCFE7FFE750D8A401D001D0E8D700D03E
:102A2000120001C005F002C006F005D0054A062AD2
:102A3000034A042A00D003C0D9FF04C0DAFF05C04E
:102A4000E1FF06C0E2FFDFCFE7FFE750D8A401D0E7
:102A500001D0ECD700D01200000E926E8AEC15F077
:102A600056EC15F0000E00010001636F460E0001E8
:102A7000626F140E00010001656F880E0001646F23
:102A8000000145EC0FF01200D388D38AD38C73EC8D
:102A900014F02CEC15F0F28EF28C00D081EC09F0E1
:102AA0008DEC15F0FBD7FAD70CEF00F0AB8E948EBF
:102AB000948CAC9CAC8AAC98AC86AB88AC84B89651
:102AC000190EAF6E9D989D8A120085C070F086C069
:102AD00071F00D0E00010001736F650E0001726F41
:102AE0000001B8EC06F012001B0E066EDA0E056E41
:102AF000000E086E000E076EAAEC0BF0120024C048
:102B00000FF025C010F00D0E126E650E116E51EC17
:0E2B100008F01200000E936E1200897412007D
:020000040020DA
:08000000FFFFFFFFFFFFFFFF00
:020000040030CA
:0E000000FF09191EFF8080FF0FC00FE00F40A8
:00000001FF
