:040000000CEF00F011
:10000800FACF1EF0FBCF1FF0E1CF20F02BED09F067
:04001800F8EF09F004
:100D000001000A006400E803102770757272202544
:100D1000640A0000E8CF14F00D0E126E96D01B503E
:100D2000250AD8B401D001D004D01B50B6EC0BF08A
:100D30008CD0136A04D01B50B6EC0BF086D0142A6A
:100D400014040F6E0FC0F6FF0D0EF76E000EF86E56
:100D50000800F5CF1BF01B50000AD8B486D0640AF7
:100D6000D8B404D00D0AD8B401D0E5D71250D96E4A
:100D7000DA6ADECF16F0DDCF17F0020E122617AEBC
:100D800001D001D006D0030E1312166C171ED8B076
:100D9000172A010E1B6E1B50020DF350000F0F6E31
:100DA0000FC0F6FF0D0EF76E000EF86E0900F5CFBE
:100DB00010F00900F5CF11F01050165C11501758C3
:100DC000D8B001D001D001D007D01B2A1B50050A92
:100DD000D8A401D001D0DFD71350030BD8B401D071
:100DE00001D003D02D0EB6EC0BF01BC015F027D0B0
:100DF0001550020DF350000F0F6E0FC0F6FF0D0ED1
:100E0000F76E000EF86E0900F5CF03F00A00F5CF7B
:100E100004F016C001F017C002F0D1EC0AF001C0D6
:100E200008F002C009F0000E0B6E0A0E0A6EFEEC0E
:100E30000AF00850300F1B6E1B50B6EC0BF0150675
:100E40001528D8A401D001D0D3D7142A14040F6ECA
:100E50000FC0F6FF0D0EF76E000EF86E0800F5CF0E
:100E60001BF01B6601D001D05AD7120002010151BC
:100E70000011D8B401D001D00FD0020E1D6E020EA9
:100E80001C6E01D809D00500FA6E0051FD6E0151AB
:100E9000FE6EFF6AFA501200030101510011D8B42E
:100EA00001D001D00FD0030E1D6E020E1C6E01D8B2
:100EB00009D00500FA6E0051FD6E0151FE6EFF6A09
:100EC000FA501200040101510011D8B401D001D030
:100ED0000FD0040E1D6E020E1C6E01D809D0050045
:100EE000FA6E0051FD6E0151FE6EFF6AFA5012005B
:100EF000050101510011D8B401D001D00FD0050E69
:100F00001D6E020E1C6E01D809D00500FA6E00514C
:100F1000FD6E0151FE6EFF6AFA501200060101518A
:100F20000011D8B401D001D00FD0060E1D6E020EF4
:100F30001C6E01D809D00500FA6E0051FD6E0151FA
:100F4000FE6EFF6AFA501200070101510011D8B479
:100F500001D001D00FD0070E1D6E020E1C6E01D8FD
:100F600009D00500FA6E0051FD6E0151FE6EFF6A58
:100F7000FA5012007CEC0BF012000201015100113A
:100F8000D8A401D001D00FD0020E026E020E016E65
:100F900007C003F008C004F04AEC0BF005C000F2F3
:100FA00006C001F26ED0030101510011D8A401D096
:100FB00001D00FD0030E026E020E016E07C003F0C7
:100FC00008C004F04AEC0BF005C000F306C001F3C2
:100FD00058D0040101510011D8A401D001D00FD084
:100FE000040E026E020E016E07C003F008C004F08A
:100FF0004AEC0BF005C000F406C001F442D0050134
:1010000001510011D8A401D001D00FD0050E026EFD
:10101000020E016E07C003F008C004F04AEC0BF0AA
:1010200005C000F506C001F52CD0060101510011E4
:10103000D8A401D001D00FD0060E026E020E016EB0
:1010400007C003F008C004F04AEC0BF005C000F63E
:1010500006C001F616D0070101510011D8A401D035
:1010600001D00FD0070E026E020E016E07C003F012
:1010700008C004F04AEC0BF005C000F706C001F709
:1010800000D01200C7A601D001D010D0C7B401D043
:1010900001D00CD0C7BA01D001D008D0C7A001D070
:1010A00001D004D0C950C6883A6A3B6AC7B601D09D
:1010B00001D004D0C7A801D001D037D0C7B401D027
:1010C00001D033D0C7AA01D001D02FD0C7A001D002
:1010D00001D02BD0C9CF09F00A6A0101000E3A24D1
:1010E000D96E010E3B20DA6E09C0DFFF000E3A24F4
:1010F000D96E010E3B20DA6EDF50D8A401D001D0AA
:1011000010D03F503E10D8B401D001D00AD03EC01C
:1011100005F03FC006F0010E086E000E076EBDEC34
:1011200007F03A4A3B2AC6882FD0C7A601D001D083
:101130000BD0C7A401D001D007D0C7BA01D001D0CD
:1011400003D0460EC96EEFD7C7A601D001D00FD08D
:10115000C7A401D001D00BD0C7AA01D001D007D0BD
:10116000C7B001D001D003D0550EC96EDCD7C7A6D9
:1011700001D001D009D0C7AA01D001D005D0C7B095
:1011800001D001D001D000D012002B502A10D8B4C9
:1011900001D001D01BD036C001F037C002F02CC006
:1011A00003F02DC004F073EC09F002500110D8A434
:1011B00001D001D00BD001D809D00500FA6E2A5019
:1011C000FD6E2B50FE6EFF6AFA5012002F502E104B
:1011D000D8B401D001D01BD036C001F037C002F026
:1011E00030C003F031C004F073EC09F0025001107C
:1011F000D8A401D001D00BD001D809D00500FA6ED7
:101200002E50FD6E2F50FE6EFF6AFA5012003350C2
:101210003210D8B401D001D01BD036C001F037C095
:1012200002F034C003F035C004F073EC09F0025052
:101230000110D8A401D001D00BD001D809D00500ED
:10124000FA6E3250FD6E3350FE6EFF6AFA50120095
:10125000364A372A12000600E2CF21F0D9CF22F019
:10126000DACF23F0F3CF24F0F4CF25F0F6CF26F039
:10127000F7CF27F0F8CF28F0F5CF29F09EA601D0C0
:1012800001D003D09E9642EC08F0F2A401D001D028
:1012900003D0F294ABEC0BF09EAA01D001D002D0A7
:1012A00073EC0AF09EA801D001D002D0A2EC0AF0A3
:1012B00036EC07F029C0F5FF28C0F8FF27C0F7FF7C
:1012C00026C0F6FF25C0F4FF24C0F3FF23C0DAFFD9
:1012D00022C0D9FF21C0E2FF20C0E1FF1FC0FBFFF9
:1012E0001EC0FAFF1100066A02AE01D001D006D07E
:1012F000016C021ED8B0022A010E066E04AE01D0A7
:1013000001D004D0036C041ED8B0042A045003108A
:10131000D8B401D001D01CD0010E056E04D0D890F5
:1013200003360436052A04AE01D001D0F8D70350A5
:10133000015C04500258D8A001D001D004D0035061
:10134000015E0450025AD89004320332052EEFD7C2
:101350000650D8B401D001D004D0016C021ED8B020
:10136000022A01C001F002C002F01200446601D05E
:1013700001D011D0D58ED58CD59AD596D550F80BF5
:101380000209D56EF28A2A6A2B6A2E6A2F6A326A9D
:10139000336A010E446E2B502A10D8A401D001D01C
:1013A00009D0C6C02AF0C7C02BF0C4C02CF0C5C0FD
:1013B0002DF01DD02F502E10D8A401D001D009D06F
:1013C000C6C02EF0C7C02FF0C4C030F0C5C031F089
:1013D0000ED033503210D8A401D001D008D0C6C0EE
:1013E00032F0C7C033F0C4C034F0C5C035F01200CD
:1013F00008EE00F0C80EEE6AE806FDE107EE00F028
:10140000CA0EEE6AE806FDE106EE00F0CA0EEE6ACC
:10141000E806FDE105EE00F0CA0EEE6AE806FDE121
:1014200004EE00F0CA0EEE6AE806FDE103EE00F0FD
:10143000CA0EEE6AE806FDE102EE00F0CA0EEE6AA0
:10144000E806FDE101EE00F0640EEE6AE806FDE15B
:1014500000EE60F0640EEE6AE806FDE100EE2AF0B0
:101460001B0EEE6AE806FDE1000125EF0BF0897026
:101470006D0E1CC0D9FF1DC0DAFFDF6201D001D0A4
:1014800001D0897020EE01F01C50D9261D50DA22BF
:10149000610EDF6201D001D001D0897020EE02F030
:1014A0001C50D9261D50DA22740EDF6201D001D003
:1014B00001D0897020EE03F01C50D9261D50DA228D
:1014C0000A0EDF6201D001D001D0897020EE04F055
:1014D0001C50D9261D50DA22DF50D8A401D001D0EB
:1014E00001D089701200AB50AECF09F0096601D06F
:1014F00001D01CD00801000E3824D96E080E392006
:10150000DA6E000EDF6E386A396A46504510D8B47C
:1015100001D001D016D045C005F046C006F0080E37
:10152000086E000E076EBDEC07F00BD00801000E30
:101530003824D96E080E3920DA6E09C0DFFF384A28
:10154000392A12003D503C10D8B401D001D002D04D
:101550009D9826D040500001600FD96EDA6ADF50A6
:10156000D8A401D001D008D0AD6A406A416A000E0B
:101570003D6E010E3C6E14D04050600FD96EDA6A99
:10158000010EDF6201D001D004D0AD6A404A412A89
:1015900007D04050600FD96EDA6ADF50AD6EF6D7D3
:1015A0001200056A066A04500310D8B401D001D0B5
:1015B00020D0010E076E04D0D89003360436072AD7
:1015C00004AE01D001D0F8D7D890053606360350C6
:1015D000015C04500258D8A001D001D005D00350BE
:1015E000015E0450025A0580D89004320332072E5F
:1015F000EBD705C001F006C002F012000B500A1034
:10160000D8B401D001D01CD0010E0C6E04D0D890FB
:101610000A360B360C2A0BAE01D001D0F8D70A508F
:10162000085C0B500958D8A001D001D004D00A5052
:10163000085E0B50095AD8900B320A320C2EEFD7A5
:1016400008C008F009C009F01200700ED312926AA7
:10165000D0EC0BF069EC0BF08FEC0BF0000E0001FE
:10166000C56F4F0EC46F9EEC0BF0140EC56F6E0E5F
:10167000C46FCBEC0BF0030EC56FE80EC46F170EF2
:10168000C76F820EC66FB6EC09F0F28EF28CFFD7F0
:101690000CEF00F004500310D8A401D001D00FD0FB
:1016A00017D003C0D9FF04C0DAFF01C0E1FF02C0B8
:1016B000E2FFDFCFE7FF014A022A034A042A03C000
:1016C000D9FF04C0DAFFDF50D8A401D001D0E9D798
:1016D00012000201006B016B0301006B016B04013E
:1016E000006B016B0501006B016B0601006B016B68
:1016F0000701006B016B12000201006B016B03011B
:10170000006B016B0401006B016B0501006B016B49
:101710000601006B016B0701006B016B1200AB8EC1
:10172000948E948CAC9CAC8AAC98AC86AB88AC8420
:10173000B896190EAF6E9D989D8A12009486948873
:10174000C451C425C86EC690C682C684C686C580EC
:10175000C68A9D861200110E066E8A0E056E000E58
:10176000086E000E076EBDEC07F01200E8CF01F026
:1017700001C08AFF818E819E210EE82EFED700F0E7
:101780001200424A432A42C00DF043C00EF00A0E36
:101790008AEC06F01200C4C045F0C5C046F0120045
:0417A000936A120036
:020000040020DA
:08000000FFFFFFFFFFFFFFFF00
:020000040030CA
:0E000000FF09191EFF8080FF0FC00FE00F40A8
:00000001FF
