:040000000CEF00F011
:10000800FACF56F0FBCF57F0E1CF58F007ED0AF0E2
:04001800C8EF09F034
:100D00002573222573223A20222573222C0A7D0086
:100D10002573222573223A2025642C0A7D00286E33
:100D2000756C6C29002225732225730066726F6D25
:100D3000006D736700726376006B6579007B0A7DD6
:100D400000746F002C0A003A20000000C7A601D0F2
:100D500001D010D0C7B401D001D00CD0C7BA01D097
:100D600001D008D0C7A001D001D004D0C950C68896
:100D7000116A126AC7B601D001D004D0C7A801D049
:100D800001D037D0C7B401D001D033D0C7AA01D029
:100D900001D02FD0C7A001D001D02BD0C9CF4CF0AB
:100DA0004D6A01016C0E1124D96E010E1220DA6E0B
:100DB0004CC0DFFF6C0E1124D96E010E1220DA6ECA
:100DC000DF50D8A401D001D010D028502710D8B4BB
:100DD00001D001D00AD027C048F028C049F0010E48
:100DE0004B6E6C0E4A6E56EC08F0114A122AC688F9
:100DF00069D0C7A601D001D02FD0C7A401D001D09F
:100E00002BD0C7BA01D001D027D024502310D8A4AA
:100E100001D001D017D02A502910D8B401D001D068
:100E20000BD001D809D00500FA6E2950FD6E2A506A
:100E3000FE6EFF6AFA501200000E246E010E236E41
:100E4000136A146A01016C0E1324D96E010E14206A
:100E5000DA6EDF50C96ECBD7C7A601D001D025D03E
:100E6000C7A401D001D021D0C7AA01D001D01DD084
:100E7000C7B001D001D019D0134A142A01016C0E59
:100E80001324D96E010E1420DA6EDF50C96E6C0E79
:100E90001324D96E010E1420DA6EDF50D8A401D0CD
:100EA00001D0A5D7236A246AA2D7C7A601D001D052
:100EB00009D0C7AA01D001D005D0C7B001D001D058
:100EC00001D000D012002B042C10D8A401D001D0E6
:100ED0000ED025C0D9FF26C0DAFFDF504C6ED89067
:100EE0004C34C96E000E2C6E020E2B6E78D02B5037
:100EF000020A2C10D8B401D001D007D02B50030A1D
:100F00002C10D8A401D001D047D020EE68F0255095
:100F1000D9262650DA2210EE66F02550E12626501A
:100F2000E222E652DE52E550800A4C6EDD50800A25
:100F30004C5C02E1DF50E75CD8B001D001D026D094
:100F400020EE66F02550D9262650DA22DECF4CF06E
:100F5000DDCF4DF04C5025244E6E4D5026204F6E67
:100F6000020E4E24D96E000E4F20DA6EDF50C96E8D
:100F700020EE66F02550D9262650DA22DE2A000E11
:100F8000DD22000E2C6E030E2B6E29D0C584000EC0
:100F90002C6E040E2B6E23D02B50040A2C10D8A4D8
:100FA00001D001D01CD020EE6AF02550D926265061
:100FB000DA22DECF48F0DDCF49F0000E4B6E000E96
:100FC0004A6E56EC08F025C0D9FF26C0DAFFFF0EA6
:100FD000DE6EFF0EDD6E256A266AA9EC0AF01200AD
:100FE00002500110D8B401D001D01BD00DC044F084
:100FF0000EC045F003C046F004C047F043EC09F0D2
:1010000045504410D8A401D001D00BD001D809D04C
:101010000500FA6E0150FD6E0250FE6EFF6AFA5036
:10102000120006500510D8B401D001D01BD00DC05D
:1010300044F00EC045F007C046F008C047F043EC4E
:1010400009F045504410D8A401D001D00BD001D8EC
:1010500009D00500FA6E0550FD6E0650FE6EFF6A5F
:10106000FA5012000A500910D8B401D001D01BD098
:101070000DC044F00EC045F00BC046F00CC047F068
:1010800043EC09F045504410D8A401D001D00BD056
:1010900001D809D00500FA6E0950FD6E0A50FE6EA7
:1010A000FF6AFA5012000D4A0E2A1200185017104B
:1010B000D8A401D001D010D00301030E456E000E5C
:1010C000446E4AC046F04BC047F0D4EC0AF048C02A
:1010D00017F049C018F042D01A501910D8A401D006
:1010E00001D010D00301030E456E640E446E4AC059
:1010F00046F04BC047F0D4EC0AF048C019F049C0A4
:101100001AF02CD01C501B10D8A401D001D010D044
:101110000401040E456E000E446E4AC046F04BC0FA
:1011200047F0D4EC0AF048C01BF049C01CF016D0C0
:101130001E501D10D8A401D001D010D00401040EFF
:10114000456E640E446E4AC046F04BC047F0D4EC86
:101150000AF048C01DF049C01EF000D01200000186
:101160006029D8B46129D8A401D001D01ED04EC0C6
:1011700060F04FC061F0000E456E620E446E50C0CC
:1011800046F051C047F052C048F053C049F0F9EC66
:101190000AF00001C66BC76B52C0C8F053C0C9F05B
:1011A00054C0CAF055C0CBF024D001010029D8B4F6
:1011B0000129D8A401D001D01CD04EC000F14FC0ED
:1011C00001F1666B676B010E456E020E446E50C0F6
:1011D00046F051C047F052C048F053C049F0F9EC16
:1011E0000AF052C068F153C069F154C06AF155C0A9
:1011F0006BF1A9EC0AF0120018501710D8B401D006
:1012000001D00BD001D809D00500FA6E1750FD6E41
:101210001850FE6EFF6AFA5012001A501910D8B416
:1012200001D001D00BD001D809D00500FA6E1950B9
:10123000FD6E1A50FE6EFF6AFA5012001C501B1011
:10124000D8B401D001D00BD001D809D00500FA6E76
:101250001B50FD6E1C50FE6EFF6AFA5012001E50AD
:101260001D10D8B401D001D00BD001D809D0050091
:10127000FA6E1D50FD6E1E50FE6EFF6AFA5012008F
:101280009EEC0BF01200496A45AE01D001D006D0A9
:10129000446C451ED8B0452A010E496E47AE01D0B8
:1012A00001D004D0466C471ED8B0472A475046109C
:1012B000D8B401D001D01CD0010E486E04D0D89013
:1012C00046364736482A47AE01D001D0F8D74650B7
:1012D000445C47504558D8A001D001D004D04650B6
:1012E000445E4750455AD89047324632482EEFD791
:1012F0004950D8B401D001D004D0446C451ED8B0B8
:10130000452A44C044F045C045F012002F6601D084
:1013100001D011D0D58ED58CD59AD596D550F80B55
:101320000209D56EF28A016A026A056A066A096ACA
:101330000A6A010E2F6E02500110D8A401D001D00C
:1013400009D0CEC001F0CFC002F0CCC003F0CDC0B8
:1013500004F01DD006500510D8A401D001D009D04A
:10136000CEC005F0CFC006F0CCC007F0CDC008F06D
:101370000ED00A500910D8A401D001D008D0CEC098
:1013800009F0CFC00AF0CCC00BF0CDC00CF01200B9
:1013900009EE00F0C80EEE6AE806FDE108EE00F086
:1013A000C80EEE6AE806FDE107EE00F0C80EEE6A30
:1013B000E806FDE106EE00F0C80EEE6AE806FDE183
:1013C00005EE00F0960EEE6AE806FDE104EE00F090
:1013D000C80EEE6AE806FDE103EE00F0C80EEE6A04
:1013E000E806FDE102EE00F0C80EEE6AE806FDE157
:1013F00001EE6CF0640EEE6AE806FDE100EE01F02D
:10140000430EEE6AE806FDE100014BEF0BF006002B
:10141000E2CF59F0D9CF5AF0DACF5BF09EA601D0D7
:1014200001D011D09E9622502110D8B401D001D005
:1014300002D0A6EC06F05D505C10D8B401D001D00B
:1014400002D063EC07F0F2A401D001D003D0F294F3
:101450008AEC0BF09EAA01D001D002D07AEC0AF0FF
:101460009EA801D001D002D045EC0AF0FCEC08F0B7
:101470005BC0DAFF5AC0D9FF59C0E2FF58C0E1FF94
:1014800057C0FBFF56C0FAFF110020501F10D8B400
:1014900001D001D002D09D982CD00201640E2D24E1
:1014A000D96E020E2E20DA6EDF50D8A401D001D002
:1014B00008D0AD6A2D6A2E6A000E206E010E1F6ED6
:1014C00018D0640E2D24D96E020E2E20DA6E010E75
:1014D000DF6201D001D004D0AD6A2D4A2E2A09D096
:1014E000640E2D24D96E020E2E20DA6EDF50AD6E02
:1014F000F4D71200AB50AECF4CF04C6601D001D007
:101500001CD00201000E0F24D96E020E1020DA6EDC
:10151000000EDF6E0F6A106A16501510D8B401D095
:1015200001D016D015C048F016C049F0020E4B6E1F
:10153000000E4A6E56EC08F00BD00201000E0F248C
:10154000D96E020E1020DA6E4CC0DFFF0F4A102A4F
:10155000120026502510D8A401D001D024D00001BB
:101560006029D8B46129D8B401D001D005D0000ECB
:10157000266E600E256E0CD001010029D8B4012919
:10158000D8B401D001D004D0010E266E000E256E15
:1015900026502510D8B401D001D005D0000E2C6EF5
:1015A000010E2B6EC580120047504610D8A401D002
:1015B00001D00FD01DD046C0D9FF47C0DAFF44C0CC
:1015C000E1FF45C0E2FFDFCFE7FF444A452A464A34
:1015D000472A46C0D9FF47C0DAFFDF50D8A401D060
:1015E00001D0E9D744C0D9FF45C0DAFF000EDF6E55
:1015F000120046C04CF047C04DF044C04AF045C010
:101600004BF00ED04CC0D9FF4DC0DAFF4AC0E1FF0D
:101610004BC0E2FFDFCFE7FF4C4A4D2A4A4A4B2A34
:101620004806D8A049064828D8B44928D8A401D0EB
:1016300001D0E8D71200680E0501006F650E016F3A
:101640006C0E026F036B000E4F6E4F0E4E6E050E4A
:10165000516E000E506E000E536E040E526E160E3A
:10166000556EBA0E546EAFEC08F01200000E5D6EAF
:10167000010E5C6E94869488C78E280EC66E0A0E84
:10168000C86E9D8600016069616901010069016998
:10169000256A266A1200700ED312926AA7EC0BF02C
:1016A0007CEC0BF095EC0BF06DEC0BF0F28EF28C09
:1016B000A9EC0BF0FDD70CEF00F0446A456A897283
:1016C000444A452A4550800A800F0A0ED8B4445C2B
:1016D000D8A001D001D0F3D71200926A36EC0BF0FB
:1016E000000E0001CD6F640ECC6F160ECF6F360E5C
:1016F000CE6F86EC09F01200AC9CAC8AAC98AC843E
:10170000B896190EAF6E948E948CAB9CAB8EAB9842
:10171000AB8812000F0E496EE00E486E000E4B6E45
:10172000000E4A6E56EC08F01200176A186A196A21
:101730001A6A1B6A1C6A1D6A1E6A1200176A186AF6
:10174000196A1A6A1B6A1C6A1D6A1E6A1200936A69
:041750001200120071
:020000040020DA
:08000000FFFFFFFFFFFFFFFF00
:020000040030CA
:0E000000FF09191EFF8080FF0FC00FE00F40A8
:00000001FF
