:040000000CEF00F011
:10000800FACF3EF0FBCF3FF0E1CF40F09BED0AF096
:04001800BCEF09F040
:100D0000493243206D657361676520776173207395
:100D1000656E74002573222573223A2022257322E2
:100D20002C0A7D002573222573223A2025642C0A83
:100D30007D00286E756C6C290025732025640A00DF
:100D40002225732225730066726F6D007B0A7D0079
:100D50006D7367006B6579002C0A003A2000746F90
:100D60000000C7A601D001D010D0C7B401D001D077
:100D70000CD0C7BA01D001D008D0C7A001D001D093
:100D800004D0C950C688136A146AC7B601D001D00E
:100D900004D0C7A801D001D033D0C7B401D001D04E
:100DA0002FD0C7AA01D001D02BD0C7A001D001D02D
:100DB00027D0C9CF3AF03B6A13500001600FD96EBB
:100DC000DA6A3AC0DFFF1350600FD96EDA6ADF507B
:100DD000D8A401D001D010D02A502910D8B401D005
:100DE00001D00AD029C036F02AC037F0000E396E83
:100DF000600E386E63EC09F0134A142AC68863D07B
:100E0000C7A601D001D02DD0C7A401D001D029D0D0
:100E1000C7BA01D001D025D026502510D8A401D0C2
:100E200001D017D02C502B10D8B401D001D00BD04A
:100E300001D809D00500FA6E2B50FD6E2C50FE6EC5
:100E4000FF6AFA501200000E266E010E256E156A1A
:100E5000166A15500001600FD96EDA6ADF50C96E4C
:100E6000CDD7C7A601D001D021D0C7A401D001D0D1
:100E70001DD0C7AA01D001D019D0C7B001D001D070
:100E800015D0154A162A15500001600FD96EDA6A7E
:100E9000DF50C96E1550600FD96EDA6ADF50D8A4E2
:100EA00001D001D0ABD7256A266AA8D7C7A601D042
:100EB00001D009D0C7AA01D001D005D0C7B001D058
:100EC00001D001D000D012002D042E10D8A401D0E2
:100ED00001D010D020EE02F02750D9262850DA2277
:100EE000DF503A6ED8803A34C96E000E2E6E060E70
:100EF0002D6E8BD02D50060A2E10D8A401D001D013
:100F000006D0C586000E2E6E050E2D6E7ED02D509D
:100F1000020A2E10D8B401D001D007D02D50050AF6
:100F20002E10D8A401D001D048D0C58820EE6AF098
:100F30002750D9262850DA22DECF3AF0DDCF3BF019
:100F40003A5027243C6E3B5028203D6E040E3C2432
:100F5000D96E000E3D20DA6EC9CFDFFF20EE6AF0B9
:100F60002750D9262850DA22DECF3AF0DDCF3BF0E9
:100F70003A5027243C6E3B5028203D6E040E3C2402
:100F8000D96E000E3D20DA6EDF50D8A401D001D01A
:100F900006D0C584000E2E6E040E2D6E04D0000EF9
:100FA0002E6E060E2D6E20EE6AF02750D9262850A0
:100FB000DA22DE2A000EDD2228D02D50040A2E105F
:100FC000D8A401D001D021D020EE6CF02750D92632
:100FD0002850DA22DECF36F0DDCF37F0040E27249A
:100FE000386E000E2820396E63EC09F020EE02F016
:100FF0002750D9262850DA22FF0EDE6EFF0EDD6E56
:10100000276A286A0DEC0CF000D012002D042E1077
:10101000D8A401D001D010D020EE02F02750D9265C
:101020002850DA22DF503A6ED8903A34C96E000E5A
:101030002E6E020E2D6E7AD02D50020A2E10D8B4CC
:1010400001D001D007D02D50030A2E10D8A401D012
:1010500001D047D020EE6AF02750D9262850DA2256
:1010600010EE68F02750E1262850E222E652DE52C8
:10107000E550800A3A6EDD50800A3A5C02E1DF50AA
:10108000E75CD8B001D001D026D020EE68F0275020
:10109000D9262850DA22DECF3AF0DDCF3BF03A50A5
:1010A00027243C6E3B5028203D6E040E3C24D96E14
:1010B000000E3D20DA6EDF50C96E20EE68F027503A
:1010C000D9262850DA22DE2A000EDD22000E2E6EEE
:1010D000030E2D6E2BD0C584000E2E6E040E2D6EC9
:1010E00025D02D50040A2E10D8A401D001D01ED036
:1010F00020EE6CF02750D9262850DA22DECF36F0C9
:10110000DDCF37F0000E396E000E386E63EC09F05B
:1011100020EE02F02750D9262850DA22FF0EDE6E8C
:10112000FF0EDD6E276A286A0DEC0CF012000250EB
:101130000110D8B401D001D01BD00FC044F010C0B2
:1011400045F003C046F004C047F0E1EC0AF045501A
:101150004410D8A401D001D00BD001D809D005008B
:10116000FA6E0150FD6E0250FE6EFF6AFA501200D8
:1011700006500510D8B401D001D01BD00FC044F0E8
:1011800010C045F007C046F008C047F0E1EC0AF097
:1011900045504410D8A401D001D00BD001D809D0BB
:1011A0000500FA6E0550FD6E0650FE6EFF6AFA509D
:1011B00012000A500910D8B401D001D01BD00FC0C2
:1011C00044F010C045F00BC046F00CC047F0E1EC15
:1011D0000AF045504410D8A401D001D00BD001D85A
:1011E00009D00500FA6E0950FD6E0A50FE6EFF6AC6
:1011F000FA5012000F4A102A120002500110D8B4FF
:1012000001D001D01BD00FC032F010C033F003C0AA
:1012100034F004C035F024EC0BF033503210D8A475
:1012200001D001D00BD001D809D00500FA6E0150D1
:10123000FD6E0250FE6EFF6AFA5012000650051055
:10124000D8B401D001D01BD00FC032F010C033F0A1
:1012500007C034F008C035F024EC0BF033503210E6
:10126000D8A401D001D00BD001D809D00500FA6E66
:101270000550FD6E0650FE6EFF6AFA5012000A50CD
:101280000910D8B401D001D01BD00FC032F010C06B
:1012900033F00BC034F00CC035F024EC0BF03350BD
:1012A0003210D8A401D001D00BD001D809D005004C
:1012B000FA6E0950FD6E0A50FE6EFF6AFA50120077
:1012C0000F4A102A12001A501910D8A401D001D0C8
:1012D00010D00301030E336E000E326E38C034F0AE
:1012E00039C035F037EC0CF036C019F037C01AF0C1
:1012F00042D01C501B10D8A401D001D010D0040142
:10130000040E336E000E326E38C034F039C035F042
:1013100037EC0CF036C01BF037C01CF02CD01E5040
:101320001D10D8A401D001D010D00501050E336ED8
:10133000000E326E38C034F039C035F037EC0CF0A6
:1013400036C01DF037C01EF016D020501F10D8A494
:1013500001D001D010D00601060E336E000E326EA1
:1013600038C034F039C035F037EC0CF036C01FF01F
:1013700037C020F000D012000BEE00F0C80EEE6A6D
:10138000E806FDE10AEE00F0C80EEE6AE806FDE1AF
:1013900009EE00F0C80EEE6AE806FDE108EE00F086
:1013A000C80EEE6AE806FDE107EE00F0C80EEE6A30
:1013B000E806FDE106EE00F0C80EEE6AE806FDE183
:1013C00005EE00F0C80EEE6AE806FDE104EE00F05E
:1013D000C80EEE6AE806FDE103EE00F0C80EEE6A04
:1013E000E806FDE102EE00F0C80EEE6AE806FDE157
:1013F00001EE00F0DC0EEE6AE806FDE100EE60F0C2
:10140000780EEE6AE806FDE100EE01F0310EEE6ABC
:10141000E806FDE100015CEF0CF01A501910D8B499
:1014200001D001D00BD001D809D00500FA6E1950B7
:10143000FD6E1A50FE6EFF6AFA5012001C501B100F
:10144000D8B401D001D00BD001D809D00500FA6E74
:101450001B50FD6E1C50FE6EFF6AFA5012001E50AB
:101460001D10D8B401D001D00BD001D809D005008F
:10147000FA6E1D50FD6E1E50FE6EFF6AFA5012008D
:1014800020501F10D8B401D001D00BD001D809D002
:101490000500FA6E1F50FD6E2050FE6EFF6AFA5076
:1014A0001200CAEC0CF012001A501910D8B401D076
:1014B00001D00BD001D809D00500FA6E1950FD6E8D
:1014C0001A50FE6EFF6AFA5012001C501B10D8B45E
:1014D00001D001D00BD001D809D00500FA6E1B5005
:1014E000FD6E1C50FE6EFF6AFA5012001E501D1059
:1014F000D8B401D001D00BD001D809D00500FA6EC4
:101500001D50FD6E1E50FE6EFF6AFA5012002050F4
:101510001F10D8B401D001D00BD001D809D00500DC
:10152000FA6E1F50FD6E2050FE6EFF6AFA501200D8
:10153000D3EC0CF012000600E2CF41F0D9CF42F01C
:10154000DACF43F09EA601D001D011D09E96245050
:101550002310D8B401D001D002D0B1EC06F04D5028
:101560004C10D8B401D001D002D086EC0CF0F2A41B
:1015700001D001D003D0F294BFEC0CF09EAA01D0B0
:1015800001D002D0DEEC0BF09EA801D001D002D039
:10159000A9EC0BF054EC0AF04B504A10D8B401D02F
:1015A00001D002D0ECEC0CF043C0DAFF42C0D9FF0E
:1015B00041C0E2FF40C0E1FF3FC0FBFF3EC0FAFF79
:1015C0001100496A45AE01D001D006D0446C451ED9
:1015D000D8B0452A010E496E47AE01D001D004D0E3
:1015E000466C471ED8B0472A47504610D8B401D0A1
:1015F00001D01CD0010E486E04D0D8904636473634
:10160000482A47AE01D001D0F8D74650445C475035
:101610004558D8A001D001D004D04650445E475070
:10162000455AD89047324632482EEFD74950D8B461
:1016300001D001D004D0446C451ED8B0452A44C026
:1016400044F045C045F01200376A33AE01D001D0F6
:1016500006D0326C331ED8B0332A010E376E35AE49
:1016600001D001D004D0346C351ED8B0352A3550A5
:101670003410D8B401D001D01CD0010E366E04D085
:10168000D89034363536362A35AE01D001D0F8D769
:101690003450325C35503358D8A001D001D004D03A
:1016A0003450325E3550335AD89035323432362E7B
:1016B000EFD73750D8B401D001D004D0326C331EEC
:1016C000D8B0332A32C032F033C033F01200316662
:1016D00001D001D011D0D58ED58CD59AD596D550C4
:1016E000F80B0209D56EF28A016A026A056A066A77
:1016F000096A0A6A010E316E02500110D8A401D0A5
:1017000001D009D046C001F047C002F044C003F048
:1017100045C004F01DD006500510D8A401D001D05A
:1017200009D046C005F047C006F044C007F045C0E8
:1017300008F00ED00A500910D8A401D001D008D06A
:1017400046C009F047C00AF044C00BF045C00CF099
:10175000120022502110D8B401D001D002D09D989F
:101760002CD00201640E2F24D96E020E3020DA6EC6
:10177000DF50D8A401D001D008D0AD6A2F6A306AFA
:10178000000E226E010E216E18D0640E2F24D96E29
:10179000020E3020DA6E010EDF6201D001D004D0DB
:1017A000AD6A2F4A302A09D0640E2F24D96E020E5A
:1017B0003020DA6EDF50AD6EF4D71200AB50AECFF2
:1017C0003AF03A6601D001D01CD00201000E11247B
:1017D000D96E020E1220DA6E000EDF6E116A126AE6
:1017E00018501710D8B401D001D016D017C036F059
:1017F00018C037F0020E396E000E386E63EC09F037
:101800000BD00201000E1124D96E020E1220DA6EE6
:101810003AC0DFFF114A122A120028502710D8A41C
:1018200001D001D023D001010229D8B40329D8B4B2
:1018300001D001D005D0010E286E000E276E0BD00E
:101840007029D8B47129D8B401D001D004D0010EC8
:10185000286E6E0E276E28502710D8B401D001D004
:1018600005D0000E2E6E010E2D6EC5801200355073
:101870003410D8A401D001D00FD01DD034C0D9FF6E
:1018800035C0DAFF32C0E1FF33C0E2FFDFCFE7FF50
:10189000324A332A344A352A34C0D9FF35C0DAFFF8
:1018A000DF50D8A401D001D0E9D732C0D9FF33C06E
:1018B000DAFF000EDF6E1200700ED31202EC0DF094
:1018C000A5EC0CF0CAEC0CF0DCEC0CF0F28EF28C17
:1018D000B3EC0CF004EC0DF00DEC0AF0FBD70CEFC0
:1018E00000F0000E4D6E010E4C6EC58694869488F5
:1018F000C78E280EC66E280EC86E9D86010102692D
:10190000036970697169276A286A120027C0D9FFC4
:1019100028C0DAFFDE50DD10D8B401D001D003D0EA
:1019200006EC08F002D064EC07F01200AB8E948E47
:10193000948CAC9CAC8AAC98AC86AB88AC84B886F2
:10194000220EAF6E9D989D8A1200AC9CAC8AAC981A
:10195000AC84B886220EAF6E948E948CAB9CAB8E0A
:10196000AB98AB881200926A000E456EFA0E446E78
:10197000190E476EE80E466E67EC0BF01200110E62
:10198000376EFA0E366E000E396E000E386E63EC4E
:1019900009F01200196A1A6A1B6A1C6A1D6A1E6A1B
:1019A0001F6A206A1200196A1A6A1B6A1C6A1D6A79
:1019B0001E6A1F6A206A1200E4EC0CF096EC0CF030
:1019C000926A71EC0CF01200000E4B6E010E4A6E22
:1019D000926A8986FFD71200000E4B6E010E4A6E86
:1019E000926A8986FFD712008050F80B0D10896E1D
:1019F0000D4A0E2A12008050F80B0D10896E0D4A08
:0A1A00000E2A1200936A1200120071
:020000040020DA
:08000000FFFFFFFFFFFFFFFF00
:020000040030CA
:0E000000FF09191EFF8080FF0FC00FE00F40A8
:00000001FF
