:040000000CEF00F011
:10000800FACF38F0FBCF39F0E1CF3AF0DAED08F06B
:0400180016EF09F0E6
:100D00002573222573223A20222573222C0A7D0086
:100D10002573222573223A2025642C0A7D00286E33
:100D2000756C6C2900222573222573007B0A7D00D7
:100D30002C0A003A20000000C7A601D001D010D034
:100D4000C7B401D001D00CD0C7BA01D001D008D0AF
:100D5000C7A001D001D004D0C950C688116A126A58
:100D6000C7B601D001D004D0C7A801D001D033D07C
:100D7000C7B401D001D02FD0C7AA01D001D02BD049
:100D8000C7A001D001D027D0C9CF36F0376A1150A3
:100D90000001600FD96EDA6A36C0DFFF1150600FB4
:100DA000D96EDA6ADF50D8A401D001D010D0265015
:100DB0002510D8B401D001D00AD025C032F026C009
:100DC00033F0000E356E600E346EB5EC07F0114A4C
:100DD000122AC68863D0C7A601D001D02DD0C7A4DF
:100DE00001D001D029D0C7BA01D001D025D02450DC
:100DF0002310D8A401D001D017D028502710D8B480
:100E000001D001D00BD001D809D00500FA6E2750CF
:100E1000FD6E2850FE6EFF6AFA501200000E246E1E
:100E2000010E236E136A146A13500001600FD96E0D
:100E3000DA6ADF50C96ECDD7C7A601D001D021D064
:100E4000C7A401D001D01DD0C7AA01D001D019D0AC
:100E5000C7B001D001D015D0134A142A1350000195
:100E6000600FD96EDA6ADF50C96E1350600FD96E09
:100E7000DA6ADF50D8A401D001D0ABD7236A246A44
:100E8000A8D7C7A601D001D009D0C7AA01D001D0E8
:100E900005D0C7B001D001D001D000D0120002505F
:100EA0000110D8B401D001D01BD00DC03EF00EC04F
:100EB0003FF003C040F004C041F055EC08F03F5053
:100EC0003E10D8A401D001D00BD001D809D0050024
:100ED000FA6E0150FD6E0250FE6EFF6AFA5012006B
:100EE00006500510D8B401D001D01BD00DC03EF083
:100EF0000EC03FF007C040F008C041F055EC08F0CC
:100F00003F503E10D8A401D001D00BD001D809D059
:100F10000500FA6E0550FD6E0650FE6EFF6AFA502F
:100F200012000A500910D8B401D001D01BD00DC056
:100F30003EF00EC03FF00BC040F00CC041F055EC4D
:100F400008F03F503E10D8A401D001D00BD001D8FA
:100F500009D00500FA6E0950FD6E0A50FE6EFF6A58
:100F6000FA5012000D4A0E2A120018501710D8A479
:100F700001D001D010D00201020E2F6E000E2E6E95
:100F800034C030F035C031F0B3EC09F032C017F0A6
:100F900033C018F042D01A501910D8A401D001D093
:100FA00010D00201020E2F6E640E2E6E34C030F08F
:100FB00035C031F0B3EC09F032C019F033C01AF08B
:100FC0002CD01C501B10D8A401D001D010D003018C
:100FD000030E2F6E000E2E6E34C030F035C031F08F
:100FE000B3EC09F032C01BF033C01CF016D01E5019
:100FF0001D10D8A401D001D010D00301030E2F6E14
:10100000640E2E6E34C030F035C031F0B3EC09F010
:1010100032C01DF033C01EF000D01200185017105F
:10102000D8B401D001D00BD001D809D00500FA6E98
:101030001750FD6E1850FE6EFF6AFA5012001A50DB
:101040001910D8B401D001D00BD001D809D00500B7
:10105000FA6E1950FD6E1A50FE6EFF6AFA501200B9
:101060001C501B10D8B401D001D00BD001D809D02E
:101070000500FA6E1B50FD6E1C50FE6EFF6AFA50A2
:1010800012001E501D10D8B401D001D00BD001D8D1
:1010900009D00500FA6E1D50FD6E1E50FE6EFF6AEF
:1010A000FA50120010EC0AF01200436A3FAE01D071
:1010B00001D006D03E6C3F1ED8B03F2A010E436ED1
:1010C00041AE01D001D004D0406C411ED8B0412ABD
:1010D00041504010D8B401D001D01CD0010E426E56
:1010E00004D0D89040364136422A41AE01D001D0DA
:1010F000F8D740503E5C41503F58D8A001D001D0B5
:1011000004D040503E5E41503F5AD8904132403268
:10111000422EEFD74350D8B401D001D004D03E6C5A
:101120003F1ED8B03F2A3EC03EF03FC03FF0120005
:101130002D6601D001D011D0D58ED58CD59AD596FB
:10114000D550F80B0209D56EF28A016A026A056A67
:10115000066A096A0A6A010E2D6E02500110D8A4AF
:1011600001D001D009D040C001F041C002F03EC022
:1011700003F03FC004F01DD006500510D8A401D0E4
:1011800001D009D040C005F041C006F03EC007F0D4
:101190003FC008F00ED00A500910D8A401D001D0E9
:1011A00008D040C009F041C00AF03EC00BF03FC07B
:1011B0000CF012000600E2CF3BF0D9CF3CF0DACFC2
:1011C0003DF09EA601D001D011D09E962250211054
:1011D000D8B401D001D002D09CEC06F02A502910DE
:1011E000D8B401D001D002D028EC0AF0F2A401D08A
:1011F00001D003D0F29405EC0AF09EAA01D001D0F0
:1012000002D084EC09F09EA801D001D002D04FECAE
:1012100009F03DC0DAFF3CC0D9FF3BC0E2FF3AC055
:10122000E1FF39C0FBFF38C0FAFF110007EE00F004
:10123000C80EEE6AE806FDE106EE00F0C80EEE6AA2
:10124000E806FDE105EE00F0C80EEE6AE806FDE1F5
:1012500004EE00F0D40EEE6AE806FDE103EE00F0C5
:10126000C80EEE6AE806FDE102EE00F0C80EEE6A76
:10127000E806FDE101EE00F0C80EEE6AE806FDE1C9
:1012800000EE60F0640EEE6AE806FDE100EE01F0AB
:101290002D0EEE6AE806FDE10001D8EF09F02050BE
:1012A0001F10D8B401D001D002D09D982CD00101DC
:1012B000640E2B24D96E010E2C20DA6EDF50D8A4D8
:1012C00001D001D008D0AD6A2B6A2C6A000E206EC6
:1012D000010E1F6E18D0640E2B24D96E010E2C2027
:1012E000DA6E010EDF6201D001D004D0AD6A2B4A64
:1012F0002C2A09D0640E2B24D96E010E2C20DA6E14
:10130000DF50AD6EF4D71200AB50AECF36F036667C
:1013100001D001D01CD00101000E0F24D96E010EA6
:101320001020DA6E000EDF6E0F6A106A165015106C
:10133000D8B401D001D016D015C032F016C033F0A9
:10134000010E356E000E346EB5EC07F00BD00101C6
:10135000000E0F24D96E010E1020DA6E36C0DFFFAA
:101360000F4A102A120031503010D8A401D001D0F9
:101370000FD01DD030C0D9FF31C0DAFF2EC0E1FF41
:101380002FC0E2FFDFCFE7FF2E4A2F2A304A312A53
:1013900030C0D9FF31C0DAFFDF50D8A401D001D06E
:1013A000E9D72EC0D9FF2FC0DAFF000EDF6E120082
:1013B000700ED312926A26EC0AF0ECEC09F010ECF5
:1013C0000AF0FAEC09F0F28EF28C2AEC0AF00EEC3C
:1013D00008F0FBD70CEF00F0AC9CAC8AAC98AC8466
:1013E000B896190EAF6E948E948CAB9CAB8EAB9866
:1013F000AB881200000E3F6E640E3E6E140E416EFE
:10140000440E406E98EC08F012000E0E336E9E0EE5
:10141000326E000E356E000E346EB5EC07F0120021
:10142000176A186A196A1A6A1B6A1C6A1D6A1E6A98
:101430001200E8CF3EF09EA801D001D0FCD73EC0FC
:10144000ADFF1200480E19EC0AF01200936A120068
:0614500089741200120075
:020000040020DA
:08000000FFFFFFFFFFFFFFFF00
:020000040030CA
:0E000000FF09191EFF8080FF0FC00FE00F40A8
:00000001FF
