:040000000CEF00F011
:10000800FACFA0F2FBCFA1F2E9CFA2F2D0ED0DF02A
:04001800EEEF0FF008
:100D000001000A006400E8031027257322257322DE
:100D10003A20222573222C0A7D0025732225732276
:100D20003A2025642C0A7D00406D61737465720061
:100D3000286E756C6C2900222573223A200022252A
:100D4000732225730066726F6D00406972007B0A22
:100D50007D00737562006D7367006B6579002C0A06
:100D600000636300256400746F00000046C040F01B
:100D700047C041F040C021F041C022F0670E236E11
:100D80000501050E256E000E246E9CEC0AF005018F
:100D90000051230AD8A401D001D07BD00001AC516E
:100DA000AB11D8B401D001D01ED0000E026E970E48
:100DB000016E0501050E046E000E036E53EC12F079
:100DC00002500110D8A401D001D00DD001D80AD012
:100DD0000500FA6E0001AB51FD6EAC51FE6EFF6A6C
:100DE000FA50120049D0010179517811D8B401D0DC
:100DF00001D01ED0010E026E640E016E0501050EBB
:100E0000046E000E036E53EC12F002500110D8A4D1
:100E100001D001D00DD001D80AD00500FA6E010131
:100E20007851FD6E7951FE6EFF6AFA50120024D09F
:100E300001018F518E11D8B401D001D01DD0010E07
:100E4000026E7A0E016E0501050E046E000E036E31
:100E500053EC12F002500110D8A401D001D00CD0F4
:100E600001D80AD00500FA6E01018E51FD6E8F5136
:100E7000FE6EFF6AFA501200000E516E010E506EA7
:100E800040C013F041C014F05BEC0BF0506A516AA3
:100E9000BED0050E026E000E016E0101010E046E41
:100EA000E40E036E53EC12F002500110D8A401D0EE
:100EB00001D0ADD040C021F041C022F0520E236ECF
:100EC0000501050E256E000E246E9CEC0AF005014E
:100ED0000051630AD8A401D001D04FD00151630A58
:100EE000D8A401D001D049D040C021F041C022F0A7
:100EF0005A0E236EDAEC09F021C03EF022C03FF01A
:100F00003F500001611902E13E506019D8A401D0A0
:100F100001D015D06029D8B46129D8B401D001D04E
:100F20000ED062C005F063C006F040C007F041C0BB
:100F300008F039EC10F000016069616968D03F5039
:100F4000651902E13E506419D8A401D001D05FD0E8
:100F50006429D8B46529D8B401D001D058D066C06E
:100F600005F067C006F040C007F041C008F039EC5A
:100F700010F00001646965694AD00101A551A4110E
:100F8000D8B401D001D01ED0010E026E900E016EB9
:100F90000501050E046E000E036E53EC12F00250B4
:100FA0000110D8A401D001D00DD001D80AD005007D
:100FB000FA6E0101A451FD6EA551FE6EFF6AFA5052
:100FC000120025D00101BB51BA11D8B401D001D013
:100FD0001ED0010E026EA60E016E0501050E046EF6
:100FE000000E036E53EC12F002500110D8A401D091
:100FF00001D00DD001D80AD00500FA6E0101BA5116
:10100000FD6EBB51FE6EFF6AFA50120000D0120056
:10101000100E1B6EE9D02050250AD8B401D001D0A3
:1010200009D00DC0D9FF0EC0DAFF20C0DFFF0D4A86
:101030000E2ADAD0196A45D01B50D96EDA6ADECF93
:101040001CF0DDCF1DF0020E1B261D501C10D8A475
:1010500001D001D01FD0300E1C6E0D0E1D6E1AD0A7
:101060001CC0F6FF1DC0F7FF000EF86E0DC0D9FFC3
:101070000EC0DAFF0C0EF76403D00800F55005D05F
:10108000F6CFE9FFF7CFEAFFEF50DF6E1C4A1D2ACB
:101090000D4A0E2A1CC0F6FF1DC0F7FF000EF86EA9
:1010A0000C0EF76403D00800F55005D0F6CFE9FF29
:1010B000F7CFEAFFEF500009D8A401D001D0D0D774
:1010C00093D00F2A0F04166E16C0F6FF0D0EF76EA2
:1010D000000EF86E0800F5CF20F02050000AD8B4BA
:1010E00093D0640AD8B407D00D0AD8B404D01A0A31
:1010F000D8B4A2D779D01B50D96EDA6ADECF1CF0F3
:10110000DDCF1DF0020E1B261DAE01D001D006D092
:10111000030E19121C6C1D1ED8B01D2A010E206E64
:101120002050020DF350000F166E16C0F6FF0D0E84
:10113000F76E000EF86E0900F5CF17F00900F5CF35
:1011400018F017501C5C18501D58D8B001D001D0B1
:1011500001D007D0202A2050050AD8A401D001D000
:10116000DFD71950030BD8B401D001D008D00DC07F
:10117000D9FF0EC0DAFF2D0EDF6E0D4A0E2A20C0F9
:101180001AF02CD01A50020DF350000F166E16C034
:10119000F6FF0D0EF76E000EF86E0900F5CF03F0A6
:1011A0000A00F5CF04F01CC001F01DC002F038ECBD
:1011B00013F001C008F002C009F0000E0B6E0A0E19
:1011C0000A6EB9EC13F00850300F206E0DC0D9FF35
:1011D0000EC0DAFF20C0DFFF0D4A0E2A1A061A28B9
:1011E000D8A401D001D0CED70F2A0F04166E16C096
:1011F000F6FF0D0EF76E000EF86E0800F5CF20F02A
:10120000206601D001D007D70DC0D9FF0EC0DAFF8C
:10121000000EDF6E1200C7A601D001D010D0C7B4F7
:1012200001D001D00CD0C7BA01D001D008D0C7A0DE
:1012300001D001D004D0C950C688806B816BC7B67D
:1012400001D001D004D0C7A801D001D040D0C7B48C
:1012500001D001D03CD0C7AA01D001D038D0C7A05E
:1012600001D001D034D0C9CF09F00A6A0101000EC3
:1012700000018025D96E0101010E00018121DA6E85
:1012800009C0DFFF0101000E00018025D96E0101B8
:10129000010E00018121DA6EDF50D8A401D001D007
:1012A00011D08D518C11D8B401D001D00BD08CC08D
:1012B00005F08DC006F00101010E086E000E076EEC
:1012C00039EC10F00001804B812BC68872D0C7A684
:1012D00001D001D031D0C7A401D001D02DD0C7BAE0
:1012E00001D001D029D089518811D8A401D001D0D2
:1012F00018D08F518E11D8B401D001D00BD001D8A5
:1013000009D00500FA6E8E51FD6E8F51FE6EFF6A98
:10131000FA501200000E0001896F010E886F486AB2
:10132000496AC9500101000E4824D96E010E4920B6
:10133000DA6EDF50C96EC9D7C7A601D001D02CD054
:10134000C7A401D001D028D0C7AA01D001D024D091
:10135000C7B001D001D020D089518811D8B401D0B4
:1013600001D027D0484A492A0101000E4824D96EED
:10137000010E4920DA6EDF50C96E000E4824D96E86
:10138000010E4920DA6EDF50D8A401D001D09DD7DC
:101390000001886B896B99D7C7A601D001D009D00D
:1013A000C7AA01D001D005D0C7B001D001D001D06B
:1013B00000D012000401040E0E6E000E0D6E370EEA
:1013C0000F6E23C010F00D0E116E08EC08F021C056
:1013D0000CF022C00DF00401040E0F6E000E0E6E14
:1013E00050EC0FF00CC034F00DC035F034C00CF0F0
:1013F00035C00DF03C0E0E6E0D0E0F6E50EC0FF062
:101400000CC034F00DC035F0344A352A3550341054
:10141000D8B401D001D08BD034C00CF035C00DF061
:101420005E0E0E6E0D0E0F6E50EC0FF00CC026F01F
:101430000DC027F034C001F035C002F02BEC14F0E1
:1014400001C028F002C029F026C001F027C002F038
:101450002BEC14F001C02AF002C02BF02A50285CBB
:101460002E6E2B5029582F6E306A316A11D03050B1
:101470003424D96E31503520DA6E0401000E302448
:10148000E16E040E3120E26EDFCFE7FF304A312AF1
:101490003150800A246E2E50305C2F50800A245820
:1014A000D8A001D001D0E3D70401000E2E24D96EBC
:1014B000040E2F20DA6E000EDF6E0051220AD8A42F
:1014C00001D001D025D0040E336E000E326E324AA8
:1014D000332A32C001F033C002F02BEC14F001507B
:1014E0003224246E02503320256EFF0E2424D96E40
:1014F000FF0E2520DA6E000EDF6E32C007F033C01B
:1015000008F062EC0DF007C02CF008C02DF00AD0F6
:10151000040E086E000E076E62EC0DF007C02CF092
:1015200008C02DF02CC021F02DC022F004D0020EF6
:10153000226E9A0E216E12000401040E0E6E000E31
:101540000D6E3E0E0F6E23C010F00D0E116E3B0E91
:10155000126E0D0E136E08EC08F021C00CF022C0C4
:101560000DF00401040E0F6E000E0E6E50EC0FF025
:101570000CC03CF00DC03DF03CC00CF03DC00DF087
:101580003C0E0E6E0D0E0F6E50EC0FF00CC03CF0CA
:101590000DC03DF03C4A3D2A3D503C10D8B401D02E
:1015A00001D088D03CC00CF03DC00DF05E0E0E6E38
:1015B0000D0E0F6E50EC0FF00CC032F00DC033F07A
:1015C0003CC001F03DC002F02BEC14F001C02AF049
:1015D00002C02BF02C6A2D6A32C001F033C002F039
:1015E0002BEC14F001C02EF002C02FF0306A316AEB
:1015F0002E502A5C346E2F502B58356E30502C589C
:10160000366E31502D58376E386A396A11D03850DD
:101610003C24D96E39503D20DA6E0401000E382486
:10162000E16E040E3920E26EDFCFE7FF384A392A37
:1016300038C026F039C027F0000E27BEFF0E286EF6
:10164000296E3450265C355027583650285837506C
:101650002958D8A001D001D0DAD70401000E3424D3
:10166000D96E040E3520DA6E000EDF6E040E3B6E6E
:10167000000E3A6E3A4A3B2A3AC001F03BC002F0F3
:101680002BEC14F001503A24266E02503B20276EBA
:10169000FF0E2624D96EFF0E2720DA6E000EDF6EB5
:1016A00024C001F025C002F03AC003F03BC004F0B2
:1016B00093EC12F0120000017D517C11D8B401D0DE
:1016C00001D01BD051505010D8B401D001D004D05B
:1016D000596601D001D006D051505010D8A401D085
:1016E00001D00BD00A010A0E026E000E016E13C06B
:1016F00003F014C004F006EC14F000017B517A11E1
:10170000D8B401D001D073D051505010D8B401D00A
:1017100001D005D05904D8A401D001D006D0515031
:101720005010D8A401D001D062D0AE51AD11D8B4C0
:1017300001D001D01AD0ADC00BF0AEC00CF013C078
:101740000DF014C00EF013C001F014C002F02BEC29
:1017500014F0010E01240F6E000E0220106E000E18
:10176000126E000E116EA6EC0EF00001C451C311F2
:10177000D8B401D001D01AD0C3C00BF0C4C00CF053
:1017800013C00DF014C00EF013C001F014C002F02D
:101790002BEC14F0010E01240F6E000E0220106ECF
:1017A000000E126E000E116EA6EC0EF00001DA5162
:1017B000D911D8B401D001D01AD0D9C00BF0DAC0F9
:1017C0000CF013C00DF014C00EF013C001F014C0E3
:1017D00002F02BEC14F0010E01240F6E000E02201B
:1017E000106E000E126E000E116EA6EC0EF00001CF
:1017F00079517811D8B401D001D018D0515050107F
:10180000D8B401D001D006D05950020AD8A401D0D2
:1018100001D006D051505010D8A401D001D006D02C
:1018200013C007F014C008F013EC12F012005404B7
:101830005510D8A401D001D010D020EE02F05250A3
:10184000D9265350DA22DF50096ED8800934C96E88
:10185000000E556E060E546E97D05450060A551061
:10186000D8A401D001D006D0C586000E556E050E55
:10187000546E8AD05450020A5510D8B401D001D009
:1018800007D05450050A5510D8A401D001D048D033
:1018900020EE9CF05250D9265350DA22DECF09F0C8
:1018A000DDCF0AF0095052240B6E0A5053200C6E03
:1018B000040E0B24D96E000E0C20DA6EC9CFDFFFA8
:1018C00020EE9CF05250D9265350DA22DECF09F098
:1018D000DDCF0AF0095052240B6E0A5053200C6ED3
:1018E000040E0B24D96E000E0C20DA6EDF50D8A443
:1018F00001D001D006D0C584000E556E040E546E82
:1019000005D0000E556E060E546EC58820EE9CF074
:101910005250D9265350DA22DE2A000EDD2234D06E
:101920005450040A5510D8A401D001D02DD020EE77
:101930009EF05250D9265350DA22DE50DD10D8B432
:1019400001D001D012D020EE9EF05250D926535033
:10195000DA22DECF05F0DDCF06F0040E5224076E4A
:10196000000E5320086E39EC10F020EE02F05250B9
:10197000D9265350DA22FF0EDE6EFF0EDD6E526A5C
:10198000536A65EC13F000D0120054045510D8A42B
:1019900001D001D010D020EE02F05250D926535081
:1019A000DA22DF50096ED8900934C96E000E556EE8
:1019B000020E546E86D05450020A5510D8B401D08D
:1019C00001D007D05450030A5510D8A401D001D03B
:1019D00047D020EE9CF05250D9265350DA2210EE18
:1019E0009AF05250E1265350E222E652DE52E55080
:1019F000800A096EDD50800A095C02E1DF50E75C75
:101A0000D8B001D001D026D020EE9AF05250D9267D
:101A10005350DA22DECF09F0DDCF0AF0095052240C
:101A20000B6E0A5053200C6E040E0B24D96E000E60
:101A30000C20DA6EDF50C96E20EE9AF05250D92693
:101A40005350DA22DE2A000EDD22000E556E030E00
:101A5000546E37D0C584000E556E040E546E31D0CE
:101A60005450040A5510D8A401D001D02AD020EE39
:101A70009EF05250D9265350DA22DE50DD10D8B4F1
:101A800001D001D010D020EE9EF05250D9265350F4
:101A9000DA22DECF05F0DDCF06F0000E086E000E74
:101AA000076E39EC10F020EE02F05250D926535058
:101AB000DA22FF0EDE6EFF0EDD6E526A536A65ECAF
:101AC00013F0120002D0074A082A07C0D9FF08C045
:101AD000DAFFDF50200AD8B401D001D0F4D707C014
:101AE000D9FF08C0DAFFDF50090AD8B401D001D00D
:101AF000EAD70C6A0D6A0B6A2D0E07C0D9FF08C021
:101B0000DAFFDF6201D001D004D00B2A074A082A8D
:101B100025D02B0E07C0D9FF08C0DAFFDF6201D045
:101B200001D01CD0074A082A19D00CC001F00DC002
:101B300002F0000E046E0A0E036E8DEC14F007C066
:101B4000D9FF08C0DAFFDF500126000E0222D00EB6
:101B500001240C6EFF0E02200D6EE4D707C0D9FFE2
:101B600008C0DAFFDF50D1EC14F0D8B001D001D0BA
:101B7000DCD70B50D8B401D001D00DD00CC009F087
:101B80000DC00AF0091E0A1E094A0A2A09C007F0F8
:101B90000AC008F004D00CC007F00DC008F0120015
:101BA0000600EACFA3F2E1CFA4F2E2CFA5F2D9CFAB
:101BB000A6F2DACFA7F2F3CFA8F2F4CFA9F2F6CFCC
:101BC000AAF2F7CFABF2F8CFACF2F5CFADF29EA60A
:101BD00001D001D013D09E96000187518611D8B450
:101BE00001D001D002D00BEC09F00001915190110D
:101BF000D8B401D001D002D017EC15F0F2A401D076
:101C000001D003D0F29482EC15F09EAA01D001D04D
:101C100002D092EC11F09EA801D001D002D0D1ECFC
:101C200012F0C8EC10F0000177517611D8B401D051
:101C300001D006D0000E026E070E016E6BEC15F09F
:101C4000ADC2F5FFACC2F8FFABC2F7FFAAC2F6FF08
:101C5000A9C2F4FFA8C2F3FFA7C2DAFFA6C2D9FF48
:101C6000A5C2E2FFA4C2E1FFA3C2EAFFA2C2E9FF4C
:101C7000A1C2FBFFA0C2FAFF110000016951681167
:101C8000D8B401D001D01BD042C001F043C002F053
:101C90006AC003F06BC004F00DEC11F002500110AB
:101CA000D8A401D001D00BD001D809D00500FA6E1C
:101CB0006851FD6E6951FE6EFF6AFA501200000114
:101CC0006D516C11D8B401D001D01BD042C001F0CD
:101CD00043C002F06EC003F06FC004F00DEC11F0D1
:101CE00002500110D8A401D001D00BD001D809D0E6
:101CF0000500FA6E6C51FD6E6D51FE6EFF6AFA5072
:101D00001200000171517011D8B401D001D01BD064
:101D100042C001F043C002F072C003F073C004F08F
:101D20000DEC11F002500110D8A401D001D00BD05D
:101D300001D809D00500FA6E7051FD6E7151FE6E2A
:101D4000FF6AFA501200424A432A12000201022995
:101D5000D8B40329D8A401D001D022D00BC002F2FC
:101D60000CC003F2020E026E040E016E0DC003F0F1
:101D70000EC004F00FC005F010C006F04FEC14F0D8
:101D800002019A6B9B6B0FC09CF210C09DF211C0B8
:101D90009EF212C09FF2000E016F010E006F29D05B
:101DA00003010229D8B40329D8A401D001D021D03D
:101DB0000BC002F30CC003F39A6B9B6B030E026E15
:101DC000040E016E0DC003F00EC004F00FC005F04C
:101DD00010C006F04FEC14F00FC09CF310C09DF340
:101DE00011C09EF312C09FF3000E0301016F010E9C
:101DF000006F65EC13F0120046D005C0D9FF06C095
:101E0000DAFFDF50D8B401D001D01CD007C0F6FFF4
:101E100008C0F7FF000EF86E0C0EF76403D0080040
:101E2000F55005D0F6CFE9FFF7CFEAFFEF500B6E84
:101E300005C0D9FF06C0DAFFDF500B18D8B401D0B7
:101E400001D01DD005C0D9FF06C0DAFFDF500B6EF0
:101E500007C0F6FF08C0F7FF000EF86E0C0EF7641F
:101E600003D00800F55005D0F6CFE9FFF7CFEAFF21
:101E7000EF500B5C056E066AD8A0060610D0054A26
:101E8000062A074A082A0906D8A00A060928D8B44B
:101E90000A28D8A401D001D0B0D7056A066A12007A
:101EA0003ED00CC005F00DC006F00EC007F00FC00C
:101EB00008F00EC001F00FC002F02BEC14F001C0CE
:101EC00009F002C00AF0FCEC0EF006500510D8A490
:101ED00001D001D005D00CC00CF00DC00DF030D0F9
:101EE000010E0C24016E000E0D20026E0EC0F6FFD6
:101EF0000FC0F7FF000EF86E0C0EF76403D0080059
:101F0000F55005D0F6CFE9FFF7CFEAFFEF50036EAB
:101F1000046A71EC14F001C00CF002C00DF00D5019
:101F20000C10D8B401D001D009D00CC0D9FF0DC01D
:101F3000DAFFDF50D8A401D001D0B3D70C6A0D6A04
:101F4000120045504410D8A401D001D011D0AE5198
:101F5000AD11D8B401D001D00BD0ADC001F0AEC0EE
:101F600002F02B0E046E7C0E036E0AEC13F025D0EB
:101F700044044510D8A401D001D011D0C451C311DC
:101F8000D8B401D001D00BD0C3C001F0C4C002F05E
:101F90002B0E046E7C0E036E0AEC13F00ED0445030
:101FA000020A4510D8A401D001D007D0DA51D911C6
:101FB000D8B401D001D001D0E7D7444A452A44C063
:101FC00001F045C002F0000E046E030E036E0DEC2E
:101FD00011F001C044F002C045F012000AEE00F01A
:101FE000960EEE6AE806FDE109EE00F0960EEE6A46
:101FF000E806FDE108EE00F0960EEE6AE806FDE167
:1020000007EE00F0960EEE6AE806FDE106EE00F03F
:10201000960EEE6AE806FDE105EE00F0960EEE6A19
:10202000E806FDE104EE00F0FA0EEE6AE806FDE1D6
:1020300003EE00F0A00EEE6AE806FDE102EE00F00D
:10204000A00EEE6AE806FDE101EE00F0F80EEE6A81
:10205000E806FDE100EE60F0990EEE6AE806FDE1AB
:1020600000EE42F0180EEE6AE806FDE10001BEEF58
:1020700014F04B504A10D8A401D001D010D0070161
:10208000070E026E000E016E07C003F008C004F0D8
:1020900093EC12F005C04AF006C04BF032D04D5020
:1020A0004C10D8A401D001D010D00801080E026E47
:1020B000000E016E07C003F008C004F093EC12F0AC
:1020C00005C04CF006C04DF01CD04F504E10D8A4A7
:1020D00001D001D010D00901090E026E000E016E70
:1020E00007C003F008C004F093EC12F005C04EF0F6
:1020F00006C04FF006D0000E026E010E016E6BECB2
:1021000015F01200AE51AD11D8A401D001D00FD0FE
:10211000FDC0ADF0FEC0AEF0000EFA6FAF0EF96F6D
:10212000FFC0FBF00D0EFC6FD3EC11F030D0C451AA
:10213000C311D8A401D001D00FD0FDC0C3F0FEC0A0
:10214000C4F0000EFA6FC50EF96FFFC0FBF00D0E64
:10215000FC6FD3EC11F01BD0DA51D911D8A401D007
:1021600001D00FD0FDC0D9F0FEC0DAF0000EFA6F3A
:10217000DB0EF96FFFC0FBF00D0EFC6FD3EC11F01E
:1021800006D0000EFA6F030EF96F77EC15F012000F
:102190004B504A10D8B401D001D010D00701070E1F
:1021A000476E000E466E01D809D00500FA6E4A50FF
:1021B000FD6E4B50FE6EFF6AFA5012004D504C10EF
:1021C000D8B401D001D010D00801080E476E000E1F
:1021D000466E01D809D00500FA6E4C50FD6E4D5088
:1021E000FE6EFF6AFA5012004F504E10D8B401D064
:1021F00001D010D00901090E476E000E466E01D8BD
:1022000009D00500FA6E4E50FD6E4F50FE6EFF6A0B
:10221000FA501200ADEC15F01200066A02AE01D0C1
:1022200001D006D0016C021ED8B0022A010E066E43
:1022300004AE01D001D004D0036C041ED8B0042A2F
:1022400004500310D8B401D001D01CD0010E056E8B
:1022500004D0D89003360436052A04AE01D001D04C
:10226000F8D70350015C04500258D8A001D001D027
:1022700004D00350015E0450025AD8900432033255
:10228000052EEFD70650D8B401D001D004D0016C90
:10229000021ED8B0022A01C001F002C002F01200F2
:1022A000966701D001D011D0D58ED58CD59AD59610
:1022B000D550F80B0209D56EF28A686B696B6C6BAE
:1022C0006D6B706B716B010E966F69516811D8A4BC
:1022D00001D001D009D0FBC068F0FCC069F0F9C0A2
:1022E0006AF0FAC06BF01DD06D516C11D8A401D00A
:1022F00001D009D0FBC06CF0FCC06DF0F9C06EF0ED
:10230000FAC06FF00ED071517011D8A401D001D075
:1023100008D0FBC070F0FCC071F0F9C072F0FAC0D8
:1023200073F01200AECF58F0000EABB4010EABB29A
:10233000010EE8A001D001D003D0AB98AB8832D019
:10234000586601D001D020D00601000E00017E2584
:10235000D96E0601060E00017F21DA6E000EDF6ED7
:102360007E6B7F6B83518211D8B401D001D01AD01B
:1023700082C005F083C006F00601060E086E000E4E
:10238000076E39EC10F00ED00601000E00017E251C
:10239000D96E0601060E00017F21DA6E58C0DFFFFC
:1023A0007E4B7F2B1200FC51FB11D8A401D001D031
:1023B0001DD038D00001FBC0F6FFFCC0F7FF000EB7
:1023C000F86EF9C0D9FFFAC0DAFF0C0EF76403D03B
:1023D0000800F55005D0F6CFE9FFF7CFEAFFEF5040
:1023E000DF6E0001F94BFA2BFB4BFC2BFBC0F6FF19
:1023F000FCC0F7FF000EF86E0C0EF76403D0080067
:10240000F55005D0F6CFE9FFF7CFEAFFEF5000090E
:10241000D8A401D001D0CED7F9C0D9FFFAC0DAFFD5
:10242000000EDF6E120093519211D8A401D001D09A
:102430000CD00401040E026E960E016E07C003F06C
:1024400008C004F006EC14F01FD00401960E000141
:102450009225D96E0401040E00019321DA6E010E5B
:10246000DF6E0401970E00019225016E0401040E37
:1024700000019321026E07C003F008C004F006ECCF
:1024800014F00001924B932B07C001F008C002F03A
:102490002BEC14F0015000019227025093239D88E9
:1024A000846B856B120004D0014A022A034A042A75
:1024B00003C0D9FF04C0DAFFDF50056E01C0F6FF8C
:1024C00002C0F7FF000EF86E0C0EF76403D0080090
:1024D000F55005D0F6CFE9FFF7CFEAFFEF50066ED3
:1024E0000550065C076E076601D001D016D001C00A
:1024F000F6FF02C0F7FF000EF86E0C0EF76403D073
:102500000800F55005D0F6CFE9FFF7CFEAFFEF500E
:102510000009D8A401D001D0C7D70750016E026AC4
:1025200001BE0206120004500310D8A401D001D04D
:102530001BD036D003C0F6FF04C0F7FF000EF86EC4
:1025400001C0D9FF02C0DAFF0C0EF76403D0080007
:10255000F55005D0F6CFE9FFF7CFEAFFEF50DF6E79
:10256000014A022A034A042A03C0F6FF04C0F7FF07
:10257000000EF86E0C0EF76403D00800F55005D07D
:10258000F6CFE9FFF7CFEAFFEF500009D8A401D05A
:1025900001D0D0D701C0D9FF02C0DAFF000EDF6E34
:1025A0001200000185518411D8B401D001D002D0AD
:1025B0009D982FD00401960E5624D96E040E5720F4
:1025C000DA6EDF50D8A401D001D00BD0AD6A566AC4
:1025D000576A0001926B936B000E856F010E846F3A
:1025E00018D0960E5624D96E040E5720DA6E010EBE
:1025F000DF6201D001D004D0AD6A564A572A09D013
:10260000960E5624D96E040E5720DA6EDF50AD6E4A
:10261000F4D7120002010229D8B40329D8A401D0AA
:1026200001D00ED001C002F202C003F29C6B9D6B80
:1026300003C09EF204C09FF2006B016B046B15D0C7
:1026400003010229D8B40329D8A401D001D00DD0A8
:1026500001C002F302C003F39C6B9D6B03C09EF3A9
:1026600004C09FF3006B016B046B65EC13F0120068
:10267000056A066A04500310D8B401D001D020D0F6
:10268000010E076E04D0D89003360436072A04AE34
:1026900001D001D0F8D7D890053606360350015C3A
:1026A00004500258D8A001D001D005D00350015EDB
:1026B0000450025A0580D89004320332072EEBD71B
:1026C00005C001F006C002F0120053505210D8A409
:1026D00001D001D024D002010229D8B40329D8B4F2
:1026E00001D001D005D0020E536E000E526E0CD0F8
:1026F00003010229D8B40329D8B401D001D004D0F1
:10270000030E536E000E526E53505210D8B401D0C7
:1027100001D005D0000E556E010E546EC58012001A
:10272000E8CFFFF00101010E0001FA6F0101E40E94
:102730000001F96FFFC0FBF00D0EFC6FE0EC13F031
:1027400000016069616964696569AB6BAC6B01012B
:10275000786B796B8E6B8F6B0001AD6BAE6BC36B5F
:10276000C46BD96BDA6B0101A46BA56BBA6BBB6B45
:1027700012000B500A10D8B401D001D01CD0010EA9
:102780000C6E04D0D8900A360B360C2A0BAE01D052
:1027900001D0F8D70A50085C0B500958D8A001D0D6
:1027A00001D004D00A50085E0B50095AD8900B3261
:1027B0000A320C2EEFD708C008F009C009F0120049
:1027C000F9C0FDF0FAC0FEF005D00001FD4BFE2B74
:1027D000FB4BFC2BFBC0F6FFFCC0F7FF000EF86EB6
:1027E000FDC0D9FFFEC0DAFF0C0EF76403D008006D
:1027F000F55005D0F6CFE9FFF7CFEAFFEF50DF6ED7
:10280000DF50D8A401D001D0E0D7120001C005F0FC
:1028100002C006F004D0054A062A034A042A03C06F
:10282000F6FF04C0F7FF000EF86E05C0D9FF06C022
:10283000DAFF0C0EF76403D00800F55005D0F6CF90
:10284000E9FFF7CFEAFFEF50DF6EDF50D8A401D0E9
:1028500001D0E1D7120001C003F002C004F002D0A1
:10286000034A042A03C0F6FF04C0F7FF000EF86E07
:102870000C0EF76403D00800F55005D0F6CFE9FF41
:10288000F7CFEAFFEF500009D8A401D001D0E8D774
:102890000150035C016E02500458026E120003C026
:1028A00009F004C00AF001C007F002C008F00ED021
:1028B00009C0D9FF0AC0DAFF07C0E1FF08C0E2FF84
:1028C000DFCFE7FF094A0A2A074A082A0506D8A0E7
:1028D00006060528D8B40628D8A401D001D0E8D728
:1028E0001200035001C0D9FF02C0DAFFDF6201D03D
:1028F00001D005D001C001F002C002F00DD001C02E
:10290000D9FF02C0DAFF014A022ADF50D8A401D061
:1029100001D0E7D7016A026A1200056A066A01A0BF
:1029200001D001D004D00350052604500622D890CF
:1029300003360436D8900232013202500110D8A476
:1029400001D001D0ECD705C001F006C002F01200A2
:10295000000E916F010E906FC58694869488C78E85
:10296000280EC66E0A0EC86E9D86020102690369B2
:10297000030102690369526A536A1200700ED3128E
:10298000CAEC15F036EC15F09FEC15F007EC15F0DD
:10299000F28EF28C52EC15F0C7EC15F0FDD70CEF6F
:1029A00000F0E8CF03F0026A3A0E036001D001D0D4
:1029B00007D02F0E036401D001D002D0010E026EA9
:1029C00002C001F001301200A8EC14F0000E00016A
:1029D0007B6F010E7A6F000EFA6F320EF96F1F0EC9
:1029E000FC6F420EFB6F50EC11F012008B518A11FC
:1029F000D8A401D001D00AD08050F80B7411896E90
:102A0000744B752B070E7417000E75171200280EE5
:102A100090EC13F044EC15F0E4EC14F0000EFE6FB3
:102A20004F0EFD6F4A0EFF6F82EC10F0120052C085
:102A3000D9FF53C0DAFFDE50DD10D8B401D001D089
:102A400003D0C5EC0CF002D017EC0CF01200AB8EEA
:102A5000948E948CAC9CAC8AAC98AC86AB88AC84DD
:102A6000B886220EAF6E9D989D8A1200AC9CAC8AEF
:102A7000AC98AC84B886220EAF6E948E948CAB9CCE
:102A8000AB8EAB98AB881200000E0001796F010E7F
:102A9000786F27EC15F02B0EFA6F720EF96FB4EC0D
:102AA00015F01200926A000E0001FA6FFA0EF96F2B
:102AB000290EFC6FEC0EFB6F50EC11F012000101BF
:102AC000010E026E000E016E05C003F006C004F098
:102AD00093EC12F01200000E0001776F010E766F7A
:102AE000926A8050F80B0110896EFFD71200000E19
:102AF000776F010E766F926A8050F80BF911896E2C
:102B0000FFD712001C0E066E7A0E056E000E086EC0
:102B1000000E076E39EC10F0120094C0F9F095C069
:102B2000FAF096EC15F0944B952B1200000E8B6F7B
:102B3000010E8A6F8050F80BF911896E12004A6AF3
:102B40004B6A4C6A4D6A4E6A4F6A120046C005F0E5
:102B500047C006F05FEC15F012004A6A4B6A4C6AF7
:102B60004D6A4E6A4F6A1200F9C082F0FAC083F0D3
:102B70001200020E596EB6EC06F01200010E596EEC
:102B8000B6EC06F01200596AB6EC06F012008DECB5
:082B900015F01200936A120017
:020000040020DA
:08000000FFFFFFFFFFFFFFFF00
:020000040030CA
:0E000000FF09191EFF8080FF0FC00FE00F40A8
:00000001FF
