:040000000CEF00F011
:10000800FACF28F0FBCF29F0E9CF2AF019ED0EF04E
:04001800D0EF0EF027
:100D000001000A006400E8031027493243206D65A2
:100D100073616765207761732073656E7400257356
:100D2000222573223A20222573222C0A7D00257366
:100D3000222573223A2025642C0A7D00286E756CCA
:100D40006C290025732025640A002225732225734F
:100D50000066726F6D007B0A7D006D7367007263C1
:100D600076006B6579002C0A003A2000746F000051
:100D7000D7D1A551250AD8B401D001D039D020EE61
:100D800002F09751D9269851DA22DE50DD10D8B4FE
:100D900001D001D017D020EE02F09751D9269851FA
:100DA000DA22DECF9CF0DDCF9DF001D80AD005001D
:100DB000FA6E9C51FD6E9D51FE6EFF6AFA50A55170
:100DC0001200AED197C0D9FF98C0DAFFDECF9CF0F9
:100DD000DDCF9DF09CC0D9FF9DC0DAFFA5C0DFFF2D
:100DE00097C0D9FF98C0DAFFDE2A000EDD2298D125
:100DF0009F6B95D09AC0D9FF9BC0DAFFDFCF9CF0E4
:100E0000020EDE26DFCF9DF0000EDD229CC0D9FF52
:100E10009DC0DAFFDECFA1F0DDCFA2F0A251A1117B
:100E2000D8A401D001D064D03C0EA16F0D0EA26FEA
:100E30005FD0000120EE02F09751D9269851DA22B6
:100E4000DE50DD10D8B401D001D02AD020EE02F05F
:100E50009751D9269851DA22DECF9CF0DDCF9DF054
:100E600001D81AD00500FA6E9C51FD6E9D51FE6EA0
:100E7000FF6AFA50A1C0F6FFA2C0F7FF000EF86E9D
:100E80000C0EF76403D00800F55005D0F6CFE9FF4B
:100E9000F7CFEAFFEF5012000001A14BA22B28D0A0
:100EA000A1C0F6FFA2C0F7FF000EF86E97C0D9FFF1
:100EB00098C0DAFFDECF9CF0DDCF9DF09CC0D9FF5B
:100EC0009DC0DAFF0C0EF76403D00800F55005D082
:100ED000F6CFE9FFF7CFEAFFEF50DF6E0001A14B3D
:100EE000A22B97C0D9FF98C0DAFFDE2A000EDD22C0
:100EF000A1C0F6FFA2C0F7FF000EF86E0C0EF7645B
:100F000003D00800F55005D0F6CFE9FFF7CFEAFF90
:100F1000EF500009D8A401D001D08BD701D1992B73
:100F200099059C6F9CC0F6FF0D0EF76E000EF86ED3
:100F30000800F5CFA5F00001A551000AD8B402D1F0
:100F4000640AD8B407D00D0AD8B404D01A0AD8B4A9
:100F500051D7E6D09AC0D9FF9BC0DAFFDFCF9CF013
:100F6000020EDE26DFCF9DF0000EDD229CC0D9FFF1
:100F70009DC0DAFFDECFA1F0DDCFA2F0A2AF01D09D
:100F800001D006D0030E9F13A16DA21FD8B0A22BD3
:100F9000010EA56FA551020DF350000F9C6F9CC070
:100FA000F6FF0D0EF76E000EF86E0900F5CF9DF0FE
:100FB0000900F5CF9EF09D51A15D9E51A259D8B078
:100FC00001D001D001D007D0A52BA551050AD8A486
:100FD00001D001D0DFD79F51030BD8B401D001D08D
:100FE00038D020EE02F09751D9269851DA22DE50FF
:100FF000DD10D8B401D001D017D020EE02F0975107
:10100000D9269851DA22DECF9CF0DDCF9DF001D8B1
:101010000AD00500FA6E9C51FD6E9D51FE6EFF6A6E
:10102000FA502D0E120015D097C0D9FF98C0DAFFE4
:10103000DECF9CF0DDCF9DF09CC0D9FF9DC0DAFFD4
:101040002D0EDF6E97C0D9FF98C0DAFFDE2A000EA2
:10105000DD22A5C0A0F05CD0A051020DF350000F1E
:101060009C6F9CC0F6FF0D0EF76E000EF86E090027
:10107000F5CF8DF00A00F5CF8EF0A1C08BF0A2C0A5
:101080008CF0CCEC10F08BC092F08CC093F0000E82
:10109000956F0A0E946FCFEC11F09251300FA56F3F
:1010A00020EE02F09751D9269851DA22DE50DD1059
:1010B000D8B401D001D017D020EE02F09751D92634
:1010C0009851DA22DECF9CF0DDCF9DF001D80AD016
:1010D0000500FA6E9C51FD6E9D51FE6EFF6AFA503E
:1010E000A551120015D097C0D9FF98C0DAFFDECF06
:1010F0009CF0DDCF9DF09CC0D9FF9DC0DAFFA5C05C
:10110000DFFF97C0D9FF98C0DAFFDE2A000EDD228C
:101110000001A0070001A029D8A401D001D09CD7CC
:101120000001992B99059C6F9CC0F6FF0D0EF76E80
:10113000000EF86E0800F5CFA5F00001A56701D0FC
:1011400001D017D6976B986B1200D1D11B50250A8E
:10115000D8B401D001D039D020EE02F00D50D926FC
:101160000E50DA22DE50DD10D8B401D001D017D0F5
:1011700020EE02F00D50D9260E50DA22DECF12F00A
:10118000DDCF13F001D80AD00500FA6E1250FD6EC3
:101190001350FE6EFF6AFA501B501200A8D10DC00A
:1011A000D9FF0EC0DAFFDECF12F0DDCF13F012C090
:1011B000D9FF13C0DAFF1BC0DFFF0DC0D9FF0EC07F
:1011C000DAFFDE2A000EDD2292D1156A92D010C01D
:1011D000D9FF11C0DAFFDFCF12F0020EDE26DFCF1B
:1011E00013F0000EDD2212C0D9FF13C0DAFFDECFEC
:1011F00017F0DDCF18F018501710D8A401D001D087
:1012000061D03C0E176E0D0E186E5CD020EE02F011
:101210000D50D9260E50DA22DE50DD10D8B401D0A0
:1012200001D029D020EE02F00D50D9260E50DA223E
:10123000DECF12F0DDCF13F001D81AD00500FA6E20
:101240001250FD6E1350FE6EFF6AFA5017C0F6FF83
:1012500018C0F7FF000EF86E0C0EF76403D00800FC
:10126000F55005D0F6CFE9FFF7CFEAFFEF501200B7
:10127000174A182A27D017C0F6FF18C0F7FF000E2C
:10128000F86E0DC0D9FF0EC0DAFFDECF12F0DDCF51
:1012900013F012C0D9FF13C0DAFF0C0EF76403D0AD
:1012A0000800F55005D0F6CFE9FFF7CFEAFFEF5081
:1012B000DF6E174A182A0DC0D9FF0EC0DAFFDE2AEA
:1012C000000EDD2217C0F6FF18C0F7FF000EF86E03
:1012D0000C0EF76403D00800F55005D0F6CFE9FFF7
:1012E000F7CFEAFFEF500009D8A401D001D08ED784
:1012F000FED00F2A0F04126E12C0F6FF0D0EF76E0D
:10130000000EF86E0800F5CF1BF01B50000AD8B491
:10131000FED0640AD8B407D00D0AD8B404D01A0A93
:10132000D8B455D7E4D010C0D9FF11C0DAFFDFCF51
:1013300012F0020EDE26DFCF13F0000EDD2212C007
:10134000D9FF13C0DAFFDECF17F0DDCF18F018AEEB
:1013500001D001D006D0030E1512176C181ED8B09C
:10136000182A010E1B6E1B50020DF350000F126E57
:1013700012C0F6FF0D0EF76E000EF86E0900F5CFE5
:1013800013F00900F5CF14F01350175C14501858DF
:10139000D8B001D001D001D007D01B2A1B50050ABC
:1013A000D8A401D001D0DFD71550030BD8B401D099
:1013B00001D038D020EE02F00D50D9260E50DA229E
:1013C000DE50DD10D8B401D001D017D020EE02F0ED
:1013D0000D50D9260E50DA22DECF12F0DDCF13F0F9
:1013E00001D80AD00500FA6E1250FD6E1350FE6E41
:1013F000FF6AFA502D0E120015D00DC0D9FF0EC095
:10140000DAFFDECF12F0DDCF13F012C0D9FF13C028
:10141000DAFF2D0EDF6E0DC0D9FF0EC0DAFFDE2A17
:10142000000EDD221BC016F05CD01650020DF350EA
:10143000000F126E12C0F6FF0D0EF76E000EF86E62
:101440000900F5CF03F00A00F5CF04F017C001F052
:1014500018C002F0F9EC10F001C008F002C009F069
:10146000000E0B6E0A0E0A6EF6EC11F00850300FEB
:101470001B6E20EE02F00D50D9260E50DA22DE50FF
:10148000DD10D8B401D001D017D020EE02F00D50FD
:10149000D9260E50DA22DECF12F0DDCF13F001D8BC
:1014A0000AD00500FA6E1250FD6E1350FE6EFF6AF0
:1014B000FA501B50120015D00DC0D9FF0EC0DAFF34
:1014C000DECF12F0DDCF13F012C0D9FF13C0DAFF68
:1014D0001BC0DFFF0DC0D9FF0EC0DAFFDE2A000EF1
:1014E000DD2216061628D8A401D001D09ED70F2AD7
:1014F0000F04126E12C0F6FF0D0EF76E000EF86E9E
:101500000800F5CF1BF01B6601D001D01FD61200DA
:10151000C7A601D001D010D0C7B401D001D00CD0E3
:10152000C7BA01D001D008D0C7A001D001D004D0E3
:10153000C950C688386A396AC7B601D001D004D00C
:10154000C7A801D001D037D0C7B401D001D033D063
:10155000C7AA01D001D02FD0C7A001D001D02BD075
:10156000C9CF09F00A6A0201000E3824D96E020EB2
:101570003920DA6E09C0DFFF000E3824D96E020E62
:101580003920DA6EDF50D8A401D001D010D04D50F0
:101590004C10D8B401D001D00AD04CC005F04DC0D9
:1015A00006F0020E086E000E076E77EC0EF0384A59
:1015B000392AC68869D0C7A601D001D02FD0C7A4C8
:1015C00001D001D02BD0C7BA01D001D027D04950CB
:1015D0004810D8A401D001D017D04F504E10D8B425
:1015E00001D001D00BD001D809D00500FA6E4E50C1
:1015F000FD6E4F50FE6EFF6AFA501200000E496EEB
:10160000010E486E3A6A3B6A0201000E3A24D96E16
:10161000020E3B20DA6EDF50C96ECBD7C7A601D0D1
:1016200001D025D0C7A401D001D021D0C7AA01D0B4
:1016300001D01DD0C7B001D001D019D03A4A3B2A01
:101640000201000E3A24D96E020E3B20DA6EDF5002
:10165000C96E000E3A24D96E020E3B20DA6EDF50BE
:10166000D8A401D001D0A5D7486A496AA2D7C7A695
:1016700001D001D009D0C7AA01D001D005D0C7B090
:1016800001D001D001D000D0120050045110D8A4D4
:1016900001D001D010D020EE02F04A50D9264B5094
:1016A000DA22DF50096ED8800934C96E000E516EFF
:1016B000060E506E8BD05050060A5110D8A401D09F
:1016C00001D006D0C586000E516E050E506E7ED03C
:1016D0005050020A5110D8B401D001D007D0505058
:1016E000050A5110D8A401D001D048D0C58820EEF9
:1016F0006AF04A50D9264B50DA22DECF09F0DDCF0E
:101700000AF009504A240B6E0A504B200C6E040E4E
:101710000B24D96E000E0C20DA6EC9CFDFFF20EE4D
:101720006AF04A50D9264B50DA22DECF09F0DDCFDD
:101730000AF009504A240B6E0A504B200C6E040E1E
:101740000B24D96E000E0C20DA6EDF50D8A401D025
:1017500001D006D0C584000E516E040E506E04D028
:10176000000E516E060E506E20EE6AF04A50D926D9
:101770004B50DA22DE2A000EDD2228D05050040A17
:101780005110D8A401D001D021D020EE6CF04A50E5
:10179000D9264B50DA22DECF05F0DDCF06F0040E5D
:1017A0004A24076E000E4B20086E77EC0EF020EEF8
:1017B00002F04A50D9264B50DA22FF0EDE6EFF0EA1
:1017C000DD6E4A6A4B6A7CEC11F000D012005004C6
:1017D0005110D8A401D001D010D020EE02F04A5010
:1017E000D9264B50DA22DF50096ED8900934C96EE1
:1017F000000E516E020E506E7AD05050020A5110F7
:10180000D8B401D001D007D05050030A5110D8A449
:1018100001D001D047D020EE6AF04A50D9264B5073
:10182000DA2210EE68F04A50E1264B50E222E652EE
:10183000DE52E550800A096EDD50800A095C02E143
:10184000DF50E75CD8B001D001D026D020EE68F0A0
:101850004A50D9264B50DA22DECF09F0DDCF0AF00C
:1018600009504A240B6E0A504B200C6E040E0B24B8
:10187000D96E000E0C20DA6EDF50C96E20EE68F0D3
:101880004A50D9264B50DA22DE2A000EDD22000E05
:10189000516E030E506E2BD0C584000E516E040E97
:1018A000506E25D05050040A5110D8A401D001D058
:1018B0001ED020EE6CF04A50D9264B50DA22DECFF3
:1018C00005F0DDCF06F0000E086E000E076E77EC17
:1018D0000EF020EE02F04A50D9264B50DA22FF0ECD
:1018E000DE6EFF0EDD6E4A6A4B6A7CEC11F0120070
:1018F000000161516011D8B401D001D01BD06CC07F
:1019000001F06DC002F062C003F063C004F05EEC51
:101910000FF002500110D8A401D001D00BD001D893
:1019200009D00500FA6E6051FD6E6151FE6EFF6ACE
:10193000FA501200000165516411D8B401D001D0F1
:101940001BD06CC001F06DC002F066C003F067C030
:1019500004F05EEC0FF002500110D8A401D001D0C9
:101960000BD001D809D00500FA6E6451FD6E6551A7
:10197000FE6EFF6AFA501200000169516811D8B476
:1019800001D001D01BD06CC001F06DC002F06AC064
:1019900003F06BC004F05EEC0FF002500110D8A40D
:1019A00001D001D00BD001D809D00500FA6E6851E2
:1019B000FD6E6951FE6EFF6AFA50120000016C4B19
:1019C0006D2B120061516011D8B401D001D01BD031
:1019D0006CC08BF06DC08CF062C08DF063C08EF077
:1019E0001BEC0FF08C518B11D8A401D001D00BD07F
:1019F00001D809D00500FA6E6051FD6E6151FE6E8E
:101A0000FF6AFA501200000165516411D8B401D088
:101A100001D01BD06CC08BF06DC08CF066C08DF017
:101A200067C08EF01BEC0FF08C518B11D8A401D045
:101A300001D00BD001D809D00500FA6E6451FD6EBB
:101A40006551FE6EFF6AFA5012000001695168117B
:101A5000D8B401D001D01BD06CC08BF06DC08CF01D
:101A60006AC08DF06BC08EF01BEC0FF08C518B11A7
:101A7000D8A401D001D00BD001D809D00500FA6E4E
:101A80006851FD6E6951FE6EFF6AFA501200000146
:101A90006C4B6D2B12003F503E10D8B401D001D0DA
:101AA00013D00301030E00016F6F0301000E00014C
:101AB0006E6F01D809D00500FA6E3E50FD6E3F50A2
:101AC000FE6EFF6AFA50120041504010D8B401D0A7
:101AD00001D013D00301030E00016F6F0301640EE8
:101AE00000016E6F01D809D00500FA6E4050FD6EFE
:101AF0004150FE6EFF6AFA50120043504210D8B4B3
:101B000001D001D013D00401040E00016F6F040155
:101B1000000E00016E6F01D809D00500FA6E425028
:101B2000FD6E4350FE6EFF6AFA501200455044109D
:101B3000D8B401D001D013D00401040E00016F6F9E
:101B40000401640E00016E6F01D809D00500FA6E21
:101B50004450FD6E4550FE6EFF6AFA501200C0EC14
:101B600013F012003F503E10D8B401D001D013D072
:101B70000301030E00016F6F0301000E00016E6F81
:101B800001D809D00500FA6E3E50FD6E3F50FE6E42
:101B9000FF6AFA50120041504010D8B401D001D071
:101BA00013D00301030E00016F6F0301640E0001E7
:101BB0006E6F01D809D00500FA6E4050FD6E41509D
:101BC000FE6EFF6AFA50120043504210D8B401D0A2
:101BD00001D013D00401040E00016F6F0401000E48
:101BE00000016E6F01D809D00500FA6E4250FD6EFB
:101BF0004350FE6EFF6AFA50120045504410D8B4AC
:101C000001D001D013D00401040E00016F6F040154
:101C1000640E00016E6F01D809D00500FA6E4450C1
:101C2000FD6E4550FE6EFF6AFA501200D2EC13F0C2
:101C300012000600EACF2BF0E1CF2CF0E2CF2DF01E
:101C4000D9CF2EF0DACF2FF0F3CF30F0F4CF31F040
:101C5000F6CF32F0F7CF33F0F8CF34F0F5CF35F0E0
:101C60009EA601D001D011D09E9647504610D8B400
:101C700001D001D002D088EC0AF055505410D8B4ED
:101C800001D001D002D072EC13F0F2A401D001D047
:101C900003D0F294AAEC13F09EAA01D001D002D096
:101CA0009DEC10F09EA801D001D002D064EC10F0A1
:101CB000B2EC0DF035C0F5FF34C0F8FF33C0F7FFCC
:101CC00032C0F6FF31C0F4FF30C0F3FF2FC0DAFF9F
:101CD0002EC0D9FF2DC0E2FF2CC0E1FF2BC0EAFFD0
:101CE0002AC0E9FF29C0FBFF28C0FAFF11003F50BE
:101CF0003E10D8A401D001D010D00301030E026E13
:101D0000000E016E07C003F008C004F043EC12F0AF
:101D100005C03EF006C03FF042D041504010D8A46C
:101D200001D001D010D00301030E026E640E016ECB
:101D300007C003F008C004F043EC12F005C040F007
:101D400006C041F02CD043504210D8A401D001D09D
:101D500010D00401040E026E000E016E07C003F0E5
:101D600008C004F043EC12F005C042F006C043F096
:101D700016D045504410D8A401D001D010D0040191
:101D8000040E026E640E016E07C003F008C004F07A
:101D900043EC12F005C044F006C045F000D012003C
:101DA0000AEE00F0C80EEE6AE806FDE109EE00F06A
:101DB000C80EEE6AE806FDE108EE00F0C80EEE6A15
:101DC000E806FDE107EE00F0C80EEE6AE806FDE168
:101DD00006EE00F0C80EEE6AE806FDE105EE00F042
:101DE000640EEE6AE806FDE104EE00F0C80EEE6A4D
:101DF000E806FDE103EE00F0C80EEE6AE806FDE13C
:101E000002EE00F0C80EEE6AE806FDE101EE00F019
:101E1000DC0EEE6AE806FDE100EE60F02B0EEE6AE5
:101E2000E806FDE100EE36F01E0EEE6AE806FDE182
:101E300000014DEF13F0906B8CAF01D001D006D0B4
:101E40008B6D8C1FD8B08C2B010E906F8EAF01D094
:101E500001D004D08D6D8E1FD8B08E2B8E518D1178
:101E6000D8B401D001D01CD0010E8F6F04D0D8900F
:101E70008D378E378F2B8EAF01D001D0F8D78D5193
:101E80008B5D8E518C59D8A001D001D004D08D51DA
:101E90008B5F8E518C5BD8908E338D338F2FEFD725
:101EA0009051D8B401D001D004D08B6D8C1FD8B024
:101EB0008C2B8BC08BF08CC08CF01200066A02AEAB
:101EC00001D001D006D0016C021ED8B0022A010E4A
:101ED000066E04AE01D001D004D0036C041ED8B04D
:101EE000042A04500310D8B401D001D01CD0010E34
:101EF000056E04D0D89003360436052A04AE01D00E
:101F000001D0F8D70350015C04500258D8A001D08A
:101F100001D004D00350015E0450025AD89004321C
:101F20000332052EEFD70650D8B401D001D004D02B
:101F3000016C021ED8B0022A01C001F002C002F0FA
:101F40001200766701D001D011D0D58ED58CD59AEC
:101F5000D596D550F80B0209D56EF28A606B616B8D
:101F6000646B656B686B696B010E766F6151601114
:101F7000D8A401D001D009D08DC060F08EC061F02E
:101F80008BC062F08CC063F01DD065516411D8A481
:101F900001D001D009D08DC064F08EC065F08BC037
:101FA00066F08CC067F00ED069516811D8A401D0DA
:101FB00001D008D08DC068F08EC069F08BC06AF087
:101FC0008CC06BF0120073517211D8A401D001D0F3
:101FD0000FD00201020E00018C6F0201640E00019D
:101FE0008B6F91C08DF092C08EF006EC13F01ED076
:101FF0000201640E00017225D96E0201020E000179
:102000007321DA6E010EDF6E0201650E000172258A
:102010008B6F0201020E000173218C6F91C08DF055
:1020200092C08EF006EC13F0724B732B91C08BF0C4
:1020300092C08CF01DEC12F08B5172278C517323DF
:102040009D88706B716B1200000173517211D8A4DE
:1020500001D001D00CD00201020E026E640E016E9E
:1020600007C003F008C004F01FEC13F01ED00201FB
:10207000640E00017225D96E0201020E0001732167
:10208000DA6E010EDF6E0201650E00017225016E2F
:102090000201020E00017321026E07C003F008C0A6
:1020A00004F01FEC13F0724B732B07C001F008C053
:1020B00002F068EC12F00150000172270250732305
:1020C0009D88706B716B1200000171517011D8B452
:1020D00001D001D002D09D982FD00201640E52246D
:1020E000D96E020E5320DA6EDF50D8A401D001D091
:1020F0000BD0AD6A526A536A0001726B736B000EAB
:10210000716F010E706F18D0640E5224D96E020EDA
:102110005320DA6E010EDF6201D001D004D0AD6A27
:10212000524A532A09D0640E5224D96E020E53200B
:10213000DA6EDF50AD6EF4D71200AB50AECF09F0BF
:10214000096601D001D01CD00501000E3624D96EDD
:10215000050E3720DA6E000EDF6E366A376A3D50A4
:102160003C10D8B401D001D016D03CC005F03DC021
:1021700006F0050E086E000E076E77EC0EF00BD021
:102180000501000E3624D96E050E3720DA6E09C01F
:10219000DFFF364A372A12008F6B906B8E518D11FC
:1021A000D8B401D001D020D0010E916F04D0D890C6
:1021B0008D378E37912B8EAF01D001D0F8D7D890C4
:1021C0008F3790378D518B5D8E518C59D8A001D0AF
:1021D00001D005D08D518B5F8E518C5B8F81D89053
:1021E0008E338D33912FEBD78FC08BF090C08CF056
:1021F0001200066A076A04500310D8B401D001D057
:1022000020D0010E056E04D0D89003360436052A7E
:1022100004AE01D001D0F8D7D89006360736035067
:10222000015C04500258D8A001D001D005D0035061
:10223000015E0450025A0680D89004320332052E03
:10224000EBD706C001F007C002F01200010102291D
:10225000D8B40329D8A401D001D00DD08BC002F18D
:102260008CC003F16A6B6B6B8DC06CF18EC06DF12D
:10227000006B016B13D07029D8B47129D8A401D098
:1022800001D00CD08BC070F18CC071F1D86BD96BC0
:102290008DC0DAF18EC0DBF16E6B6F6BA6EC11F0C6
:1022A000120001010229D8B40329D8A401D001D019
:1022B0000DD001C002F102C003F16A6B6B6B03C069
:1022C0006CF104C06DF1006B016B13D07029D8B4B0
:1022D0007129D8A401D001D00CD001C070F102C086
:1022E00071F1D86BD96B03C0DAF104C0DBF16E6B0E
:1022F0006F6B7CEC11F012004B504A10D8A401D047
:1023000001D023D001010229D8B40329D8B401D0C7
:1023100001D005D0010E4B6E000E4A6E0BD0702915
:10232000D8B47129D8B401D001D004D0010E4B6EBD
:102330006E0E4A6E4B504A10D8B401D001D005D071
:10234000000E516E010E506EC58012004B504A10A7
:10235000D8A401D001D022D00229D8B40329D8B4FE
:1023600001D001D005D0010E4B6E000E4A6E0BD08D
:102370007029D8B47129D8B401D001D004D0010E8D
:102380004B6E6E0E4A6E4B504A10D8B401D001D03D
:1023900005D0000E516E010E506EC5801200955191
:1023A0009411D8B401D001D01CD0010E966F04D086
:1023B000D89094379537962B95AF01D001D0F8D7A8
:1023C0009451925D95519359D8A001D001D004D079
:1023D0009451925F9551935BD89095339433962F97
:1023E000EFD792C092F093C093F012000B500A10F6
:1023F000D8B401D001D01CD0010E0C6E04D0D890FE
:102400000A360B360C2A0BAE01D001D0F8D70A5091
:10241000085C0B500958D8A001D001D004D00A5054
:10242000085E0B50095AD8900B320A320C2EEFD7A7
:1024300008C008F009C009F012008BC08DF08CC0F4
:102440008EF003D000018D4B8E2B8DC0F6FF8EC019
:10245000F7FF000EF86E0C0EF76403D00800F5507D
:1024600005D0F6CFE9FFF7CFEAFFEF500009D8A477
:1024700001D001D0E7D700018B518D5D8B6F8C515E
:102480008E598C6F120004500310D8A401D001D0D3
:102490000FD01DD003C0D9FF04C0DAFF01C0E1FF97
:1024A00002C0E2FFDFCFE7FF014A022A034A042A03
:1024B00003C0D9FF04C0DAFFDF50D8A401D001D097
:1024C000E9D701C0D9FF02C0DAFF000EDF6E1200AB
:1024D00001C003F002C004F002D0034A042A03C082
:1024E000F6FF04C0F7FF000EF86E0C0EF76403D081
:1024F0000800F55005D0F6CFE9FFF7CFEAFFEF501F
:102500000009D8A401D001D0E8D70150035C016EC6
:1025100002500458026E12001CC024F01DC025F0A9
:10252000266A276A1F0E226E000E236E0F0E236E80
:102530005F0E2264236A000E0E6E240E0D6E1EC006
:102540000FF0000E116E220E106EA5EC08F024C0E4
:10255000D9FF25C0DAFF000EDF6E12000601060E5D
:102560000001A76F0601000E0001A66F430EA86FC1
:102570006EC0A9F06FC0AAF074C0ABF075C0ACF02B
:10258000CFEC12F0744B752B0601060E0001926F12
:102590000601000E0001916FE3EC0FF01200A6C0DF
:1025A000AFF0A7C0B0F0B16BB26B000EAE6FA90E6A
:1025B000AD6F000E986FAF0E976FA8C099F0000E28
:1025C0009B6FAD0E9A6FB8EC06F0AFC0D9FFB0C0EC
:1025D000DAFF000EDF6E12000601060E1D6E000E01
:1025E0001C6E430E1E6E6EC01FF074C020F075C0CE
:1025F00021F08CEC12F00001744B752B0601060ED5
:10260000086E000E076E24EC10F012008BC08FF0E5
:102610008CC090F004D08F4B902B8D4B8E2B8DC0A7
:10262000D9FF8EC0DAFF8FC0E1FF90C0E2FFDFCF9D
:10263000E7FFE750D8A401D001D0EDD7120001C0C8
:1026400005F002C006F004D0054A062A034A042A0F
:1026500003C0D9FF04C0DAFF05C0E1FF06C0E2FFF6
:10266000DFCFE7FFE750D8A401D001D0EDD71200AB
:10267000000E556E010E546EC58694869488C78EE2
:10268000280EC66E280EC86E9D8601010269036978
:10269000706971694A6A4B6A1200700ED312926AAD
:1026A000F1EC13F091EC13F0C0EC13F061EC13F0CB
:1026B000F28EF28CF3EC13F04BEC0DF0FBD70CEF39
:1026C00000F082EC13F0926A38EC13F0000E000177
:1026D0008C6F140E8B6F270E8E6F3E0E8D6FA1ECDC
:1026E0000FF012004AC0D9FF4BC0DAFFDE50DD10F8
:1026F000D8B401D001D003D0E7EC0BF002D045EC08
:102700000BF01200AB8E948E948CAC9CAC8AAC987F
:10271000AC86AB88AC84B886220EAF6E9D989D8A3D
:102720001200AC9CAC8AAC98AC84B886220EAF6E1A
:10273000948E948CAB9CAB8EAB98AB881200000E41
:102740008C6F4F0E8B6F250E8E6F5C0E8D6F26EC8F
:1027500011F01200180E066EF00E056E000E086ED7
:10276000000E076E77EC0EF01200000E026E4F0E98
:10277000016E250E046ED80E036E51EC11F012009E
:102780003E6A3F6A406A416A426A436A446A456AED
:102790001200E8CF8BF09EA801D001D0FCD78BC0EF
:1027A000ADFF12003E6A3F6A406A416A426A436A6C
:1027B000446A456A1200E8CF01F09EA801D001D01A
:1027C000FCD701C0ADFF1200E8CF8CF000018C51A6
:1027D000C9EC13F01200E8CF02F00250DBEC13F06A
:0827E0001200936A12001200BE
:020000040020DA
:08000000FFFFFFFFFFFFFFFF00
:020000040030CA
:0E000000FF09191EFF8080FF0FC00FE00F40A8
:00000001FF
