:040000000CEF00F011
:10000800FACF40F0FBCF41F0E9CF42F0B1ED07F075
:04001800FAEF08F003
:100D000001000A006400E80310275375636B206933
:100D10007420746869732069732061207265616C46
:100D20006C79206C6F6E67207265717565737420C5
:100D30006E6F7420757375616C6C79206176616972
:100D40006C61626C65206F6E2069326300506920AF
:100D5000697320657175616C20746F202564206152
:100D60006E642068656C6C6F202D3E200A00257330
:100D7000222573223A20222573222C0A7D00257316
:100D8000222573223A2025642C0A7D00286E756C7A
:100D90006C2900222573222573007B0A7D002C0A12
:100DA000003A200070690000C7A601D001D015D01C
:100DB000C7B401D001D011D0C7BA01D001D00DD035
:100DC000C7A001D001D009D0C9CF3CF03D6AC68888
:100DD000000E146E000E136E00D0C7B601D001D005
:100DE00004D0C7A801D001D03ED0C7B401D001D0F3
:100DF0003AD0C7AA01D001D036D0C7A001D001D0C7
:100E000032D0C9CF3EF03F6A01016A0E1324D96E79
:100E10000101010E1420DA6E3EC0DFFF01016A0EEF
:100E20001324D96E0101010E1420DA6EDF50D8A40C
:100E300001D001D014D02A502910D8B401D001D04B
:100E40000ED029C038F02AC039F00101010E3B6EE6
:100E500001016A0E3A6E13EC08F001D000D0134A7B
:100E6000142AC6887DD0C7A601D001D035D0C7A42A
:100E700001D001D031D0C7BA01D001D02DD0285037
:100E80002710D8A401D001D01BD02C502B10D8B4DF
:100E900001D001D00CD001D809D00500FA6E2B503A
:100EA000FD6E2C50FE6EFF6AFA50120000D0000E4C
:100EB000286E010E276E000E166E000E156E00D005
:100EC00001016A0E1524D96E0101010E1620DA6E99
:100ED000DF50C96EC68844D0C7A601D001D030D03B
:100EE000C7A401D001D02CD0C7AA01D001D028D0EE
:100EF000C7B001D001D024D0010E1524156E000E0C
:100F00001620166E01016A0E1524D96E0101010E1C
:100F10001620DA6EDF50C96E01016A0E1524D96EF3
:100F20000101010E1620DA6EDF50D8A401D001D0E5
:100F300005D0000E286E000E276E00D0C68810D097
:100F4000C7A601D001D00CD0C7AA01D001D008D0CB
:100F5000C7B001D001D004D003D002D001D000D05E
:100F600012000600EACF43F0E1CF44F0E2CF45F0B3
:100F7000D9CF46F0DACF47F0F3CF48F0F4CF49F0BD
:100F8000F6CF4AF0F7CF4BF0F8CF4CF0F5CF4DF05D
:100F90009EA601D001D014D09E9626502510D8B41C
:100FA00001D001D003D0D4EC06F000D02E502D108B
:100FB000D8B401D001D004D090EC09F001D000D019
:100FC000F2A401D001D004D0F29485EC09F000D055
:100FD0009EAA01D001D003D039EC09F000D09EA820
:100FE00001D001D003D073EC08F000D04DC0F5FF64
:100FF0004CC0F8FF4BC0F7FF4AC0F6FF49C0F4FFF2
:1010000048C0F3FF47C0DAFF46C0D9FF45C0E2FF42
:1010100044C0E1FF43C0EAFF42C0E9FF41C0FBFF1B
:1010200040C0FAFF11001A501910D8A401D001D005
:1010300011D00301030E356E0301000E346E3AC069
:1010400036F03BC037F0B8EC08F038C019F039C0C2
:101050001AF048D01C501B10D8A401D001D011D0D8
:101060000301030E356E0301640E346E3AC036F090
:101070003BC037F0B8EC08F038C01BF039C01CF0AA
:1010800031D01E501D10D8A401D001D011D00401C0
:10109000040E356E0401000E346E3AC036F03BC0CB
:1010A00037F0B8EC08F038C01DF039C01EF01AD087
:1010B00020501F10D8A401D001D014D00401040E78
:1010C000356E0401640E346E3AC036F03BC037F022
:1010D000B8EC08F038C01FF039C020F003D002D0BF
:1010E00001D000D0120024502310D8B401D001D078
:1010F00002D09D983CD00201640E2F24D96E0201CB
:10110000020E3020DA6EDF50D8A401D001D00FD00B
:10111000000EAD6E000E306E000E2F6E000E326EA1
:10112000000E316E000E246E010E236E20D00201DF
:10113000640E2F24D96E0201020E3020DA6E010EE9
:10114000DF6201D001D005D0000EAD6E2F4A302AEB
:101150000ED00201640E2F24D96E0201020E30203F
:10116000DA6EDF50AD6E2F4A302A01D000D0120067
:1011700037503610D8A401D001D01ED03AD039D083
:101180001BD036C0F6FF37C0F7FF000EF86E34C034
:10119000D9FF35C0DAFF0C0EF76403D00800F55014
:1011A00005D0F6CFE9FFF7CFEAFFEF50DF6E344A04
:1011B000352A364A372A00D036C0F6FF37C0F7FF47
:1011C000000EF86E0C0EF76403D00800F55005D041
:1011D000F6CFE9FFF7CFEAFFEF500009D8A401D01E
:1011E00001D0CFD700D034C0D9FF35C0DAFF000E10
:1011F000DF6E120008EE00F0C80EEE6AE806FDE1B0
:1012000007EE00F0D40EEE6AE806FDE106EE00F00F
:10121000C80EEE6AE806FDE105EE00F0C80EEE6AC3
:10122000E806FDE104EE00F0C80EEE6AE806FDE116
:1012300003EE00F0C80EEE6AE806FDE102EE00F0F3
:10124000C80EEE6AE806FDE101EE00F0CE0EEE6A91
:10125000E806FDE100EE60F07E0EEE6AE806FDE1D4
:1012600000EE01F0330EEE6AE806FDE1000171EFD9
:1012700009F0ABCF3CF0AECF3DF03D6601D001D0E0
:1012800023D00201000E1124D96E0201020E122099
:10129000DA6E000EDF6E000E126E000E116E185028
:1012A0001710D8B401D001D01BD017C038F018C027
:1012B00039F00201020E3B6E0201000E3A6E13EC91
:1012C00008F00ED00DD00CD00201000E1124D96E02
:1012D0000201020E1220DA6E3DC0DFFF114A122A0F
:1012E0001200D388D38AD38CF28EF28C180E946EAF
:1012F000C686C694C692C690C78EC68AC580090E99
:10130000C86EA20EC96E0CEF00F0000E396E000E12
:10131000386E000E3B6E000E3A6E13EC08F01200B1
:0413200089741200BA
:020000040020DA
:08000000FFFFFFFFFFFFFFFF00
:020000040030CA
:0E000000FF09191EFF8080FF0FC00FE00F40A8
:00000001FF
