:040000000CEF00F011
:10000800FACFCEF0FBCFCFF0E9CFD0F05EED09F01C
:0400180084EF0BF076
:100D000001000A006400E8031027257322257322DE
:100D10003A20222573222C0A7D0025732225732276
:100D20003A2025642C0A7D00286E756C6C290022FF
:100D300025732225730068656C6C6F00776F640003
:100D40006F6575007B0A7D002C0A003A20000000C8
:100D5000100E1B6EE9D02050250AD8B401D001D066
:100D600009D00DC0D9FF0EC0DAFF20C0DFFF0D4A49
:100D70000E2ADAD0196A45D01B50D96EDA6ADECF56
:100D80001CF0DDCF1DF0020E1B261D501C10D8A438
:100D900001D001D01FD0280E1C6E0D0E1D6E1AD072
:100DA0001CC0F6FF1DC0F7FF000EF86E0DC0D9FF86
:100DB0000EC0DAFF0C0EF76403D00800F55005D022
:100DC000F6CFE9FFF7CFEAFFEF50DF6E1C4A1D2A8E
:100DD0000D4A0E2A1CC0F6FF1DC0F7FF000EF86E6C
:100DE0000C0EF76403D00800F55005D0F6CFE9FFEC
:100DF000F7CFEAFFEF500009D8A401D001D0D0D737
:100E000093D00F2A0F04166E16C0F6FF0D0EF76E64
:100E1000000EF86E0800F5CF20F02050000AD8B47C
:100E200093D0640AD8B407D00D0AD8B404D01A0AF3
:100E3000D8B4A2D779D01B50D96EDA6ADECF1CF0B5
:100E4000DDCF1DF0020E1B261DAE01D001D006D055
:100E5000030E19121C6C1D1ED8B01D2A010E206E27
:100E60002050020DF350000F166E16C0F6FF0D0E47
:100E7000F76E000EF86E0900F5CF17F00900F5CFF8
:100E800018F017501C5C18501D58D8B001D001D074
:100E900001D007D0202A2050050AD8A401D001D0C3
:100EA000DFD71950030BD8B401D001D008D00DC042
:100EB000D9FF0EC0DAFF2D0EDF6E0D4A0E2A20C0BC
:100EC0001AF02CD01A50020DF350000F166E16C0F7
:100ED000F6FF0D0EF76E000EF86E0900F5CF03F069
:100EE0000A00F5CF04F01CC001F01DC002F0A1EC17
:100EF0000CF001C008F002C009F0000E0B6E0A0EE3
:100F00000A6EF9EC0CF00850300F206E0DC0D9FFBE
:100F10000EC0DAFF20C0DFFF0D4A0E2A1A061A287B
:100F2000D8A401D001D0CED70F2A0F04166E16C058
:100F3000F6FF0D0EF76E000EF86E0800F5CF20F0EC
:100F4000206601D001D007D70DC0D9FF0EC0DAFF4F
:100F5000000EDF6E1200C7A601D001D010D0C7B4BA
:100F600001D001D00CD0C7BA01D001D008D0C7A0A1
:100F700001D001D004D0C950C6883C6A3D6AC7B6CA
:100F800001D001D004D0C7A801D001D037D0C7B458
:100F900001D001D033D0C7AA01D001D02FD0C7A033
:100FA00001D001D02BD0C9CF09F00A6A01016C0E23
:100FB0003C24D96E010E3D20DA6E09C0DFFF6C0EB5
:100FC0003C24D96E010E3D20DA6EDF50D8A401D04A
:100FD00001D010D04F504E10D8B401D001D00AD05B
:100FE0004EC005F04FC006F0010E086E6C0E076E85
:100FF000BDEC09F03C4A3D2AC6886CD0C7A601D09A
:1010000001D031D0C7A401D001D02DD0C7BA01D0B2
:1010100001D029D00001E351E211D8A401D001D0C0
:1010200018D051505010D8B401D001D00BD001D8F5
:1010300009D00500FA6E5050FD6E5150FE6EFF6AE9
:10104000FA501200000E0001E36F010EE26F3E6ADB
:101050003F6A01016C0E3E24D96E010E3F20DA6E0C
:10106000DF50C96EC9D7C7A601D001D026D0C7A40A
:1010700001D001D022D0C7AA01D001D01ED0C7B064
:1010800001D001D01AD03E4A3F2A01016C0E3E2405
:10109000D96E010E3F20DA6EDF50C96E6C0E3E2411
:1010A000D96E010E3F20DA6EDF50D8A401D001D0F6
:1010B000A3D70001E26BE36B9FD7C7A601D001D095
:1010C00009D0C7AA01D001D005D0C7B001D001D046
:1010D00001D000D0120052045310D8A401D001D086
:1010E0000ED04CC0D9FF4DC0DAFFDF50096ED8904A
:1010F0000934C96E000E536E020E526E78D05250F3
:10110000020A5310D8B401D001D007D05250030ABC
:101110005310D8A401D001D047D020EE68F04C5035
:10112000D9264D50DA2210EE66F04C50E1264D5093
:10113000E222E652DE52E550800A096EDD50800A56
:10114000095C02E1DF50E75CD8B001D001D026D0C5
:1011500020EE66F04C50D9264D50DA22DECF09F051
:10116000DDCF0AF009504C240B6E0A504D200C6E56
:10117000020E0B24D96E000E0C20DA6EDF50C96E01
:1011800020EE66F04C50D9264D50DA22DE2A000EB1
:10119000DD22000E536E030E526E29D0C584000E60
:1011A000536E040E526E23D05250040A5310D8A42A
:1011B00001D001D01CD020EE6AF04C50D9264D5001
:1011C000DA22DECF05F0DDCF06F0000E086E000E4D
:1011D000076EBDEC09F04CC0D9FF4DC0DAFFFF0E21
:1011E000DE6EFF0EDD6E4C6A4D6ACEEC0CF0120026
:1011F0002D502C10D8B401D001D01BD038C001F034
:1012000039C002F02EC003F02FC004F0FFEC0AF04A
:1012100002500110D8A401D001D00BD001D809D0C0
:101220000500FA6E2C50FD6E2D50FE6EFF6AFA50CE
:10123000120031503010D8B401D001D01BD038C0CA
:1012400001F039C002F032C003F033C004F0FFEC0B
:101250000AF002500110D8A401D001D00BD001D85F
:1012600009D00500FA6E3050FD6E3150FE6EFF6AF7
:10127000FA50120035503410D8B401D001D01BD030
:1012800038C001F039C002F036C003F037C004F0B6
:10129000FFEC0AF002500110D8A401D001D00BD00D
:1012A00001D809D00500FA6E3450FD6E3550FE6E3F
:1012B000FF6AFA501200384A392A12000600EACFB3
:1012C000D1F0E1CFD2F0E2CFD3F0D9CFD4F0DACF62
:1012D000D5F0F3CFD6F0F4CFD7F0F6CFD8F0F7CFE4
:1012E000D9F0F8CFDAF0F5CFDBF09EA601D001D02F
:1012F00012D09E964B504A10D8B401D001D002D0E3
:10130000ABEC07F0000161516011D8B401D001D0FD
:1013100002D06BEC08F0F2A401D001D003D0F2941B
:10132000DFEC0DF09EAA01D001D002D072EC0CF0DF
:101330009EA801D001D002D03BEC0CF0B8EC0AF032
:10134000DBC0F5FFDAC0F8FFD9C0F7FFD8C0F6FF61
:10135000D7C0F4FFD6C0F3FFD5C0DAFFD4C0D9FFA1
:10136000D3C0E2FFD2C0E1FFD1C0EAFFD0C0E9FFA5
:10137000CFC0FBFFCEC0FAFF110043504210D8A4EB
:1013800001D001D010D00301030E026E960E016E43
:1013900007C003F008C004F020EC0DF005C042F0D7
:1013A00006C043F042D045504410D8A401D001D02B
:1013B00010D00401040E026E000E016E07C003F08F
:1013C00008C004F020EC0DF005C044F006C045F064
:1013D0002CD047504610D8A401D001D010D0040121
:1013E000040E026E640E016E07C003F008C004F024
:1013F00020EC0DF005C046F006C047F016D049506D
:101400004810D8A401D001D010D00501050E026EFD
:10141000000E016E07C003F008C004F020EC0DF0D0
:1014200005C048F006C049F000D012000301030EC9
:10143000226E000E216EF3EC0DF00001E44BE52B63
:101440000301030E226E000E216E360E236E3C0E3B
:10145000246EC3EC0BF00301030E226E000E216E0E
:10146000400E236EE4C024F0E5C025F0FFEC0BF045
:10147000000E0C6E4F0E0B6E0301030E0E6E000E6F
:101480000D6E030E026E000E016E45EC0DF001C0F4
:101490000FF002C010F01B0E126E640E116E6BEC9A
:1014A0000AF0000E0C6E4F0E0B6E0301030E0E6E53
:1014B000000E0D6E030E026E000E016E45EC0DF077
:1014C00001C00FF002C010F01B0E126E640E116E00
:1014D0006BEC0AF0120000016229D8B46329D8A489
:1014E00001D001D01ED00BC062F00CC063F0000E22
:1014F000026E640E016E0DC003F00EC004F00FC04A
:1015000005F010C006F069EC0DF00001C86BC96B66
:101510000FC0CAF010C0CBF011C0CCF012C0CDF09B
:1015200024D001010029D8B40129D8A401D001D0C8
:101530001CD00BC000F10CC001F1666B676B010E93
:10154000026E020E016E0DC003F00EC004F00FC05B
:1015500005F010C006F069EC0DF00FC068F110C086
:1015600069F111C06AF112C06BF1CEEC0CF01200FF
:1015700043504210D8B401D001D00BD001D809D0CB
:101580000500FA6E4250FD6E4350FE6EFF6AFA503F
:10159000120045504410D8B401D001D00BD001D86E
:1015A00009D00500FA6E4450FD6E4550FE6EFF6A8C
:1015B000FA50120047504610D8B401D001D00BD0D9
:1015C00001D809D00500FA6E4650FD6E4750FE6EF8
:1015D000FF6AFA50120049504810D8B401D001D027
:1015E0000BD001D809D00500FA6E4850FD6E495065
:1015F000FE6EFF6AFA501200FCEC0DF01200066A53
:1016000002AE01D001D006D0016C021ED8B0022A71
:10161000010E066E04AE01D001D004D0036C041E8E
:10162000D8B0042A04500310D8B401D001D01CD083
:10163000010E056E04D0D89003360436052A04AE98
:1016400001D001D0F8D70350015C04500258D8A053
:1016500001D001D004D00350015E0450025AD8904A
:1016600004320332052EEFD70650D8B401D001D092
:1016700004D0016C021ED8B0022A01C001F002C0E1
:1016800002F01200E66701D001D011D0D58ED58CC2
:10169000D59AD596D550F80B0209D56EF28A2C6AE8
:1016A0002D6A306A316A346A356A010EE66F2D5050
:1016B0002C10D8A401D001D009D0DEC02CF0DFC09E
:1016C0002DF0DCC02EF0DDC02FF01DD031503010D9
:1016D000D8A401D001D009D0DEC030F0DFC031F095
:1016E000DCC032F0DDC033F00ED035503410D8A459
:1016F00001D001D008D0DEC034F0DFC035F0DCC04E
:1017000036F0DDC037F0120008EE00F0C80EEE6AC9
:10171000E806FDE107EE00F0C80EEE6AE806FDE11E
:1017200006EE00F0C80EEE6AE806FDE105EE00F0F8
:10173000640EEE6AE806FDE104EE00F0C80EEE6A03
:10174000E806FDE103EE00F0FA0EEE6AE806FDE1C0
:1017500002EE00F0C80EEE6AE806FDE101EE6CF064
:10176000640EEE6AE806FDE100EEE0F0070EEE6AB8
:10177000E806FDE100EE2CF02A0EEE6AE806FDE137
:101780000001A0EF0DF021C001F022C002F045ECF5
:101790000DF001C027F002C028F0296A2A6A21C092
:1017A00025F022C026F02750252628502622FF0E9D
:1017B0002524D96EFF0E2620DA6E000EDF6E06019C
:1017C000060E026E000E016E21C003F022C004F06E
:1017D00020EC0DF021C00DF022C00EF00A0E0F6EAD
:1017E000060E116E000E106E23C012F00D0E136E59
:1017F00024C014F00D0E156EA8EC06F0120021C0E6
:1018000001F022C002F045EC0DF001C028F002C04A
:1018100029F02A6A2B6A21C026F022C027F028501E
:10182000262629502722FF0E2624D96EFF0E2720B8
:10183000DA6E000EDF6E0601060E026E000E016EFD
:1018400021C003F022C004F020EC0DF021C00DF007
:1018500022C00EF01A0E0F6E060E116E000E106EE4
:1018600023C012F00D0E136E24C014F025C015F025
:10187000A8EC06F012000001E151E011D8B401D04B
:1018800001D002D09D982DD00201640E5424D96E4F
:10189000020E5520DA6EDF50D8A401D001D009D055
:1018A000AD6A546A556A000E0001E16F010EE06FE7
:1018B00018D0640E5424D96E020E5520DA6E010E33
:1018C000DF6201D001D004D0AD6A544A552A09D054
:1018D000640E5424D96E020E5520DA6EDF50AD6EC0
:1018E000F4D71200AB50AECF09F0096601D001D099
:1018F0001CD00201000E3A24D96E020E3B20DA6E93
:10190000000EDF6E3A6A3B6A41504010D8B401D0F5
:1019100001D016D040C005F041C006F0020E086E9E
:10192000000E076EBDEC09F00BD00201000E3A2448
:10193000D96E020E3B20DA6E09C0DFFF3A4A3B2A1D
:101940001200056A066A04500310D8B401D001D011
:1019500020D0010E076E04D0D89003360436072A33
:1019600004AE01D001D0F8D7D89005360636035022
:10197000015C04500258D8A001D001D005D003501A
:10198000015E0450025A0580D89004320332072EBB
:10199000EBD705C001F006C002F012004D504C100C
:1019A000D8A401D001D024D000016229D8B4632981
:1019B000D8B401D001D005D0000E4D6E620E4C6E31
:1019C0000CD001010029D8B40129D8B401D001D02C
:1019D00004D0010E4D6E000E4C6E4D504C10D8B41C
:1019E00001D001D005D0000E536E010E526EC5809D
:1019F00012000B500A10D8B401D001D01CD0010E37
:101A00000C6E04D0D8900A360B360C2A0BAE01D0DF
:101A100001D0F8D70A50085C0B500958D8A001D063
:101A200001D004D00A50085E0B50095AD8900B32EE
:101A30000A320C2EEFD708C008F009C009F01200D6
:101A400004500310D8A401D001D00FD01DD003C082
:101A5000D9FF04C0DAFF01C0E1FF02C0E2FFDFCF1F
:101A6000E7FF014A022A034A042A03C0D9FF04C03F
:101A7000DAFFDF50D8A401D001D0E9D701C0D9FFE7
:101A800002C0DAFF000EDF6E120001C003F002C0D8
:101A900004F002D0034A042A03C0F6FF04C0F7FF93
:101AA000000EF86E0C0EF76403D00800F55005D058
:101AB000F6CFE9FFF7CFEAFFEF500009D8A401D035
:101AC00001D0E8D70150035C016E02500458026E49
:101AD000120003C009F004C00AF001C007F002C000
:101AE00008F00ED009C0D9FF0AC0DAFF07C0E1FF35
:101AF00008C0E2FFDFCFE7FF094A0A2A074A082A9F
:101B00000506D8A006060528D8B40628D8A401D012
:101B100001D0E8D71200000E0001616F010E606F66
:101B200094869488C78E280EC66E0A0EC86E9D864F
:101B3000626963690101006901694C6A4D6A1200BA
:101B4000700ED312926A05EC0EF0D1EC0DF0EAECB7
:101B50000DF0C2EC0DF0F28EF28C07EC0EF0FDD71A
:101B60000CEF00F0016A026A8972014A022A0250EF
:101B7000800A800F0A0ED8B4015CD8A001D001D031
:101B8000F3D71200926A8BEC0DF0000E0001DD6FAE
:101B90000C0EDC6F140EDF6F2C0EDE6F42EC0BF0C0
:101BA0001200AC9CAC8AAC98AC84B896190EAF6E9F
:101BB000948E948CAB9CAB8EAB98AB881200110EBC
:101BC000066EF00E056E000E086E000E076EBDEC80
:101BD00009F01200426A436A446A456A466A476AE3
:101BE000486A496A120021C00DF022C00EF0440E6E
:101BF0000F6EA8EC06F01200426A436A446A456A16
:101C0000466A476A486A496A1200936A12001200DB
:020000040020DA
:08000000FFFFFFFFFFFFFFFF00
:020000040030CA
:0E000000FF09191EFF8080FF0FC00FE00F40A8
:00000001FF
