:040000000CEF00F011
:10000800FACFDCF1FBCFDDF1E9CFDEF108ED0BF043
:0400180097EF0EF060
:100D000001000A006400E8031027257322257322DE
:100D10003A20222573222C0A7D0025732225732276
:100D20003A2025642C0A7D00286E756C6C290073AE
:100D3000656E736F7200222573223A20002225739C
:100D4000222573006E616D650066726F6D002573FC
:100D50000A007B0A7D006D7367006B6579002C0AC1
:100D600000746F000000100E196EE9D01E50250AA5
:100D7000D8B401D001D009D00DC0D9FF0EC0DAFF20
:100D80001EC0DFFF0D4A0E2ADAD0176A45D019506F
:100D9000D96EDA6ADECF1AF0DDCF1BF0020E19260B
:100DA0001B501A10D8A401D001D01FD0280E1A6EE3
:100DB0000D0E1B6E1AD01AC0F6FF1BC0F7FF000EF7
:100DC000F86E0DC0D9FF0EC0DAFF0C0EF76403D029
:100DD0000800F55005D0F6CFE9FFF7CFEAFFEF5056
:100DE000DF6E1A4A1B2A0D4A0E2A1AC0F6FF1BC0D4
:100DF000F7FF000EF86E0C0EF76403D00800F550F4
:100E000005D0F6CFE9FFF7CFEAFFEF500009D8A4ED
:100E100001D001D0D0D793D00F2A0F04146E14C084
:100E2000F6FF0D0EF76E000EF86E0800F5CF1EF0FF
:100E30001E50000AD8B493D0640AD8B407D00D0A63
:100E4000D8B404D01A0AD8B4A2D779D01950D96E20
:100E5000DA6ADECF1AF0DDCF1BF0020E19261BAEC8
:100E600001D001D006D0030E17121A6C1B1ED8B089
:100E70001B2A010E1E6E1E50020DF350000F146E41
:100E800014C0F6FF0D0EF76E000EF86E0900F5CFD8
:100E900015F00900F5CF16F015501A5C16501B58C6
:100EA000D8B001D001D001D007D01E2A1E50050AAB
:100EB000D8A401D001D0DFD71750030BD8B401D08C
:100EC00001D008D00DC0D9FF0EC0DAFF2D0EDF6EA5
:100ED0000D4A0E2A1EC018F02CD01850020DF350E7
:100EE000000F146E14C0F6FF0D0EF76E000EF86EB4
:100EF0000900F5CF03F00A00F5CF04F01AC001F0A5
:100F00001BC002F0C4EC0EF001C008F002C009F0F2
:100F1000000E0B6E0A0E0A6E6FEC0FF00850300FC9
:100F20001E6E0DC0D9FF0EC0DAFF1EC0DFFF0D4AD6
:100F30000E2A18061828D8A401D001D0CED70F2A1F
:100F40000F04146E14C0F6FF0D0EF76E000EF86E4F
:100F50000800F5CF1EF01E6601D001D007D70DC0E6
:100F6000D9FF0EC0DAFF000EDF6E1200C7A601D057
:100F700001D010D0C7B401D001D00CD0C7BA01D075
:100F800001D008D0C7A001D001D004D0C950C68874
:100F9000416A426AC7B601D001D004D0C7A801D0C7
:100FA00001D037D0C7B401D001D033D0C7AA01D007
:100FB00001D02FD0C7A001D001D02BD0C9CF09F0CC
:100FC0000A6A0201000E4124D96E020E4220DA6E36
:100FD00009C0DFFF000E4124D96E020E4220DA6EF6
:100FE000DF50D8A401D001D010D04E504D10D8B44D
:100FF00001D001D00AD04DC005F04EC006F0020E5F
:10100000086E000E076E2BEC0DF0414A422AC6888E
:101010006BD0C7A601D001D030D0C7A401D001D079
:101020002CD0C7BA01D001D028D077517611D8A4DE
:1010300001D001D018D050504F10D8B401D001D0F9
:101040000BD001D809D00500FA6E4F50FD6E5050FC
:10105000FE6EFF6AFA501200000E0001776F010E5B
:10106000766F436A446A0201000E4324D96E020E71
:101070004420DA6EDF50C96ECAD7C7A601D001D0AE
:1010800026D0C7A401D001D022D0C7AA01D001D058
:101090001ED0C7B001D001D01AD0434A442A020161
:1010A000000E4324D96E020E4420DA6EDF50C96E62
:1010B000000E4324D96E020E4420DA6EDF50D8A40D
:1010C00001D001D0A4D70001766B776BA0D7C7A65B
:1010D00001D001D009D0C7AA01D001D005D0C7B036
:1010E00001D001D001D000D012000001000E0E6E20
:1010F000790E0D6E3D0E0F6E21C010F00D0E116EAB
:101100003A0E126E0D0E136EB3EC06F01FC00CF00B
:1011100020C00DF00001000E0F6E790E0E6E95ECE2
:101120000CF00CC039F00DC03AF039C00CF03AC0E8
:101130000DF03B0E0E6E0D0E0F6E95EC0CF00CC00C
:1011400039F00DC03AF0394A3A2A3A503910D8B439
:1011500001D001D07AD039C00CF03AC00DF05E0E4B
:101160000E6E0D0E0F6E95EC0CF00CC030F00DC035
:1011700031F039C001F03AC002F0BBEC0FF001C011
:1011800028F002C029F02A6A2B6A30C001F031C071
:1011900002F0BBEC0FF001C02CF002C02DF02E6A63
:1011A0002F6A2C50285C326E2D502958336E2E50E9
:1011B0002A58346E2F502B58356E366A376A0FD046
:1011C00036503924D96E37503A20DA6E3650000145
:1011D000790FE16EE26ADFCFE7FF364A372A36C081
:1011E00024F037C025F0000E25BEFF0E266E276EB8
:1011F0003250245C335025583450265835502758E7
:10120000D8A001D001D0DCD732500001790FD96EBF
:10121000DA6A000EDF6E790E386E382A38C001F0B7
:10122000026ABBEC0FF038500124D96EDA6AFF0E67
:10123000D926DA6A000EDF6E22C001F023C002F068
:1012400038C003F0046A96EC0FF012000001000EA3
:101250000E6E790E0D6E360E0F6E21C010F00D0E53
:10126000116EB3EC06F01FC00CF020C00DF00001B1
:10127000000E0F6E790E0E6E95EC0CF00CC030F077
:101280000DC031F030C00CF031C00DF03B0E0E6ED1
:101290000D0E0F6E95EC0CF00CC030F00DC031F05F
:1012A000304A312A31503010D8B401D001D078D032
:1012B00030C00CF031C00DF05E0E0E6E0D0E0F6ED4
:1012C00095EC0CF00CC023F00DC024F030C001F000
:1012D00031C002F0BBEC0FF001C025F002C026F0D7
:1012E00023C001F024C002F0BBEC0FF001C027F0D6
:1012F00002C028F02750255C2B6E285026582C6EF3
:101300002D6A2E6A0FD02D503024D96E2E503120E8
:10131000DA6E2D500001790FE16EE26ADFCFE7FF50
:101320002D4A2E2A2E50800A226E2B502D5C2C50D6
:10133000800A2258D8A001D001D0E5D72B50000157
:10134000790FD96EDA6A000EDF6E7951220AD8A4BD
:1013500001D001D019D0790E2F6E2F2A2FC001F0A5
:10136000026ABBEC0FF02F500124D96EDA6AFF0E2F
:10137000D926DA6A000EDF6E2F50DAEC0BF007C0C8
:1013800029F008C02AF007D0790EDAEC0BF007C07C
:1013900029F008C02AF029C01FF02AC020F004D08C
:1013A000020E206E9A0E1F6E120051045210D8A425
:1013B00001D001D010D020EE02F04B50D9264C5075
:1013C000DA22DF50096ED8800934C96E000E526EE1
:1013D000060E516E8BD05150060A5210D8A401D07F
:1013E00001D006D0C586000E526E050E516E7ED01D
:1013F0005150020A5210D8B401D001D007D0515038
:10140000050A5210D8A401D001D048D020EE6AF0CD
:101410004B50D9264C50DA22DECF09F0DDCF0AF04E
:1014200009504B240B6E0A504C200C6E040E0B24FA
:10143000D96E000E0C20DA6EC9CFDFFF20EE6AF005
:101440004B50D9264C50DA22DECF09F0DDCF0AF01E
:1014500009504B240B6E0A504C200C6E040E0B24CA
:10146000D96E000E0C20DA6EDF50D8A401D001D066
:1014700006D0C584000E526E040E516E05D0000ECB
:10148000526E060E516EC58820EE6AF04B50D9267A
:101490004C50DA22DE2A000EDD2228D05150040AF8
:1014A0005210D8A401D001D021D020EE6CF04B50C6
:1014B000D9264C50DA22DECF05F0DDCF06F0040E3F
:1014C0004B24076E000E4C20086E2BEC0DF020EE26
:1014D00002F04B50D9264C50DA22FF0EDE6EFF0E82
:1014E000DD6E4B6A4C6A1CEC0FF000D01200510408
:1014F0005210D8A401D001D010D020EE02F04B50F1
:10150000D9264C50DA22DF50096ED8900934C96EC2
:10151000000E526E020E516E7AD05150020A5210D5
:10152000D8B401D001D007D05150030A5210D8A42A
:1015300001D001D047D020EE6AF04B50D9264C5054
:10154000DA2210EE68F04B50E1264C50E222E652CF
:10155000DE52E550800A096EDD50800A095C02E126
:10156000DF50E75CD8B001D001D026D020EE68F083
:101570004B50D9264C50DA22DECF09F0DDCF0AF0ED
:1015800009504B240B6E0A504C200C6E040E0B2499
:10159000D96E000E0C20DA6EDF50C96E20EE68F0B6
:1015A0004B50D9264C50DA22DE2A000EDD22000EE6
:1015B000526E030E516E2BD0C584000E526E040E77
:1015C000516E25D05150040A5210D8A401D001D038
:1015D0001ED020EE6CF04B50D9264C50DA22DECFD4
:1015E00005F0DDCF06F0000E086E000E076E2BEC46
:1015F0000DF020EE02F04B50D9264C50DA22FF0EAF
:10160000DE6EFF0EDD6E4B6A4C6A1CEC0FF01200B2
:101610000600EACFDFF1E1CFE0F1E2CFE1F1D9CF8F
:10162000E2F1DACFE3F1F3CFE4F1F4CFE5F1F6CF75
:10163000E6F1F7CFE7F1F8CFE8F1F5CFE9F19EA6B3
:1016400001D001D013D09E96000175517411D8B409
:1016500001D001D002D0B6EC07F00001F651F5112F
:10166000D8B401D001D002D07CEC10F0F2A401D0AB
:1016700001D003D0F294B5EC10F09EAA01D001D0B5
:1016800002D066EC0EF09EA801D001D002D0F5EC9D
:101690000DF0E6EC0CF000016F516E11D8B401D0E2
:1016A00001D002D0C0EC10F0E9C1F5FFE8C1F8FFAD
:1016B000E7C1F7FFE6C1F6FFE5C1F4FFE4C1F3FFC0
:1016C000E3C1DAFFE2C1D9FFE1C1E2FFE0C1E1FF1E
:1016D000DFC1EAFFDEC1E9FFDDC1FBFFDCC1FAFFCC
:1016E0001100000161516011D8B401D001D01BD0AC
:1016F0003BC001F03CC002F062C003F063C004F0E4
:1017000070EC0DF002500110D8A401D001D00BD024
:1017100001D809D00500FA6E6051FD6E6151FE6E70
:10172000FF6AFA501200000165516411D8B401D06B
:1017300001D01BD03BC001F03CC002F066C003F0FA
:1017400067C004F070EC0DF002500110D8A401D075
:1017500001D00BD001D809D00500FA6E6451FD6E9E
:101760006551FE6EFF6AFA5012000001695168115E
:10177000D8B401D001D01BD03BC001F03CC002F076
:101780006AC003F06BC004F070EC0DF00250011061
:10179000D8A401D001D00BD001D809D00500FA6E31
:1017A0006851FD6E6951FE6EFF6AFA5012003B4AA5
:1017B0003C2A1200E8CF0EF001D00E2A0E50D96E4E
:1017C000DA6ADF50200AD8B401D001D0F6D70E5023
:1017D000D96EDA6ADF50090AD8B401D001D0EDD74A
:1017E0000C6A0D6A0B6A0E50D96EDA6A2D0EDF6232
:1017F00001D001D003D00B2A0E2A22D00E50D96E70
:10180000DA6A2B0EDF6201D001D01AD00E2A18D06E
:101810000CC001F00DC002F0000E046E0A0E036E43
:10182000FBEC0FF00E50D96EDA6ADF500126000E85
:101830000222D00E01240C6EFF0E02200D6EE6D7A0
:101840000E50D96EDA6ADF5058EC10F0D8B001D0E3
:1018500001D0DED70B50D8B401D001D00DD00CC0D0
:1018600009F00DC00AF0091E0A1E094A0A2A09C019
:1018700007F00AC008F004D00CC007F00DC008F053
:10188000120046D005C0D9FF06C0DAFFDF50D8B439
:1018900001D001D01CD007C0F6FF08C0F7FF000E32
:1018A000F86E0C0EF76403D00800F55005D0F6CFA3
:1018B000E9FFF7CFEAFFEF500B6E05C0D9FF06C076
:1018C000DAFFDF500B18D8B401D001D01DD005C00D
:1018D000D9FF06C0DAFFDF500B6E07C0F6FF08C065
:1018E000F7FF000EF86E0C0EF76403D00800F550F9
:1018F00005D0F6CFE9FFF7CFEAFFEF500B5C056E9E
:10190000066AD8A0060610D0054A062A074A082A01
:101910000906D8A00A060928D8B40A28D8A401D0F4
:1019200001D0B0D7056A066A12003ED00CC005F09F
:101930000DC006F00EC007F00FC008F00EC001F099
:101940000FC002F0BBEC0FF001C009F002C00AF0BA
:1019500041EC0CF006500510D8A401D001D005D000
:101960000CC00CF00DC00DF030D0010E0C24016E37
:10197000000E0D20026E0EC0F6FF0FC0F7FF000E26
:10198000F86E0C0EF76403D00800F55005D0F6CFC2
:10199000E9FFF7CFEAFFEF50036E046ADFEC0FF0C8
:1019A00001C00CF002C00DF00D500C10D8B401D0E5
:1019B00001D009D00CC0D9FF0DC0DAFFDF50D8A488
:1019C00001D001D0B3D70C6A0D6A12004650451001
:1019D000D8B401D001D010D00301030E3E6E640EC6
:1019E0003D6E01D809D00500FA6E4550FD6E465097
:1019F000FE6EFF6AFA50120048504710D8B401D06A
:101A000001D010D00401040E3E6E000E3D6E01D8D0
:101A100009D00500FA6E4750FD6E4850FE6EFF6A11
:101A2000FA5012004A504910D8B401D001D010D059
:101A30000401040E3E6E640E3D6E01D809D005000F
:101A4000FA6E4950FD6E4A50FE6EFF6AFA5012005F
:101A5000E8EC10F0120046504510D8A401D001D097
:101A600010D00301030E026E640E016E07C003F076
:101A700008C004F096EC0FF005C045F006C046F033
:101A80002ED048504710D8A401D001D010D0040166
:101A9000040E026E000E016E07C003F008C004F0D1
:101AA00096EC0FF005C047F006C048F018D04A5039
:101AB0004910D8A401D001D010D00401040E026E48
:101AC000640E016E07C003F008C004F096EC0FF03E
:101AD00005C049F006C04AF002D0C0EC10F0120078
:101AE000066A02AE01D001D006D0016C021ED8B049
:101AF000022A010E066E04AE01D001D004D0036CA0
:101B0000041ED8B0042A04500310D8B401D001D068
:101B10001CD0010E056E04D0D89003360436052A79
:101B200004AE01D001D0F8D70350015C0450025834
:101B3000D8A001D001D004D00350015E0450025A55
:101B4000D89004320332052EEFD70650D8B401D016
:101B500001D004D0016C021ED8B0022A01C001F0ED
:101B600002C002F01200786701D001D011D0D58EEA
:101B7000D58CD59AD596D550F80B0209D56EF28A38
:101B8000606B616B646B656B686B696B010E786F82
:101B900061516011D8A401D001D009D0F3C060F028
:101BA000F4C061F0F1C062F0F2C063F01DD0655185
:101BB0006411D8A401D001D009D0F3C064F0F4C0FE
:101BC00065F0F1C066F0F2C067F00ED0695168119F
:101BD000D8A401D001D008D0F3C068F0F4C069F0F7
:101BE000F1C06AF0F2C06BF0120000017351721183
:101BF000D8B401D001D002D09D982FD00201640E3C
:101C00005324D96E020E5420DA6EDF50D8A401D0CE
:101C100001D00BD0AD6A536A546A556A566A000EF9
:101C20000001736F010E726F18D0640E5324D96EC9
:101C3000020E5420DA6E010EDF6201D001D004D012
:101C4000AD6A534A542A09D0640E5324D96E020E49
:101C50005420DA6EDF50AD6EF4D712005650551096
:101C6000D8A401D001D00CD00201020E026E640E85
:101C7000016E07C003F008C004F016EC10F017D096
:101C80000201640E5524D96E020E5620DA6E010E42
:101C9000DF6E650E5524016E020E5620026E07C0DF
:101CA00003F008C004F016EC10F0554A562A07C09D
:101CB00001F008C002F0BBEC0FF0015055260250B5
:101CC00056229D880001726B736B1200AB50AECF31
:101CD00009F0096601D001D01ED00301000E3F2497
:101CE000D96E030E4020DA6E000EDF6E3F6A406A46
:101CF000000171517011D8B401D001D017D070C05B
:101D000005F071C006F00301030E086E000E076EA9
:101D10002BEC0DF00BD00301000E3F24D96E030E07
:101D20004020DA6E09C0DFFF3F4A402A120005EE6C
:101D300000F0C80EEE6AE806FDE104EE00F0C80E01
:101D4000EE6AE806FDE103EE00F0C80EEE6AE80672
:101D5000FDE102EE00F0FA0EEE6AE806FDE101EEAA
:101D600000F0DC0EEE6AE806FDE100EE60F0910E98
:101D7000EE6AE806FDE100EE3BF01C0EEE6AE806B6
:101D8000FDE1000145EF10F0056A066A04500310FA
:101D9000D8B401D001D020D0010E076E04D0D89065
:101DA00003360436072A04AE01D001D0F8D7D89004
:101DB000053606360350015C04500258D8A001D005
:101DC00001D005D00350015E0450025A0580D8901E
:101DD00004320332072EEBD705C001F006C002F033
:101DE000120001010229D8B40329D8A401D001D0DE
:101DF0000DD001C002F102C003F16A6B6B6B03C02E
:101E00006CF104C06DF1006B016B13D07029D8B474
:101E10007129D8A401D001D00CD001C070F102C04A
:101E200071F1D86BD96B03C0DAF104C0DBF16E6BD2
:101E30006F6B1CEC0FF012004C504B10D8A401D06B
:101E400001D023D001010229D8B40329D8B401D08C
:101E500001D005D0010E4C6E000E4B6E0BD07029D8
:101E6000D8B47129D8B401D001D004D0010E4C6E81
:101E70006E0E4B6E4C504B10D8B401D001D005D033
:101E8000000E526E010E516EC58012003DC01FF053
:101E90003EC020F02F0E216E26EC09F03DC01FF051
:101EA0003EC020F0440E216E0201020E236EC80EC9
:101EB000226E75EC08F03DC00DF03EC00EF04E0EE7
:101EC0000F6E0201020E116EC80E106EB3EC06F01A
:101ED0003DC007F03EC008F02EEC0EF012000B5093
:101EE0000A10D8B401D001D01CD0010E0C6E04D061
:101EF000D8900A360B360C2A0BAE01D001D0F8D799
:101F00000A50085C0B500958D8A001D001D004D069
:101F10000A50085E0B50095AD8900B320A320C2E28
:101F2000EFD708C008F009C009F0120004500310F0
:101F3000D8A401D001D00FD01DD003C0D9FF04C058
:101F4000DAFF01C0E1FF02C0E2FFDFCFE7FF014A95
:101F5000022A034A042A03C0D9FF04C0DAFFDF5073
:101F6000D8A401D001D0E9D701C0D9FF02C0DAFF5F
:101F7000000EDF6E120001C003F002C004F002D0B8
:101F8000034A042A03C0F6FF04C0F7FF000EF86EF0
:101F90000C0EF76403D00800F55005D0F6CFE9FF2A
:101FA000F7CFEAFFEF500009D8A401D001D0E8D75D
:101FB0000150035C016E02500458026E120003507F
:101FC00001C0D9FF02C0DAFFDF6201D001D005D025
:101FD00001C001F002C002F00DD001C0D9FF02C063
:101FE000DAFF014A022ADF50D8A401D001D0E7D796
:101FF000016A026A1200056A066A01A001D001D0D6
:1020000004D00350052604500622D8900336043627
:10201000D8900232013202500110D8A401D001D070
:10202000ECD705C001F006C002F0120001C005F0B7
:1020300002C006F004D0054A062A034A042A03C057
:10204000D9FF04C0DAFF05C0E1FF06C0E2FFDFCF21
:10205000E7FFE750D8A401D001D0EDD71200000E61
:102060000001F66F010EF56FC58694869488C78EC1
:10207000280EC66E0A0EC86E9D86010102690369AC
:10208000706971694B6A4C6A1200700ED312EFECE2
:1020900010F09BEC10F0E1EC10F06BEC10F0F28E15
:1020A000F28CA9EC10F0F1EC10F0FDD70CEF00F081
:1020B000E8CF03F0026A3A0E036001D001D007D0E6
:1020C0002F0E036401D001D002D0010E026E02C0B7
:1020D00001F0013012002FEC10F08CEC10F0926A3D
:1020E000000E0001F26F280EF16F210EF46FAC0E9E
:1020F000F36FB3EC0DF012004BC0D9FF4CC0DAFF08
:10210000DE50DD10D8B401D001D003D077EC0AF056
:1021100002D0D5EC09F01200AB8E948E948CAC9C5E
:10212000AC8AAC98AC86AB88AC84B886220EAF6E15
:102130009D989D8A1200AC9CAC8AAC98AC84B88601
:10214000220EAF6E948E948CAB9CAB8EAB98AB880A
:102150001200926A000EF26FFA0EF16F210EF46F08
:10216000960EF36FB3EC0DF01200160E066EE20E33
:10217000056E000E086E000E076E2BEC0DF01200BF
:10218000000E00016F6F010E6E6F926A8980898266
:102190008984FFD712008050F80B6C11896E6C4B4C
:1021A0006D2B070E6C17000E6D171200000E026EDD
:1021B0004F0E016E1E0E046E8C0E036EF1EC0EF0CF
:1021C0001200456A466A476A486A496A4A6A1200C2
:1021D000456A466A476A486A496A4A6A1200936AC7
:0621E000120089761200D6
:020000040020DA
:08000000FFFFFFFFFFFFFFFF00
:020000040030CA
:0E000000FF09191EFF8080FF0FC00FE00F40A8
:00000001FF
