:040000000CEF00F011
:10000800FACF0DF0FBCF0EF0E9CF0FF0FDED0EF0BB
:04001800D6EF0FF020
:100D000001000A006400E80310275375636B206933
:100D10007420746869732069732061207265616C46
:100D20006C79206C6F6E67207265717565737420C5
:100D30006E6F7420757375616C6C79206176616972
:100D40006C61626C65206F6E2069326300506920AF
:100D5000697320657175616C20746F202564206152
:100D60006E642068656C6C6F202D3E200A00257330
:100D7000222573223A20222573222C0A7D00257316
:100D8000222573223A2025642C0A7D007469636B46
:100D900020746F636B2E2E2E0A00286E756C6C29E2
:100DA00000222573222573007B0A7D002C0A003A5D
:100DB0002000706900005ED2000100016F51250A19
:100DC000D8B401D001D043D0000120EE02F00001E0
:100DD0006051D92600016151DA22DE50DD10D8B40D
:100DE00001D001D01CD06FC01BF0000120EE02F03A
:100DF00000016051D92600016151DA22DECF66F090
:100E0000DDCF67F001D80AD00500FA6E0001665107
:100E1000FD6E6751FE6EFF6AFA5012002BD260C061
:100E2000D9FF61C0DAFFDECF66F0DDCF67F066C0C4
:100E3000D9FF67C0DAFF00016FC0DFFF60C0D9FFD4
:100E400061C0DAFFDE2A000EDD2214D213D20001C7
:100E5000666F000E00010001696F00016651B4D099
:100E600027D2D8D0D7D064C0D9FF65C0DAFFDFCF92
:100E700066F0020EDE26DFCF67F0000EDD2266C0D0
:100E8000D9FF67C0DAFF0001DECF6BF00001DDCFD4
:100E90006CF0000100016C516B11D8A401D001D09D
:100EA00077D00D0E000100016C6F9A0E00016B6F80
:100EB0006FD06ED0000120EE02F000016051D92603
:100EC00000016151DA22DE50DD10D8B401D001D02A
:100ED00032D000016BC0F6FF00016CC0F7FF000EBE
:100EE000F86E0C0EF76403D00800F55005D0F6CF6D
:100EF000E9FFF7CFEAFFEF501B6E000120EE02F092
:100F000000016051D92600016151DA22DECF66F07E
:100F1000DDCF67F001D80AD00500FA6E00016651F6
:100F2000FD6E6751FE6EFF6AFA501200000100016B
:100F30006B4B6C2B2DD000016BC0F6FF00016CC019
:100F4000F7FF000EF86E60C0D9FF61C0DAFFDECF98
:100F500066F0DDCF67F066C0D9FF67C0DAFF0C0E20
:100F6000F76403D00800F55005D0F6CFE9FFF7CFBE
:100F7000EAFFEF50DF6E000100016B4B6C2B60C08D
:100F8000D9FF61C0DAFFDE2A000EDD2201D000D0D9
:100F900000016BC0F6FF00016CC0F7FF000EF86E99
:100FA0000C0EF76403D00800F55005D0F6CFE9FF2A
:100FB000F7CFEAFFEF500009D8A401D001D07AD7CB
:100FC00059D158D157D126D00001000162510001FA
:100FD000666F0001000163510001676F0001624B01
:100FE000632B66C0F6FF67C0F7FF000EF86E0800BF
:100FF0000001F5CF6FF000016F51000AD8B458D14D
:10100000640AD8B407D00D0AD8B404D01A0AD8B4E8
:101010002AD730D164C0D9FF65C0DAFFDFCF66F0D0
:10102000020EDE26DFCF67F0000EDD2266C0D9FF9C
:1010300067C0DAFF0001DECF6BF00001DDCF6CF09E
:10104000000100016CAF01D001D00CD0030E0001F3
:1010500000016913000100016B6D00016C1FD8B025
:101060006C2B00D00001666F010E000100016F6F54
:1010700000016651000100016F51050AD8A401D09A
:1010800001D002D030D02FD0000100016F51020DED
:10109000000EF324F66E0D0EF420F76EF86A000EC3
:1010A000F8220900F5CF66F00900F5CF67F00001DE
:1010B0006651000100016B5D0001675100010001F4
:1010C0006C59D8B001D001D002D00DD00CD00001A5
:1010D00000016F2B000100016F51050AD8A401D057
:1010E00001D0D2D700D0000100016951030BD8B460
:1010F00001D001D046D0000120EE02F00001605185
:10110000D92600016151DA22DE50DD10D8B401D0B9
:1011100001D020D00001666F2D0E1B6E00016651BC
:10112000000120EE02F000016051D926000161515A
:10113000DA22DECF67F0DDCF68F001D80AD00500F3
:10114000FA6E00016751FD6E6851FE6EFF6AFA503B
:10115000120017D060C0D9FF61C0DAFFDECF66F0A1
:10116000DDCF67F066C0D9FF67C0DAFF2D0EDF6EF6
:1011700060C0D9FF61C0DAFFDE2A000EDD2201D097
:1011800000D06FC06AF06BD0000100016A51020DFF
:10119000000EF324F66E0D0EF420F76EF86A000EC2
:1011A000F8220900F5CF1DF00A00F5CF1EF06BC044
:1011B0001BF06CC01CF047EC10F01BC023F01CC0EF
:1011C00024F0000E266E0A0E256E13EC11F023504B
:1011D000300F000100016F6F000120EE02F00001EE
:1011E0006051D92600016151DA22DE50DD10D8B4F9
:1011F00001D001D01CD06FC01BF0000120EE02F026
:1012000000016051D92600016151DA22DECF66F07B
:10121000DDCF67F001D80AD00500FA6E00016651F3
:10122000FD6E6751FE6EFF6AFA50120018D060C062
:10123000D9FF61C0DAFFDECF66F0DDCF67F066C0B0
:10124000D9FF67C0DAFF00016FC0DFFF60C0D9FFC0
:1012500061C0DAFFDE2A000EDD2201D000D00001DD
:1012600000016A0700016A29D8A401D001D08CD7F7
:1012700001D000D00001000162510001666F000141
:10128000000163510001676F0001624B632B66C070
:10129000F6FF67C0F7FF000EF86E08000001F5CFFB
:1012A0006FF000016F6701D001D086D501D000D06A
:1012B000000E00010001616F000E0001606F00D0A0
:1012C00012000701070E00010001716F0701000EF7
:1012D0000001706F0D0E00010001736FA10E00017F
:1012E000726F82C074F083C075F00D0E00010001B2
:1012F000776FAF0E0001766F00017DEC10F080C0BB
:1013000063F081C064F00701070E00010001666F01
:101310000701000E0001656F000188EC0DF000016F
:1013200063C09CF0000164C09DF09CC063F09DC050
:1013300064F00D0E00010001666FB00E0001656FD4
:10134000000188EC0DF0000163C09CF0000164C056
:101350009DF0000100019C4B9D2B000100019D515F
:101360009C11D8B401D001D01BD19CC063F09DC0AA
:1013700064F00D0E00010001666FAC0E0001656F98
:10138000000188EC0DF0000163C090F0000164C022
:1013900091F09CC01BF09DC01CF0E4EC10F000012B
:1013A0001BC088F000011CC089F0000100018A6B9D
:1013B00000018B6B90C01BF091C01CF0E4EC10F0AE
:1013C00000011BC08CF000011CC08DF00001000169
:1013D0008E6B00018F6B00018CC084F000018DC00A
:1013E00085F000018EC086F000018FC087F00001FB
:1013F000841F851F861F871F842B000E852386234D
:1014000087230001000188510001842500010001AB
:10141000946F000100018951000185210001956F41
:10142000000100018A51000186210001966F000130
:1014300000018B51000187210001976F000E000110
:101440000001996F000E0001986F21D0000100018A
:101450009851000100019C25D96E000100019951AD
:10146000000100019D21DA6E0501000E000100015E
:101470009825E16E0501050E000100019921E26E3B
:10148000DFCFE7FF00010001984B992B00D000014E
:1014900098C084F0000199C085F0000E000185BF5E
:1014A000FF0E866F876F0001000194510001845D7B
:1014B000000100019551000185590001000196517C
:1014C0000001865900010001975100018759D8A0F9
:1014D00001D001D0BBD700D00501000E00010001F2
:1014E0009425D96E0501050E000100019521DA6EE3
:1014F000000EDF6E000E00010001936F000E000170
:10150000926F050105010051220AD8A401D001D033
:1015100034D00501050E000100019B6F0501000E8E
:1015200000019A6F000100019A4B9B2B9AC01BF09F
:101530009BC01CF0E4EC10F0FF0E1B240001846F34
:10154000FF0E1C200001856F000184510001000185
:101550009A25D96E00018551000100019B21DA6EA8
:10156000000EDF6E9AC021F09BC022F0B6EC0BF0AB
:1015700021C092F022C093F00DD00501050E226E1D
:101580000501000E216EB6EC0BF021C092F022C0D6
:1015900093F000D092C080F093C081F009D008D0C1
:1015A0005D0E00010001816F770E0001806F00D099
:1015B0001200C7A601D001D015D0C7B401D001D008
:1015C00011D0C7BA01D001D00DD0C7A001D001D031
:1015D00009D0C9CF09F00A6AC688000E2C6E000E29
:1015E0002B6E00D0C7B601D001D004D0C7A801D05F
:1015F00001D03ED0C7B401D001D03AD0C7AA01D0A3
:1016000001D036D0C7A001D001D032D0C9CF0BF065
:101610000C6A0101000E2B24D96E0101010E2C2051
:10162000DA6E0BC0DFFF0101000E2B24D96E010121
:10163000010E2C20DA6EDF50D8A401D001D014D0D6
:101640003E503D10D8B401D001D00ED03DC005F0C1
:101650003EC006F00101010E086E0101000E076E8A
:10166000ECEC0DF001D000D02B4A2C2AC6887DD09E
:10167000C7A601D001D035D0C7A401D001D031D048
:10168000C7BA01D001D02DD03C503B10D8A401D016
:1016900001D01BD040503F10D8B401D001D00CD0A5
:1016A00001D809D00500FA6E3F50FD6E4050FE6E25
:1016B000FF6AFA50120000D0000E3C6E010E3B6E25
:1016C000000E2E6E000E2D6E00D00101000E2D2496
:1016D000D96E0101010E2E20DA6EDF50C96EC68868
:1016E00044D0C7A601D001D030D0C7A401D001D0CA
:1016F0002CD0C7AA01D001D028D0C7B001D001D0CA
:1017000024D0010E2D242D6E000E2E202E6E0101F0
:10171000000E2D24D96E0101010E2E20DA6EDF504D
:10172000C96E0101000E2D24D96E0101010E2E207B
:10173000DA6EDF50D8A401D001D005D0000E3C6E87
:10174000000E3B6E00D0C68810D0C7A601D001D0D5
:101750000CD0C7AA01D001D008D0C7B001D001D0A9
:1017600004D003D002D001D000D0120003D0214A0F
:10177000222A00D021C0D9FF22C0DAFFDF50200A80
:10178000D8B401D001D0F3D721C0D9FF22C0DAFFED
:10179000DF50090AD8B401D001D0E9D700D0000E3B
:1017A000286E000E276E236E000E266E23502D0E1F
:1017B00021C0D9FF22C0DAFFDF6201D001D004D0FE
:1017C000262A214A222A2DD02B0E21C0D9FF22C041
:1017D000DAFFDF6201D001D024D0214A222A21D0B1
:1017E00020D01FD027C01BF028C01CF0000E1E6E9A
:1017F0000A0E1D6EA3EC11F021C0D9FF22C0DAFF42
:10180000DF50236E23501B24246E000E1C20256EF7
:10181000D00E2424276EFF0E2520286E214A222A6E
:1018200000D021C0D9FF22C0DAFFDF501B6EC2EC0E
:1018300011F0D8B001D001D0D5D700D02650D8B4FF
:1018400001D001D00DD027C023F028C024F0231EE2
:10185000241E234A242A23C021F024C022F004D0CD
:1018600027C021F028C022F0120000010001BD5164
:10187000BC11D8B401D001D01FD0C8C01BF0C9C062
:101880001CF0BEC01DF0BFC01EF0A9EC0EF01C5035
:101890001B10D8A401D001D00FD001D80CD0050066
:1018A000FA6E00010001BC51FD6E0001BD51FE6EDB
:1018B000FF6AFA50120000D000010001C151C011AE
:1018C000D8B401D001D01FD0C8C01BF0C9C01CF0D3
:1018D000C2C01DF0C3C01EF0A9EC0EF01C501B10BE
:1018E000D8A401D001D00FD001D80CD00500FA6ED9
:1018F00000010001C051FD6E0001C151FE6EFF6A82
:10190000FA50120000D000010001C551C411D8B432
:1019100001D001D01FD0C8C01BF0C9C01CF0C6C088
:101920001DF0C7C01EF0A9EC0EF01C501B10D8A46F
:1019300001D001D00FD001D80CD00500FA6E000103
:101940000001C451FD6E0001C551FE6EFF6AFA50E0
:10195000120000D000010001C84BC92B1200325008
:101960003110D8B401D001D015D00201020E00010F
:101970000001CB6F0201640E0001CA6F01D809D0CB
:101980000500FA6E3150FD6E3250FE6EFF6AFA505D
:10199000120000D034503310D8B401D001D015D08B
:1019A0000301030E00010001CB6F0301000E0001D3
:1019B000CA6F01D809D00500FA6E3350FD6E34505D
:1019C000FE6EFF6AFA50120000D036503510D8B4BF
:1019D00001D001D015D00301030E00010001CB6F2F
:1019E0000301640E0001CA6F01D809D00500FA6E28
:1019F0003550FD6E3650FE6EFF6AFA50120000D070
:101A000038503710D8B401D001D015D00401040EDD
:101A100000010001CB6F0401000E0001CA6F01D864
:101A200009D00500FA6E3750FD6E3850FE6EFF6A21
:101A3000FA50120000D0ECEC11F0120058D021C086
:101A4000D9FF22C0DAFFDF50D8B401D001D01FD0B7
:101A500023C0F6FF24C0F7FF000EF86E0C0EF764EB
:101A600003D00800F55005D0F6CFE9FFF7CFEAFF25
:101A7000EF500001606F21C0D9FF22C0DAFFDF50B4
:101A800000016019D8B401D001D02CD000D023C0FF
:101A9000F6FF24C0F7FF000EF86E0C0EF76403D0BB
:101AA0000800F55005D0F6CFE9FFF7CFEAFFEF5079
:101AB0000001606F616B0001601F611F604B612B53
:101AC00021C0D9FF22C0DAFFDF500001626F0001A0
:101AD000625100016025216E000E00016121226E1D
:101AE00016D015D0214A222A234A242A00D02506BE
:101AF000D8A026062528D8B42628D8A401D001D0FD
:101B00009ED700D0000E226E000E216E00D0120073
:101B100047D063C021F064C022F065C023F066C0E6
:101B200024F065C01BF066C01CF0E4EC10F01BC094
:101B300025F01CC026F01EEC0DF022502110D8A478
:101B400001D001D005D063C063F064C064F043D01D
:101B5000010E0001000163251B6E000E0001000153
:101B600064211C6E000165C0F6FF000166C0F7FF2E
:101B7000000EF86E0C0EF76403D00800F55005D087
:101B8000F6CFE9FFF7CFEAFFEF50276E27501D6E23
:101B90001E6A64EC11F01BC063F01CC064F000D03E
:101BA0000001000164516311D8B401D001D00BD001
:101BB00063C0D9FF64C0DAFFDF50D8A401D001D0E0
:101BC000A8D701D000D0000E00010001646F000E04
:101BD0000001636F00D0120032503110D8A401D040
:101BE00001D011D00201020E026E0201640E016EDC
:101BF00007C003F008C004F094EC0FF005C031F00A
:101C000006C032F048D034503310D8A401D001D0EF
:101C100011D00301030E026E0301000E016E07C016
:101C200003F008C004F094EC0FF005C033F006C0D8
:101C300034F031D036503510D8A401D001D011D0B5
:101C40000301030E026E0301640E016E07C003F070
:101C500008C004F094EC0FF005C035F006C036F073
:101C60001AD038503710D8A401D001D014D00401B4
:101C7000040E026E0401000E016E07C003F008C0DE
:101C800004F094EC0FF005C037F006C038F003D034
:101C900002D001D000D01200456601D001D023D07F
:101CA000D58ED58CD59AD596D550F80B0209D56E20
:101CB000F28A000E00010001BD6F000E0001BC6F32
:101CC000000E00010001C16F000E0001C06F000E88
:101CD00000010001C56F000E0001C46F1F6E010EF0
:101CE000456E1F5000D000010001BD51BC11D8A4A9
:101CF00001D001D009D01DC0BCF01EC0BDF01BC07A
:101D0000BEF01CC0BFF024D000010001C151C011C1
:101D1000D8A401D001D009D01DC0C0F01EC0C1F0B0
:101D20001BC0C2F01CC0C3F013D000010001C5519C
:101D3000C411D8A401D001D00BD01DC0C4F01EC066
:101D4000C5F01BC0C6F01CC0C7F002D001D000D047
:101D500012001F6E000E216E1F501CAE01D001D06C
:101D600009D01B6C1C1ED8B01C2A1F6E010E216EE0
:101D70001F5000D01EAE01D001D005D01D6C1E1E1C
:101D8000D8B01E2A00D01E501D10D8B401D001D0EA
:101D900024D01F6E010E206E1F5005D0D8901D3626
:101DA0001E36202A00D01EAE01D001D0F7D701D0B8
:101DB00000D01D501B5C1E501C58D8A001D001D073
:101DC00005D01D501B5E1E501C5A00D0D8901E32EC
:101DD0001D32202EEED701D000D02150D8B401D032
:101DE00001D005D01B6C1C1ED8B01C2A00D01BC013
:101DF0001BF01CC01CF000D012000600EACF10F04F
:101E0000E1CF11F0E2CF12F0D9CF13F0DACF14F016
:101E1000F3CF15F0F4CF16F0F6CF17F0F7CF18F098
:101E2000F8CF19F0F5CF1AF09EA601D001D004D05A
:101E30009E96D9EC0AF000D0F2A401D001D004D0D3
:101E4000F29431EC12F000D09EAA01D001D003D060
:101E50000FEC10F000D09EA801D001D003D04FECC1
:101E60000FF000D01AC0F5FF19C0F8FF18C0F7FF37
:101E700017C0F6FF16C0F4FF15C0F3FF14C0DAFF59
:101E800013C0D9FF12C0E2FF11C0E1FF10C0EAFF8A
:101E90000FC0E9FF0EC0FBFF0DC0FAFF11003A5062
:101EA0003910D8B401D001D002D09D983CD00101A6
:101EB000640E4124D96E0101010E4220DA6EDF501A
:101EC000D8A401D001D00FD0000EAD6E000E426E2E
:101ED000000E416E000E446E000E436E000E3A6E10
:101EE000010E396E20D00101640E4124D96E01012A
:101EF000010E4220DA6E010EDF6201D001D005D062
:101F0000000EAD6E414A422A0ED00101640E4124FA
:101F1000D96E0101010E4220DA6EDF50AD6E414AEA
:101F2000422A01D000D0120004500310D8A401D0DE
:101F300001D01ED03AD039D01BD003C0F6FF04C068
:101F4000F7FF000EF86E01C0D9FF02C0DAFF0C0ED9
:101F5000F76403D00800F55005D0F6CFE9FFF7CFBE
:101F6000EAFFEF50DF6E014A022A034A042A00D03A
:101F700003C0F6FF04C0F7FF000EF86E0C0EF76406
:101F800003D00800F55005D0F6CFE9FFF7CFEAFF00
:101F9000EF500009D8A401D001D0CFD700D001C0A4
:101FA000D9FF02C0DAFF000EDF6E120007EE00F06C
:101FB000C80EEE6AE806FDE106EE00F0C80EEE6A15
:101FC000E806FDE105EE00F0C80EEE6AE806FDE168
:101FD00004EE00F0640EEE6AE806FDE103EE00F0A8
:101FE000C80EEE6AE806FDE102EE00F0C80EEE6AE9
:101FF000E806FDE101EE00F0C80EEE6AE806FDE13C
:1020000000EEA8F0240EEE6AE806FDE100EE29F0ED
:102010001D0EEE6AE806FDE10001DAEF11F0ABCF2C
:1020200009F0AECF0AF00A6601D001D023D0020138
:10203000000E2924D96E0201020E2A20DA6E000E4B
:10204000DF6E000E2A6E000E296E30502F10D8B4AD
:1020500001D001D01BD02FC005F030C006F0020126
:10206000020E086E0201000E076EECEC0DF00ED0B1
:102070000DD00CD00201000E2924D96E0201020EEF
:102080002A20DA6E0AC0DFFF294A2A2A1200000E2F
:10209000226E000E216E1E501D10D8B401D001D04A
:1020A00027D01F6E010E206E1F5005D0D8901D3610
:1020B0001E36202A00D01EAE01D001D0F7D701D0A5
:1020C00000D0D890213622361D501B5C1E501C5863
:1020D000D8A001D001D006D01D501B5E1E501C5A46
:1020E000218000D0D8901E321D32202EEAD700D099
:1020F00021C01BF022C01CF0120070C07CF071C027
:102100007DF0000E000100017F6F000E00017E6F68
:102110000001000E000100017B6F0001740E000140
:102120007A6F0001000E00010001616F00017C0E5A
:102130000001606F72C062F073C063F00001000EB6
:1021400000010001656F00017A0E0001646F00015B
:10215000DBEC06F07CC0D9FF7DC0DAFF000EDF6E3D
:1021600000D01200000E00010001A56F000E00015A
:10217000A46F240E00010001A76F780E0001A66F66
:102180000001000E00010001A36F0001A00E00017C
:10219000A26F0001000E00010001616F0001A40E9A
:1021A0000001606F9EC062F09FC063F00001000EEE
:1021B00000010001656F0001A20E0001646F0001C3
:1021C000DBEC06F000D012001BC01FF01CC020F09A
:1021D00003D01F4A202A00D01FC0F6FF20C0F7FFFF
:1021E000000EF86E0C0EF76403D00800F55005D011
:1021F000F6CFE9FFF7CFEAFFEF500009D8A401D0EE
:1022000001D0E7D700D01BC01DF01CC01EF01D1E62
:102210001E1E1D4A1E2A1F501D241B6E20501E20EC
:102220001C6E00D0120026502510D8B401D001D069
:1022300023D0276E010E286E275005D0D890253662
:102240002636282A00D026AE01D001D0F7D701D0FB
:1022500000D02550235C26502458D8A001D001D0AE
:1022600005D02550235E2650245A00D0D89026321F
:102270002532282EEED700D023C023F024C024F02E
:102280001200000E926E56EC12F0FDEC11F0000EF2
:102290001C6E1E0E1B6E240E1E6E4C0E1D6E4CEC24
:1022A0000EF0000E1C6E4F0E1B6E0CEC12F0230E87
:1022B0001C6E080E1B6E4CEC12F0240E1C6E8A0E67
:1022C0001B6E51EC12F012001D501BC0D9FF1CC038
:1022D000DAFFDF6201D001D005D01BC01BF01CC0AB
:1022E0001CF011D01BC0D9FF1CC0DAFF1B4A1C2AEE
:1022F000DF50D8A401D001D0E7D700D0000E1C6E6B
:10230000000E1B6E00D012000D0E000100019F6F29
:102310004D0E00019E6FCAC080F0CBC081F00D0E43
:1023200000010001836FB20E0001826F000161ECB9
:1023300009F0000180C0A0F0000181C0A1F00001FF
:10234000B2EC10F01200000E206E000E1F6E00D0D6
:102350001BA001D001D005D01D501F261E502022E9
:1023600000D0D8901D361E36D8901C321B321C501F
:102370001B10D8A401D001D0EBD71FC01BF020C088
:102380001CF012001C6E000E1D6E1C503A0E1B60DD
:1023900001D001D00AD02F0E1B6401D001D005D08E
:1023A0001C6E010E1D6E1C5000D01DC01CF01C3098
:1023B00000D01200D388D38AD38CECEC11F041EC1E
:1023C00011F0F28EF28C00D0AFEC0CF059EC12F060
:1023D000FBD7FAD70CEF00F0000E326E000E316E14
:1023E000000E346E000E336E000E366E000E356E2B
:1023F000000E386E000E376E1200AB8E948E948CE9
:10240000AC9CAC8AAC98AC86AB88AC84B896190E00
:10241000AF6E9D989D8A1200948694881B501B2451
:10242000C86EC690C682C684C686C580C68A9D868A
:1024300012000101010E026E0101000E016E05C0C5
:1024400003F006C004F094EC0FF012000D0E000132
:1024500000019F6F8C0E00019E6F0001B2EC10F026
:102460001200180E066E6A0E056E000E086E000E43
:10247000076EECEC0DF012001BC08AFF818E819E6E
:10248000170EE82EFED700F012000D0E066E0A0E93
:10249000056E19EC12F012001BC03DF01CC03EF09E
:1024A00012001BC03FF01CC040F01200000E936EE3
:0624B00012008974120005
:020000040020DA
:08000000FFFFFFFFFFFFFFFF00
:020000040030CA
:0E000000FF09191EFF8080FF0FC00FE00F40A8
:00000001FF
